{
  "contractName": "Medivault",
  "abi": [
    {
      "inputs": [],
      "stateMutability": "nonpayable",
      "type": "constructor"
    },
    {
      "inputs": [
        {
          "internalType": "uint256",
          "name": "",
          "type": "uint256"
        }
      ],
      "name": "adminAddresses",
      "outputs": [
        {
          "internalType": "address",
          "name": "",
          "type": "address"
        }
      ],
      "stateMutability": "view",
      "type": "function",
      "constant": true
    },
    {
      "inputs": [
        {
          "internalType": "address",
          "name": "",
          "type": "address"
        }
      ],
      "name": "admins",
      "outputs": [
        {
          "internalType": "string",
          "name": "institution_name",
          "type": "string"
        }
      ],
      "stateMutability": "view",
      "type": "function",
      "constant": true
    },
    {
      "inputs": [
        {
          "internalType": "uint256",
          "name": "",
          "type": "uint256"
        }
      ],
      "name": "doctorAddresses",
      "outputs": [
        {
          "internalType": "address",
          "name": "",
          "type": "address"
        }
      ],
      "stateMutability": "view",
      "type": "function",
      "constant": true
    },
    {
      "inputs": [
        {
          "internalType": "address",
          "name": "",
          "type": "address"
        }
      ],
      "name": "doctors",
      "outputs": [
        {
          "internalType": "string",
          "name": "name",
          "type": "string"
        },
        {
          "internalType": "string",
          "name": "specialization",
          "type": "string"
        },
        {
          "internalType": "address",
          "name": "institution",
          "type": "address"
        }
      ],
      "stateMutability": "view",
      "type": "function",
      "constant": true
    },
    {
      "inputs": [
        {
          "internalType": "uint256",
          "name": "",
          "type": "uint256"
        }
      ],
      "name": "patientAddresses",
      "outputs": [
        {
          "internalType": "address",
          "name": "",
          "type": "address"
        }
      ],
      "stateMutability": "view",
      "type": "function",
      "constant": true
    },
    {
      "inputs": [
        {
          "internalType": "address",
          "name": "",
          "type": "address"
        }
      ],
      "name": "patients",
      "outputs": [
        {
          "internalType": "string",
          "name": "name",
          "type": "string"
        },
        {
          "internalType": "uint256",
          "name": "age",
          "type": "uint256"
        },
        {
          "internalType": "string",
          "name": "gender",
          "type": "string"
        },
        {
          "internalType": "string",
          "name": "addr",
          "type": "string"
        },
        {
          "internalType": "string",
          "name": "contact",
          "type": "string"
        },
        {
          "internalType": "address",
          "name": "institution",
          "type": "address"
        }
      ],
      "stateMutability": "view",
      "type": "function",
      "constant": true
    },
    {
      "inputs": [
        {
          "internalType": "uint256",
          "name": "",
          "type": "uint256"
        }
      ],
      "name": "recordHashes",
      "outputs": [
        {
          "internalType": "bytes32",
          "name": "",
          "type": "bytes32"
        }
      ],
      "stateMutability": "view",
      "type": "function",
      "constant": true
    },
    {
      "inputs": [
        {
          "internalType": "bytes32",
          "name": "",
          "type": "bytes32"
        }
      ],
      "name": "records",
      "outputs": [
        {
          "internalType": "address",
          "name": "doctor",
          "type": "address"
        },
        {
          "internalType": "address",
          "name": "patient",
          "type": "address"
        },
        {
          "internalType": "string",
          "name": "record_title",
          "type": "string"
        },
        {
          "internalType": "string",
          "name": "record_desc",
          "type": "string"
        },
        {
          "internalType": "string",
          "name": "record_data",
          "type": "string"
        }
      ],
      "stateMutability": "view",
      "type": "function",
      "constant": true
    },
    {
      "inputs": [
        {
          "internalType": "uint256",
          "name": "",
          "type": "uint256"
        }
      ],
      "name": "superAdminAddresses",
      "outputs": [
        {
          "internalType": "address",
          "name": "",
          "type": "address"
        }
      ],
      "stateMutability": "view",
      "type": "function",
      "constant": true
    },
    {
      "inputs": [
        {
          "internalType": "address",
          "name": "",
          "type": "address"
        }
      ],
      "name": "superAdmins",
      "outputs": [
        {
          "internalType": "string",
          "name": "name",
          "type": "string"
        }
      ],
      "stateMutability": "view",
      "type": "function",
      "constant": true
    },
    {
      "inputs": [
        {
          "internalType": "address",
          "name": "pubkey",
          "type": "address"
        }
      ],
      "name": "checkSuperAdmin",
      "outputs": [
        {
          "internalType": "bool",
          "name": "",
          "type": "bool"
        }
      ],
      "stateMutability": "view",
      "type": "function",
      "constant": true
    },
    {
      "inputs": [
        {
          "internalType": "string",
          "name": "name",
          "type": "string"
        }
      ],
      "name": "editSuperAdmin",
      "outputs": [],
      "stateMutability": "nonpayable",
      "type": "function"
    },
    {
      "inputs": [
        {
          "internalType": "address",
          "name": "_address",
          "type": "address"
        },
        {
          "internalType": "string",
          "name": "_name",
          "type": "string"
        }
      ],
      "name": "addSuperAdmin",
      "outputs": [],
      "stateMutability": "nonpayable",
      "type": "function"
    },
    {
      "inputs": [],
      "name": "getAllSuperAdmins",
      "outputs": [
        {
          "internalType": "address[]",
          "name": "",
          "type": "address[]"
        }
      ],
      "stateMutability": "view",
      "type": "function",
      "constant": true
    },
    {
      "inputs": [],
      "name": "fetchNames",
      "outputs": [
        {
          "internalType": "string[]",
          "name": "",
          "type": "string[]"
        }
      ],
      "stateMutability": "view",
      "type": "function",
      "constant": true
    },
    {
      "inputs": [
        {
          "internalType": "address",
          "name": "_address",
          "type": "address"
        }
      ],
      "name": "fetchSuperadmin",
      "outputs": [
        {
          "components": [
            {
              "internalType": "string",
              "name": "name",
              "type": "string"
            }
          ],
          "internalType": "struct Medivault.SuperAdmin",
          "name": "",
          "type": "tuple"
        }
      ],
      "stateMutability": "view",
      "type": "function",
      "constant": true
    },
    {
      "inputs": [
        {
          "internalType": "string",
          "name": "institution_name",
          "type": "string"
        },
        {
          "internalType": "address",
          "name": "_address",
          "type": "address"
        }
      ],
      "name": "addAdmin",
      "outputs": [],
      "stateMutability": "nonpayable",
      "type": "function"
    },
    {
      "inputs": [],
      "name": "fetchAdminsAddresses",
      "outputs": [
        {
          "internalType": "address[]",
          "name": "",
          "type": "address[]"
        }
      ],
      "stateMutability": "view",
      "type": "function",
      "constant": true
    },
    {
      "inputs": [],
      "name": "fetchAdmins",
      "outputs": [
        {
          "components": [
            {
              "internalType": "string",
              "name": "institution_name",
              "type": "string"
            }
          ],
          "internalType": "struct Medivault.Admin[]",
          "name": "",
          "type": "tuple[]"
        }
      ],
      "stateMutability": "view",
      "type": "function",
      "constant": true
    },
    {
      "inputs": [
        {
          "internalType": "address",
          "name": "_address",
          "type": "address"
        }
      ],
      "name": "deleteAdmin",
      "outputs": [
        {
          "internalType": "bool",
          "name": "",
          "type": "bool"
        }
      ],
      "stateMutability": "nonpayable",
      "type": "function"
    },
    {
      "inputs": [
        {
          "internalType": "address",
          "name": "pubkey",
          "type": "address"
        }
      ],
      "name": "checkAdmin",
      "outputs": [
        {
          "internalType": "bool",
          "name": "",
          "type": "bool"
        }
      ],
      "stateMutability": "view",
      "type": "function",
      "constant": true
    },
    {
      "inputs": [
        {
          "internalType": "address",
          "name": "pubkey",
          "type": "address"
        }
      ],
      "name": "fetchAdmin",
      "outputs": [
        {
          "components": [
            {
              "internalType": "string",
              "name": "institution_name",
              "type": "string"
            }
          ],
          "internalType": "struct Medivault.Admin",
          "name": "",
          "type": "tuple"
        }
      ],
      "stateMutability": "view",
      "type": "function",
      "constant": true
    },
    {
      "inputs": [
        {
          "internalType": "address",
          "name": "pubkey",
          "type": "address"
        },
        {
          "internalType": "string",
          "name": "institution_name",
          "type": "string"
        }
      ],
      "name": "editAdmin",
      "outputs": [
        {
          "internalType": "bool",
          "name": "",
          "type": "bool"
        }
      ],
      "stateMutability": "nonpayable",
      "type": "function"
    },
    {
      "inputs": [
        {
          "internalType": "string",
          "name": "name",
          "type": "string"
        },
        {
          "internalType": "string",
          "name": "specialization",
          "type": "string"
        },
        {
          "internalType": "address",
          "name": "pubkey",
          "type": "address"
        }
      ],
      "name": "addDoctor",
      "outputs": [
        {
          "internalType": "bool",
          "name": "",
          "type": "bool"
        }
      ],
      "stateMutability": "nonpayable",
      "type": "function"
    },
    {
      "inputs": [
        {
          "internalType": "address",
          "name": "pubkey",
          "type": "address"
        }
      ],
      "name": "deleteDoctor",
      "outputs": [
        {
          "internalType": "bool",
          "name": "",
          "type": "bool"
        }
      ],
      "stateMutability": "nonpayable",
      "type": "function"
    },
    {
      "inputs": [],
      "name": "fetchDoctors",
      "outputs": [
        {
          "components": [
            {
              "internalType": "string",
              "name": "name",
              "type": "string"
            },
            {
              "internalType": "string",
              "name": "specialization",
              "type": "string"
            },
            {
              "internalType": "address",
              "name": "institution",
              "type": "address"
            }
          ],
          "internalType": "struct Medivault.Doctor[]",
          "name": "",
          "type": "tuple[]"
        }
      ],
      "stateMutability": "view",
      "type": "function",
      "constant": true
    },
    {
      "inputs": [],
      "name": "fetchDoctorAddresses",
      "outputs": [
        {
          "internalType": "address[]",
          "name": "",
          "type": "address[]"
        }
      ],
      "stateMutability": "view",
      "type": "function",
      "constant": true
    },
    {
      "inputs": [
        {
          "internalType": "address",
          "name": "pubkey",
          "type": "address"
        }
      ],
      "name": "checkDoctor",
      "outputs": [
        {
          "internalType": "bool",
          "name": "",
          "type": "bool"
        }
      ],
      "stateMutability": "view",
      "type": "function",
      "constant": true
    },
    {
      "inputs": [
        {
          "internalType": "address",
          "name": "pubkey",
          "type": "address"
        }
      ],
      "name": "fetchDoctor",
      "outputs": [
        {
          "components": [
            {
              "internalType": "string",
              "name": "name",
              "type": "string"
            },
            {
              "internalType": "string",
              "name": "specialization",
              "type": "string"
            },
            {
              "internalType": "address",
              "name": "institution",
              "type": "address"
            }
          ],
          "internalType": "struct Medivault.Doctor",
          "name": "",
          "type": "tuple"
        }
      ],
      "stateMutability": "view",
      "type": "function",
      "constant": true
    },
    {
      "inputs": [
        {
          "internalType": "string",
          "name": "name",
          "type": "string"
        },
        {
          "internalType": "uint256",
          "name": "age",
          "type": "uint256"
        },
        {
          "internalType": "string",
          "name": "gender",
          "type": "string"
        },
        {
          "internalType": "string",
          "name": "addr",
          "type": "string"
        },
        {
          "internalType": "string",
          "name": "contact",
          "type": "string"
        },
        {
          "internalType": "address",
          "name": "institution",
          "type": "address"
        },
        {
          "internalType": "address",
          "name": "pubkey",
          "type": "address"
        }
      ],
      "name": "addPatient",
      "outputs": [
        {
          "internalType": "bool",
          "name": "",
          "type": "bool"
        }
      ],
      "stateMutability": "nonpayable",
      "type": "function"
    },
    {
      "inputs": [
        {
          "internalType": "address",
          "name": "pubkey",
          "type": "address"
        }
      ],
      "name": "deletePatient",
      "outputs": [
        {
          "internalType": "bool",
          "name": "",
          "type": "bool"
        }
      ],
      "stateMutability": "nonpayable",
      "type": "function"
    },
    {
      "inputs": [
        {
          "internalType": "address",
          "name": "patient",
          "type": "address"
        },
        {
          "internalType": "string",
          "name": "record_title",
          "type": "string"
        },
        {
          "internalType": "string",
          "name": "record_desc",
          "type": "string"
        },
        {
          "internalType": "string",
          "name": "record_data",
          "type": "string"
        }
      ],
      "name": "createRecord",
      "outputs": [
        {
          "internalType": "bool",
          "name": "",
          "type": "bool"
        }
      ],
      "stateMutability": "nonpayable",
      "type": "function"
    },
    {
      "inputs": [
        {
          "internalType": "bytes32",
          "name": "record_hash",
          "type": "bytes32"
        }
      ],
      "name": "getRecord",
      "outputs": [
        {
          "components": [
            {
              "internalType": "address",
              "name": "doctor",
              "type": "address"
            },
            {
              "internalType": "address",
              "name": "patient",
              "type": "address"
            },
            {
              "internalType": "address[]",
              "name": "read_allowed_doctors",
              "type": "address[]"
            },
            {
              "internalType": "address[]",
              "name": "write_allowed_doctors",
              "type": "address[]"
            },
            {
              "internalType": "string",
              "name": "record_title",
              "type": "string"
            },
            {
              "internalType": "string",
              "name": "record_desc",
              "type": "string"
            },
            {
              "internalType": "string",
              "name": "record_data",
              "type": "string"
            }
          ],
          "internalType": "struct Medivault.Record",
          "name": "",
          "type": "tuple"
        }
      ],
      "stateMutability": "view",
      "type": "function",
      "constant": true
    },
    {
      "inputs": [
        {
          "internalType": "bytes32",
          "name": "record_hash",
          "type": "bytes32"
        }
      ],
      "name": "checkReadAccess",
      "outputs": [
        {
          "internalType": "bool",
          "name": "",
          "type": "bool"
        }
      ],
      "stateMutability": "view",
      "type": "function",
      "constant": true
    },
    {
      "inputs": [
        {
          "internalType": "bytes32",
          "name": "record_hash",
          "type": "bytes32"
        }
      ],
      "name": "checkWriteAccess",
      "outputs": [
        {
          "internalType": "bool",
          "name": "",
          "type": "bool"
        }
      ],
      "stateMutability": "view",
      "type": "function",
      "constant": true
    },
    {
      "inputs": [
        {
          "internalType": "bytes32",
          "name": "record_hash",
          "type": "bytes32"
        },
        {
          "internalType": "string",
          "name": "record_title",
          "type": "string"
        },
        {
          "internalType": "string",
          "name": "record_desc",
          "type": "string"
        },
        {
          "internalType": "string",
          "name": "record_data",
          "type": "string"
        }
      ],
      "name": "editRecord",
      "outputs": [
        {
          "internalType": "bool",
          "name": "",
          "type": "bool"
        }
      ],
      "stateMutability": "nonpayable",
      "type": "function"
    },
    {
      "inputs": [
        {
          "internalType": "address",
          "name": "pubkey",
          "type": "address"
        }
      ],
      "name": "checkPatient",
      "outputs": [
        {
          "internalType": "bool",
          "name": "",
          "type": "bool"
        }
      ],
      "stateMutability": "view",
      "type": "function",
      "constant": true
    },
    {
      "inputs": [
        {
          "internalType": "bytes32",
          "name": "record_hash",
          "type": "bytes32"
        }
      ],
      "name": "checkRecord",
      "outputs": [
        {
          "internalType": "bool",
          "name": "",
          "type": "bool"
        }
      ],
      "stateMutability": "view",
      "type": "function",
      "constant": true
    }
  ],
  "bytecode": "0x60806040523480156200001157600080fd5b506001339080600181540180825580915050600190039060005260206000200160009091909190916101000a81548173ffffffffffffffffffffffffffffffffffffffff021916908373ffffffffffffffffffffffffffffffffffffffff16021790555060405180602001604052806040518060400160405280600b81526020017f53757065722061646d696e0000000000000000000000000000000000000000008152508152506000803373ffffffffffffffffffffffffffffffffffffffff1673ffffffffffffffffffffffffffffffffffffffff1681526020019081526020016000206000820151816000019080519060200190620001159291906200011f565b5090505062000233565b8280546200012d90620001fe565b90600052602060002090601f0160209004810192826200015157600085556200019d565b82601f106200016c57805160ff19168380011785556200019d565b828001600101855582156200019d579182015b828111156200019c5782518255916020019190600101906200017f565b5b509050620001ac9190620001b0565b5090565b5b80821115620001cb576000816000905550600101620001b1565b5090565b7f4e487b7100000000000000000000000000000000000000000000000000000000600052602260045260246000fd5b600060028204905060018216806200021757607f821691505b6020821081036200022d576200022c620001cf565b5b50919050565b6156f080620002436000396000f3fe608060405234801561001057600080fd5b50600436106102325760003560e01c80637f44782b11610130578063ad25cb42116100b8578063f0eb03441161007c578063f0eb034414610802578063f126e2da14610820578063f56fecef1461083c578063fb50b2361461085a578063fbad73f21461088a57610232565b8063ad25cb4214610736578063b40f169114610766578063ba44eecf14610796578063cbf007f3146107c6578063d15262a6146107e457610232565b80639569afce116100ff5780639569afce1461066a5780639bc197e214610688578063a1d658b1146106b8578063a9583c22146106e8578063ab05bae61461071a57610232565b80637f44782b146105aa57806388f50b41146105da5780638f2448c91461060a5780639026dee81461063a57610232565b80632f3f6be2116101be5780636529c777116101825780636529c777146104ba578063717a4091146104ea57806376017e5e1461051a57806376b034791461054a578063793de5f01461057a57610232565b80632f3f6be2146103ca5780633b1693b6146103fa5780633ba51e7c1461042a578063429b62e51461045a5780636001f1d11461048a57610232565b8063088051291161020557806308805129146102ec5780630b2255f71461031c5780631bd79fc21461034c578063213681cd1461036a57806327e1f7df1461039a57610232565b806301e647251461023757806302513ed21461026b5780630831b05f1461029b5780630869cfbc146102b7575b600080fd5b610251600480360381019061024c91906143e5565b6108ba565b6040516102629594939291906144ec565b60405180910390f35b61028560048036038101906102809190614580565b610ac8565b60405161029291906145c8565b60405180910390f35b6102b560048036038101906102b09190614648565b610d38565b005b6102d160048036038101906102cc9190614580565b610e52565b6040516102e3969594939291906146c1565b60405180910390f35b610306600480360381019061030191906143e5565b6110ce565b60405161031391906145c8565b60405180910390f35b6103366004803603810190610331919061473e565b6110fc565b60405161034391906145c8565b60405180910390f35b6103546116ed565b6040516103619190614913565b60405180910390f35b610384600480360381019061037f91906143e5565b611897565b6040516103919190614aab565b60405180910390f35b6103b460048036038101906103af9190614580565b611c42565b6040516103c191906145c8565b60405180910390f35b6103e460048036038101906103df9190614580565b611e32565b6040516103f19190614af7565b60405180910390f35b610414600480360381019061040f9190614580565b611f64565b60405161042191906145c8565b60405180910390f35b610444600480360381019061043f9190614b45565b612188565b6040516104519190614b72565b60405180910390f35b610474600480360381019061046f9190614580565b6121c7565b6040516104819190614b8d565b60405180910390f35b6104a4600480360381019061049f9190614580565b61226d565b6040516104b19190614bd9565b60405180910390f35b6104d460048036038101906104cf9190614580565b612358565b6040516104e191906145c8565b60405180910390f35b61050460048036038101906104ff9190614d2b565b6123b2565b60405161051191906145c8565b60405180910390f35b610534600480360381019061052f9190614d87565b612415565b60405161054191906145c8565b60405180910390f35b610564600480360381019061055f9190614b45565b612603565b6040516105719190614e2b565b60405180910390f35b610594600480360381019061058f9190614580565b612627565b6040516105a191906145c8565b60405180910390f35b6105c460048036038101906105bf9190614580565b612681565b6040516105d19190614e9d565b60405180910390f35b6105f460048036038101906105ef91906143e5565b612854565b60405161060191906145c8565b60405180910390f35b610624600480360381019061061f9190614b45565b612c80565b6040516106319190614b72565b60405180910390f35b610654600480360381019061064f9190614580565b612cbf565b60405161066191906145c8565b60405180910390f35b610672612d19565b60405161067f9190614f2e565b60405180910390f35b6106a2600480360381019061069d9190614f50565b612da7565b6040516106af91906145c8565b60405180910390f35b6106d260048036038101906106cd9190614580565b61307f565b6040516106df91906145c8565b60405180910390f35b61070260048036038101906106fd9190614580565b6130d8565b60405161071193929190615019565b60405180910390f35b610734600480360381019061072f9190614d2b565b613232565b005b610750600480360381019061074b9190614580565b613306565b60405161075d9190614b8d565b60405180910390f35b610780600480360381019061077b9190614b45565b6133ac565b60405161078d9190614b72565b60405180910390f35b6107b060048036038101906107ab9190614b45565b6133eb565b6040516107bd9190614b72565b60405180910390f35b6107ce61342a565b6040516107db9190615177565b60405180910390f35b6107ec6136d4565b6040516107f99190615285565b60405180910390f35b61080a613896565b6040516108179190614f2e565b60405180910390f35b61083a600480360381019061083591906152a7565b613924565b005b61084461397d565b6040516108519190614f2e565b60405180910390f35b610874600480360381019061086f91906143e5565b613a0b565b60405161088191906145c8565b60405180910390f35b6108a4600480360381019061089f91906152f0565b613e37565b6040516108b191906145c8565b60405180910390f35b60086020528060005260406000206000915090508060000160009054906101000a900473ffffffffffffffffffffffffffffffffffffffff16908060010160009054906101000a900473ffffffffffffffffffffffffffffffffffffffff169080600401805461092990615443565b80601f016020809104026020016040519081016040528092919081815260200182805461095590615443565b80156109a25780601f10610977576101008083540402835291602001916109a2565b820191906000526020600020905b81548152906001019060200180831161098557829003601f168201915b5050505050908060050180546109b790615443565b80601f01602080910402602001604051908101604052809291908181526020018280546109e390615443565b8015610a305780601f10610a0557610100808354040283529160200191610a30565b820191906000526020600020905b815481529060010190602001808311610a1357829003601f168201915b505050505090806006018054610a4590615443565b80601f0160208091040260200160405190810160405280929190818152602001828054610a7190615443565b8015610abe5780601f10610a9357610100808354040283529160200191610abe565b820191906000526020600020905b815481529060010190602001808311610aa157829003601f168201915b5050505050905085565b6000610ad382612cbf565b610ae05760009050610d33565b60005b600780549050811015610c6c578273ffffffffffffffffffffffffffffffffffffffff1660078281548110610b1b57610b1a615474565b5b9060005260206000200160009054906101000a900473ffffffffffffffffffffffffffffffffffffffff1673ffffffffffffffffffffffffffffffffffffffff1603610c595760076001600780549050610b7591906154d2565b81548110610b8657610b85615474565b5b9060005260206000200160009054906101000a900473ffffffffffffffffffffffffffffffffffffffff1660078281548110610bc557610bc4615474565b5b9060005260206000200160006101000a81548173ffffffffffffffffffffffffffffffffffffffff021916908373ffffffffffffffffffffffffffffffffffffffff1602179055506007805480610c1f57610c1e615506565b5b6001900381819060005260206000200160006101000a81549073ffffffffffffffffffffffffffffffffffffffff02191690559055610c6c565b8080610c6490615535565b915050610ae3565b50600660008373ffffffffffffffffffffffffffffffffffffffff1673ffffffffffffffffffffffffffffffffffffffff16815260200190815260200160002060008082016000610cbd9190614147565b6001820160009055600282016000610cd59190614147565b600382016000610ce59190614147565b600482016000610cf59190614147565b6005820160006101000a81549073ffffffffffffffffffffffffffffffffffffffff0219169055600682016000610d2c9190614187565b5050600190505b919050565b6003819080600181540180825580915050600190039060005260206000200160009091909190916101000a81548173ffffffffffffffffffffffffffffffffffffffff021916908373ffffffffffffffffffffffffffffffffffffffff160217905550604051806020016040528084848080601f016020809104026020016040519081016040528093929190818152602001838380828437600081840152601f19601f82011690508083019250505050505050815250600260008373ffffffffffffffffffffffffffffffffffffffff1673ffffffffffffffffffffffffffffffffffffffff1681526020019081526020016000206000820151816000019080519060200190610e499291906141a8565b50905050505050565b6006602052806000526040600020600091509050806000018054610e7590615443565b80601f0160208091040260200160405190810160405280929190818152602001828054610ea190615443565b8015610eee5780601f10610ec357610100808354040283529160200191610eee565b820191906000526020600020905b815481529060010190602001808311610ed157829003601f168201915b505050505090806001015490806002018054610f0990615443565b80601f0160208091040260200160405190810160405280929190818152602001828054610f3590615443565b8015610f825780601f10610f5757610100808354040283529160200191610f82565b820191906000526020600020905b815481529060010190602001808311610f6557829003601f168201915b505050505090806003018054610f9790615443565b80601f0160208091040260200160405190810160405280929190818152602001828054610fc390615443565b80156110105780601f10610fe557610100808354040283529160200191611010565b820191906000526020600020905b815481529060010190602001808311610ff357829003601f168201915b50505050509080600401805461102590615443565b80601f016020809104026020016040519081016040528092919081815260200182805461105190615443565b801561109e5780601f106110735761010080835404028352916020019161109e565b820191906000526020600020905b81548152906001019060200180831161108157829003601f168201915b5050505050908060050160009054906101000a900473ffffffffffffffffffffffffffffffffffffffff16905086565b6000806008600084815260200190815260200160002060040180546110f290615443565b9050119050919050565b600080600860008a81526020019081526020016000206040518060e00160405290816000820160009054906101000a900473ffffffffffffffffffffffffffffffffffffffff1673ffffffffffffffffffffffffffffffffffffffff1673ffffffffffffffffffffffffffffffffffffffff1681526020016001820160009054906101000a900473ffffffffffffffffffffffffffffffffffffffff1673ffffffffffffffffffffffffffffffffffffffff1673ffffffffffffffffffffffffffffffffffffffff1681526020016002820180548060200260200160405190810160405280929190818152602001828054801561124e57602002820191906000526020600020905b8160009054906101000a900473ffffffffffffffffffffffffffffffffffffffff1673ffffffffffffffffffffffffffffffffffffffff1681526020019060010190808311611204575b50505050508152602001600382018054806020026020016040519081016040528092919081815260200182805480156112dc57602002820191906000526020600020905b8160009054906101000a900473ffffffffffffffffffffffffffffffffffffffff1673ffffffffffffffffffffffffffffffffffffffff1681526020019060010190808311611292575b505050505081526020016004820180546112f590615443565b80601f016020809104026020016040519081016040528092919081815260200182805461132190615443565b801561136e5780601f106113435761010080835404028352916020019161136e565b820191906000526020600020905b81548152906001019060200180831161135157829003601f168201915b5050505050815260200160058201805461138790615443565b80601f01602080910402602001604051908101604052809291908181526020018280546113b390615443565b80156114005780601f106113d557610100808354040283529160200191611400565b820191906000526020600020905b8154815290600101906020018083116113e357829003601f168201915b5050505050815260200160068201805461141990615443565b80601f016020809104026020016040519081016040528092919081815260200182805461144590615443565b80156114925780601f1061146757610100808354040283529160200191611492565b820191906000526020600020905b81548152906001019060200180831161147557829003601f168201915b5050505050815250509050600015156114ae8260000151612627565b1515036114bf5760009150506116e2565b87878080601f016020809104026020016040519081016040528093929190818152602001838380828437600081840152601f19601f82011690508083019250505050505050816080018190525085858080601f016020809104026020016040519081016040528093929190818152602001838380828437600081840152601f19601f820116905080830192505050505050508160a0018190525083838080601f016020809104026020016040519081016040528093929190818152602001838380828437600081840152601f19601f820116905080830192505050505050508160c0018190525080600860008b815260200190815260200160002060008201518160000160006101000a81548173ffffffffffffffffffffffffffffffffffffffff021916908373ffffffffffffffffffffffffffffffffffffffff16021790555060208201518160010160006101000a81548173ffffffffffffffffffffffffffffffffffffffff021916908373ffffffffffffffffffffffffffffffffffffffff160217905550604082015181600201908051906020019061166492919061422e565b50606082015181600301908051906020019061168192919061422e565b50608082015181600401908051906020019061169e9291906141a8565b5060a08201518160050190805190602001906116bb9291906141a8565b5060c08201518160060190805190602001906116d89291906141a8565b5090505060019150505b979650505050505050565b6060600060018054905067ffffffffffffffff8111156117105761170f614c00565b5b60405190808252806020026020018201604052801561174357816020015b606081526020019060019003908161172e5790505b50905060005b60018054905081101561188f576000806001838154811061176d5761176c615474565b5b9060005260206000200160009054906101000a900473ffffffffffffffffffffffffffffffffffffffff1673ffffffffffffffffffffffffffffffffffffffff1673ffffffffffffffffffffffffffffffffffffffff16815260200190815260200160002060000180546117e090615443565b80601f016020809104026020016040519081016040528092919081815260200182805461180c90615443565b80156118595780601f1061182e57610100808354040283529160200191611859565b820191906000526020600020905b81548152906001019060200180831161183c57829003601f168201915b505050505082828151811061187157611870615474565b5b6020026020010181905250808061188790615535565b915050611749565b508091505090565b61189f6142b8565b600860008381526020019081526020016000206040518060e00160405290816000820160009054906101000a900473ffffffffffffffffffffffffffffffffffffffff1673ffffffffffffffffffffffffffffffffffffffff1673ffffffffffffffffffffffffffffffffffffffff1681526020016001820160009054906101000a900473ffffffffffffffffffffffffffffffffffffffff1673ffffffffffffffffffffffffffffffffffffffff1673ffffffffffffffffffffffffffffffffffffffff168152602001600282018054806020026020016040519081016040528092919081815260200182805480156119ee57602002820191906000526020600020905b8160009054906101000a900473ffffffffffffffffffffffffffffffffffffffff1673ffffffffffffffffffffffffffffffffffffffff16815260200190600101908083116119a4575b5050505050815260200160038201805480602002602001604051908101604052809291908181526020018280548015611a7c57602002820191906000526020600020905b8160009054906101000a900473ffffffffffffffffffffffffffffffffffffffff1673ffffffffffffffffffffffffffffffffffffffff1681526020019060010190808311611a32575b50505050508152602001600482018054611a9590615443565b80601f0160208091040260200160405190810160405280929190818152602001828054611ac190615443565b8015611b0e5780601f10611ae357610100808354040283529160200191611b0e565b820191906000526020600020905b815481529060010190602001808311611af157829003601f168201915b50505050508152602001600582018054611b2790615443565b80601f0160208091040260200160405190810160405280929190818152602001828054611b5390615443565b8015611ba05780601f10611b7557610100808354040283529160200191611ba0565b820191906000526020600020905b815481529060010190602001808311611b8357829003601f168201915b50505050508152602001600682018054611bb990615443565b80601f0160208091040260200160405190810160405280929190818152602001828054611be590615443565b8015611c325780601f10611c0757610100808354040283529160200191611c32565b820191906000526020600020905b815481529060010190602001808311611c1557829003601f168201915b5050505050815250509050919050565b6000600260008373ffffffffffffffffffffffffffffffffffffffff1673ffffffffffffffffffffffffffffffffffffffff16815260200190815260200160002060008082016000611c949190614147565b505060005b600380549050811015611e27578273ffffffffffffffffffffffffffffffffffffffff1660038281548110611cd157611cd0615474565b5b9060005260206000200160009054906101000a900473ffffffffffffffffffffffffffffffffffffffff1673ffffffffffffffffffffffffffffffffffffffff1603611e145760036001600380549050611d2b91906154d2565b81548110611d3c57611d3b615474565b5b9060005260206000200160009054906101000a900473ffffffffffffffffffffffffffffffffffffffff1660038281548110611d7b57611d7a615474565b5b9060005260206000200160006101000a81548173ffffffffffffffffffffffffffffffffffffffff021916908373ffffffffffffffffffffffffffffffffffffffff1602179055506003805480611dd557611dd4615506565b5b6001900381819060005260206000200160006101000a81549073ffffffffffffffffffffffffffffffffffffffff021916905590556001915050611e2d565b8080611e1f90615535565b915050611c99565b50600090505b919050565b611e3a614321565b611e433361307f565b611e82576040517f08c379a0000000000000000000000000000000000000000000000000000000008152600401611e79906155c9565b60405180910390fd5b6000808373ffffffffffffffffffffffffffffffffffffffff1673ffffffffffffffffffffffffffffffffffffffff168152602001908152602001600020604051806020016040529081600082018054611edb90615443565b80601f0160208091040260200160405190810160405280929190818152602001828054611f0790615443565b8015611f545780601f10611f2957610100808354040283529160200191611f54565b820191906000526020600020905b815481529060010190602001808311611f3757829003601f168201915b5050505050815250509050919050565b600080600090505b6005805490508110156120f5578273ffffffffffffffffffffffffffffffffffffffff1660058281548110611fa457611fa3615474565b5b9060005260206000200160009054906101000a900473ffffffffffffffffffffffffffffffffffffffff1673ffffffffffffffffffffffffffffffffffffffff16036120e25760056001600580549050611ffe91906154d2565b8154811061200f5761200e615474565b5b9060005260206000200160009054906101000a900473ffffffffffffffffffffffffffffffffffffffff166005828154811061204e5761204d615474565b5b9060005260206000200160006101000a81548173ffffffffffffffffffffffffffffffffffffffff021916908373ffffffffffffffffffffffffffffffffffffffff16021790555060058054806120a8576120a7615506565b5b6001900381819060005260206000200160006101000a81549073ffffffffffffffffffffffffffffffffffffffff021916905590556120f5565b80806120ed90615535565b915050611f6c565b50600460008373ffffffffffffffffffffffffffffffffffffffff1673ffffffffffffffffffffffffffffffffffffffff168152602001908152602001600020600080820160006121469190614147565b6001820160006121569190614147565b6002820160006101000a81549073ffffffffffffffffffffffffffffffffffffffff0219169055505060019050919050565b6005818154811061219857600080fd5b906000526020600020016000915054906101000a900473ffffffffffffffffffffffffffffffffffffffff1681565b60026020528060005260406000206000915090508060000180546121ea90615443565b80601f016020809104026020016040519081016040528092919081815260200182805461221690615443565b80156122635780601f1061223857610100808354040283529160200191612263565b820191906000526020600020905b81548152906001019060200180831161224657829003601f168201915b5050505050905081565b612275614334565b600260008373ffffffffffffffffffffffffffffffffffffffff1673ffffffffffffffffffffffffffffffffffffffff1681526020019081526020016000206040518060200160405290816000820180546122cf90615443565b80601f01602080910402602001604051908101604052809291908181526020018280546122fb90615443565b80156123485780601f1061231d57610100808354040283529160200191612348565b820191906000526020600020905b81548152906001019060200180831161232b57829003601f168201915b5050505050815250509050919050565b600080600660008473ffffffffffffffffffffffffffffffffffffffff1673ffffffffffffffffffffffffffffffffffffffff16815260200190815260200160002060000180546123a890615443565b9050119050919050565b600081600260008573ffffffffffffffffffffffffffffffffffffffff1673ffffffffffffffffffffffffffffffffffffffff168152602001908152602001600020600001908051906020019061240a9291906141a8565b506001905092915050565b6000604051806060016040528087878080601f016020809104026020016040519081016040528093929190818152602001838380828437600081840152601f19601f82011690508083019250505050505050815260200185858080601f016020809104026020016040519081016040528093929190818152602001838380828437600081840152601f19601f8201169050808301925050505050505081526020013373ffffffffffffffffffffffffffffffffffffffff16815250600460008473ffffffffffffffffffffffffffffffffffffffff1673ffffffffffffffffffffffffffffffffffffffff168152602001908152602001600020600082015181600001908051906020019061252b9291906141a8565b5060208201518160010190805190602001906125489291906141a8565b5060408201518160020160006101000a81548173ffffffffffffffffffffffffffffffffffffffff021916908373ffffffffffffffffffffffffffffffffffffffff1602179055509050506005829080600181540180825580915050600190039060005260206000200160009091909190916101000a81548173ffffffffffffffffffffffffffffffffffffffff021916908373ffffffffffffffffffffffffffffffffffffffff1602179055506001905095945050505050565b6009818154811061261357600080fd5b906000526020600020016000915090505481565b600080600460008473ffffffffffffffffffffffffffffffffffffffff1673ffffffffffffffffffffffffffffffffffffffff168152602001908152602001600020600001805461267790615443565b9050119050919050565b612689614347565b600460008373ffffffffffffffffffffffffffffffffffffffff1673ffffffffffffffffffffffffffffffffffffffff1681526020019081526020016000206040518060600160405290816000820180546126e390615443565b80601f016020809104026020016040519081016040528092919081815260200182805461270f90615443565b801561275c5780601f106127315761010080835404028352916020019161275c565b820191906000526020600020905b81548152906001019060200180831161273f57829003601f168201915b5050505050815260200160018201805461277590615443565b80601f01602080910402602001604051908101604052809291908181526020018280546127a190615443565b80156127ee5780601f106127c3576101008083540402835291602001916127ee565b820191906000526020600020905b8154815290600101906020018083116127d157829003601f168201915b505050505081526020016002820160009054906101000a900473ffffffffffffffffffffffffffffffffffffffff1673ffffffffffffffffffffffffffffffffffffffff1673ffffffffffffffffffffffffffffffffffffffff16815250509050919050565b600080600860008481526020019081526020016000206040518060e00160405290816000820160009054906101000a900473ffffffffffffffffffffffffffffffffffffffff1673ffffffffffffffffffffffffffffffffffffffff1673ffffffffffffffffffffffffffffffffffffffff1681526020016001820160009054906101000a900473ffffffffffffffffffffffffffffffffffffffff1673ffffffffffffffffffffffffffffffffffffffff1673ffffffffffffffffffffffffffffffffffffffff168152602001600282018054806020026020016040519081016040528092919081815260200182805480156129a657602002820191906000526020600020905b8160009054906101000a900473ffffffffffffffffffffffffffffffffffffffff1673ffffffffffffffffffffffffffffffffffffffff168152602001906001019080831161295c575b5050505050815260200160038201805480602002602001604051908101604052809291908181526020018280548015612a3457602002820191906000526020600020905b8160009054906101000a900473ffffffffffffffffffffffffffffffffffffffff1673ffffffffffffffffffffffffffffffffffffffff16815260200190600101908083116129ea575b50505050508152602001600482018054612a4d90615443565b80601f0160208091040260200160405190810160405280929190818152602001828054612a7990615443565b8015612ac65780601f10612a9b57610100808354040283529160200191612ac6565b820191906000526020600020905b815481529060010190602001808311612aa957829003601f168201915b50505050508152602001600582018054612adf90615443565b80601f0160208091040260200160405190810160405280929190818152602001828054612b0b90615443565b8015612b585780601f10612b2d57610100808354040283529160200191612b58565b820191906000526020600020905b815481529060010190602001808311612b3b57829003601f168201915b50505050508152602001600682018054612b7190615443565b80601f0160208091040260200160405190810160405280929190818152602001828054612b9d90615443565b8015612bea5780601f10612bbf57610100808354040283529160200191612bea565b820191906000526020600020905b815481529060010190602001808311612bcd57829003601f168201915b505050505081525050905060005b816060015151811015612c74573373ffffffffffffffffffffffffffffffffffffffff1682606001518281518110612c3357612c32615474565b5b602002602001015173ffffffffffffffffffffffffffffffffffffffff1603612c6157600192505050612c7b565b8080612c6c90615535565b915050612bf8565b5060009150505b919050565b60018181548110612c9057600080fd5b906000526020600020016000915054906101000a900473ffffffffffffffffffffffffffffffffffffffff1681565b600080600260008473ffffffffffffffffffffffffffffffffffffffff1673ffffffffffffffffffffffffffffffffffffffff1681526020019081526020016000206000018054612d0f90615443565b9050119050919050565b60606005805480602002602001604051908101604052809291908181526020018280548015612d9d57602002820191906000526020600020905b8160009054906101000a900473ffffffffffffffffffffffffffffffffffffffff1673ffffffffffffffffffffffffffffffffffffffff1681526020019060010190808311612d53575b5050505050905090565b6000803389898989898989604051602001612dc9989796959493929190615661565b6040516020818303038152906040528051906020012090506060806040518060e001604052803373ffffffffffffffffffffffffffffffffffffffff1681526020018c73ffffffffffffffffffffffffffffffffffffffff1681526020018381526020018281526020018b8b8080601f016020809104026020016040519081016040528093929190818152602001838380828437600081840152601f19601f82011690508083019250505050505050815260200189898080601f016020809104026020016040519081016040528093929190818152602001838380828437600081840152601f19601f82011690508083019250505050505050815260200187878080601f016020809104026020016040519081016040528093929190818152602001838380828437600081840152601f19601f820116905080830192505050505050508152506008600085815260200190815260200160002060008201518160000160006101000a81548173ffffffffffffffffffffffffffffffffffffffff021916908373ffffffffffffffffffffffffffffffffffffffff16021790555060208201518160010160006101000a81548173ffffffffffffffffffffffffffffffffffffffff021916908373ffffffffffffffffffffffffffffffffffffffff1602179055506040820151816002019080519060200190612fcc92919061422e565b506060820151816003019080519060200190612fe992919061422e565b5060808201518160040190805190602001906130069291906141a8565b5060a08201518160050190805190602001906130239291906141a8565b5060c08201518160060190805190602001906130409291906141a8565b50905050600983908060018154018082558091505060019003906000526020600020016000909190919091505560019350505050979650505050505050565b6000806000808473ffffffffffffffffffffffffffffffffffffffff1673ffffffffffffffffffffffffffffffffffffffff16815260200190815260200160002060000180546130ce90615443565b9050119050919050565b60046020528060005260406000206000915090508060000180546130fb90615443565b80601f016020809104026020016040519081016040528092919081815260200182805461312790615443565b80156131745780601f1061314957610100808354040283529160200191613174565b820191906000526020600020905b81548152906001019060200180831161315757829003601f168201915b50505050509080600101805461318990615443565b80601f01602080910402602001604051908101604052809291908181526020018280546131b590615443565b80156132025780601f106131d757610100808354040283529160200191613202565b820191906000526020600020905b8154815290600101906020018083116131e557829003601f168201915b5050505050908060020160009054906101000a900473ffffffffffffffffffffffffffffffffffffffff16905083565b6040518060200160405280828152506000808473ffffffffffffffffffffffffffffffffffffffff1673ffffffffffffffffffffffffffffffffffffffff168152602001908152602001600020600082015181600001908051906020019061329b9291906141a8565b509050506001829080600181540180825580915050600190039060005260206000200160009091909190916101000a81548173ffffffffffffffffffffffffffffffffffffffff021916908373ffffffffffffffffffffffffffffffffffffffff1602179055505050565b600060205280600052604060002060009150905080600001805461332990615443565b80601f016020809104026020016040519081016040528092919081815260200182805461335590615443565b80156133a25780601f10613377576101008083540402835291602001916133a2565b820191906000526020600020905b81548152906001019060200180831161338557829003601f168201915b5050505050905081565b600781815481106133bc57600080fd5b906000526020600020016000915054906101000a900473ffffffffffffffffffffffffffffffffffffffff1681565b600381815481106133fb57600080fd5b906000526020600020016000915054906101000a900473ffffffffffffffffffffffffffffffffffffffff1681565b6060600060058054905067ffffffffffffffff81111561344d5761344c614c00565b5b60405190808252806020026020018201604052801561348657816020015b613473614347565b81526020019060019003908161346b5790505b50905060005b6005805490508110156136cc5760046000600583815481106134b1576134b0615474565b5b9060005260206000200160009054906101000a900473ffffffffffffffffffffffffffffffffffffffff1673ffffffffffffffffffffffffffffffffffffffff1673ffffffffffffffffffffffffffffffffffffffff16815260200190815260200160002060405180606001604052908160008201805461353190615443565b80601f016020809104026020016040519081016040528092919081815260200182805461355d90615443565b80156135aa5780601f1061357f576101008083540402835291602001916135aa565b820191906000526020600020905b81548152906001019060200180831161358d57829003601f168201915b505050505081526020016001820180546135c390615443565b80601f01602080910402602001604051908101604052809291908181526020018280546135ef90615443565b801561363c5780601f106136115761010080835404028352916020019161363c565b820191906000526020600020905b81548152906001019060200180831161361f57829003601f168201915b505050505081526020016002820160009054906101000a900473ffffffffffffffffffffffffffffffffffffffff1673ffffffffffffffffffffffffffffffffffffffff1673ffffffffffffffffffffffffffffffffffffffff16815250508282815181106136ae576136ad615474565b5b602002602001018190525080806136c490615535565b91505061348c565b508091505090565b6060600060038054905067ffffffffffffffff8111156136f7576136f6614c00565b5b60405190808252806020026020018201604052801561373057816020015b61371d614334565b8152602001906001900390816137155790505b50905060005b60038054905081101561388e57600260006003838154811061375b5761375a615474565b5b9060005260206000200160009054906101000a900473ffffffffffffffffffffffffffffffffffffffff1673ffffffffffffffffffffffffffffffffffffffff1673ffffffffffffffffffffffffffffffffffffffff1681526020019081526020016000206040518060200160405290816000820180546137db90615443565b80601f016020809104026020016040519081016040528092919081815260200182805461380790615443565b80156138545780601f1061382957610100808354040283529160200191613854565b820191906000526020600020905b81548152906001019060200180831161383757829003601f168201915b5050505050815250508282815181106138705761386f615474565b5b6020026020010181905250808061388690615535565b915050613736565b508091505090565b6060600380548060200260200160405190810160405280929190818152602001828054801561391a57602002820191906000526020600020905b8160009054906101000a900473ffffffffffffffffffffffffffffffffffffffff1673ffffffffffffffffffffffffffffffffffffffff16815260200190600101908083116138d0575b5050505050905090565b806000803373ffffffffffffffffffffffffffffffffffffffff1673ffffffffffffffffffffffffffffffffffffffff16815260200190815260200160002060000190805190602001906139799291906141a8565b5050565b60606001805480602002602001604051908101604052809291908181526020018280548015613a0157602002820191906000526020600020905b8160009054906101000a900473ffffffffffffffffffffffffffffffffffffffff1673ffffffffffffffffffffffffffffffffffffffff16815260200190600101908083116139b7575b5050505050905090565b600080600860008481526020019081526020016000206040518060e00160405290816000820160009054906101000a900473ffffffffffffffffffffffffffffffffffffffff1673ffffffffffffffffffffffffffffffffffffffff1673ffffffffffffffffffffffffffffffffffffffff1681526020016001820160009054906101000a900473ffffffffffffffffffffffffffffffffffffffff1673ffffffffffffffffffffffffffffffffffffffff1673ffffffffffffffffffffffffffffffffffffffff16815260200160028201805480602002602001604051908101604052809291908181526020018280548015613b5d57602002820191906000526020600020905b8160009054906101000a900473ffffffffffffffffffffffffffffffffffffffff1673ffffffffffffffffffffffffffffffffffffffff1681526020019060010190808311613b13575b5050505050815260200160038201805480602002602001604051908101604052809291908181526020018280548015613beb57602002820191906000526020600020905b8160009054906101000a900473ffffffffffffffffffffffffffffffffffffffff1673ffffffffffffffffffffffffffffffffffffffff1681526020019060010190808311613ba1575b50505050508152602001600482018054613c0490615443565b80601f0160208091040260200160405190810160405280929190818152602001828054613c3090615443565b8015613c7d5780601f10613c5257610100808354040283529160200191613c7d565b820191906000526020600020905b815481529060010190602001808311613c6057829003601f168201915b50505050508152602001600582018054613c9690615443565b80601f0160208091040260200160405190810160405280929190818152602001828054613cc290615443565b8015613d0f5780601f10613ce457610100808354040283529160200191613d0f565b820191906000526020600020905b815481529060010190602001808311613cf257829003601f168201915b50505050508152602001600682018054613d2890615443565b80601f0160208091040260200160405190810160405280929190818152602001828054613d5490615443565b8015613da15780601f10613d7657610100808354040283529160200191613da1565b820191906000526020600020905b815481529060010190602001808311613d8457829003601f168201915b505050505081525050905060005b816040015151811015613e2b573373ffffffffffffffffffffffffffffffffffffffff1682604001518281518110613dea57613de9615474565b5b602002602001015173ffffffffffffffffffffffffffffffffffffffff1603613e1857600192505050613e32565b8080613e2390615535565b915050613daf565b5060009150505b919050565b6000613e4282612358565b15613e505760009050614138565b60606040518060e001604052808e8e8080601f016020809104026020016040519081016040528093929190818152602001838380828437600081840152601f19601f8201169050808301925050505050505081526020018c81526020018b8b8080601f016020809104026020016040519081016040528093929190818152602001838380828437600081840152601f19601f82011690508083019250505050505050815260200189898080601f016020809104026020016040519081016040528093929190818152602001838380828437600081840152601f19601f82011690508083019250505050505050815260200187878080601f016020809104026020016040519081016040528093929190818152602001838380828437600081840152601f19601f8201169050808301925050505050505081526020018573ffffffffffffffffffffffffffffffffffffffff16815260200182815250600660008573ffffffffffffffffffffffffffffffffffffffff1673ffffffffffffffffffffffffffffffffffffffff16815260200190815260200160002060008201518160000190805190602001906140069291906141a8565b5060208201518160010155604082015181600201908051906020019061402d9291906141a8565b50606082015181600301908051906020019061404a9291906141a8565b5060808201518160040190805190602001906140679291906141a8565b5060a08201518160050160006101000a81548173ffffffffffffffffffffffffffffffffffffffff021916908373ffffffffffffffffffffffffffffffffffffffff16021790555060c08201518160060190805190602001906140cb92919061422e565b509050506007839080600181540180825580915050600190039060005260206000200160009091909190916101000a81548173ffffffffffffffffffffffffffffffffffffffff021916908373ffffffffffffffffffffffffffffffffffffffff16021790555060019150505b9b9a5050505050505050505050565b50805461415390615443565b6000825580601f106141655750614184565b601f016020900490600052602060002090810190614183919061437e565b5b50565b50805460008255906000526020600020908101906141a5919061437e565b50565b8280546141b490615443565b90600052602060002090601f0160209004810192826141d6576000855561421d565b82601f106141ef57805160ff191683800117855561421d565b8280016001018555821561421d579182015b8281111561421c578251825591602001919060010190614201565b5b50905061422a919061437e565b5090565b8280548282559060005260206000209081019282156142a7579160200282015b828111156142a65782518260006101000a81548173ffffffffffffffffffffffffffffffffffffffff021916908373ffffffffffffffffffffffffffffffffffffffff1602179055509160200191906001019061424e565b5b5090506142b4919061437e565b5090565b6040518060e00160405280600073ffffffffffffffffffffffffffffffffffffffff168152602001600073ffffffffffffffffffffffffffffffffffffffff16815260200160608152602001606081526020016060815260200160608152602001606081525090565b6040518060200160405280606081525090565b6040518060200160405280606081525090565b60405180606001604052806060815260200160608152602001600073ffffffffffffffffffffffffffffffffffffffff1681525090565b5b8082111561439757600081600090555060010161437f565b5090565b6000604051905090565b600080fd5b600080fd5b6000819050919050565b6143c2816143af565b81146143cd57600080fd5b50565b6000813590506143df816143b9565b92915050565b6000602082840312156143fb576143fa6143a5565b5b6000614409848285016143d0565b91505092915050565b600073ffffffffffffffffffffffffffffffffffffffff82169050919050565b600061443d82614412565b9050919050565b61444d81614432565b82525050565b600081519050919050565b600082825260208201905092915050565b60005b8381101561448d578082015181840152602081019050614472565b8381111561449c576000848401525b50505050565b6000601f19601f8301169050919050565b60006144be82614453565b6144c8818561445e565b93506144d881856020860161446f565b6144e1816144a2565b840191505092915050565b600060a0820190506145016000830188614444565b61450e6020830187614444565b818103604083015261452081866144b3565b9050818103606083015261453481856144b3565b9050818103608083015261454881846144b3565b90509695505050505050565b61455d81614432565b811461456857600080fd5b50565b60008135905061457a81614554565b92915050565b600060208284031215614596576145956143a5565b5b60006145a48482850161456b565b91505092915050565b60008115159050919050565b6145c2816145ad565b82525050565b60006020820190506145dd60008301846145b9565b92915050565b600080fd5b600080fd5b600080fd5b60008083601f840112614608576146076145e3565b5b8235905067ffffffffffffffff811115614625576146246145e8565b5b602083019150836001820283011115614641576146406145ed565b5b9250929050565b600080600060408486031215614661576146606143a5565b5b600084013567ffffffffffffffff81111561467f5761467e6143aa565b5b61468b868287016145f2565b9350935050602061469e8682870161456b565b9150509250925092565b6000819050919050565b6146bb816146a8565b82525050565b600060c08201905081810360008301526146db81896144b3565b90506146ea60208301886146b2565b81810360408301526146fc81876144b3565b9050818103606083015261471081866144b3565b9050818103608083015261472481856144b3565b905061473360a0830184614444565b979650505050505050565b60008060008060008060006080888a03121561475d5761475c6143a5565b5b600061476b8a828b016143d0565b975050602088013567ffffffffffffffff81111561478c5761478b6143aa565b5b6147988a828b016145f2565b9650965050604088013567ffffffffffffffff8111156147bb576147ba6143aa565b5b6147c78a828b016145f2565b9450945050606088013567ffffffffffffffff8111156147ea576147e96143aa565b5b6147f68a828b016145f2565b925092505092959891949750929550565b600081519050919050565b600082825260208201905092915050565b6000819050602082019050919050565b600082825260208201905092915050565b600061484f82614453565b6148598185614833565b935061486981856020860161446f565b614872816144a2565b840191505092915050565b60006148898383614844565b905092915050565b6000602082019050919050565b60006148a982614807565b6148b38185614812565b9350836020820285016148c585614823565b8060005b8581101561490157848403895281516148e2858261487d565b94506148ed83614891565b925060208a019950506001810190506148c9565b50829750879550505050505092915050565b6000602082019050818103600083015261492d818461489e565b905092915050565b61493e81614432565b82525050565b600081519050919050565b600082825260208201905092915050565b6000819050602082019050919050565b600061497c8383614935565b60208301905092915050565b6000602082019050919050565b60006149a082614944565b6149aa818561494f565b93506149b583614960565b8060005b838110156149e65781516149cd8882614970565b97506149d883614988565b9250506001810190506149b9565b5085935050505092915050565b600060e083016000830151614a0b6000860182614935565b506020830151614a1e6020860182614935565b5060408301518482036040860152614a368282614995565b91505060608301518482036060860152614a508282614995565b91505060808301518482036080860152614a6a8282614844565b91505060a083015184820360a0860152614a848282614844565b91505060c083015184820360c0860152614a9e8282614844565b9150508091505092915050565b60006020820190508181036000830152614ac581846149f3565b905092915050565b60006020830160008301518482036000860152614aea8282614844565b9150508091505092915050565b60006020820190508181036000830152614b118184614acd565b905092915050565b614b22816146a8565b8114614b2d57600080fd5b50565b600081359050614b3f81614b19565b92915050565b600060208284031215614b5b57614b5a6143a5565b5b6000614b6984828501614b30565b91505092915050565b6000602082019050614b876000830184614444565b92915050565b60006020820190508181036000830152614ba781846144b3565b905092915050565b60006020830160008301518482036000860152614bcc8282614844565b9150508091505092915050565b60006020820190508181036000830152614bf38184614baf565b905092915050565b600080fd5b7f4e487b7100000000000000000000000000000000000000000000000000000000600052604160045260246000fd5b614c38826144a2565b810181811067ffffffffffffffff82111715614c5757614c56614c00565b5b80604052505050565b6000614c6a61439b565b9050614c768282614c2f565b919050565b600067ffffffffffffffff821115614c9657614c95614c00565b5b614c9f826144a2565b9050602081019050919050565b82818337600083830152505050565b6000614cce614cc984614c7b565b614c60565b905082815260208101848484011115614cea57614ce9614bfb565b5b614cf5848285614cac565b509392505050565b600082601f830112614d1257614d116145e3565b5b8135614d22848260208601614cbb565b91505092915050565b60008060408385031215614d4257614d416143a5565b5b6000614d508582860161456b565b925050602083013567ffffffffffffffff811115614d7157614d706143aa565b5b614d7d85828601614cfd565b9150509250929050565b600080600080600060608688031215614da357614da26143a5565b5b600086013567ffffffffffffffff811115614dc157614dc06143aa565b5b614dcd888289016145f2565b9550955050602086013567ffffffffffffffff811115614df057614def6143aa565b5b614dfc888289016145f2565b93509350506040614e0f8882890161456b565b9150509295509295909350565b614e25816143af565b82525050565b6000602082019050614e406000830184614e1c565b92915050565b60006060830160008301518482036000860152614e638282614844565b91505060208301518482036020860152614e7d8282614844565b9150506040830151614e926040860182614935565b508091505092915050565b60006020820190508181036000830152614eb78184614e46565b905092915050565b600082825260208201905092915050565b6000614edb82614944565b614ee58185614ebf565b9350614ef083614960565b8060005b83811015614f21578151614f088882614970565b9750614f1383614988565b925050600181019050614ef4565b5085935050505092915050565b60006020820190508181036000830152614f488184614ed0565b905092915050565b60008060008060008060006080888a031215614f6f57614f6e6143a5565b5b6000614f7d8a828b0161456b565b975050602088013567ffffffffffffffff811115614f9e57614f9d6143aa565b5b614faa8a828b016145f2565b9650965050604088013567ffffffffffffffff811115614fcd57614fcc6143aa565b5b614fd98a828b016145f2565b9450945050606088013567ffffffffffffffff811115614ffc57614ffb6143aa565b5b6150088a828b016145f2565b925092505092959891949750929550565b6000606082019050818103600083015261503381866144b3565b9050818103602083015261504781856144b3565b90506150566040830184614444565b949350505050565b600081519050919050565b600082825260208201905092915050565b6000819050602082019050919050565b600060608301600083015184820360008601526150a78282614844565b915050602083015184820360208601526150c18282614844565b91505060408301516150d66040860182614935565b508091505092915050565b60006150ed838361508a565b905092915050565b6000602082019050919050565b600061510d8261505e565b6151178185615069565b9350836020820285016151298561507a565b8060005b85811015615165578484038952815161514685826150e1565b9450615151836150f5565b925060208a0199505060018101905061512d565b50829750879550505050505092915050565b600060208201905081810360008301526151918184615102565b905092915050565b600081519050919050565b600082825260208201905092915050565b6000819050602082019050919050565b600060208301600083015184820360008601526151e28282614844565b9150508091505092915050565b60006151fb83836151c5565b905092915050565b6000602082019050919050565b600061521b82615199565b61522581856151a4565b935083602082028501615237856151b5565b8060005b85811015615273578484038952815161525485826151ef565b945061525f83615203565b925060208a0199505060018101905061523b565b50829750879550505050505092915050565b6000602082019050818103600083015261529f8184615210565b905092915050565b6000602082840312156152bd576152bc6143a5565b5b600082013567ffffffffffffffff8111156152db576152da6143aa565b5b6152e784828501614cfd565b91505092915050565b600080600080600080600080600080600060e08c8e031215615315576153146143a5565b5b60008c013567ffffffffffffffff811115615333576153326143aa565b5b61533f8e828f016145f2565b9b509b505060206153528e828f01614b30565b99505060408c013567ffffffffffffffff811115615373576153726143aa565b5b61537f8e828f016145f2565b985098505060608c013567ffffffffffffffff8111156153a2576153a16143aa565b5b6153ae8e828f016145f2565b965096505060808c013567ffffffffffffffff8111156153d1576153d06143aa565b5b6153dd8e828f016145f2565b945094505060a06153f08e828f0161456b565b92505060c06154018e828f0161456b565b9150509295989b509295989b9093969950565b7f4e487b7100000000000000000000000000000000000000000000000000000000600052602260045260246000fd5b6000600282049050600182168061545b57607f821691505b60208210810361546e5761546d615414565b5b50919050565b7f4e487b7100000000000000000000000000000000000000000000000000000000600052603260045260246000fd5b7f4e487b7100000000000000000000000000000000000000000000000000000000600052601160045260246000fd5b60006154dd826146a8565b91506154e8836146a8565b9250828210156154fb576154fa6154a3565b5b828203905092915050565b7f4e487b7100000000000000000000000000000000000000000000000000000000600052603160045260246000fd5b6000615540826146a8565b91507fffffffffffffffffffffffffffffffffffffffffffffffffffffffffffffffff8203615572576155716154a3565b5b600182019050919050565b7f53656e646572206973206e6f7420612073757065722061646d696e0000000000600082015250565b60006155b3601b8361445e565b91506155be8261557d565b602082019050919050565b600060208201905081810360008301526155e2816155a6565b9050919050565b60008160601b9050919050565b6000615601826155e9565b9050919050565b6000615613826155f6565b9050919050565b61562b61562682614432565b615608565b82525050565b600081905092915050565b60006156488385615631565b9350615655838584614cac565b82840190509392505050565b600061566d828b61561a565b60148201915061567d828a61561a565b60148201915061568e82888a61563c565b915061569b82868861563c565b91506156a882848661563c565b9150819050999850505050505050505056fea26469706673582212204de389df370aac79b98fd0c8bfe739dab1e45cba56025d31a6dc9129397007c864736f6c634300080d0033",
  "immutableReferences": {},
  "source": "// SPDX-License-Identifier: MIT\r\npragma solidity >=0.4.22 <0.9.0;\r\n\r\ncontract Medivault {\r\n    // function to check if an address is an admin or patient or doctor or super admin\r\n\r\n    // structure of super admin\r\n    struct SuperAdmin {\r\n        string name;\r\n    }\r\n    mapping(address => SuperAdmin) public superAdmins;\r\n    address[] public superAdminAddresses;\r\n\r\n    constructor() {\r\n        superAdminAddresses.push(msg.sender);\r\n        superAdmins[msg.sender] = SuperAdmin({name: \"Super admin\"});\r\n    }\r\n\r\n    function checkSuperAdmin(address pubkey) public view returns (bool) {\r\n        return bytes(superAdmins[pubkey].name).length > 0;\r\n    }\r\n\r\n    function editSuperAdmin(string memory name) public {\r\n        superAdmins[msg.sender].name = name;\r\n    }\r\n\r\n    function addSuperAdmin(address _address, string memory _name) public {\r\n        superAdmins[_address] = SuperAdmin(_name);\r\n        superAdminAddresses.push(_address);\r\n    }\r\n\r\n    function getAllSuperAdmins() public view returns (address[] memory) {\r\n        return superAdminAddresses;\r\n    }\r\n\r\n    function fetchNames() public view returns (string[] memory) {\r\n        string[] memory names = new string[](superAdminAddresses.length);\r\n        for (uint256 i = 0; i < superAdminAddresses.length; i++) {\r\n            names[i] = superAdmins[superAdminAddresses[i]].name;\r\n        }\r\n        return names;\r\n    }\r\n\r\n    function fetchSuperadmin(address _address)\r\n        public\r\n        view\r\n        returns (SuperAdmin memory)\r\n    {\r\n        require(checkSuperAdmin(msg.sender), \"Sender is not a super admin\");\r\n        return superAdmins[_address];\r\n    }\r\n\r\n    function addAdmin(string calldata institution_name, address _address)\r\n        public\r\n    {\r\n        adminAddresses.push(_address);\r\n        admins[_address] = Admin({institution_name: institution_name});\r\n    }\r\n\r\n    function fetchAdminsAddresses() public view returns (address[] memory) {\r\n        return adminAddresses;\r\n    }\r\n\r\n    function fetchAdmins() public view returns (Admin[] memory) {\r\n        Admin[] memory _admins = new Admin[](adminAddresses.length);\r\n        for (uint256 i = 0; i < adminAddresses.length; i++) {\r\n            _admins[i] = admins[adminAddresses[i]];\r\n        }\r\n        return _admins;\r\n    }\r\n\r\n    function deleteAdmin(address _address) public returns (bool) {\r\n        delete admins[_address];\r\n        // search for the _address in the adminAddresses array and delete it\r\n        for (uint256 i = 0; i < adminAddresses.length; i++) {\r\n            if (adminAddresses[i] == _address) {\r\n                adminAddresses[i] = adminAddresses[adminAddresses.length - 1];\r\n                adminAddresses.pop(); // remove the last element\r\n                return true; // exit the function after successful deletion\r\n            }\r\n        }\r\n        return false; // return false if admin doesn't exist or sender is not a super admin\r\n    }\r\n\r\n    // -----------------------------------------------------------------------------------------\r\n\r\n    // Admin structure\r\n    struct Admin {\r\n        string institution_name;\r\n    }\r\n    mapping(address => Admin) public admins;\r\n    address[] public adminAddresses;\r\n\r\n    // admin functions\r\n    // function to check if an address is an admin\r\n    function checkAdmin(address pubkey) public view returns (bool) {\r\n        return bytes(admins[pubkey].institution_name).length > 0;\r\n    }\r\n\r\n    function fetchAdmin(address pubkey) public view returns (Admin memory) {\r\n        return admins[pubkey];\r\n    }\r\n\r\n    function editAdmin(address pubkey, string memory institution_name)\r\n        public\r\n        returns (bool)\r\n    {\r\n        admins[pubkey].institution_name = institution_name;\r\n        return true;\r\n    }\r\n\r\n    function addDoctor(\r\n        string calldata name,\r\n        string calldata specialization,\r\n        address pubkey\r\n    ) public returns (bool) {\r\n        doctors[pubkey] = Doctor({\r\n            name: name,\r\n            specialization: specialization,\r\n            institution: msg.sender\r\n        });\r\n        doctorAddresses.push(pubkey);\r\n        return true;\r\n    }\r\n\r\n    function deleteDoctor(address pubkey) public returns (bool) {\r\n        // delete the address in the doctorAddresses array\r\n        for (uint256 i = 0; i < doctorAddresses.length; i++) {\r\n            if (doctorAddresses[i] == pubkey) {\r\n                doctorAddresses[i] = doctorAddresses[\r\n                    doctorAddresses.length - 1\r\n                ];\r\n                doctorAddresses.pop();\r\n                break;\r\n            }\r\n        }\r\n        // delete main doctor structure\r\n        delete doctors[pubkey];\r\n        return true;\r\n    }\r\n\r\n    function fetchDoctors() public view returns (Doctor[] memory) {\r\n        Doctor[] memory _doctors = new Doctor[](doctorAddresses.length);\r\n        for (uint256 i = 0; i < doctorAddresses.length; i++) {\r\n            _doctors[i] = doctors[doctorAddresses[i]];\r\n        }\r\n        return _doctors;\r\n    }\r\n\r\n    function fetchDoctorAddresses() public view returns (address[] memory) {\r\n        return doctorAddresses;\r\n    }\r\n\r\n    // -----------------------------------------------------------------------------------------\r\n\r\n    // doctor structure\r\n    struct Doctor {\r\n        string name;\r\n        string specialization;\r\n        // string contact;\r\n        address institution;\r\n    }\r\n    mapping(address => Doctor) public doctors;\r\n    address[] public doctorAddresses;\r\n\r\n    // doctor functions\r\n    // function to check if an address is a doctor\r\n    function checkDoctor(address pubkey) public view returns (bool) {\r\n        return bytes(doctors[pubkey].name).length > 0;\r\n    }\r\n\r\n    function fetchDoctor(address pubkey) public view returns (Doctor memory) {\r\n        return doctors[pubkey];\r\n    }\r\n\r\n    function addPatient(\r\n        string calldata name,\r\n        uint256 age,\r\n        string calldata gender,\r\n        string calldata addr,\r\n        string calldata contact,\r\n        address institution,\r\n        address pubkey\r\n    ) public returns (bool) {\r\n        // check if a patient with the pubkey already exists\r\n        if (checkPatient(pubkey)) {\r\n            return false;\r\n        }\r\n        address[] memory nominees;\r\n        patients[pubkey] = Patient({\r\n            name: name,\r\n            age: age,\r\n            gender: gender,\r\n            addr: addr,\r\n            contact: contact,\r\n            institution: institution,\r\n            nominees: nominees\r\n        });\r\n        patientAddresses.push(pubkey);\r\n        return true;\r\n    }\r\n\r\n    // function to delete a patient\r\n    function deletePatient(address pubkey) public returns (bool) {\r\n        // delete the address in the patientAddresses array\r\n        // check if the address exists in the patientAddresses array\r\n        if (!checkAdmin(pubkey)) {\r\n            return false;\r\n        }\r\n        for (uint256 i = 0; i < patientAddresses.length; i++) {\r\n            if (patientAddresses[i] == pubkey) {\r\n                patientAddresses[i] = patientAddresses[\r\n                    patientAddresses.length - 1\r\n                ];\r\n                patientAddresses.pop();\r\n                break;\r\n            }\r\n        }\r\n        // delete main patient structure\r\n        delete patients[pubkey];\r\n        return true;\r\n    }\r\n\r\n    // function to create a record\r\n    function createRecord(\r\n        address patient,\r\n        string calldata record_title,\r\n        string calldata record_desc,\r\n        string calldata record_data\r\n    ) public returns (bool) {\r\n        bytes32 record_hash = keccak256(\r\n            abi.encodePacked(\r\n                msg.sender,\r\n                patient,\r\n                record_title,\r\n                record_desc,\r\n                record_data\r\n            )\r\n        );\r\n        address[] memory read_allowed_doctors;\r\n        address[] memory write_allowed_doctors;\r\n\r\n        records[record_hash] = Record({\r\n            doctor: msg.sender,\r\n            patient: patient,\r\n            read_allowed_doctors: read_allowed_doctors,\r\n            write_allowed_doctors: write_allowed_doctors,\r\n            record_title: record_title,\r\n            record_desc: record_desc,\r\n            record_data: record_data\r\n        });\r\n        recordHashes.push(record_hash);\r\n        return true;\r\n    }\r\n\r\n    // function to fetch a record\r\n    function getRecord(bytes32 record_hash)\r\n        public\r\n        view\r\n        returns (Record memory)\r\n    {\r\n        // check if the record exists\r\n        return records[record_hash];\r\n    }\r\n\r\n    // function to check if the doctor has read access \r\n    function checkReadAccess(bytes32 record_hash) public view returns (bool) {\r\n        Record memory record = records[record_hash];\r\n        for (uint256 i = 0; i < record.read_allowed_doctors.length; i++) {\r\n            if (record.read_allowed_doctors[i] == msg.sender) {\r\n                return true;\r\n            }\r\n        }\r\n        return false;\r\n    }\r\n\r\n    //function to check if the doctor has write access\r\n    function checkWriteAccess(bytes32 record_hash) public view returns (bool) {\r\n        Record memory record = records[record_hash];\r\n        for (uint256 i = 0; i < record.write_allowed_doctors.length; i++) {\r\n            if (record.write_allowed_doctors[i] == msg.sender) {\r\n                return true;\r\n            }\r\n        }\r\n        return false;\r\n    }\r\n\r\n    // function to edit record data by doctor\r\n    function editRecord(\r\n        bytes32 record_hash,\r\n        string calldata record_title,\r\n        string calldata record_desc,\r\n        string calldata record_data\r\n    ) public returns (bool) {\r\n        Record memory record = records[record_hash];\r\n        if (checkDoctor(record.doctor) == false) {\r\n            return false;\r\n        }\r\n        record.record_title = record_title;\r\n        record.record_desc = record_desc;\r\n        record.record_data = record_data;\r\n        records[record_hash] = record;\r\n        return true;\r\n    }\r\n\r\n    // -----------------------------------------------------------------------------------------\r\n\r\n    // patient structure\r\n    struct Patient {\r\n        string name;\r\n        uint256 age;\r\n        string gender;\r\n        string addr;\r\n        string contact;\r\n        address institution;\r\n        address[] nominees;\r\n    }\r\n    mapping(address => Patient) public patients;\r\n    address[] public patientAddresses;\r\n\r\n    // patient functions\r\n    // function to check if an address is a patient\r\n    function checkPatient(address pubkey) public view returns (bool) {\r\n        return bytes(patients[pubkey].name).length > 0;\r\n    }\r\n\r\n    // -----------------------------------------------------------------------------------------\r\n    // Patient Record Structure\r\n    struct Record {\r\n        address doctor;\r\n        address patient;\r\n        address[] read_allowed_doctors;\r\n        address[] write_allowed_doctors;\r\n        string record_title;\r\n        string record_desc;\r\n        string record_data;\r\n    }\r\n    mapping(bytes32 => Record) public records;\r\n    bytes32[] public recordHashes;\r\n\r\n    // patient record functions\r\n    // function to check if a record exists or not\r\n    function checkRecord(bytes32 record_hash) public view returns (bool) {\r\n        return bytes(records[record_hash].record_title).length > 0;\r\n    }\r\n\r\n    // manually adding super admin for testing purposes\r\n    // functions of super admin\r\n    // function to check if an address is a super admin\r\n\r\n    // // // function to add a super admin\r\n    // // function addSuperAdmin(address pubkey, string calldata name) public {\r\n    // //     require(\r\n    // //         checkSuperAdmin(msg.sender) == true,\r\n    // //         \"You are not a super admin\"\r\n    // //     );\r\n    // //     require(checkSuperAdmin(pubkey) == false, \"Super admin already exists\");\r\n    // //     superAdmins[pubkey] = SuperAdmin({name: name});\r\n    // // }\r\n\r\n    // // function to add a admin\r\n    // function addAdmin(\r\n    //     string calldata institution_name,\r\n    //     string calldata institution_addr,\r\n    //     string calldata institution_contact,\r\n    //     address pubkey\r\n    // ) public {\r\n    //     require(\r\n    //         checkSuperAdmin(msg.sender) == true,\r\n    //         \"You are not a allowed to add an admin\"\r\n    //     );\r\n    //     require(checkAdmin(pubkey) == false, \"Admin already exists\");\r\n    //     admins[pubkey] = Admin({\r\n    //         institution_name: institution_name,\r\n    //         institution_addr: institution_addr,\r\n    //         institution_contact: institution_contact\r\n    //     });\r\n    // }\r\n\r\n    // // function to edit an admin\r\n    // function editAdmin(\r\n    //     string calldata institution_name,\r\n    //     string calldata institution_addr,\r\n    //     string calldata institution_contact,\r\n    //     address pubkey\r\n    // ) public {\r\n    //     require(\r\n    //         checkSuperAdmin(msg.sender) == true,\r\n    //         \"You are not a allowed to edit an admin\"\r\n    //     );\r\n    //     require(checkAdmin(pubkey) == true, \"Admin does not exist\");\r\n    //     admins[pubkey] = Admin({\r\n    //         institution_name: institution_name,\r\n    //         institution_addr: institution_addr,\r\n    //         institution_contact: institution_contact\r\n    //     });\r\n    // }\r\n\r\n    // // -------------------------------------------------------------------------------------------\r\n}\r\n\r\n// contract Medivault {\r\n//\r\n\r\n//     // function to delete an admin\r\n//     function deleteAdmin(address pubkey) public {\r\n//         require(\r\n//             checkSuperAdmin(msg.sender) == true,\r\n//             \"You are not a allowed to delete an admin\"\r\n//         );\r\n//         require(checkAdmin(pubkey) == true, \"Admin does not exist\");\r\n//         delete admins[pubkey];\r\n//     }\r\n\r\n//     // function to fetch a single admin\r\n//     function getAdmin(address pubkey) public view returns (Admin memory) {\r\n//         require(\r\n//             checkSuperAdmin(msg.sender) == true,\r\n//             \"You are not a allowed to fetch an admin\"\r\n//         );\r\n//         require(checkAdmin(pubkey) == true, \"Admin does not exist\");\r\n//         return admins[pubkey];\r\n//     }\r\n\r\n//     // function to fetch all admins\r\n//     // function getAdmins() public view returns (Admin[] memory) {\r\n//     //     require(\r\n//     //         checkSuperAdmin(msg.sender) == true,\r\n//     //         \"You are not a allowed to perform this opertation\"\r\n//     //     );q\r\n//     //     return admins;\r\n//     // }\r\n\r\n//     // -------------------------------------------------------------------------------------------\r\n\r\n//     // Admin structure\r\n//     struct Admin {\r\n//         string institution_name;\r\n//         string institution_addr;\r\n//         string institution_contact;\r\n//     }\r\n//     mapping(address => Admin) public admins;\r\n\r\n//     // admin functions\r\n//     // function to check if an address is an admin\r\n//     function checkAdmin(address pubkey) public view returns (bool) {\r\n//         return bytes(admins[pubkey].institution_name).length > 0;\r\n//     }\r\n\r\n//     // function to add a doctor\r\n//     function addDoctor(\r\n//         string calldata name,\r\n//         string calldata specialization,\r\n//         string calldata contact,\r\n//         address pubkey\r\n//     ) public {\r\n//         require(checkAdmin(msg.sender) == true, \"You are not an admin\");\r\n//         require(checkDoctor(pubkey) == false, \"Doctor already exists\");\r\n//         require(bytes(name).length > 0, \"Name cannot be empty\");\r\n//         require(\r\n//             bytes(specialization).length > 0,\r\n//             \"Specialization cannot be empty\"\r\n//         );\r\n//         require(bytes(contact).length > 0, \"Contact cannot be empty\");\r\n//         doctors[pubkey] = Doctor({\r\n//             name: name,\r\n//             specialization: specialization,\r\n//             contact: contact,\r\n//             institution_name: msg.sender\r\n//         });\r\n//     }\r\n\r\n//     // function to edit a doctor\r\n//     function editDoctor(\r\n//         string calldata name,\r\n//         string calldata specialization,\r\n//         string calldata contact,\r\n//         address pubkey\r\n//     ) public {\r\n//         require(checkAdmin(msg.sender) == true, \"You are not an admin\");\r\n//         require(checkDoctor(pubkey) == true, \"Doctor does not exist\");\r\n//         require(\r\n//             msg.sender != doctors[pubkey].institution_name,\r\n//             \"You do not have the permission to edit this doctor\"\r\n//         );\r\n//         require(bytes(name).length > 0, \"Name cannot be empty\");\r\n//         require(\r\n//             bytes(specialization).length > 0,\r\n//             \"Specialization cannot be empty\"\r\n//         );\r\n//         require(bytes(contact).length > 0, \"Contact cannot be empty\");\r\n//         doctors[pubkey] = Doctor({\r\n//             name: name,\r\n//             specialization: specialization,\r\n//             contact: contact,\r\n//             institution_name: msg.sender\r\n//         });\r\n//     }\r\n\r\n//     // function  to delete a doctor\r\n//     function deleteDoctor(address pubkey) public {\r\n//         require(checkAdmin(msg.sender) == true, \"You are not an admin\");\r\n//         require(checkDoctor(pubkey) == true, \"Doctor does not exist\");\r\n//         require(\r\n//             keccak256(abi.encodePacked(msg.sender))!= keccak256(abi.encodePacked(admins[pubkey].institution_name)),\r\n//             \"You do not have the permission to delete this doctor\"\r\n//         );\r\n//         delete doctors[pubkey];\r\n//     }\r\n\r\n//     // function to fetch a single doctor under the admin\r\n//     function getDoctor(address pubkey) public view returns (Doctor memory) {\r\n//         require(checkAdmin(msg.sender) == true, \"You are not an admin\");\r\n//         require(checkDoctor(pubkey) == true, \"Doctor does not exist\");\r\n//         require(\r\n//             msg.sender == doctors[pubkey].institution_name,\r\n//             \"You do not have the permission to fetch this doctor\"\r\n//         );\r\n//         return doctors[pubkey];\r\n//     }\r\n\r\n//     // function to fetch a all doctors under the admin's instiution name\r\n//     // function getDoctors() public view returns (Doctor[] memory) {\r\n//     //     require(checkAdmin(msg.sender), \"You are not an admin\");\r\n//     //     Doctor[] memory _doctors;\r\n//     //     for (uint256 i = 0; i < doctors.length; i++) {\r\n//     //         address pubkey = doctors[i];\r\n//     //         // Check if the admin associated with the doctor's address matches the caller's institution\r\n//     //         if (\r\n//     //             keccak256(abi.encodePacked(admins[pubkey])) ==\r\n//     //             keccak256(abi.encodePacked(admins[msg.sender]))\r\n//     //         ) {\r\n//     //             // Add the doctor to the array\r\n//     //             _doctors.push(doctors[pubkey]);\r\n//     //         }\r\n//     //     }\r\n//     //     return _doctors;\r\n//     // }\r\n\r\n//     // -------------------------------------------------------------------------------------------\r\n\r\n//     // Doctor structure\r\n//     struct Doctor {\r\n//         string name;\r\n//         string specialization;\r\n//         string contact;\r\n//         address institution_name;\r\n//     }\r\n//     mapping(address => Doctor) public doctors;\r\n\r\n//     // doctor functions\r\n//     // function to check if an address is a doctor\r\n//     function checkDoctor(address pubkey) public view returns (bool) {\r\n//         return bytes(doctors[pubkey].name).length > 0;\r\n//     }\r\n\r\n//     // function to add a patient\r\n//     function addPatient(\r\n//         string calldata name,\r\n//         uint256 age,\r\n//         string calldata gender,\r\n//         string calldata addr,\r\n//         string calldata contact,\r\n//         address pubkey\r\n//     ) public {\r\n//         require(checkDoctor(msg.sender) == true, \"Doctor does not exist\");\r\n//         require(bytes(name).length > 0, \"Name cannot be empty\");\r\n//         require(age > 0, \"Age cannot be zero\");\r\n//         require(bytes(gender).length > 0, \"Gender cannot be empty\");\r\n//         require(bytes(addr).length > 0, \"Address cannot be empty\");\r\n//         require(bytes(contact).length > 0, \"Contact cannot be empty\");\r\n//         address[] calldata nominees;\r\n//         nominees.push();\r\n//         patients[pubkey] = Patient({\r\n//             name: name,\r\n//             age: age,\r\n//             gender: gender,\r\n//             addr: addr,\r\n//             contact: contact,\r\n//             nominees : nominees\r\n//         });\r\n//     }\r\n\r\n//     // function to fetch a patient\r\n//     function getPatient(address pubkey) public view returns (Patient memory) {\r\n//         require(checkDoctor(msg.sender) == true, \"Doctor does not exist\");\r\n//         require(checkPatient(pubkey) == true, \"Patient does not exist\");\r\n//         return patients[pubkey];\r\n//     }\r\n\r\n//     // function to check read access for a record\r\n//     function checkReadAccess(bytes32 record_hash) public view returns (bool) {\r\n//         require(checkDoctor(msg.sender), \"Doctor does not exist\");\r\n//         require(checkRecord(record_hash), \"Record does not exist\");\r\n\r\n//         if (records[record_hash].read_allowed_doctors.length > 0) {\r\n//             // Iterate over the read allowed doctors array\r\n//             for (\r\n//                 uint256 i = 0;\r\n//                 i < records[record_hash].read_allowed_doctors.length;\r\n//                 i++\r\n//             ) {\r\n//                 // Check if the current doctor address matches the sender's address\r\n//                 if (\r\n//                     records[record_hash].read_allowed_doctors[i] == msg.sender\r\n//                 ) {\r\n//                     return true;\r\n//                 }\r\n//             }\r\n//         }\r\n\r\n//         return false;\r\n//     }\r\n\r\n//     // function to check write access for a record\r\n//     function checkWriteAccess(bytes32 record_hash) public view returns (bool) {\r\n//         require(checkDoctor(msg.sender), \"Doctor does not exist\");\r\n//         require(checkRecord(record_hash), \"Record does not exist\");\r\n\r\n//         if (records[record_hash].write_allowed_doctors.length > 0) {\r\n//             // Iterate over the write allowed doctors array\r\n//             for (\r\n//                 uint256 i = 0;\r\n//                 i < records[record_hash].write_allowed_doctors.length;\r\n//                 i++\r\n//             ) {\r\n//                 // Check if the current doctor address matches the sender's address\r\n//                 if (\r\n//                     records[record_hash].write_allowed_doctors[i] == msg.sender\r\n//                 ) {\r\n//                     return true;\r\n//                 }\r\n//             }\r\n//         }\r\n\r\n//         return false;\r\n//     }\r\n\r\n//     // function to add a record\r\n//     function addRecord(\r\n//         bytes32 record_hash,\r\n//         address doctor,\r\n//         address patient,\r\n//         string calldata record_title,\r\n//         string calldata record_desc,\r\n//         string calldata record_data\r\n//     ) public {\r\n//         require(checkDoctor(msg.sender) == true, \"Doctor does not exist\");\r\n//         require(checkPatient(patient) == true, \"Patient does not exist\");\r\n//         require(checkRecord(record_hash) == false, \"Record already exists\");\r\n//         address[] memory read_allowed_doctors = [];\r\n//         read_allowed_doctors.push(msg.sender);\r\n//         address[] memory write_allowed_doctors = [];\r\n//         write_allowed_doctors.push(msg.sender);\r\n//         records[record_hash] = Record({\r\n//             doctor: doctor,\r\n//             patient: patient,\r\n//             read_allowed_doctors: read_allowed_doctors,\r\n//             write_allowed_doctors: write_allowed_doctors,\r\n//             record_title: record_title,\r\n//             record_desc: record_desc,\r\n//             record_data: record_data\r\n//         });\r\n//     }\r\n\r\n//     // function to fetch a record\r\n//     function getRecord(bytes32 record_hash)\r\n//         public\r\n//         view\r\n//         returns (Record memory)\r\n//     {\r\n//         require(checkDoctor(msg.sender) == true, \"Doctor does not exist\");\r\n//         require(checkRecord(record_hash) == true, \"Record does not exist\");\r\n//         require(\r\n//             checkReadAccess(record_hash) == true,\r\n//             \"You do not have access to read this record\"\r\n//         );\r\n//         return records[record_hash];\r\n//     }\r\n\r\n//     // function to edit a record\r\n//     function editRecord(\r\n//         bytes32 record_hash,\r\n//         string calldata record_title,\r\n//         string calldata record_desc,\r\n//         string calldata record_data\r\n//     ) public {\r\n//         require(checkDoctor(msg.sender) == true, \"Doctor does not exist\");\r\n//         require(checkRecord(record_hash) == true, \"Record does not exist\");\r\n//         require(\r\n//             checkWriteAccess(record_hash) == true,\r\n//             \"You do not have access to write this record\"\r\n//         );\r\n//         records[record_hash].record_title = record_title;\r\n//         records[record_hash].record_desc = record_desc;\r\n//         records[record_hash].record_data = record_data;\r\n//     }\r\n\r\n//     // -------------------------------------------------------------------------------------------\r\n\r\n//     // patient structure\r\n//     struct Patient {\r\n//         string name;\r\n//         uint256 age;\r\n//         string gender;\r\n//         string addr;\r\n//         string contact;\r\n//         address[] nominees;\r\n//     }\r\n//     mapping(address => Patient) public patients;\r\n\r\n//     // patient functions\r\n//     // function to check if an address is a patient\r\n//     function checkPatient(address pubkey) public view returns (bool) {\r\n//         return bytes(patients[pubkey].name).length > 0;\r\n//     }\r\n\r\n//     // functio to edit patient\r\n//     function editPatient(\r\n//         string calldata name,\r\n//         uint256 age,\r\n//         string calldata gender,\r\n//         string calldata addr,\r\n//         string calldata contact\r\n//     ) public {\r\n//         require(checkPatient(msg.sender) == true, \"Patient does not exist\");\r\n//         patients[msg.sender].name = name;\r\n//         patients[msg.sender].age = age;\r\n//         patients[msg.sender].gender = gender;\r\n//         patients[msg.sender].addr = addr;\r\n//         patients[msg.sender].contact = contact;\r\n//     }\r\n\r\n//     // function to fetch patient records\r\n//     function fetchRecords() public view returns (Record[] memory) {\r\n//         require(checkPatient(msg.sender) == true, \"Patient does not exist\");\r\n//         Record[] memory _records = [];\r\n//         uint256 count = 0;\r\n//         for (uint256 i = 0; i < records.length; i++) {\r\n//             if (records[i].patient == msg.sender) {\r\n//                 _records[count] = records[i];\r\n//                 count++;\r\n//             }\r\n//         }\r\n//         return _records;\r\n//     }\r\n\r\n//     // fetch a single record\r\n//     function fetchRecord(bytes32 record_hash)\r\n//         public\r\n//         view\r\n//         returns (Record memory)\r\n//     {\r\n//         require(checkPatient(msg.sender) == true, \"Patient does not exist\");\r\n//         require(checkRecord(record_hash) == true, \"Record does not exist\");\r\n//         require(\r\n//             records[record_hash].patient != msg.sender,\r\n//             \"You do not have access to this record\"\r\n//         );\r\n//         return records[record_hash];\r\n//     }\r\n\r\n//     // function to add a nominee\r\n//     function addNominee(address pubkey, string calldata name) public {\r\n//         require(checkPatient(msg.sender) == true, \"Patient does not exist\");\r\n//         require(checkPatient(pubkey) == true, \"Nominee does not exist\");\r\n//         patients[msg.sender].nominees.push(pubkey);\r\n//     }\r\n\r\n//     // function to remove a nominee\r\n//     function removeNominee(address pubkey) public {\r\n//         require(checkPatient(msg.sender) == true, \"Patient does not exist\");\r\n//         require(checkPatient(pubkey) == true, \"Nominee does not exist\");\r\n//         require(patients[pubkey].nominees < 0, \"Nominee does not exist\");\r\n//         patients[msg.sender].nominees.remove(pubkey);\r\n//     }\r\n\r\n//     // function to fetch nominee's records\r\n//     function fetchNomineeRecords(address pubkey)\r\n//         public\r\n//         view\r\n//         returns (Record[] memory)\r\n//     {\r\n//         require(checkPatient(msg.sender) == true, \"Patient does not exist\");\r\n//         require(checkPatient(pubkey) == true, \"Nominee does not exist\");\r\n//         Record[] memory _records = [];\r\n//         uint256 count = 0;\r\n\r\n//         for (uint256 i = 0; i < records.length; i++) {\r\n//             if (records[i].patient == pubkey) {\r\n//                 _records[count] = records[i];\r\n//                 count++;\r\n//             }\r\n//         }\r\n//         return _records;\r\n//     }\r\n\r\n//     // function to give read access to a doctor by patient\r\n//     function giveReadAccess(bytes32 record_hash, address pubkey) public {\r\n//         require(checkPatient(msg.sender) == true, \"Patient does not exist\");\r\n//         require(checkDoctor(pubkey) == true, \"Doctor does not exist\");\r\n//         require(checkRecord(record_hash) == true, \"Record does not exist\");\r\n//         records[record_hash].read_allowed_doctors.push(pubkey);\r\n//     }\r\n\r\n//     // function to give write access to a doctor by patient\r\n//     function giveWriteAccess(bytes32 record_hash, address pubkey) public {\r\n//         require(checkPatient(msg.sender) == true, \"Patient does not exist\");\r\n//         require(checkDoctor(pubkey) == true, \"Doctor does not exist\");\r\n//         require(checkRecord(record_hash) == true, \"Record does not exist\");\r\n//         records[record_hash].write_allowed_doctors.push(pubkey);\r\n//     }\r\n\r\n//     // function to remove read access to a doctor by patient\r\n//     function removeReadAccess(bytes32 record_hash, address pubkey) public {\r\n//         require(checkPatient(msg.sender) == true, \"Patient does not exist\");\r\n//         require(checkDoctor(pubkey) == true, \"Doctor does not exist\");\r\n//         require(checkRecord(record_hash) == true, \"Record does not exist\");\r\n//         records[record_hash].read_allowed_doctors.remove(pubkey);\r\n//     }\r\n\r\n//     // function to remove write access to a doctor by patient\r\n//     function removeWriteAccess(bytes32 record_hash, address pubkey) public {\r\n//         require(checkPatient(msg.sender) == true, \"Patient does not exist\");\r\n//         require(checkDoctor(pubkey) == true, \"Doctor does not exist\");\r\n//         require(checkRecord(record_hash) == true, \"Record does not exist\");\r\n//         records[record_hash].write_allowed_doctors.remove(pubkey);\r\n//     }\r\n\r\n//     // -------------------------------------------------------------------------------------------\r\n\r\n//     // record structure\r\n//     struct Record {\r\n//         // hash bytes32 record_hash;\r\n//         address doctor;\r\n//         address patient;\r\n//         address[] read_allowed_doctors;\r\n//         address[] write_allowed_doctors;\r\n//         string record_title;\r\n//         string record_desc;\r\n//         string record_data;\r\n//     }\r\n//     mapping(bytes32 => Record) public records;\r\n\r\n//     // record functions\r\n//     // function to check if the record exist or not\r\n//     function checkRecord(bytes32 record_hash) public view returns (bool) {\r\n//         return bytes(records[record_hash].record_title).length > 0;\r\n//     }\r\n\r\n//     // -------------------------------------------------------------------------------------------\r\n\r\n//     // end of contract\r\n// }\r\n",
  "sourcePath": "C:\\Users\\midhu\\OneDrive\\Documents\\GitHub\\Final-Year-Project-\\myapp\\contracts\\Medivault.sol",
  "compiler": {
    "name": "solc",
    "version": "0.8.13+commit.abaa5c0e.Emscripten.clang"
  },
  "schemaVersion": "3.4.16",
  "updatedAt": "2024-04-11T14:17:39.239Z",
  "networkType": "ethereum",
  "devdoc": {
    "kind": "dev",
    "methods": {},
    "version": 1
  },
  "userdoc": {
    "kind": "user",
    "methods": {},
    "version": 1
  }
}