{
  "contractName": "Medivault",
  "abi": [
    {
      "inputs": [],
      "stateMutability": "nonpayable",
      "type": "constructor"
    },
    {
      "inputs": [
        {
          "internalType": "uint256",
          "name": "",
          "type": "uint256"
        }
      ],
      "name": "adminAddresses",
      "outputs": [
        {
          "internalType": "address",
          "name": "",
          "type": "address"
        }
      ],
      "stateMutability": "view",
      "type": "function",
      "constant": true
    },
    {
      "inputs": [
        {
          "internalType": "address",
          "name": "",
          "type": "address"
        }
      ],
      "name": "admins",
      "outputs": [
        {
          "internalType": "string",
          "name": "institution_name",
          "type": "string"
        }
      ],
      "stateMutability": "view",
      "type": "function",
      "constant": true
    },
    {
      "inputs": [
        {
          "internalType": "uint256",
          "name": "",
          "type": "uint256"
        }
      ],
      "name": "doctorAddresses",
      "outputs": [
        {
          "internalType": "address",
          "name": "",
          "type": "address"
        }
      ],
      "stateMutability": "view",
      "type": "function",
      "constant": true
    },
    {
      "inputs": [
        {
          "internalType": "address",
          "name": "",
          "type": "address"
        }
      ],
      "name": "doctors",
      "outputs": [
        {
          "internalType": "string",
          "name": "name",
          "type": "string"
        },
        {
          "internalType": "string",
          "name": "specialization",
          "type": "string"
        },
        {
          "internalType": "address",
          "name": "institution",
          "type": "address"
        }
      ],
      "stateMutability": "view",
      "type": "function",
      "constant": true
    },
    {
      "inputs": [
        {
          "internalType": "uint256",
          "name": "",
          "type": "uint256"
        }
      ],
      "name": "patientAddresses",
      "outputs": [
        {
          "internalType": "address",
          "name": "",
          "type": "address"
        }
      ],
      "stateMutability": "view",
      "type": "function",
      "constant": true
    },
    {
      "inputs": [
        {
          "internalType": "address",
          "name": "",
          "type": "address"
        }
      ],
      "name": "patients",
      "outputs": [
        {
          "internalType": "string",
          "name": "name",
          "type": "string"
        },
        {
          "internalType": "uint256",
          "name": "age",
          "type": "uint256"
        },
        {
          "internalType": "string",
          "name": "gender",
          "type": "string"
        },
        {
          "internalType": "string",
          "name": "addr",
          "type": "string"
        },
        {
          "internalType": "string",
          "name": "contact",
          "type": "string"
        },
        {
          "internalType": "address",
          "name": "institution",
          "type": "address"
        }
      ],
      "stateMutability": "view",
      "type": "function",
      "constant": true
    },
    {
      "inputs": [
        {
          "internalType": "uint256",
          "name": "",
          "type": "uint256"
        }
      ],
      "name": "recordHashes",
      "outputs": [
        {
          "internalType": "bytes32",
          "name": "",
          "type": "bytes32"
        }
      ],
      "stateMutability": "view",
      "type": "function",
      "constant": true
    },
    {
      "inputs": [
        {
          "internalType": "bytes32",
          "name": "",
          "type": "bytes32"
        }
      ],
      "name": "records",
      "outputs": [
        {
          "internalType": "address",
          "name": "doctor",
          "type": "address"
        },
        {
          "internalType": "address",
          "name": "patient",
          "type": "address"
        },
        {
          "internalType": "string",
          "name": "record_title",
          "type": "string"
        },
        {
          "internalType": "string",
          "name": "record_desc",
          "type": "string"
        },
        {
          "internalType": "string",
          "name": "record_data",
          "type": "string"
        }
      ],
      "stateMutability": "view",
      "type": "function",
      "constant": true
    },
    {
      "inputs": [
        {
          "internalType": "uint256",
          "name": "",
          "type": "uint256"
        }
      ],
      "name": "superAdminAddresses",
      "outputs": [
        {
          "internalType": "address",
          "name": "",
          "type": "address"
        }
      ],
      "stateMutability": "view",
      "type": "function",
      "constant": true
    },
    {
      "inputs": [
        {
          "internalType": "address",
          "name": "",
          "type": "address"
        }
      ],
      "name": "superAdmins",
      "outputs": [
        {
          "internalType": "string",
          "name": "name",
          "type": "string"
        }
      ],
      "stateMutability": "view",
      "type": "function",
      "constant": true
    },
    {
      "inputs": [
        {
          "internalType": "address",
          "name": "pubkey",
          "type": "address"
        }
      ],
      "name": "checkSuperAdmin",
      "outputs": [
        {
          "internalType": "bool",
          "name": "",
          "type": "bool"
        }
      ],
      "stateMutability": "view",
      "type": "function",
      "constant": true
    },
    {
      "inputs": [
        {
          "internalType": "string",
          "name": "name",
          "type": "string"
        }
      ],
      "name": "editSuperAdmin",
      "outputs": [],
      "stateMutability": "nonpayable",
      "type": "function"
    },
    {
      "inputs": [
        {
          "internalType": "address",
          "name": "_address",
          "type": "address"
        },
        {
          "internalType": "string",
          "name": "_name",
          "type": "string"
        }
      ],
      "name": "addSuperAdmin",
      "outputs": [],
      "stateMutability": "nonpayable",
      "type": "function"
    },
    {
      "inputs": [],
      "name": "getAllSuperAdmins",
      "outputs": [
        {
          "internalType": "address[]",
          "name": "",
          "type": "address[]"
        }
      ],
      "stateMutability": "view",
      "type": "function",
      "constant": true
    },
    {
      "inputs": [],
      "name": "fetchNames",
      "outputs": [
        {
          "internalType": "string[]",
          "name": "",
          "type": "string[]"
        }
      ],
      "stateMutability": "view",
      "type": "function",
      "constant": true
    },
    {
      "inputs": [
        {
          "internalType": "address",
          "name": "_address",
          "type": "address"
        }
      ],
      "name": "fetchSuperadmin",
      "outputs": [
        {
          "components": [
            {
              "internalType": "string",
              "name": "name",
              "type": "string"
            }
          ],
          "internalType": "struct Medivault.SuperAdmin",
          "name": "",
          "type": "tuple"
        }
      ],
      "stateMutability": "view",
      "type": "function",
      "constant": true
    },
    {
      "inputs": [
        {
          "internalType": "string",
          "name": "institution_name",
          "type": "string"
        },
        {
          "internalType": "address",
          "name": "_address",
          "type": "address"
        }
      ],
      "name": "addAdmin",
      "outputs": [],
      "stateMutability": "nonpayable",
      "type": "function"
    },
    {
      "inputs": [],
      "name": "fetchAdminsAddresses",
      "outputs": [
        {
          "internalType": "address[]",
          "name": "",
          "type": "address[]"
        }
      ],
      "stateMutability": "view",
      "type": "function",
      "constant": true
    },
    {
      "inputs": [],
      "name": "fetchAdmins",
      "outputs": [
        {
          "components": [
            {
              "internalType": "string",
              "name": "institution_name",
              "type": "string"
            }
          ],
          "internalType": "struct Medivault.Admin[]",
          "name": "",
          "type": "tuple[]"
        }
      ],
      "stateMutability": "view",
      "type": "function",
      "constant": true
    },
    {
      "inputs": [
        {
          "internalType": "address",
          "name": "_address",
          "type": "address"
        }
      ],
      "name": "deleteAdmin",
      "outputs": [
        {
          "internalType": "bool",
          "name": "",
          "type": "bool"
        }
      ],
      "stateMutability": "nonpayable",
      "type": "function"
    },
    {
      "inputs": [
        {
          "internalType": "address",
          "name": "pubkey",
          "type": "address"
        }
      ],
      "name": "checkAdmin",
      "outputs": [
        {
          "internalType": "bool",
          "name": "",
          "type": "bool"
        }
      ],
      "stateMutability": "view",
      "type": "function",
      "constant": true
    },
    {
      "inputs": [
        {
          "internalType": "address",
          "name": "pubkey",
          "type": "address"
        }
      ],
      "name": "fetchAdmin",
      "outputs": [
        {
          "components": [
            {
              "internalType": "string",
              "name": "institution_name",
              "type": "string"
            }
          ],
          "internalType": "struct Medivault.Admin",
          "name": "",
          "type": "tuple"
        }
      ],
      "stateMutability": "view",
      "type": "function",
      "constant": true
    },
    {
      "inputs": [
        {
          "internalType": "address",
          "name": "pubkey",
          "type": "address"
        },
        {
          "internalType": "string",
          "name": "institution_name",
          "type": "string"
        }
      ],
      "name": "editAdmin",
      "outputs": [
        {
          "internalType": "bool",
          "name": "",
          "type": "bool"
        }
      ],
      "stateMutability": "nonpayable",
      "type": "function"
    },
    {
      "inputs": [
        {
          "internalType": "string",
          "name": "name",
          "type": "string"
        },
        {
          "internalType": "string",
          "name": "specialization",
          "type": "string"
        },
        {
          "internalType": "address",
          "name": "pubkey",
          "type": "address"
        }
      ],
      "name": "addDoctor",
      "outputs": [
        {
          "internalType": "bool",
          "name": "",
          "type": "bool"
        }
      ],
      "stateMutability": "nonpayable",
      "type": "function"
    },
    {
      "inputs": [
        {
          "internalType": "address",
          "name": "pubkey",
          "type": "address"
        }
      ],
      "name": "deleteDoctor",
      "outputs": [
        {
          "internalType": "bool",
          "name": "",
          "type": "bool"
        }
      ],
      "stateMutability": "nonpayable",
      "type": "function"
    },
    {
      "inputs": [],
      "name": "fetchDoctors",
      "outputs": [
        {
          "components": [
            {
              "internalType": "string",
              "name": "name",
              "type": "string"
            },
            {
              "internalType": "string",
              "name": "specialization",
              "type": "string"
            },
            {
              "internalType": "address",
              "name": "institution",
              "type": "address"
            }
          ],
          "internalType": "struct Medivault.Doctor[]",
          "name": "",
          "type": "tuple[]"
        }
      ],
      "stateMutability": "view",
      "type": "function",
      "constant": true
    },
    {
      "inputs": [],
      "name": "fetchDoctorAddresses",
      "outputs": [
        {
          "internalType": "address[]",
          "name": "",
          "type": "address[]"
        }
      ],
      "stateMutability": "view",
      "type": "function",
      "constant": true
    },
    {
      "inputs": [
        {
          "internalType": "address",
          "name": "pubkey",
          "type": "address"
        }
      ],
      "name": "checkDoctor",
      "outputs": [
        {
          "internalType": "bool",
          "name": "",
          "type": "bool"
        }
      ],
      "stateMutability": "view",
      "type": "function",
      "constant": true
    },
    {
      "inputs": [
        {
          "internalType": "address",
          "name": "pubkey",
          "type": "address"
        }
      ],
      "name": "fetchDoctor",
      "outputs": [
        {
          "components": [
            {
              "internalType": "string",
              "name": "name",
              "type": "string"
            },
            {
              "internalType": "string",
              "name": "specialization",
              "type": "string"
            },
            {
              "internalType": "address",
              "name": "institution",
              "type": "address"
            }
          ],
          "internalType": "struct Medivault.Doctor",
          "name": "",
          "type": "tuple"
        }
      ],
      "stateMutability": "view",
      "type": "function",
      "constant": true
    },
    {
      "inputs": [
        {
          "internalType": "string",
          "name": "name",
          "type": "string"
        },
        {
          "internalType": "uint256",
          "name": "age",
          "type": "uint256"
        },
        {
          "internalType": "string",
          "name": "gender",
          "type": "string"
        },
        {
          "internalType": "string",
          "name": "addr",
          "type": "string"
        },
        {
          "internalType": "string",
          "name": "contact",
          "type": "string"
        },
        {
          "internalType": "address",
          "name": "institution",
          "type": "address"
        },
        {
          "internalType": "address",
          "name": "pubkey",
          "type": "address"
        }
      ],
      "name": "addPatient",
      "outputs": [
        {
          "internalType": "bool",
          "name": "",
          "type": "bool"
        }
      ],
      "stateMutability": "nonpayable",
      "type": "function"
    },
    {
      "inputs": [
        {
          "internalType": "address",
          "name": "pubkey",
          "type": "address"
        }
      ],
      "name": "deletePatient",
      "outputs": [
        {
          "internalType": "bool",
          "name": "",
          "type": "bool"
        }
      ],
      "stateMutability": "nonpayable",
      "type": "function"
    },
    {
      "inputs": [
        {
          "internalType": "address",
          "name": "patient",
          "type": "address"
        },
        {
          "internalType": "string",
          "name": "record_title",
          "type": "string"
        },
        {
          "internalType": "string",
          "name": "record_desc",
          "type": "string"
        },
        {
          "internalType": "string",
          "name": "record_data",
          "type": "string"
        }
      ],
      "name": "createRecord",
      "outputs": [
        {
          "internalType": "bool",
          "name": "",
          "type": "bool"
        }
      ],
      "stateMutability": "nonpayable",
      "type": "function"
    },
    {
      "inputs": [
        {
          "internalType": "bytes32",
          "name": "record_hash",
          "type": "bytes32"
        }
      ],
      "name": "getRecord",
      "outputs": [
        {
          "components": [
            {
              "internalType": "address",
              "name": "doctor",
              "type": "address"
            },
            {
              "internalType": "address",
              "name": "patient",
              "type": "address"
            },
            {
              "internalType": "address[]",
              "name": "read_allowed_doctors",
              "type": "address[]"
            },
            {
              "internalType": "address[]",
              "name": "write_allowed_doctors",
              "type": "address[]"
            },
            {
              "internalType": "string",
              "name": "record_title",
              "type": "string"
            },
            {
              "internalType": "string",
              "name": "record_desc",
              "type": "string"
            },
            {
              "internalType": "string",
              "name": "record_data",
              "type": "string"
            }
          ],
          "internalType": "struct Medivault.Record",
          "name": "",
          "type": "tuple"
        }
      ],
      "stateMutability": "view",
      "type": "function",
      "constant": true
    },
    {
      "inputs": [
        {
          "internalType": "bytes32",
          "name": "record_hash",
          "type": "bytes32"
        }
      ],
      "name": "checkReadAccess",
      "outputs": [
        {
          "internalType": "bool",
          "name": "",
          "type": "bool"
        }
      ],
      "stateMutability": "view",
      "type": "function",
      "constant": true
    },
    {
      "inputs": [
        {
          "internalType": "bytes32",
          "name": "record_hash",
          "type": "bytes32"
        }
      ],
      "name": "checkWriteAccess",
      "outputs": [
        {
          "internalType": "bool",
          "name": "",
          "type": "bool"
        }
      ],
      "stateMutability": "view",
      "type": "function",
      "constant": true
    },
    {
      "inputs": [
        {
          "internalType": "bytes32",
          "name": "record_hash",
          "type": "bytes32"
        },
        {
          "internalType": "string",
          "name": "record_title",
          "type": "string"
        },
        {
          "internalType": "string",
          "name": "record_desc",
          "type": "string"
        },
        {
          "internalType": "string",
          "name": "record_data",
          "type": "string"
        }
      ],
      "name": "editRecord",
      "outputs": [
        {
          "internalType": "bool",
          "name": "",
          "type": "bool"
        }
      ],
      "stateMutability": "nonpayable",
      "type": "function"
    },
    {
      "inputs": [
        {
          "internalType": "address",
          "name": "pubkey",
          "type": "address"
        }
      ],
      "name": "checkPatient",
      "outputs": [
        {
          "internalType": "bool",
          "name": "",
          "type": "bool"
        }
      ],
      "stateMutability": "view",
      "type": "function",
      "constant": true
    },
    {
      "inputs": [
        {
          "internalType": "address",
          "name": "pubkey",
          "type": "address"
        }
      ],
      "name": "getPatient",
      "outputs": [
        {
          "components": [
            {
              "internalType": "string",
              "name": "name",
              "type": "string"
            },
            {
              "internalType": "uint256",
              "name": "age",
              "type": "uint256"
            },
            {
              "internalType": "string",
              "name": "gender",
              "type": "string"
            },
            {
              "internalType": "string",
              "name": "addr",
              "type": "string"
            },
            {
              "internalType": "string",
              "name": "contact",
              "type": "string"
            },
            {
              "internalType": "address",
              "name": "institution",
              "type": "address"
            },
            {
              "internalType": "address[]",
              "name": "nominees",
              "type": "address[]"
            }
          ],
          "internalType": "struct Medivault.Patient",
          "name": "",
          "type": "tuple"
        }
      ],
      "stateMutability": "view",
      "type": "function",
      "constant": true
    },
    {
      "inputs": [
        {
          "internalType": "string",
          "name": "name",
          "type": "string"
        },
        {
          "internalType": "uint256",
          "name": "age",
          "type": "uint256"
        },
        {
          "internalType": "string",
          "name": "gender",
          "type": "string"
        },
        {
          "internalType": "string",
          "name": "addr",
          "type": "string"
        },
        {
          "internalType": "string",
          "name": "contact",
          "type": "string"
        }
      ],
      "name": "editPatient",
      "outputs": [],
      "stateMutability": "nonpayable",
      "type": "function"
    },
    {
      "inputs": [],
      "name": "getAllRecords",
      "outputs": [
        {
          "components": [
            {
              "internalType": "address",
              "name": "doctor",
              "type": "address"
            },
            {
              "internalType": "address",
              "name": "patient",
              "type": "address"
            },
            {
              "internalType": "address[]",
              "name": "read_allowed_doctors",
              "type": "address[]"
            },
            {
              "internalType": "address[]",
              "name": "write_allowed_doctors",
              "type": "address[]"
            },
            {
              "internalType": "string",
              "name": "record_title",
              "type": "string"
            },
            {
              "internalType": "string",
              "name": "record_desc",
              "type": "string"
            },
            {
              "internalType": "string",
              "name": "record_data",
              "type": "string"
            }
          ],
          "internalType": "struct Medivault.Record[]",
          "name": "",
          "type": "tuple[]"
        }
      ],
      "stateMutability": "view",
      "type": "function",
      "constant": true
    },
    {
      "inputs": [
        {
          "internalType": "address",
          "name": "patient",
          "type": "address"
        }
      ],
      "name": "getAllRecordsOfPatient",
      "outputs": [
        {
          "components": [
            {
              "internalType": "bytes32",
              "name": "recordHash",
              "type": "bytes32"
            },
            {
              "components": [
                {
                  "internalType": "address",
                  "name": "doctor",
                  "type": "address"
                },
                {
                  "internalType": "address",
                  "name": "patient",
                  "type": "address"
                },
                {
                  "internalType": "address[]",
                  "name": "read_allowed_doctors",
                  "type": "address[]"
                },
                {
                  "internalType": "address[]",
                  "name": "write_allowed_doctors",
                  "type": "address[]"
                },
                {
                  "internalType": "string",
                  "name": "record_title",
                  "type": "string"
                },
                {
                  "internalType": "string",
                  "name": "record_desc",
                  "type": "string"
                },
                {
                  "internalType": "string",
                  "name": "record_data",
                  "type": "string"
                }
              ],
              "internalType": "struct Medivault.Record",
              "name": "recordData",
              "type": "tuple"
            }
          ],
          "internalType": "struct Medivault.RecordWithHash[]",
          "name": "",
          "type": "tuple[]"
        }
      ],
      "stateMutability": "view",
      "type": "function",
      "constant": true
    },
    {
      "inputs": [
        {
          "internalType": "bytes32",
          "name": "record_hash",
          "type": "bytes32"
        }
      ],
      "name": "getReadAccessMembers",
      "outputs": [
        {
          "internalType": "address[]",
          "name": "",
          "type": "address[]"
        }
      ],
      "stateMutability": "view",
      "type": "function",
      "constant": true
    },
    {
      "inputs": [
        {
          "internalType": "bytes32",
          "name": "record_hash",
          "type": "bytes32"
        }
      ],
      "name": "getWriteAccessMembers",
      "outputs": [
        {
          "internalType": "address[]",
          "name": "",
          "type": "address[]"
        }
      ],
      "stateMutability": "view",
      "type": "function",
      "constant": true
    },
    {
      "inputs": [
        {
          "internalType": "bytes32",
          "name": "record_hash",
          "type": "bytes32"
        },
        {
          "internalType": "address",
          "name": "member",
          "type": "address"
        }
      ],
      "name": "addMemberToReadAccess",
      "outputs": [],
      "stateMutability": "nonpayable",
      "type": "function"
    },
    {
      "inputs": [
        {
          "internalType": "bytes32",
          "name": "record_hash",
          "type": "bytes32"
        },
        {
          "internalType": "address",
          "name": "member",
          "type": "address"
        }
      ],
      "name": "addMemberToWriteAccess",
      "outputs": [],
      "stateMutability": "nonpayable",
      "type": "function"
    },
    {
      "inputs": [
        {
          "internalType": "bytes32",
          "name": "record_hash",
          "type": "bytes32"
        },
        {
          "internalType": "address",
          "name": "member",
          "type": "address"
        }
      ],
      "name": "revokeReadAccess",
      "outputs": [],
      "stateMutability": "nonpayable",
      "type": "function"
    },
    {
      "inputs": [
        {
          "internalType": "bytes32",
          "name": "record_hash",
          "type": "bytes32"
        },
        {
          "internalType": "address",
          "name": "member",
          "type": "address"
        }
      ],
      "name": "revokeWriteAccess",
      "outputs": [
        {
          "internalType": "bool",
          "name": "",
          "type": "bool"
        }
      ],
      "stateMutability": "nonpayable",
      "type": "function"
    },
    {
      "inputs": [
        {
          "internalType": "address",
          "name": "nominee",
          "type": "address"
        }
      ],
      "name": "addNominee",
      "outputs": [
        {
          "internalType": "bool",
          "name": "",
          "type": "bool"
        }
      ],
      "stateMutability": "nonpayable",
      "type": "function"
    },
    {
      "inputs": [
        {
          "internalType": "address",
          "name": "pubkey",
          "type": "address"
        }
      ],
      "name": "getNominees",
      "outputs": [
        {
          "internalType": "address[]",
          "name": "",
          "type": "address[]"
        }
      ],
      "stateMutability": "view",
      "type": "function",
      "constant": true
    },
    {
      "inputs": [
        {
          "internalType": "bytes32",
          "name": "record_hash",
          "type": "bytes32"
        }
      ],
      "name": "checkRecord",
      "outputs": [
        {
          "internalType": "bool",
          "name": "",
          "type": "bool"
        }
      ],
      "stateMutability": "view",
      "type": "function",
      "constant": true
    },
    {
      "inputs": [
        {
          "internalType": "bytes32",
          "name": "record_hash",
          "type": "bytes32"
        },
        {
          "internalType": "address",
          "name": "doctor",
          "type": "address"
        }
      ],
      "name": "addReadAllowedDoctor",
      "outputs": [],
      "stateMutability": "nonpayable",
      "type": "function"
    },
    {
      "inputs": [
        {
          "internalType": "bytes32",
          "name": "record_hash",
          "type": "bytes32"
        },
        {
          "internalType": "address",
          "name": "doctor",
          "type": "address"
        }
      ],
      "name": "addWriteAllowedDoctor",
      "outputs": [],
      "stateMutability": "nonpayable",
      "type": "function"
    }
  ],
  "bytecode": "0x60806040523480156200001157600080fd5b50600180548082019091557fb10e2d527612073b26eecdfd717e6a320cf44b4afac2b0732d9fcbe2b7fa0cf60180546001600160a01b0319163390811790915560408051606081018252600b60208281019182526a29bab832b91030b236b4b760a91b838501529082526000938452838152919092208251805191926200009e92849290910190620000a8565b509050506200018a565b828054620000b6906200014e565b90600052602060002090601f016020900481019282620000da576000855562000125565b82601f10620000f557805160ff191683800117855562000125565b8280016001018555821562000125579182015b828111156200012557825182559160200191906001019062000108565b506200013392915062000137565b5090565b5b8082111562000133576000815560010162000138565b600181811c908216806200016357607f821691505b6020821081036200018457634e487b7160e01b600052602260045260246000fd5b50919050565b61586e806200019a6000396000f3fe608060405234801561001057600080fd5b506004361061030c5760003560e01c806388eea6f11161019d578063b5368e20116100e9578063f126e2da116100a2578063f3793a8d1161007c578063f3793a8d146107db578063f56fecef146107ee578063fb50b236146107f6578063fbad73f21461080957600080fd5b8063f126e2da14610795578063f27762f3146107a8578063f2bd93c5146107c857600080fd5b8063b5368e201461071d578063ba44eecf1461073d578063beeed75914610750578063cbf007f314610763578063d15262a614610778578063f0eb03441461078d57600080fd5b80639eb48d1b11610156578063a9583c2211610130578063a9583c22146106c2578063ab05bae6146106e4578063ad25cb42146106f7578063b40f16911461070a57600080fd5b80639eb48d1b14610687578063a1d658b11461069a578063a7f9fe72146106ad57600080fd5b806388eea6f11461062057806388f50b41146106335780638f2448c9146106465780639026dee8146106595780639569afce1461066c5780639bc197e21461067457600080fd5b806334ed1df51161025c5780636001f1d11161021557806376017e5e116101ef57806376017e5e146105b957806376b03479146105cc578063793de5f0146105ed5780637f44782b1461060057600080fd5b80636001f1d1146105805780636529c77714610593578063717a4091146105a657600080fd5b806334ed1df51461046f5780633b1693b6146104bf5780633ba51e7c146104d2578063429b62e5146104fd5780634b8c01fd1461051d57806352cfa31c1461056d57600080fd5b80630b2255f7116102c95780631bd79fc2116102a35780631bd79fc214610407578063213681cd1461041c57806327e1f7df1461043c5780632f3f6be21461044f57600080fd5b80630b2255f7146103ce5780630dd9626d146103e1578063178f7d81146103f457600080fd5b806301e647251461031157806302513ed21461033e5780630763a327146103615780630831b05f146103815780630869cfbc1461039657806308805129146103bb575b600080fd5b61032461031f366004614c05565b61081c565b604051610335959493929190614c6b565b60405180910390f35b61035161034c366004614ce5565b6109f0565b6040519015158152602001610335565b61037461036f366004614ce5565b610b91565b6040516103359190614d07565b61039461038f366004614d9c565b610c0a565b005b6103a96103a4366004614ce5565b610cc5565b60405161033596959493929190614def565b6103516103c9366004614c05565b610f22565b6103516103dc366004614e5e565b610f4b565b6103746103ef366004614c05565b6113a6565b610394610402366004614f01565b61165f565b61040f61184b565b6040516103359190614f2d565b61042f61042a366004614c05565b6119a7565b6040516103359190615078565b61035161044a366004614ce5565b611c5f565b61046261045d366004614ce5565b611d99565b604051610335919061508b565b61039461047d366004614f01565b600091825260086020908152604083206002018054600181018255908452922090910180546001600160a01b0319166001600160a01b03909216919091179055565b6103516104cd366004614ce5565b611e40565b6104e56104e0366004614c05565b611f95565b6040516001600160a01b039091168152602001610335565b61051061050b366004614ce5565b611fbf565b60405161033591906150ae565b61039461052b366004614f01565b600091825260086020908152604083206003018054600181018255908452922090910180546001600160a01b0319166001600160a01b03909216919091179055565b61039461057b366004614f01565b61205d565b61046261058e366004614ce5565b6120d7565b6103516105a1366004614ce5565b612117565b6103516105b4366004615163565b61213d565b6103516105c73660046151b0565b612165565b6105df6105da366004614c05565b61229f565b604051908152602001610335565b6103516105fb366004614ce5565b6122c0565b61061361060e366004614ce5565b6122e6565b604051610335919061527d565b61035161062e366004614f01565b612463565b610351610641366004614c05565b61265c565b6104e5610654366004614c05565b612975565b610351610667366004614ce5565b612985565b6103746129ab565b610351610682366004615290565b612a0d565b610374610695366004614c05565b612ceb565b6103516106a8366004614ce5565b612fa4565b6106b5612fca565b60405161033591906152d0565b6106d56106d0366004614ce5565b61332e565b60405161033593929190615325565b6103946106f2366004615163565b613469565b610510610705366004614ce5565b6134f8565b6104e5610718366004614c05565b613513565b61073061072b366004614ce5565b613523565b6040516103359190615363565b6104e561074b366004614c05565b613858565b61035161075e366004614ce5565b613868565b61076b6138c7565b6040516103359190615415565b610780613af5565b604051610335919061546a565b610374613c6c565b6103946107a33660046154c7565b613ccc565b6107bb6107b6366004614ce5565b613cee565b60405161033591906154fb565b6103946107d6366004614f01565b614163565b6103946107e936600461556f565b6141d9565b6103746143d7565b610351610804366004614c05565b614437565b61035161081736600461563e565b614746565b6008602052600090815260409020805460018201546004830180546001600160a01b039384169492909316926108519061572d565b80601f016020809104026020016040519081016040528092919081815260200182805461087d9061572d565b80156108ca5780601f1061089f576101008083540402835291602001916108ca565b820191906000526020600020905b8154815290600101906020018083116108ad57829003601f168201915b5050505050908060050180546108df9061572d565b80601f016020809104026020016040519081016040528092919081815260200182805461090b9061572d565b80156109585780601f1061092d57610100808354040283529160200191610958565b820191906000526020600020905b81548152906001019060200180831161093b57829003601f168201915b50505050509080600601805461096d9061572d565b80601f01602080910402602001604051908101604052809291908181526020018280546109999061572d565b80156109e65780601f106109bb576101008083540402835291602001916109e6565b820191906000526020600020905b8154815290600101906020018083116109c957829003601f168201915b5050505050905085565b60006109fb82612985565b610a0757506000919050565b60005b600754811015610b0f57826001600160a01b031660078281548110610a3157610a31615761565b6000918252602090912001546001600160a01b031603610afd5760078054610a5b9060019061578d565b81548110610a6b57610a6b615761565b600091825260209091200154600780546001600160a01b039092169183908110610a9757610a97615761565b9060005260206000200160006101000a8154816001600160a01b0302191690836001600160a01b031602179055506007805480610ad657610ad66157a4565b600082815260209020810160001990810180546001600160a01b0319169055019055610b0f565b80610b07816157ba565b915050610a0a565b506001600160a01b038216600090815260066020526040812090610b338282614994565b6001820160009055600282016000610b4b9190614994565b610b59600383016000614994565b610b67600483016000614994565b6005820180546001600160a01b0319169055610b876006830160006149d1565b5060019392505050565b6001600160a01b038116600090815260066020818152604092839020909101805483518184028101840190945280845260609392830182828015610bfe57602002820191906000526020600020905b81546001600160a01b03168152600190910190602001808311610be0575b50505050509050919050565b600380546001810182556000919091527fc2575a0e9e593c00f959f8c92f12db2869c3395a3b0502d05e2516446f71f85b0180546001600160a01b0319166001600160a01b038316179055604080516020601f8501819004810282018301835281018481529091829190869086908190850183828082843760009201829052509390945250506001600160a01b038416815260026020908152604090912083518051919350610cbd9284929101906149ef565b505050505050565b600660205260009081526040902080548190610ce09061572d565b80601f0160208091040260200160405190810160405280929190818152602001828054610d0c9061572d565b8015610d595780601f10610d2e57610100808354040283529160200191610d59565b820191906000526020600020905b815481529060010190602001808311610d3c57829003601f168201915b505050505090806001015490806002018054610d749061572d565b80601f0160208091040260200160405190810160405280929190818152602001828054610da09061572d565b8015610ded5780601f10610dc257610100808354040283529160200191610ded565b820191906000526020600020905b815481529060010190602001808311610dd057829003601f168201915b505050505090806003018054610e029061572d565b80601f0160208091040260200160405190810160405280929190818152602001828054610e2e9061572d565b8015610e7b5780601f10610e5057610100808354040283529160200191610e7b565b820191906000526020600020905b815481529060010190602001808311610e5e57829003601f168201915b505050505090806004018054610e909061572d565b80601f0160208091040260200160405190810160405280929190818152602001828054610ebc9061572d565b8015610f095780601f10610ede57610100808354040283529160200191610f09565b820191906000526020600020905b815481529060010190602001808311610eec57829003601f168201915b505050600590930154919250506001600160a01b031686565b60008181526008602052604081206004018054829190610f419061572d565b9050119050919050565b6000878152600860209081526040808320815160e08101835281546001600160a01b0390811682526001830154168185015260028201805484518187028101870186528181528796939586019390929190830182828015610fd557602002820191906000526020600020905b81546001600160a01b03168152600190910190602001808311610fb7575b505050505081526020016003820180548060200260200160405190810160405280929190818152602001828054801561103757602002820191906000526020600020905b81546001600160a01b03168152600190910190602001808311611019575b505050505081526020016004820180546110509061572d565b80601f016020809104026020016040519081016040528092919081815260200182805461107c9061572d565b80156110c95780601f1061109e576101008083540402835291602001916110c9565b820191906000526020600020905b8154815290600101906020018083116110ac57829003601f168201915b505050505081526020016005820180546110e29061572d565b80601f016020809104026020016040519081016040528092919081815260200182805461110e9061572d565b801561115b5780601f106111305761010080835404028352916020019161115b565b820191906000526020600020905b81548152906001019060200180831161113e57829003601f168201915b505050505081526020016006820180546111749061572d565b80601f01602080910402602001604051908101604052809291908181526020018280546111a09061572d565b80156111ed5780601f106111c2576101008083540402835291602001916111ed565b820191906000526020600020905b8154815290600101906020018083116111d057829003601f168201915b505050505081525050905061120581600001516122c0565b151560000361121857600091505061139b565b87878080601f0160208091040260200160405190810160405280939291908181526020018383808284376000920191909152505050506080820152604080516020601f880181900481028201810190925286815290879087908190840183828082843760009201919091525050505060a0820152604080516020601f8601819004810282018101909252848152908590859081908401838280828437600092018290525060c086019490945250505089815260086020908152604091829020835181546001600160a01b039182166001600160a01b031991821617835583860151600184018054919093169116179055918301518051849392611322926002850192910190614a73565b506060820151805161133e916003840191602090910190614a73565b506080820151805161135a9160048401916020909101906149ef565b5060a082015180516113769160058401916020909101906149ef565b5060c082015180516113929160068401916020909101906149ef565b50600193505050505b979650505050505050565b6000818152600860209081526040808320815160e08101835281546001600160a01b0390811682526001830154168185015260028201805484518187028101870186528181526060979693958601939092919083018282801561143257602002820191906000526020600020905b81546001600160a01b03168152600190910190602001808311611414575b505050505081526020016003820180548060200260200160405190810160405280929190818152602001828054801561149457602002820191906000526020600020905b81546001600160a01b03168152600190910190602001808311611476575b505050505081526020016004820180546114ad9061572d565b80601f01602080910402602001604051908101604052809291908181526020018280546114d99061572d565b80156115265780601f106114fb57610100808354040283529160200191611526565b820191906000526020600020905b81548152906001019060200180831161150957829003601f168201915b5050505050815260200160058201805461153f9061572d565b80601f016020809104026020016040519081016040528092919081815260200182805461156b9061572d565b80156115b85780601f1061158d576101008083540402835291602001916115b8565b820191906000526020600020905b81548152906001019060200180831161159b57829003601f168201915b505050505081526020016006820180546115d19061572d565b80601f01602080910402602001604051908101604052809291908181526020018280546115fd9061572d565b801561164a5780601f1061161f5761010080835404028352916020019161164a565b820191906000526020600020905b81548152906001019060200180831161162d57829003601f168201915b50505091909252505050606001519392505050565b6000828152600860205260408120905b600282015481101561177e57826001600160a01b031682600201828154811061169a5761169a615761565b6000918252602090912001546001600160a01b03160361176c576002820180546116c69060019061578d565b815481106116d6576116d6615761565b6000918252602090912001546002830180546001600160a01b03909216918390811061170457611704615761565b9060005260206000200160006101000a8154816001600160a01b0302191690836001600160a01b0316021790555081600201805480611745576117456157a4565b600082815260209020810160001990810180546001600160a01b031916905501905561177e565b80611776816157ba565b91505061166f565b506000838152600860205260409020815481546001600160a01b039182166001600160a01b03199182161783556001808501549084018054919093169116179055600280830180548493926117d69290840191614ac8565b50600382810180546117eb9284019190614ac8565b5060048201816004019080546118009061572d565b61180b929190614b08565b5060058201816005019080546118209061572d565b61182b929190614b08565b5060068201816006019080546118409061572d565b610cbd929190614b08565b6001546060906000906001600160401b0381111561186b5761186b6150c1565b60405190808252806020026020018201604052801561189e57816020015b60608152602001906001900390816118895790505b50905060005b6001548110156119a157600080600183815481106118c4576118c4615761565b60009182526020808320909101546001600160a01b03168352820192909252604001902080546118f39061572d565b80601f016020809104026020016040519081016040528092919081815260200182805461191f9061572d565b801561196c5780601f106119415761010080835404028352916020019161196c565b820191906000526020600020905b81548152906001019060200180831161194f57829003601f168201915b505050505082828151811061198357611983615761565b60200260200101819052508080611999906157ba565b9150506118a4565b50919050565b6119af614b82565b600082815260086020908152604091829020825160e08101845281546001600160a01b0390811682526001830154168184015260028201805485518186028101860187528181529295939493860193830182828015611a3757602002820191906000526020600020905b81546001600160a01b03168152600190910190602001808311611a19575b5050505050815260200160038201805480602002602001604051908101604052809291908181526020018280548015611a9957602002820191906000526020600020905b81546001600160a01b03168152600190910190602001808311611a7b575b50505050508152602001600482018054611ab29061572d565b80601f0160208091040260200160405190810160405280929190818152602001828054611ade9061572d565b8015611b2b5780601f10611b0057610100808354040283529160200191611b2b565b820191906000526020600020905b815481529060010190602001808311611b0e57829003601f168201915b50505050508152602001600582018054611b449061572d565b80601f0160208091040260200160405190810160405280929190818152602001828054611b709061572d565b8015611bbd5780601f10611b9257610100808354040283529160200191611bbd565b820191906000526020600020905b815481529060010190602001808311611ba057829003601f168201915b50505050508152602001600682018054611bd69061572d565b80601f0160208091040260200160405190810160405280929190818152602001828054611c029061572d565b8015611c4f5780601f10611c2457610100808354040283529160200191611c4f565b820191906000526020600020905b815481529060010190602001808311611c3257829003601f168201915b5050505050815250509050919050565b6001600160a01b038116600090815260026020526040812081611c828282614994565b505060005b600354811015611d9057826001600160a01b031660038281548110611cae57611cae615761565b6000918252602090912001546001600160a01b031603611d7e5760038054611cd89060019061578d565b81548110611ce857611ce8615761565b600091825260209091200154600380546001600160a01b039092169183908110611d1457611d14615761565b9060005260206000200160006101000a8154816001600160a01b0302191690836001600160a01b031602179055506003805480611d5357611d536157a4565b600082815260209020810160001990810180546001600160a01b031916905501905550600192915050565b80611d88816157ba565b915050611c87565b50600092915050565b604080516020810190915260608152611db133612fa4565b611e015760405162461bcd60e51b815260206004820152601b60248201527f53656e646572206973206e6f7420612073757065722061646d696e0000000000604482015260640160405180910390fd5b600080836001600160a01b03166001600160a01b03168152602001908152602001600020604051806020016040529081600082018054611bd69061572d565b6000805b600554811015611f4957826001600160a01b031660058281548110611e6b57611e6b615761565b6000918252602090912001546001600160a01b031603611f375760058054611e959060019061578d565b81548110611ea557611ea5615761565b600091825260209091200154600580546001600160a01b039092169183908110611ed157611ed1615761565b9060005260206000200160006101000a8154816001600160a01b0302191690836001600160a01b031602179055506005805480611f1057611f106157a4565b600082815260209020810160001990810180546001600160a01b0319169055019055611f49565b80611f41816157ba565b915050611e44565b506001600160a01b038216600090815260046020526040812090611f6d8282614994565b611f7b600183016000614994565b5060020180546001600160a01b0319169055506001919050565b60058181548110611fa557600080fd5b6000918252602090912001546001600160a01b0316905081565b600260205260009081526040902080548190611fda9061572d565b80601f01602080910402602001604051908101604052809291908181526020018280546120069061572d565b80156120535780601f1061202857610100808354040283529160200191612053565b820191906000526020600020905b81548152906001019060200180831161203657829003601f168201915b5050505050905081565b600082815260086020908152604082206003810180546001818101835591855292842090920180546001600160a01b038087166001600160a01b031992831617909255938690528154808516908216178255918101805493841693909216929092179055600281018054829182916117d691908190614ac8565b6040805160208082018352606082526001600160a01b038416600090815260028252839020835191820190935282549192909182908290611bd69061572d565b6001600160a01b03811660009081526006602052604081208054829190610f419061572d565b6001600160a01b038216600090815260026020908152604082208351610b87928501906149ef565b6040805160806020601f88018190040282018101909252606081018681526000928291908990899081908501838280828437600092019190915250505090825250604080516020601f8801819004810282018101909252868152918101919087908790819084018382808284376000920182905250938552505033602093840152506001600160a01b03851681526004825260409020825180519192612210928492909101906149ef565b50602082810151805161222992600185019201906149ef565b5060409190910151600290910180546001600160a01b03199081166001600160a01b039384161790915560058054600181810183556000929092527f036b6384b5eca791c62761152d0c79bb0604c104a5fb6f4eb0703f3154bb3db0018054909216949092169390931790925550949350505050565b600981815481106122af57600080fd5b600091825260209091200154905081565b6001600160a01b03811660009081526004602052604081208054829190610f419061572d565b604080516060808201835280825260208201526000918101919091526001600160a01b038216600090815260046020526040908190208151606081019092528054829082906123349061572d565b80601f01602080910402602001604051908101604052809291908181526020018280546123609061572d565b80156123ad5780601f10612382576101008083540402835291602001916123ad565b820191906000526020600020905b81548152906001019060200180831161239057829003601f168201915b505050505081526020016001820180546123c69061572d565b80601f01602080910402602001604051908101604052809291908181526020018280546123f29061572d565b801561243f5780601f106124145761010080835404028352916020019161243f565b820191906000526020600020905b81548152906001019060200180831161242257829003601f168201915b5050509183525050600291909101546001600160a01b031660209091015292915050565b6000828152600860205260408120815b600382015481101561258257836001600160a01b031682600301828154811061249e5761249e615761565b6000918252602090912001546001600160a01b031603612570576003820180546124ca9060019061578d565b815481106124da576124da615761565b6000918252602090912001546003830180546001600160a01b03909216918390811061250857612508615761565b9060005260206000200160006101000a8154816001600160a01b0302191690836001600160a01b0316021790555081600301805480612549576125496157a4565b600082815260209020810160001990810180546001600160a01b0319169055019055612582565b8061257a816157ba565b915050612473565b506000848152600860205260409020815481546001600160a01b039182166001600160a01b03199182161783556001808501549084018054919093169116179055600280830180548493926125da9290840191614ac8565b50600382810180546125ef9284019190614ac8565b5060048201816004019080546126049061572d565b61260f929190614b08565b5060058201816005019080546126249061572d565b61262f929190614b08565b5060068201816006019080546126449061572d565b61264f929190614b08565b5060019695505050505050565b6000818152600860209081526040808320815160e08101835281546001600160a01b03908116825260018301541681850152600282018054845181870281018701865281815287969395860193909291908301828280156126e657602002820191906000526020600020905b81546001600160a01b031681526001909101906020018083116126c8575b505050505081526020016003820180548060200260200160405190810160405280929190818152602001828054801561274857602002820191906000526020600020905b81546001600160a01b0316815260019091019060200180831161272a575b505050505081526020016004820180546127619061572d565b80601f016020809104026020016040519081016040528092919081815260200182805461278d9061572d565b80156127da5780601f106127af576101008083540402835291602001916127da565b820191906000526020600020905b8154815290600101906020018083116127bd57829003601f168201915b505050505081526020016005820180546127f39061572d565b80601f016020809104026020016040519081016040528092919081815260200182805461281f9061572d565b801561286c5780601f106128415761010080835404028352916020019161286c565b820191906000526020600020905b81548152906001019060200180831161284f57829003601f168201915b505050505081526020016006820180546128859061572d565b80601f01602080910402602001604051908101604052809291908181526020018280546128b19061572d565b80156128fe5780601f106128d3576101008083540402835291602001916128fe565b820191906000526020600020905b8154815290600101906020018083116128e157829003601f168201915b505050505081525050905060005b81606001515181101561296b57336001600160a01b03168260600151828151811061293957612939615761565b60200260200101516001600160a01b031603612959575060019392505050565b80612963816157ba565b91505061290c565b5060009392505050565b60018181548110611fa557600080fd5b6001600160a01b03811660009081526002602052604081208054829190610f419061572d565b60606005805480602002602001604051908101604052809291908181526020018280548015612a0357602002820191906000526020600020905b81546001600160a01b031681526001909101906020018083116129e5575b5050505050905090565b6000803389898989898989604051602001612a2f9897969594939291906157d3565b60408051601f198184030181528282528051602091820120600180855284840190935293506000929190808301908036833750506040805160018082528183019092529293506000929150602080830190803683370190505090503382600081518110612a9e57612a9e615761565b60200260200101906001600160a01b031690816001600160a01b0316815250503381600081518110612ad257612ad2615761565b60200260200101906001600160a01b031690816001600160a01b0316815250506040518060e00160405280336001600160a01b031681526020018c6001600160a01b031681526020018381526020018281526020018b8b8080601f016020809104026020016040519081016040528093929190818152602001838380828437600092019190915250505090825250604080516020601f8c018190048102820181019092528a815291810191908b908b9081908401838280828437600092019190915250505090825250604080516020601f8a0181900481028201810190925288815291810191908990899081908401838280828437600092018290525093909452505085815260086020908152604091829020845181546001600160a01b039182166001600160a01b031991821617835586840151600184018054919093169116179055918401518051929350612c329260028501929190910190614a73565b5060608201518051612c4e916003840191602090910190614a73565b5060808201518051612c6a9160048401916020909101906149ef565b5060a08201518051612c869160058401916020909101906149ef565b5060c08201518051612ca29160068401916020909101906149ef565b505060098054600180820183556000929092527f6e1540171b6c0c960b71a7020d9f60077f6af931a8bbf590da0223dacf75c7af019490945550919a9950505050505050505050565b6000818152600860209081526040808320815160e08101835281546001600160a01b03908116825260018301541681850152600282018054845181870281018701865281815260609796939586019390929190830182828015612d7757602002820191906000526020600020905b81546001600160a01b03168152600190910190602001808311612d59575b5050505050815260200160038201805480602002602001604051908101604052809291908181526020018280548015612dd957602002820191906000526020600020905b81546001600160a01b03168152600190910190602001808311612dbb575b50505050508152602001600482018054612df29061572d565b80601f0160208091040260200160405190810160405280929190818152602001828054612e1e9061572d565b8015612e6b5780601f10612e4057610100808354040283529160200191612e6b565b820191906000526020600020905b815481529060010190602001808311612e4e57829003601f168201915b50505050508152602001600582018054612e849061572d565b80601f0160208091040260200160405190810160405280929190818152602001828054612eb09061572d565b8015612efd5780601f10612ed257610100808354040283529160200191612efd565b820191906000526020600020905b815481529060010190602001808311612ee057829003601f168201915b50505050508152602001600682018054612f169061572d565b80601f0160208091040260200160405190810160405280929190818152602001828054612f429061572d565b8015612f8f5780601f10612f6457610100808354040283529160200191612f8f565b820191906000526020600020905b815481529060010190602001808311612f7257829003601f168201915b50505091909252505050604001519392505050565b6001600160a01b03811660009081526020819052604081208054829190610f419061572d565b6009546060906000906001600160401b03811115612fea57612fea6150c1565b60405190808252806020026020018201604052801561302357816020015b613010614b82565b8152602001906001900390816130085790505b50905060005b6009548110156119a157600860006009838154811061304a5761304a615761565b600091825260208083209091015483528281019390935260409182019020815160e08101835281546001600160a01b039081168252600183015416818501526002820180548451818702810187018652818152929593948601938301828280156130dd57602002820191906000526020600020905b81546001600160a01b031681526001909101906020018083116130bf575b505050505081526020016003820180548060200260200160405190810160405280929190818152602001828054801561313f57602002820191906000526020600020905b81546001600160a01b03168152600190910190602001808311613121575b505050505081526020016004820180546131589061572d565b80601f01602080910402602001604051908101604052809291908181526020018280546131849061572d565b80156131d15780601f106131a6576101008083540402835291602001916131d1565b820191906000526020600020905b8154815290600101906020018083116131b457829003601f168201915b505050505081526020016005820180546131ea9061572d565b80601f01602080910402602001604051908101604052809291908181526020018280546132169061572d565b80156132635780601f1061323857610100808354040283529160200191613263565b820191906000526020600020905b81548152906001019060200180831161324657829003601f168201915b5050505050815260200160068201805461327c9061572d565b80601f01602080910402602001604051908101604052809291908181526020018280546132a89061572d565b80156132f55780601f106132ca576101008083540402835291602001916132f5565b820191906000526020600020905b8154815290600101906020018083116132d857829003601f168201915b50505050508152505082828151811061331057613310615761565b60200260200101819052508080613326906157ba565b915050613029565b6004602052600090815260409020805481906133499061572d565b80601f01602080910402602001604051908101604052809291908181526020018280546133759061572d565b80156133c25780601f10613397576101008083540402835291602001916133c2565b820191906000526020600020905b8154815290600101906020018083116133a557829003601f168201915b5050505050908060010180546133d79061572d565b80601f01602080910402602001604051908101604052809291908181526020018280546134039061572d565b80156134505780601f1061342557610100808354040283529160200191613450565b820191906000526020600020905b81548152906001019060200180831161343357829003601f168201915b505050600290930154919250506001600160a01b031683565b60408051602080820183528382526001600160a01b03851660009081528082529290922081518051929391926134a292849201906149ef565b50506001805480820182556000919091527fb10e2d527612073b26eecdfd717e6a320cf44b4afac2b0732d9fcbe2b7fa0cf60180546001600160a01b0319166001600160a01b0394909416939093179092555050565b600060208190529081526040902080548190611fda9061572d565b60078181548110611fa557600080fd5b61356c6040518060e00160405280606081526020016000815260200160608152602001606081526020016060815260200160006001600160a01b03168152602001606081525090565b6001600160a01b03821660009081526006602052604090819020815160e0810190925280548290829061359e9061572d565b80601f01602080910402602001604051908101604052809291908181526020018280546135ca9061572d565b80156136175780601f106135ec57610100808354040283529160200191613617565b820191906000526020600020905b8154815290600101906020018083116135fa57829003601f168201915b505050505081526020016001820154815260200160028201805461363a9061572d565b80601f01602080910402602001604051908101604052809291908181526020018280546136669061572d565b80156136b35780601f10613688576101008083540402835291602001916136b3565b820191906000526020600020905b81548152906001019060200180831161369657829003601f168201915b505050505081526020016003820180546136cc9061572d565b80601f01602080910402602001604051908101604052809291908181526020018280546136f89061572d565b80156137455780601f1061371a57610100808354040283529160200191613745565b820191906000526020600020905b81548152906001019060200180831161372857829003601f168201915b5050505050815260200160048201805461375e9061572d565b80601f016020809104026020016040519081016040528092919081815260200182805461378a9061572d565b80156137d75780601f106137ac576101008083540402835291602001916137d7565b820191906000526020600020905b8154815290600101906020018083116137ba57829003601f168201915b505050918352505060058201546001600160a01b03166020808301919091526006830180546040805182850281018501825282815294019392830182828015611c4f57602002820191906000526020600020905b81546001600160a01b0316815260019091019060200180831161382b575050505050815250509050919050565b60038181548110611fa557600080fd5b600061387382612117565b61387f57506000919050565b503360009081526006602081815260408320909101805460018082018355918452919092200180546001600160a01b0319166001600160a01b03939093169290921790915590565b6005546060906000906001600160401b038111156138e7576138e76150c1565b60405190808252806020026020018201604052801561393457816020015b604080516060808201835280825260208201526000918101919091528152602001906001900390816139055790505b50905060005b6005548110156119a157600460006005838154811061395b5761395b615761565b60009182526020808320909101546001600160a01b03168352820192909252604090810190912081516060810190925280548290829061399a9061572d565b80601f01602080910402602001604051908101604052809291908181526020018280546139c69061572d565b8015613a135780601f106139e857610100808354040283529160200191613a13565b820191906000526020600020905b8154815290600101906020018083116139f657829003601f168201915b50505050508152602001600182018054613a2c9061572d565b80601f0160208091040260200160405190810160405280929190818152602001828054613a589061572d565b8015613aa55780601f10613a7a57610100808354040283529160200191613aa5565b820191906000526020600020905b815481529060010190602001808311613a8857829003601f168201915b5050509183525050600291909101546001600160a01b03166020909101528251839083908110613ad757613ad7615761565b60200260200101819052508080613aed906157ba565b91505061393a565b6003546060906000906001600160401b03811115613b1557613b156150c1565b604051908082528060200260200182016040528015613b5557816020015b604080516020810190915260608152815260200190600190039081613b335790505b50905060005b6003548110156119a1576002600060038381548110613b7c57613b7c615761565b60009182526020808320909101546001600160a01b0316835282810193909352604091820190208151928301909152805482908290613bba9061572d565b80601f0160208091040260200160405190810160405280929190818152602001828054613be69061572d565b8015613c335780601f10613c0857610100808354040283529160200191613c33565b820191906000526020600020905b815481529060010190602001808311613c1657829003601f168201915b505050505081525050828281518110613c4e57613c4e615761565b60200260200101819052508080613c64906157ba565b915050613b5b565b60606003805480602002602001604051908101604052809291908181526020018280548015612a03576020028201919060005260206000209081546001600160a01b031681526001909101906020018083116129e5575050505050905090565b336000908152602081815260409091208251613cea928401906149ef565b5050565b60606000805b600954811015613d6c57836001600160a01b03166008600060098481548110613d1f57613d1f615761565b600091825260208083209091015483528201929092526040019020600101546001600160a01b031603613d5a5781613d56816157ba565b9250505b80613d64816157ba565b915050613cf4565b506000816001600160401b03811115613d8757613d876150c1565b604051908082528060200260200182016040528015613dc057816020015b613dad614bd1565b815260200190600190039081613da55790505b5090506000805b60095481101561415957856001600160a01b03166008600060098481548110613df257613df2615761565b600091825260208083209091015483528201929092526040019020600101546001600160a01b03160361414757604051806040016040528060098381548110613e3d57613e3d615761565b906000526020600020015481526020016008600060098581548110613e6457613e64615761565b600091825260208083209091015483528281019390935260409182019020815160e08101835281546001600160a01b03908116825260018301541681850152600282018054845181870281018701865281815292959394860193830182828015613ef757602002820191906000526020600020905b81546001600160a01b03168152600190910190602001808311613ed9575b5050505050815260200160038201805480602002602001604051908101604052809291908181526020018280548015613f5957602002820191906000526020600020905b81546001600160a01b03168152600190910190602001808311613f3b575b50505050508152602001600482018054613f729061572d565b80601f0160208091040260200160405190810160405280929190818152602001828054613f9e9061572d565b8015613feb5780601f10613fc057610100808354040283529160200191613feb565b820191906000526020600020905b815481529060010190602001808311613fce57829003601f168201915b505050505081526020016005820180546140049061572d565b80601f01602080910402602001604051908101604052809291908181526020018280546140309061572d565b801561407d5780601f106140525761010080835404028352916020019161407d565b820191906000526020600020905b81548152906001019060200180831161406057829003601f168201915b505050505081526020016006820180546140969061572d565b80601f01602080910402602001604051908101604052809291908181526020018280546140c29061572d565b801561410f5780601f106140e45761010080835404028352916020019161410f565b820191906000526020600020905b8154815290600101906020018083116140f257829003601f168201915b50505050508152505081525083838151811061412d5761412d615761565b60200260200101819052508180614143906157ba565b9250505b80614151816157ba565b915050613dc7565b5090949350505050565b60008281526008602090815260408220600281018054600181810183558286529385200180546001600160a01b038088166001600160a01b0319928316179092559487905282548086169082161783559282018054948516949093169390931790915581549091829182916117d6918190614ac8565b33600090815260066020908152604091829020600501548251610100601f8d018490049093028101830190935260e083018b81526060936001600160a01b03909216928291908e908e908190850183828082843760009201919091525050509082525060208082018c905260408051601f8c0183900483028101830182528b8152920191908b908b9081908401838280828437600092019190915250505090825250604080516020601f8a0181900481028201810190925288815291810191908990899081908401838280828437600092019190915250505090825250604080516020601f88018190048102820181019092528681529181019190879087908190840183828082843760009201829052509385525050506001600160a01b03841660208084019190915260409283018690523382526006815291902082518051919261432a928492909101906149ef565b5060208281015160018301556040830151805161434d92600285019201906149ef565b50606082015180516143699160038401916020909101906149ef565b50608082015180516143859160048401916020909101906149ef565b5060a08201516005820180546001600160a01b0319166001600160a01b0390921691909117905560c082015180516143c7916006840191602090910190614a73565b5050505050505050505050505050565b60606001805480602002602001604051908101604052809291908181526020018280548015612a03576020028201919060005260206000209081546001600160a01b031681526001909101906020018083116129e5575050505050905090565b6000818152600860209081526040808320815160e08101835281546001600160a01b03908116825260018301541681850152600282018054845181870281018701865281815287969395860193909291908301828280156144c157602002820191906000526020600020905b81546001600160a01b031681526001909101906020018083116144a3575b505050505081526020016003820180548060200260200160405190810160405280929190818152602001828054801561452357602002820191906000526020600020905b81546001600160a01b03168152600190910190602001808311614505575b5050505050815260200160048201805461453c9061572d565b80601f01602080910402602001604051908101604052809291908181526020018280546145689061572d565b80156145b55780601f1061458a576101008083540402835291602001916145b5565b820191906000526020600020905b81548152906001019060200180831161459857829003601f168201915b505050505081526020016005820180546145ce9061572d565b80601f01602080910402602001604051908101604052809291908181526020018280546145fa9061572d565b80156146475780601f1061461c57610100808354040283529160200191614647565b820191906000526020600020905b81548152906001019060200180831161462a57829003601f168201915b505050505081526020016006820180546146609061572d565b80601f016020809104026020016040519081016040528092919081815260200182805461468c9061572d565b80156146d95780601f106146ae576101008083540402835291602001916146d9565b820191906000526020600020905b8154815290600101906020018083116146bc57829003601f168201915b505050505081525050905060005b81604001515181101561296b57336001600160a01b03168260400151828151811061471457614714615761565b60200260200101516001600160a01b031603614734575060019392505050565b8061473e816157ba565b9150506146e7565b600061475182612117565b1561475e57506000614985565b60606040518060e001604052808e8e8080601f01602080910402602001604051908101604052809392919081815260200183838082843760009201919091525050509082525060208082018e905260408051601f8e0183900483028101830182528d8152920191908d908d9081908401838280828437600092019190915250505090825250604080516020601f8c018190048102820181019092528a815291810191908b908b9081908401838280828437600092019190915250505090825250604080516020601f8a018190048102820181019092528881529181019190899089908190840183828082843760009201829052509385525050506001600160a01b038088166020808501919091526040938401869052908716825260068152919020825180519192614895928492909101906149ef565b506020828101516001830155604083015180516148b892600285019201906149ef565b50606082015180516148d49160038401916020909101906149ef565b50608082015180516148f09160048401916020909101906149ef565b5060a08201516005820180546001600160a01b0319166001600160a01b0390921691909117905560c08201518051614932916006840191602090910190614a73565b505060078054600180820183556000929092527fa66cc928b5edb82af9bd49922954155ab7b0942694bea4ce44661d9a8736c6880180546001600160a01b0319166001600160a01b038716179055925050505b9b9a5050505050505050505050565b5080546149a09061572d565b6000825580601f106149b0575050565b601f0160209004906000526020600020908101906149ce9190614bf0565b50565b50805460008255906000526020600020908101906149ce9190614bf0565b8280546149fb9061572d565b90600052602060002090601f016020900481019282614a1d5760008555614a63565b82601f10614a3657805160ff1916838001178555614a63565b82800160010185558215614a63579182015b82811115614a63578251825591602001919060010190614a48565b50614a6f929150614bf0565b5090565b828054828255906000526020600020908101928215614a63579160200282015b82811115614a6357825182546001600160a01b0319166001600160a01b03909116178255602090920191600190910190614a93565b828054828255906000526020600020908101928215614a635760005260206000209182015b82811115614a63578254825591600101919060010190614aed565b828054614b149061572d565b90600052602060002090601f016020900481019282614b365760008555614a63565b82601f10614b475780548555614a63565b82800160010185558215614a6357600052602060002091601f0160209004820182811115614a63578254825591600101919060010190614aed565b6040518060e0016040528060006001600160a01b0316815260200160006001600160a01b0316815260200160608152602001606081526020016060815260200160608152602001606081525090565b604080518082019091526000815260208101614beb614b82565b905290565b5b80821115614a6f5760008155600101614bf1565b600060208284031215614c1757600080fd5b5035919050565b6000815180845260005b81811015614c4457602081850181015186830182015201614c28565b81811115614c56576000602083870101525b50601f01601f19169290920160200192915050565b6001600160a01b0386811682528516602082015260a060408201819052600090614c9790830186614c1e565b8281036060840152614ca98186614c1e565b90508281036080840152614cbd8185614c1e565b98975050505050505050565b80356001600160a01b0381168114614ce057600080fd5b919050565b600060208284031215614cf757600080fd5b614d0082614cc9565b9392505050565b6020808252825182820181905260009190848201906040850190845b81811015614d485783516001600160a01b031683529284019291840191600101614d23565b50909695505050505050565b60008083601f840112614d6657600080fd5b5081356001600160401b03811115614d7d57600080fd5b602083019150836020828501011115614d9557600080fd5b9250929050565b600080600060408486031215614db157600080fd5b83356001600160401b03811115614dc757600080fd5b614dd386828701614d54565b9094509250614de6905060208501614cc9565b90509250925092565b60c081526000614e0260c0830189614c1e565b8760208401528281036040840152614e1a8188614c1e565b90508281036060840152614e2e8187614c1e565b90508281036080840152614e428186614c1e565b91505060018060a01b03831660a0830152979650505050505050565b60008060008060008060006080888a031215614e7957600080fd5b8735965060208801356001600160401b0380821115614e9757600080fd5b614ea38b838c01614d54565b909850965060408a0135915080821115614ebc57600080fd5b614ec88b838c01614d54565b909650945060608a0135915080821115614ee157600080fd5b50614eee8a828b01614d54565b989b979a50959850939692959293505050565b60008060408385031215614f1457600080fd5b82359150614f2460208401614cc9565b90509250929050565b6000602080830181845280855180835260408601915060408160051b870101925083870160005b82811015614f8257603f19888603018452614f70858351614c1e565b94509285019290850190600101614f54565b5092979650505050505050565b600081518084526020808501945080840160005b83811015614fc85781516001600160a01b031687529582019590820190600101614fa3565b509495945050505050565b600060018060a01b0380835116845280602084015116602085015250604082015160e0604085015261500860e0850182614f8f565b9050606083015184820360608601526150218282614f8f565b9150506080830151848203608086015261503b8282614c1e565b91505060a083015184820360a08601526150558282614c1e565b91505060c083015184820360c086015261506f8282614c1e565b95945050505050565b602081526000614d006020830184614fd3565b60208152600082516020808401526150a66040840182614c1e565b949350505050565b602081526000614d006020830184614c1e565b634e487b7160e01b600052604160045260246000fd5b600082601f8301126150e857600080fd5b81356001600160401b0380821115615102576151026150c1565b604051601f8301601f19908116603f0116810190828211818310171561512a5761512a6150c1565b8160405283815286602085880101111561514357600080fd5b836020870160208301376000602085830101528094505050505092915050565b6000806040838503121561517657600080fd5b61517f83614cc9565b915060208301356001600160401b0381111561519a57600080fd5b6151a6858286016150d7565b9150509250929050565b6000806000806000606086880312156151c857600080fd5b85356001600160401b03808211156151df57600080fd5b6151eb89838a01614d54565b9097509550602088013591508082111561520457600080fd5b5061521188828901614d54565b9094509250615224905060408701614cc9565b90509295509295909350565b60008151606084526152456060850182614c1e565b90506020830151848203602086015261525e8282614c1e565b6040948501516001600160a01b03169590940194909452509092915050565b602081526000614d006020830184615230565b60008060008060008060006080888a0312156152ab57600080fd5b6152b488614cc9565b965060208801356001600160401b0380821115614e9757600080fd5b6000602080830181845280855180835260408601915060408160051b870101925083870160005b82811015614f8257603f19888603018452615313858351614fd3565b945092850192908501906001016152f7565b6060815260006153386060830186614c1e565b828103602084015261534a8186614c1e565b91505060018060a01b0383166040830152949350505050565b602081526000825160e06020840152615380610100840182614c1e565b9050602084015160408401526040840151601f19808584030160608601526153a88383614c1e565b925060608601519150808584030160808601526153c58383614c1e565b925060808601519150808584030160a08601526153e28383614c1e565b60a08701516001600160a01b031660c08781019190915287015186820390920160e08701529250905061506f8282614f8f565b6000602080830181845280855180835260408601915060408160051b870101925083870160005b82811015614f8257603f19888603018452615458858351615230565b9450928501929085019060010161543c565b6000602080830181845280855180835260408601915060408160051b870101925083870160005b82811015614f8257878503603f190184528151518686526154b487870182614c1e565b9550509285019290850190600101615491565b6000602082840312156154d957600080fd5b81356001600160401b038111156154ef57600080fd5b6150a6848285016150d7565b60006020808301818452808551808352604092508286019150828160051b87010184880160005b8381101561556157888303603f1901855281518051845287015187840187905261554e87850182614fd3565b9588019593505090860190600101615522565b509098975050505050505050565b600080600080600080600080600060a08a8c03121561558d57600080fd5b89356001600160401b03808211156155a457600080fd5b6155b08d838e01614d54565b909b50995060208c0135985060408c01359150808211156155d057600080fd5b6155dc8d838e01614d54565b909850965060608c01359150808211156155f557600080fd5b6156018d838e01614d54565b909650945060808c013591508082111561561a57600080fd5b506156278c828d01614d54565b915080935050809150509295985092959850929598565b600080600080600080600080600080600060e08c8e03121561565f57600080fd5b6001600160401b03808d35111561567557600080fd5b6156828e8e358f01614d54565b909c509a5060208d0135995060408d013581101561569f57600080fd5b6156af8e60408f01358f01614d54565b909950975060608d01358110156156c557600080fd5b6156d58e60608f01358f01614d54565b909750955060808d01358110156156eb57600080fd5b506156fc8d60808e01358e01614d54565b909450925061570d60a08d01614cc9565b915061571b60c08d01614cc9565b90509295989b509295989b9093969950565b600181811c9082168061574157607f821691505b6020821081036119a157634e487b7160e01b600052602260045260246000fd5b634e487b7160e01b600052603260045260246000fd5b634e487b7160e01b600052601160045260246000fd5b60008282101561579f5761579f615777565b500390565b634e487b7160e01b600052603160045260246000fd5b6000600182016157cc576157cc615777565b5060010190565b60006bffffffffffffffffffffffff19808b60601b168352808a60601b1660148401525086886028840137868201602881016000815286888237508581019050602881016000815284868237506000930160280192835250909897505050505050505056fea264697066735822122048b2439ceaa5165ea43cbd36f9acf66fdd3138b262ec5519412cab2aab6f573264736f6c634300080d0033",
  "immutableReferences": {},
  "source": "// SPDX-License-Identifier: MIT\r\npragma solidity >=0.4.22 <0.9.0;\r\n\r\ncontract Medivault {\r\n    // function to check if an address is an admin or patient or doctor or super admin\r\n\r\n    // structure of super admin\r\n    struct SuperAdmin {\r\n        string name;\r\n    }\r\n    mapping(address => SuperAdmin) public superAdmins;\r\n    address[] public superAdminAddresses;\r\n\r\n    constructor() {\r\n        superAdminAddresses.push(msg.sender);\r\n        superAdmins[msg.sender] = SuperAdmin({name: \"Super admin\"});\r\n    }\r\n\r\n    function checkSuperAdmin(address pubkey) public view returns (bool) {\r\n        return bytes(superAdmins[pubkey].name).length > 0;\r\n    }\r\n\r\n    function editSuperAdmin(string memory name) public {\r\n        superAdmins[msg.sender].name = name;\r\n    }\r\n\r\n    function addSuperAdmin(address _address, string memory _name) public {\r\n        superAdmins[_address] = SuperAdmin(_name);\r\n        superAdminAddresses.push(_address);\r\n    }\r\n\r\n    function getAllSuperAdmins() public view returns (address[] memory) {\r\n        return superAdminAddresses;\r\n    }\r\n\r\n    function fetchNames() public view returns (string[] memory) {\r\n        string[] memory names = new string[](superAdminAddresses.length);\r\n        for (uint256 i = 0; i < superAdminAddresses.length; i++) {\r\n            names[i] = superAdmins[superAdminAddresses[i]].name;\r\n        }\r\n        return names;\r\n    }\r\n\r\n    function fetchSuperadmin(\r\n        address _address\r\n    ) public view returns (SuperAdmin memory) {\r\n        require(checkSuperAdmin(msg.sender), \"Sender is not a super admin\");\r\n        return superAdmins[_address];\r\n    }\r\n\r\n    function addAdmin(\r\n        string calldata institution_name,\r\n        address _address\r\n    ) public {\r\n        adminAddresses.push(_address);\r\n        admins[_address] = Admin({institution_name: institution_name});\r\n    }\r\n\r\n    function fetchAdminsAddresses() public view returns (address[] memory) {\r\n        return adminAddresses;\r\n    }\r\n\r\n    function fetchAdmins() public view returns (Admin[] memory) {\r\n        Admin[] memory _admins = new Admin[](adminAddresses.length);\r\n        for (uint256 i = 0; i < adminAddresses.length; i++) {\r\n            _admins[i] = admins[adminAddresses[i]];\r\n        }\r\n        return _admins;\r\n    }\r\n\r\n    function deleteAdmin(address _address) public returns (bool) {\r\n        delete admins[_address];\r\n        // search for the _address in the adminAddresses array and delete it\r\n        for (uint256 i = 0; i < adminAddresses.length; i++) {\r\n            if (adminAddresses[i] == _address) {\r\n                adminAddresses[i] = adminAddresses[adminAddresses.length - 1];\r\n                adminAddresses.pop(); // remove the last element\r\n                return true; // exit the function after successful deletion\r\n            }\r\n        }\r\n        return false; // return false if admin doesn't exist or sender is not a super admin\r\n    }\r\n\r\n    // -----------------------------------------------------------------------------------------\r\n\r\n    // Admin structure\r\n    struct Admin {\r\n        string institution_name;\r\n    }\r\n    mapping(address => Admin) public admins;\r\n    address[] public adminAddresses;\r\n\r\n    // admin functions\r\n    // function to check if an address is an admin\r\n    function checkAdmin(address pubkey) public view returns (bool) {\r\n        return bytes(admins[pubkey].institution_name).length > 0;\r\n    }\r\n\r\n    function fetchAdmin(address pubkey) public view returns (Admin memory) {\r\n        return admins[pubkey];\r\n    }\r\n\r\n    function editAdmin(\r\n        address pubkey,\r\n        string memory institution_name\r\n    ) public returns (bool) {\r\n        admins[pubkey].institution_name = institution_name;\r\n        return true;\r\n    }\r\n\r\n    function addDoctor(\r\n        string calldata name,\r\n        string calldata specialization,\r\n        address pubkey\r\n    ) public returns (bool) {\r\n        doctors[pubkey] = Doctor({\r\n            name: name,\r\n            specialization: specialization,\r\n            institution: msg.sender\r\n        });\r\n        doctorAddresses.push(pubkey);\r\n        return true;\r\n    }\r\n\r\n    function deleteDoctor(address pubkey) public returns (bool) {\r\n        // delete the address in the doctorAddresses array\r\n        for (uint256 i = 0; i < doctorAddresses.length; i++) {\r\n            if (doctorAddresses[i] == pubkey) {\r\n                doctorAddresses[i] = doctorAddresses[\r\n                    doctorAddresses.length - 1\r\n                ];\r\n                doctorAddresses.pop();\r\n                break;\r\n            }\r\n        }\r\n        // delete main doctor structure\r\n        delete doctors[pubkey];\r\n        return true;\r\n    }\r\n\r\n    function fetchDoctors() public view returns (Doctor[] memory) {\r\n        Doctor[] memory _doctors = new Doctor[](doctorAddresses.length);\r\n        for (uint256 i = 0; i < doctorAddresses.length; i++) {\r\n            _doctors[i] = doctors[doctorAddresses[i]];\r\n        }\r\n        return _doctors;\r\n    }\r\n\r\n    function fetchDoctorAddresses() public view returns (address[] memory) {\r\n        return doctorAddresses;\r\n    }\r\n\r\n    // -----------------------------------------------------------------------------------------\r\n\r\n    // doctor structure\r\n    struct Doctor {\r\n        string name;\r\n        string specialization;\r\n        // string contact;\r\n        address institution;\r\n    }\r\n    mapping(address => Doctor) public doctors;\r\n    address[] public doctorAddresses;\r\n\r\n    // doctor functions\r\n    // function to check if an address is a doctor\r\n    function checkDoctor(address pubkey) public view returns (bool) {\r\n        return bytes(doctors[pubkey].name).length > 0;\r\n    }\r\n\r\n    function fetchDoctor(address pubkey) public view returns (Doctor memory) {\r\n        return doctors[pubkey];\r\n    }\r\n\r\n    function addPatient(\r\n        string calldata name,\r\n        uint256 age,\r\n        string calldata gender,\r\n        string calldata addr,\r\n        string calldata contact,\r\n        address institution,\r\n        address pubkey\r\n    ) public returns (bool) {\r\n        // check if a patient with the pubkey already exists\r\n        if (checkPatient(pubkey)) {\r\n            return false;\r\n        }\r\n        address[] memory nominees;\r\n        patients[pubkey] = Patient({\r\n            name: name,\r\n            age: age,\r\n            gender: gender,\r\n            addr: addr,\r\n            contact: contact,\r\n            institution: institution,\r\n            nominees: nominees\r\n        });\r\n        patientAddresses.push(pubkey);\r\n        return true;\r\n    }\r\n\r\n    // function to delete a patient\r\n    function deletePatient(address pubkey) public returns (bool) {\r\n        // delete the address in the patientAddresses array\r\n        // check if the address exists in the patientAddresses array\r\n        if (!checkAdmin(pubkey)) {\r\n            return false;\r\n        }\r\n        for (uint256 i = 0; i < patientAddresses.length; i++) {\r\n            if (patientAddresses[i] == pubkey) {\r\n                patientAddresses[i] = patientAddresses[\r\n                    patientAddresses.length - 1\r\n                ];\r\n                patientAddresses.pop();\r\n                break;\r\n            }\r\n        }\r\n        // delete main patient structure\r\n        delete patients[pubkey];\r\n        return true;\r\n    }\r\n\r\n    // function to create a record\r\n    function createRecord(\r\n        address patient,\r\n        string calldata record_title,\r\n        string calldata record_desc,\r\n        string calldata record_data\r\n    ) public returns (bool) {\r\n        bytes32 record_hash = keccak256(\r\n            abi.encodePacked(\r\n                msg.sender,\r\n                patient,\r\n                record_title,\r\n                record_desc,\r\n                record_data\r\n            )\r\n        );\r\n        address[] memory read_allowed_doctors = new address[](1);\r\n        address[] memory write_allowed_doctors = new address[](1);\r\n\r\n        read_allowed_doctors[0] = msg.sender;\r\n\r\n        write_allowed_doctors[0] = msg.sender;\r\n\r\n        records[record_hash] = Record({\r\n            doctor: msg.sender,\r\n            patient: patient,\r\n            read_allowed_doctors: read_allowed_doctors,\r\n            write_allowed_doctors: write_allowed_doctors,\r\n            record_title: record_title,\r\n            record_desc: record_desc,\r\n            record_data: record_data\r\n        });\r\n        recordHashes.push(record_hash);\r\n        return true;\r\n    }\r\n    \r\n\r\n    // function to fetch a record\r\n    function getRecord(\r\n        bytes32 record_hash\r\n    ) public view returns (Record memory) {\r\n        // check if the record exists\r\n        return records[record_hash];\r\n    }\r\n\r\n    // function to check if the doctor has read access\r\n    function checkReadAccess(bytes32 record_hash) public view returns (bool) {\r\n        Record memory record = records[record_hash];\r\n        for (uint256 i = 0; i < record.read_allowed_doctors.length; i++) {\r\n            if (record.read_allowed_doctors[i] == msg.sender) {\r\n                return true;\r\n            }\r\n        }\r\n        return false;\r\n    }\r\n\r\n    //function to check if the doctor has write access\r\n    function checkWriteAccess(bytes32 record_hash) public view returns (bool) {\r\n        Record memory record = records[record_hash];\r\n        for (uint256 i = 0; i < record.write_allowed_doctors.length; i++) {\r\n            if (record.write_allowed_doctors[i] == msg.sender) {\r\n                return true;\r\n            }\r\n        }\r\n        return false;\r\n    }\r\n\r\n    // function to edit record data by doctor\r\n    function editRecord(\r\n        bytes32 record_hash,\r\n        string calldata record_title,\r\n        string calldata record_desc,\r\n        string calldata record_data\r\n    ) public returns (bool) {\r\n        Record memory record = records[record_hash];\r\n        if (checkDoctor(record.doctor) == false) {\r\n            return false;\r\n        }\r\n        record.record_title = record_title;\r\n        record.record_desc = record_desc;\r\n        record.record_data = record_data;\r\n        records[record_hash] = record;\r\n        return true;\r\n    }\r\n\r\n    // -----------------------------------------------------------------------------------------\r\n\r\n    // patient structure\r\n    struct Patient {\r\n        string name;\r\n        uint256 age;\r\n        string gender;\r\n        string addr;\r\n        string contact;\r\n        address institution;\r\n        address[] nominees;\r\n    }\r\n    mapping(address => Patient) public patients;\r\n    address[] public patientAddresses;\r\n\r\n    // patient functions\r\n    // function to check if an address is a patient\r\n    function checkPatient(address pubkey) public view returns (bool) {\r\n        return bytes(patients[pubkey].name).length > 0;\r\n    }\r\n\r\n    //function to fetch a patient by address\r\n    function getPatient(address pubkey) public view returns (Patient memory) {\r\n        return patients[pubkey];\r\n    }\r\n\r\n    function editPatient(\r\n        string calldata name,\r\n        uint256 age,\r\n        string calldata gender,\r\n        string calldata addr,\r\n        string calldata contact\r\n    ) public {\r\n        address[] memory nominees;\r\n        address institution = patients[msg.sender].institution;\r\n        patients[msg.sender] = Patient({\r\n            name: name,\r\n            age: age,\r\n            gender: gender,\r\n            addr: addr,\r\n            contact: contact,\r\n            institution: institution,\r\n            nominees: nominees\r\n        });\r\n    }\r\n\r\n    // function to fetch all records\r\n    function getAllRecords() public view returns (Record[] memory) {\r\n        Record[] memory _records = new Record[](recordHashes.length);\r\n        for (uint256 i = 0; i < recordHashes.length; i++) {\r\n            _records[i] = records[recordHashes[i]];\r\n        }\r\n        return _records;\r\n    }\r\n\r\n    // function to fetch all records of a particular patient\r\n    struct RecordWithHash {\r\n        bytes32 recordHash;\r\n        Record recordData;\r\n    }\r\n\r\n    function getAllRecordsOfPatient(\r\n        address patient\r\n    ) public view returns (RecordWithHash[] memory) {\r\n        uint256 count = 0;\r\n        for (uint256 i = 0; i < recordHashes.length; i++) {\r\n            if (records[recordHashes[i]].patient == patient) {\r\n                count++;\r\n            }\r\n        }\r\n\r\n        RecordWithHash[] memory _records = new RecordWithHash[](count);\r\n        uint256 index = 0;\r\n        for (uint256 i = 0; i < recordHashes.length; i++) {\r\n            if (records[recordHashes[i]].patient == patient) {\r\n                _records[index] = RecordWithHash({\r\n                    recordHash: recordHashes[i],\r\n                    recordData: records[recordHashes[i]]\r\n                });\r\n                index++;\r\n            }\r\n        }\r\n\r\n        return _records;\r\n    }\r\n\r\n    //function to fetch all the  read access members\r\n    function getReadAccessMembers(\r\n        bytes32 record_hash\r\n    ) public view returns (address[] memory) {\r\n        Record memory record = records[record_hash];\r\n        return record.read_allowed_doctors;\r\n    }\r\n\r\n    //function to fetch all the  write access members\r\n    function getWriteAccessMembers(\r\n        bytes32 record_hash\r\n    ) public view returns (address[] memory) {\r\n        Record memory record = records[record_hash];\r\n        return record.write_allowed_doctors;\r\n    }\r\n\r\n    function addMemberToReadAccess(bytes32 record_hash, address member) public {\r\n        Record storage record = records[record_hash]; // Use 'storage' instead of 'memory'\r\n        record.read_allowed_doctors.push(member); // Use 'push' to add to dynamic array\r\n        records[record_hash] = record; // Update the stored record\r\n    }\r\n\r\n    //function to add member to write access of the record\r\n    function addMemberToWriteAccess(\r\n        bytes32 record_hash,\r\n        address member\r\n    ) public {\r\n        Record storage record = records[record_hash]; // Use 'storage' instead of 'memory'\r\n        record.write_allowed_doctors.push(member); // Use 'push' to add to dynamic array\r\n        records[record_hash] = record; // Update the stored record\r\n    }\r\n\r\n    // function to revoke read access of the record\r\n    function revokeReadAccess(bytes32 record_hash, address member) public {\r\n        Record storage record = records[record_hash];\r\n        for (uint256 i = 0; i < record.read_allowed_doctors.length; i++) {\r\n            if (record.read_allowed_doctors[i] == member) {\r\n                record.read_allowed_doctors[i] = record.read_allowed_doctors[\r\n                    record.read_allowed_doctors.length - 1\r\n                ];\r\n                record.read_allowed_doctors.pop();\r\n                break;\r\n            }\r\n        }\r\n        records[record_hash] = record;\r\n    }\r\n\r\n    // function to revoke write access of the record with bool returns\r\n    function revokeWriteAccess(\r\n        bytes32 record_hash,\r\n        address member\r\n    ) public returns (bool) {\r\n        Record storage record = records[record_hash];\r\n        for (uint256 i = 0; i < record.write_allowed_doctors.length; i++) {\r\n            if (record.write_allowed_doctors[i] == member) {\r\n                record.write_allowed_doctors[i] = record.write_allowed_doctors[\r\n                    record.write_allowed_doctors.length - 1\r\n                ];\r\n                record.write_allowed_doctors.pop();\r\n                break;\r\n            }\r\n        }\r\n        records[record_hash] = record;\r\n        return true;\r\n    }\r\n\r\n    // function to add a nominee to a patient and returns a boolean\r\n    function addNominee(address nominee) public returns (bool) {\r\n        // check if the nominee is a patient\r\n        if (!checkPatient(nominee)) {\r\n            return false;\r\n        }\r\n        patients[msg.sender].nominees.push(nominee);\r\n        return true;\r\n    }\r\n\r\n    // function addNominee(address nominee) public {\r\n    //     patients[msg.sender].nominees[\r\n    //         patients[msg.sender].nominees.length\r\n    //     ] = nominee;\r\n    // }\r\n\r\n    //function to fetch a patient's nominees\r\n    function getNominees(\r\n        address pubkey\r\n    ) public view returns (address[] memory) {\r\n        return patients[pubkey].nominees;\r\n    }\r\n\r\n    struct Record {\r\n        address doctor;\r\n        address patient;\r\n        address[] read_allowed_doctors;\r\n        address[] write_allowed_doctors;\r\n        string record_title;\r\n        string record_desc;\r\n        string record_data;\r\n    }\r\n    mapping(bytes32 => Record) public records;\r\n    bytes32[] public recordHashes;\r\n\r\n    // patient record functions\r\n    // function to check if a record exists or not\r\n    function checkRecord(bytes32 record_hash) public view returns (bool) {\r\n        return bytes(records[record_hash].record_title).length > 0;\r\n    }\r\n\r\n    function addReadAllowedDoctor(bytes32 record_hash, address doctor) public {\r\n        records[record_hash].read_allowed_doctors.push(doctor);\r\n    }\r\n\r\n    function addWriteAllowedDoctor(bytes32 record_hash, address doctor) public {\r\n        records[record_hash].write_allowed_doctors.push(doctor);\r\n    }\r\n}\r\n",
  "sourcePath": "C:\\Users\\midhu\\OneDrive\\Documents\\GitHub\\Final-Year-Project-\\myapp\\contracts\\Medivault.sol",
  "compiler": {
    "name": "solc",
    "version": "0.8.13+commit.abaa5c0e.Emscripten.clang"
  },
  "schemaVersion": "3.4.16",
  "updatedAt": "2024-05-01T18:25:31.103Z",
  "networkType": "ethereum",
  "devdoc": {
    "kind": "dev",
    "methods": {},
    "version": 1
  },
  "userdoc": {
    "kind": "user",
    "methods": {},
    "version": 1
  }
}