{
  "contractName": "Medivault",
  "abi": [
    {
      "inputs": [],
      "stateMutability": "nonpayable",
      "type": "constructor"
    },
    {
      "inputs": [
        {
          "internalType": "uint256",
          "name": "",
          "type": "uint256"
        }
      ],
      "name": "adminAddresses",
      "outputs": [
        {
          "internalType": "address",
          "name": "",
          "type": "address"
        }
      ],
      "stateMutability": "view",
      "type": "function",
      "constant": true
    },
    {
      "inputs": [
        {
          "internalType": "address",
          "name": "",
          "type": "address"
        }
      ],
      "name": "admins",
      "outputs": [
        {
          "internalType": "string",
          "name": "institution_name",
          "type": "string"
        }
      ],
      "stateMutability": "view",
      "type": "function",
      "constant": true
    },
    {
      "inputs": [
        {
          "internalType": "uint256",
          "name": "",
          "type": "uint256"
        }
      ],
      "name": "superAdminAddresses",
      "outputs": [
        {
          "internalType": "address",
          "name": "",
          "type": "address"
        }
      ],
      "stateMutability": "view",
      "type": "function",
      "constant": true
    },
    {
      "inputs": [
        {
          "internalType": "address",
          "name": "",
          "type": "address"
        }
      ],
      "name": "superAdmins",
      "outputs": [
        {
          "internalType": "string",
          "name": "name",
          "type": "string"
        }
      ],
      "stateMutability": "view",
      "type": "function",
      "constant": true
    },
    {
      "inputs": [
        {
          "internalType": "address",
          "name": "pubkey",
          "type": "address"
        }
      ],
      "name": "checkSuperAdmin",
      "outputs": [
        {
          "internalType": "bool",
          "name": "",
          "type": "bool"
        }
      ],
      "stateMutability": "view",
      "type": "function",
      "constant": true
    },
    {
      "inputs": [
        {
          "internalType": "string",
          "name": "name",
          "type": "string"
        }
      ],
      "name": "editSuperAdmin",
      "outputs": [],
      "stateMutability": "nonpayable",
      "type": "function"
    },
    {
      "inputs": [
        {
          "internalType": "address",
          "name": "_address",
          "type": "address"
        },
        {
          "internalType": "string",
          "name": "_name",
          "type": "string"
        }
      ],
      "name": "addSuperAdmin",
      "outputs": [],
      "stateMutability": "nonpayable",
      "type": "function"
    },
    {
      "inputs": [],
      "name": "getAllSuperAdmins",
      "outputs": [
        {
          "internalType": "address[]",
          "name": "",
          "type": "address[]"
        }
      ],
      "stateMutability": "view",
      "type": "function",
      "constant": true
    },
    {
      "inputs": [],
      "name": "fetchNames",
      "outputs": [
        {
          "internalType": "string[]",
          "name": "",
          "type": "string[]"
        }
      ],
      "stateMutability": "view",
      "type": "function",
      "constant": true
    },
    {
      "inputs": [
        {
          "internalType": "address",
          "name": "_address",
          "type": "address"
        }
      ],
      "name": "fetchSuperadmin",
      "outputs": [
        {
          "components": [
            {
              "internalType": "string",
              "name": "name",
              "type": "string"
            }
          ],
          "internalType": "struct Medivault.SuperAdmin",
          "name": "",
          "type": "tuple"
        }
      ],
      "stateMutability": "view",
      "type": "function",
      "constant": true
    },
    {
      "inputs": [
        {
          "internalType": "string",
          "name": "institution_name",
          "type": "string"
        },
        {
          "internalType": "address",
          "name": "_address",
          "type": "address"
        }
      ],
      "name": "addAdmin",
      "outputs": [],
      "stateMutability": "nonpayable",
      "type": "function"
    },
    {
      "inputs": [],
      "name": "fetchAdminsAddresses",
      "outputs": [
        {
          "internalType": "address[]",
          "name": "",
          "type": "address[]"
        }
      ],
      "stateMutability": "view",
      "type": "function",
      "constant": true
    },
    {
      "inputs": [],
      "name": "fetchAdmins",
      "outputs": [
        {
          "components": [
            {
              "internalType": "string",
              "name": "institution_name",
              "type": "string"
            }
          ],
          "internalType": "struct Medivault.Admin[]",
          "name": "",
          "type": "tuple[]"
        }
      ],
      "stateMutability": "view",
      "type": "function",
      "constant": true
    },
    {
      "inputs": [
        {
          "internalType": "address",
          "name": "_address",
          "type": "address"
        }
      ],
      "name": "deleteAdmin",
      "outputs": [
        {
          "internalType": "bool",
          "name": "",
          "type": "bool"
        }
      ],
      "stateMutability": "nonpayable",
      "type": "function"
    },
    {
      "inputs": [
        {
          "internalType": "address",
          "name": "pubkey",
          "type": "address"
        }
      ],
      "name": "checkAdmin",
      "outputs": [
        {
          "internalType": "bool",
          "name": "",
          "type": "bool"
        }
      ],
      "stateMutability": "view",
      "type": "function",
      "constant": true
    }
  ],
  "bytecode": "0x60806040523480156200001157600080fd5b506001339080600181540180825580915050600190039060005260206000200160009091909190916101000a81548173ffffffffffffffffffffffffffffffffffffffff021916908373ffffffffffffffffffffffffffffffffffffffff16021790555060405180602001604052806040518060400160405280600b81526020017f53757065722061646d696e0000000000000000000000000000000000000000008152508152506000803373ffffffffffffffffffffffffffffffffffffffff1673ffffffffffffffffffffffffffffffffffffffff1681526020019081526020016000206000820151816000019080519060200190620001159291906200011f565b5090505062000233565b8280546200012d90620001fe565b90600052602060002090601f0160209004810192826200015157600085556200019d565b82601f106200016c57805160ff19168380011785556200019d565b828001600101855582156200019d579182015b828111156200019c5782518255916020019190600101906200017f565b5b509050620001ac9190620001b0565b5090565b5b80821115620001cb576000816000905550600101620001b1565b5090565b7f4e487b7100000000000000000000000000000000000000000000000000000000600052602260045260246000fd5b600060028204905060018216806200021757607f821691505b6020821081036200022d576200022c620001cf565b5b50919050565b611ae780620002436000396000f3fe608060405234801561001057600080fd5b50600436106100f55760003560e01c8063a1d658b111610097578063d15262a611610066578063d15262a6146102d0578063f0eb0344146102ee578063f126e2da1461030c578063f56fecef14610328576100f5565b8063a1d658b114610224578063ab05bae614610254578063ad25cb4214610270578063ba44eecf146102a0576100f5565b80632f3f6be2116100d35780632f3f6be214610164578063429b62e5146101945780638f2448c9146101c45780639026dee8146101f4576100f5565b80630831b05f146100fa5780631bd79fc21461011657806327e1f7df14610134575b600080fd5b610114600480360381019061010f9190611194565b610346565b005b61011e610460565b60405161012b919061134f565b60405180910390f35b61014e60048036038101906101499190611371565b61060a565b60405161015b91906113b9565b60405180910390f35b61017e60048036038101906101799190611371565b6107fa565b60405161018b91906113fe565b60405180910390f35b6101ae60048036038101906101a99190611371565b61092c565b6040516101bb919061146a565b60405180910390f35b6101de60048036038101906101d991906114c2565b6109d2565b6040516101eb91906114fe565b60405180910390f35b61020e60048036038101906102099190611371565b610a11565b60405161021b91906113b9565b60405180910390f35b61023e60048036038101906102399190611371565b610a6b565b60405161024b91906113b9565b60405180910390f35b61026e60048036038101906102699190611649565b610ac4565b005b61028a60048036038101906102859190611371565b610b98565b604051610297919061146a565b60405180910390f35b6102ba60048036038101906102b591906114c2565b610c3e565b6040516102c791906114fe565b60405180910390f35b6102d8610c7d565b6040516102e59190611791565b60405180910390f35b6102f6610e3f565b6040516103039190611871565b60405180910390f35b61032660048036038101906103219190611893565b610ecd565b005b610330610f26565b60405161033d9190611871565b60405180910390f35b6003819080600181540180825580915050600190039060005260206000200160009091909190916101000a81548173ffffffffffffffffffffffffffffffffffffffff021916908373ffffffffffffffffffffffffffffffffffffffff160217905550604051806020016040528084848080601f016020809104026020016040519081016040528093929190818152602001838380828437600081840152601f19601f82011690508083019250505050505050815250600260008373ffffffffffffffffffffffffffffffffffffffff1673ffffffffffffffffffffffffffffffffffffffff1681526020019081526020016000206000820151816000019080519060200190610457929190610fb4565b50905050505050565b6060600060018054905067ffffffffffffffff8111156104835761048261151e565b5b6040519080825280602002602001820160405280156104b657816020015b60608152602001906001900390816104a15790505b50905060005b60018054905081101561060257600080600183815481106104e0576104df6118dc565b5b9060005260206000200160009054906101000a900473ffffffffffffffffffffffffffffffffffffffff1673ffffffffffffffffffffffffffffffffffffffff1673ffffffffffffffffffffffffffffffffffffffff16815260200190815260200160002060000180546105539061193a565b80601f016020809104026020016040519081016040528092919081815260200182805461057f9061193a565b80156105cc5780601f106105a1576101008083540402835291602001916105cc565b820191906000526020600020905b8154815290600101906020018083116105af57829003601f168201915b50505050508282815181106105e4576105e36118dc565b5b602002602001018190525080806105fa9061199a565b9150506104bc565b508091505090565b6000600260008373ffffffffffffffffffffffffffffffffffffffff1673ffffffffffffffffffffffffffffffffffffffff1681526020019081526020016000206000808201600061065c919061103a565b505060005b6003805490508110156107ef578273ffffffffffffffffffffffffffffffffffffffff1660038281548110610699576106986118dc565b5b9060005260206000200160009054906101000a900473ffffffffffffffffffffffffffffffffffffffff1673ffffffffffffffffffffffffffffffffffffffff16036107dc57600360016003805490506106f391906119e2565b81548110610704576107036118dc565b5b9060005260206000200160009054906101000a900473ffffffffffffffffffffffffffffffffffffffff1660038281548110610743576107426118dc565b5b9060005260206000200160006101000a81548173ffffffffffffffffffffffffffffffffffffffff021916908373ffffffffffffffffffffffffffffffffffffffff160217905550600380548061079d5761079c611a16565b5b6001900381819060005260206000200160006101000a81549073ffffffffffffffffffffffffffffffffffffffff0219169055905560019150506107f5565b80806107e79061199a565b915050610661565b50600090505b919050565b61080261107a565b61080b33610a6b565b61084a576040517f08c379a000000000000000000000000000000000000000000000000000000000815260040161084190611a91565b60405180910390fd5b6000808373ffffffffffffffffffffffffffffffffffffffff1673ffffffffffffffffffffffffffffffffffffffff1681526020019081526020016000206040518060200160405290816000820180546108a39061193a565b80601f01602080910402602001604051908101604052809291908181526020018280546108cf9061193a565b801561091c5780601f106108f15761010080835404028352916020019161091c565b820191906000526020600020905b8154815290600101906020018083116108ff57829003601f168201915b5050505050815250509050919050565b600260205280600052604060002060009150905080600001805461094f9061193a565b80601f016020809104026020016040519081016040528092919081815260200182805461097b9061193a565b80156109c85780601f1061099d576101008083540402835291602001916109c8565b820191906000526020600020905b8154815290600101906020018083116109ab57829003601f168201915b5050505050905081565b600181815481106109e257600080fd5b906000526020600020016000915054906101000a900473ffffffffffffffffffffffffffffffffffffffff1681565b600080600260008473ffffffffffffffffffffffffffffffffffffffff1673ffffffffffffffffffffffffffffffffffffffff1681526020019081526020016000206000018054610a619061193a565b9050119050919050565b6000806000808473ffffffffffffffffffffffffffffffffffffffff1673ffffffffffffffffffffffffffffffffffffffff1681526020019081526020016000206000018054610aba9061193a565b9050119050919050565b6040518060200160405280828152506000808473ffffffffffffffffffffffffffffffffffffffff1673ffffffffffffffffffffffffffffffffffffffff1681526020019081526020016000206000820151816000019080519060200190610b2d929190610fb4565b509050506001829080600181540180825580915050600190039060005260206000200160009091909190916101000a81548173ffffffffffffffffffffffffffffffffffffffff021916908373ffffffffffffffffffffffffffffffffffffffff1602179055505050565b6000602052806000526040600020600091509050806000018054610bbb9061193a565b80601f0160208091040260200160405190810160405280929190818152602001828054610be79061193a565b8015610c345780601f10610c0957610100808354040283529160200191610c34565b820191906000526020600020905b815481529060010190602001808311610c1757829003601f168201915b5050505050905081565b60038181548110610c4e57600080fd5b906000526020600020016000915054906101000a900473ffffffffffffffffffffffffffffffffffffffff1681565b6060600060038054905067ffffffffffffffff811115610ca057610c9f61151e565b5b604051908082528060200260200182016040528015610cd957816020015b610cc661108d565b815260200190600190039081610cbe5790505b50905060005b600380549050811015610e37576002600060038381548110610d0457610d036118dc565b5b9060005260206000200160009054906101000a900473ffffffffffffffffffffffffffffffffffffffff1673ffffffffffffffffffffffffffffffffffffffff1673ffffffffffffffffffffffffffffffffffffffff168152602001908152602001600020604051806020016040529081600082018054610d849061193a565b80601f0160208091040260200160405190810160405280929190818152602001828054610db09061193a565b8015610dfd5780601f10610dd257610100808354040283529160200191610dfd565b820191906000526020600020905b815481529060010190602001808311610de057829003601f168201915b505050505081525050828281518110610e1957610e186118dc565b5b60200260200101819052508080610e2f9061199a565b915050610cdf565b508091505090565b60606003805480602002602001604051908101604052809291908181526020018280548015610ec357602002820191906000526020600020905b8160009054906101000a900473ffffffffffffffffffffffffffffffffffffffff1673ffffffffffffffffffffffffffffffffffffffff1681526020019060010190808311610e79575b5050505050905090565b806000803373ffffffffffffffffffffffffffffffffffffffff1673ffffffffffffffffffffffffffffffffffffffff1681526020019081526020016000206000019080519060200190610f22929190610fb4565b5050565b60606001805480602002602001604051908101604052809291908181526020018280548015610faa57602002820191906000526020600020905b8160009054906101000a900473ffffffffffffffffffffffffffffffffffffffff1673ffffffffffffffffffffffffffffffffffffffff1681526020019060010190808311610f60575b5050505050905090565b828054610fc09061193a565b90600052602060002090601f016020900481019282610fe25760008555611029565b82601f10610ffb57805160ff1916838001178555611029565b82800160010185558215611029579182015b8281111561102857825182559160200191906001019061100d565b5b50905061103691906110a0565b5090565b5080546110469061193a565b6000825580601f106110585750611077565b601f01602090049060005260206000209081019061107691906110a0565b5b50565b6040518060200160405280606081525090565b6040518060200160405280606081525090565b5b808211156110b95760008160009055506001016110a1565b5090565b6000604051905090565b600080fd5b600080fd5b600080fd5b600080fd5b600080fd5b60008083601f8401126110f6576110f56110d1565b5b8235905067ffffffffffffffff811115611113576111126110d6565b5b60208301915083600182028301111561112f5761112e6110db565b5b9250929050565b600073ffffffffffffffffffffffffffffffffffffffff82169050919050565b600061116182611136565b9050919050565b61117181611156565b811461117c57600080fd5b50565b60008135905061118e81611168565b92915050565b6000806000604084860312156111ad576111ac6110c7565b5b600084013567ffffffffffffffff8111156111cb576111ca6110cc565b5b6111d7868287016110e0565b935093505060206111ea8682870161117f565b9150509250925092565b600081519050919050565b600082825260208201905092915050565b6000819050602082019050919050565b600081519050919050565b600082825260208201905092915050565b60005b8381101561125a57808201518184015260208101905061123f565b83811115611269576000848401525b50505050565b6000601f19601f8301169050919050565b600061128b82611220565b611295818561122b565b93506112a581856020860161123c565b6112ae8161126f565b840191505092915050565b60006112c58383611280565b905092915050565b6000602082019050919050565b60006112e5826111f4565b6112ef81856111ff565b93508360208202850161130185611210565b8060005b8581101561133d578484038952815161131e85826112b9565b9450611329836112cd565b925060208a01995050600181019050611305565b50829750879550505050505092915050565b6000602082019050818103600083015261136981846112da565b905092915050565b600060208284031215611387576113866110c7565b5b60006113958482850161117f565b91505092915050565b60008115159050919050565b6113b38161139e565b82525050565b60006020820190506113ce60008301846113aa565b92915050565b600060208301600083015184820360008601526113f18282611280565b9150508091505092915050565b6000602082019050818103600083015261141881846113d4565b905092915050565b600082825260208201905092915050565b600061143c82611220565b6114468185611420565b935061145681856020860161123c565b61145f8161126f565b840191505092915050565b600060208201905081810360008301526114848184611431565b905092915050565b6000819050919050565b61149f8161148c565b81146114aa57600080fd5b50565b6000813590506114bc81611496565b92915050565b6000602082840312156114d8576114d76110c7565b5b60006114e6848285016114ad565b91505092915050565b6114f881611156565b82525050565b600060208201905061151360008301846114ef565b92915050565b600080fd5b7f4e487b7100000000000000000000000000000000000000000000000000000000600052604160045260246000fd5b6115568261126f565b810181811067ffffffffffffffff821117156115755761157461151e565b5b80604052505050565b60006115886110bd565b9050611594828261154d565b919050565b600067ffffffffffffffff8211156115b4576115b361151e565b5b6115bd8261126f565b9050602081019050919050565b82818337600083830152505050565b60006115ec6115e784611599565b61157e565b90508281526020810184848401111561160857611607611519565b5b6116138482856115ca565b509392505050565b600082601f8301126116305761162f6110d1565b5b81356116408482602086016115d9565b91505092915050565b600080604083850312156116605761165f6110c7565b5b600061166e8582860161117f565b925050602083013567ffffffffffffffff81111561168f5761168e6110cc565b5b61169b8582860161161b565b9150509250929050565b600081519050919050565b600082825260208201905092915050565b6000819050602082019050919050565b600060208301600083015184820360008601526116ee8282611280565b9150508091505092915050565b600061170783836116d1565b905092915050565b6000602082019050919050565b6000611727826116a5565b61173181856116b0565b935083602082028501611743856116c1565b8060005b8581101561177f578484038952815161176085826116fb565b945061176b8361170f565b925060208a01995050600181019050611747565b50829750879550505050505092915050565b600060208201905081810360008301526117ab818461171c565b905092915050565b600081519050919050565b600082825260208201905092915050565b6000819050602082019050919050565b6117e881611156565b82525050565b60006117fa83836117df565b60208301905092915050565b6000602082019050919050565b600061181e826117b3565b61182881856117be565b9350611833836117cf565b8060005b8381101561186457815161184b88826117ee565b975061185683611806565b925050600181019050611837565b5085935050505092915050565b6000602082019050818103600083015261188b8184611813565b905092915050565b6000602082840312156118a9576118a86110c7565b5b600082013567ffffffffffffffff8111156118c7576118c66110cc565b5b6118d38482850161161b565b91505092915050565b7f4e487b7100000000000000000000000000000000000000000000000000000000600052603260045260246000fd5b7f4e487b7100000000000000000000000000000000000000000000000000000000600052602260045260246000fd5b6000600282049050600182168061195257607f821691505b6020821081036119655761196461190b565b5b50919050565b7f4e487b7100000000000000000000000000000000000000000000000000000000600052601160045260246000fd5b60006119a58261148c565b91507fffffffffffffffffffffffffffffffffffffffffffffffffffffffffffffffff82036119d7576119d661196b565b5b600182019050919050565b60006119ed8261148c565b91506119f88361148c565b925082821015611a0b57611a0a61196b565b5b828203905092915050565b7f4e487b7100000000000000000000000000000000000000000000000000000000600052603160045260246000fd5b7f53656e646572206973206e6f7420612073757065722061646d696e0000000000600082015250565b6000611a7b601b83611420565b9150611a8682611a45565b602082019050919050565b60006020820190508181036000830152611aaa81611a6e565b905091905056fea264697066735822122085fb6304e7f254a01438eabdd9e68a92bce4220d1d07f3191c9b7c3edfff052064736f6c634300080d0033",
  "immutableReferences": {},
  "source": "// SPDX-License-Identifier: MIT\r\npragma solidity >=0.4.22 <0.9.0;\r\n\r\ncontract Medivault {\r\n    // function to check if an address is an admin or patient or doctor or super admin\r\n\r\n    // structure of super admin\r\n    struct SuperAdmin {\r\n        string name;\r\n    }\r\n    mapping(address => SuperAdmin) public superAdmins;\r\n    address[] public superAdminAddresses;\r\n\r\n    constructor() {\r\n        superAdminAddresses.push(msg.sender);\r\n        superAdmins[msg.sender] = SuperAdmin({name: \"Super admin\"});\r\n    }\r\n\r\n    function checkSuperAdmin(address pubkey) public view returns (bool) {\r\n        return bytes(superAdmins[pubkey].name).length > 0;\r\n    }\r\n\r\n    function editSuperAdmin(string memory name) public {\r\n        superAdmins[msg.sender].name = name;\r\n    }\r\n\r\n    function addSuperAdmin(address _address, string memory _name) public {\r\n        superAdmins[_address] = SuperAdmin(_name);\r\n        superAdminAddresses.push(_address);\r\n    }\r\n\r\n    function getAllSuperAdmins() public view returns (address[] memory) {\r\n        return superAdminAddresses;\r\n    }\r\n\r\n    function fetchNames() public view returns (string[] memory) {\r\n        string[] memory names = new string[](superAdminAddresses.length);\r\n        for (uint256 i = 0; i < superAdminAddresses.length; i++) {\r\n            names[i] = superAdmins[superAdminAddresses[i]].name;\r\n        }\r\n        return names;\r\n    }\r\n\r\n    function fetchSuperadmin(address _address)\r\n        public\r\n        view\r\n        returns (SuperAdmin memory)\r\n    {\r\n        require(checkSuperAdmin(msg.sender), \"Sender is not a super admin\");\r\n        return superAdmins[_address];\r\n    }\r\n\r\n    function addAdmin(string calldata institution_name, address _address)\r\n        public\r\n    {\r\n        adminAddresses.push(_address);\r\n        admins[_address] = Admin({institution_name: institution_name});\r\n    }\r\n\r\n    function fetchAdminsAddresses() public view returns (address[] memory) {\r\n        return adminAddresses;\r\n    }\r\n\r\n    function fetchAdmins() public view returns (Admin[] memory) {\r\n        Admin[] memory _admins = new Admin[](adminAddresses.length);\r\n        for (uint256 i = 0; i < adminAddresses.length; i++) {\r\n            _admins[i] = admins[adminAddresses[i]];\r\n        }\r\n        return _admins;\r\n    }\r\n\r\n    function deleteAdmin(address _address) public returns (bool) {\r\n        delete admins[_address];\r\n        // search for the _address in the adminAddresses array and delete it\r\n        for (uint256 i = 0; i < adminAddresses.length; i++) {\r\n            if (adminAddresses[i] == _address) {\r\n                adminAddresses[i] = adminAddresses[adminAddresses.length - 1];\r\n                adminAddresses.pop(); // remove the last element\r\n                return true; // exit the function after successful deletion\r\n            }\r\n        }\r\n        return false; // return false if admin doesn't exist or sender is not a super admin\r\n    }\r\n\r\n    // Admin structure\r\n    struct Admin {\r\n        string institution_name;\r\n    }\r\n    mapping(address => Admin) public admins;\r\n    address[] public adminAddresses;\r\n\r\n    // admin functions\r\n    // function to check if an address is an admin\r\n    function checkAdmin(address pubkey) public view returns (bool) {\r\n        return bytes(admins[pubkey].institution_name).length > 0;\r\n    }\r\n\r\n    // manually adding super admin for testing purposes\r\n    // functions of super admin\r\n    // function to check if an address is a super admin\r\n\r\n    // // // function to add a super admin\r\n    // // function addSuperAdmin(address pubkey, string calldata name) public {\r\n    // //     require(\r\n    // //         checkSuperAdmin(msg.sender) == true,\r\n    // //         \"You are not a super admin\"\r\n    // //     );\r\n    // //     require(checkSuperAdmin(pubkey) == false, \"Super admin already exists\");\r\n    // //     superAdmins[pubkey] = SuperAdmin({name: name});\r\n    // // }\r\n\r\n    // // function to add a admin\r\n    // function addAdmin(\r\n    //     string calldata institution_name,\r\n    //     string calldata institution_addr,\r\n    //     string calldata institution_contact,\r\n    //     address pubkey\r\n    // ) public {\r\n    //     require(\r\n    //         checkSuperAdmin(msg.sender) == true,\r\n    //         \"You are not a allowed to add an admin\"\r\n    //     );\r\n    //     require(checkAdmin(pubkey) == false, \"Admin already exists\");\r\n    //     admins[pubkey] = Admin({\r\n    //         institution_name: institution_name,\r\n    //         institution_addr: institution_addr,\r\n    //         institution_contact: institution_contact\r\n    //     });\r\n    // }\r\n\r\n    // // function to edit an admin\r\n    // function editAdmin(\r\n    //     string calldata institution_name,\r\n    //     string calldata institution_addr,\r\n    //     string calldata institution_contact,\r\n    //     address pubkey\r\n    // ) public {\r\n    //     require(\r\n    //         checkSuperAdmin(msg.sender) == true,\r\n    //         \"You are not a allowed to edit an admin\"\r\n    //     );\r\n    //     require(checkAdmin(pubkey) == true, \"Admin does not exist\");\r\n    //     admins[pubkey] = Admin({\r\n    //         institution_name: institution_name,\r\n    //         institution_addr: institution_addr,\r\n    //         institution_contact: institution_contact\r\n    //     });\r\n    // }\r\n\r\n    // // -------------------------------------------------------------------------------------------\r\n}\r\n\r\n// contract Medivault {\r\n//\r\n\r\n//     // function to delete an admin\r\n//     function deleteAdmin(address pubkey) public {\r\n//         require(\r\n//             checkSuperAdmin(msg.sender) == true,\r\n//             \"You are not a allowed to delete an admin\"\r\n//         );\r\n//         require(checkAdmin(pubkey) == true, \"Admin does not exist\");\r\n//         delete admins[pubkey];\r\n//     }\r\n\r\n//     // function to fetch a single admin\r\n//     function getAdmin(address pubkey) public view returns (Admin memory) {\r\n//         require(\r\n//             checkSuperAdmin(msg.sender) == true,\r\n//             \"You are not a allowed to fetch an admin\"\r\n//         );\r\n//         require(checkAdmin(pubkey) == true, \"Admin does not exist\");\r\n//         return admins[pubkey];\r\n//     }\r\n\r\n//     // function to fetch all admins\r\n//     // function getAdmins() public view returns (Admin[] memory) {\r\n//     //     require(\r\n//     //         checkSuperAdmin(msg.sender) == true,\r\n//     //         \"You are not a allowed to perform this opertation\"\r\n//     //     );q\r\n//     //     return admins;\r\n//     // }\r\n\r\n//     // -------------------------------------------------------------------------------------------\r\n\r\n//     // Admin structure\r\n//     struct Admin {\r\n//         string institution_name;\r\n//         string institution_addr;\r\n//         string institution_contact;\r\n//     }\r\n//     mapping(address => Admin) public admins;\r\n\r\n//     // admin functions\r\n//     // function to check if an address is an admin\r\n//     function checkAdmin(address pubkey) public view returns (bool) {\r\n//         return bytes(admins[pubkey].institution_name).length > 0;\r\n//     }\r\n\r\n//     // function to add a doctor\r\n//     function addDoctor(\r\n//         string calldata name,\r\n//         string calldata specialization,\r\n//         string calldata contact,\r\n//         address pubkey\r\n//     ) public {\r\n//         require(checkAdmin(msg.sender) == true, \"You are not an admin\");\r\n//         require(checkDoctor(pubkey) == false, \"Doctor already exists\");\r\n//         require(bytes(name).length > 0, \"Name cannot be empty\");\r\n//         require(\r\n//             bytes(specialization).length > 0,\r\n//             \"Specialization cannot be empty\"\r\n//         );\r\n//         require(bytes(contact).length > 0, \"Contact cannot be empty\");\r\n//         doctors[pubkey] = Doctor({\r\n//             name: name,\r\n//             specialization: specialization,\r\n//             contact: contact,\r\n//             institution_name: msg.sender\r\n//         });\r\n//     }\r\n\r\n//     // function to edit a doctor\r\n//     function editDoctor(\r\n//         string calldata name,\r\n//         string calldata specialization,\r\n//         string calldata contact,\r\n//         address pubkey\r\n//     ) public {\r\n//         require(checkAdmin(msg.sender) == true, \"You are not an admin\");\r\n//         require(checkDoctor(pubkey) == true, \"Doctor does not exist\");\r\n//         require(\r\n//             msg.sender != doctors[pubkey].institution_name,\r\n//             \"You do not have the permission to edit this doctor\"\r\n//         );\r\n//         require(bytes(name).length > 0, \"Name cannot be empty\");\r\n//         require(\r\n//             bytes(specialization).length > 0,\r\n//             \"Specialization cannot be empty\"\r\n//         );\r\n//         require(bytes(contact).length > 0, \"Contact cannot be empty\");\r\n//         doctors[pubkey] = Doctor({\r\n//             name: name,\r\n//             specialization: specialization,\r\n//             contact: contact,\r\n//             institution_name: msg.sender\r\n//         });\r\n//     }\r\n\r\n//     // function  to delete a doctor\r\n//     function deleteDoctor(address pubkey) public {\r\n//         require(checkAdmin(msg.sender) == true, \"You are not an admin\");\r\n//         require(checkDoctor(pubkey) == true, \"Doctor does not exist\");\r\n//         require(\r\n//             keccak256(abi.encodePacked(msg.sender))!= keccak256(abi.encodePacked(admins[pubkey].institution_name)),\r\n//             \"You do not have the permission to delete this doctor\"\r\n//         );\r\n//         delete doctors[pubkey];\r\n//     }\r\n\r\n//     // function to fetch a single doctor under the admin\r\n//     function getDoctor(address pubkey) public view returns (Doctor memory) {\r\n//         require(checkAdmin(msg.sender) == true, \"You are not an admin\");\r\n//         require(checkDoctor(pubkey) == true, \"Doctor does not exist\");\r\n//         require(\r\n//             msg.sender == doctors[pubkey].institution_name,\r\n//             \"You do not have the permission to fetch this doctor\"\r\n//         );\r\n//         return doctors[pubkey];\r\n//     }\r\n\r\n//     // function to fetch a all doctors under the admin's instiution name\r\n//     // function getDoctors() public view returns (Doctor[] memory) {\r\n//     //     require(checkAdmin(msg.sender), \"You are not an admin\");\r\n//     //     Doctor[] memory _doctors;\r\n//     //     for (uint256 i = 0; i < doctors.length; i++) {\r\n//     //         address pubkey = doctors[i];\r\n//     //         // Check if the admin associated with the doctor's address matches the caller's institution\r\n//     //         if (\r\n//     //             keccak256(abi.encodePacked(admins[pubkey])) ==\r\n//     //             keccak256(abi.encodePacked(admins[msg.sender]))\r\n//     //         ) {\r\n//     //             // Add the doctor to the array\r\n//     //             _doctors.push(doctors[pubkey]);\r\n//     //         }\r\n//     //     }\r\n//     //     return _doctors;\r\n//     // }\r\n\r\n//     // -------------------------------------------------------------------------------------------\r\n\r\n//     // Doctor structure\r\n//     struct Doctor {\r\n//         string name;\r\n//         string specialization;\r\n//         string contact;\r\n//         address institution_name;\r\n//     }\r\n//     mapping(address => Doctor) public doctors;\r\n\r\n//     // doctor functions\r\n//     // function to check if an address is a doctor\r\n//     function checkDoctor(address pubkey) public view returns (bool) {\r\n//         return bytes(doctors[pubkey].name).length > 0;\r\n//     }\r\n\r\n//     // function to add a patient\r\n//     function addPatient(\r\n//         string calldata name,\r\n//         uint256 age,\r\n//         string calldata gender,\r\n//         string calldata addr,\r\n//         string calldata contact,\r\n//         address pubkey\r\n//     ) public {\r\n//         require(checkDoctor(msg.sender) == true, \"Doctor does not exist\");\r\n//         require(bytes(name).length > 0, \"Name cannot be empty\");\r\n//         require(age > 0, \"Age cannot be zero\");\r\n//         require(bytes(gender).length > 0, \"Gender cannot be empty\");\r\n//         require(bytes(addr).length > 0, \"Address cannot be empty\");\r\n//         require(bytes(contact).length > 0, \"Contact cannot be empty\");\r\n//         address[] calldata nominees;\r\n//         nominees.push();\r\n//         patients[pubkey] = Patient({\r\n//             name: name,\r\n//             age: age,\r\n//             gender: gender,\r\n//             addr: addr,\r\n//             contact: contact,\r\n//             nominees : nominees\r\n//         });\r\n//     }\r\n\r\n//     // function to fetch a patient\r\n//     function getPatient(address pubkey) public view returns (Patient memory) {\r\n//         require(checkDoctor(msg.sender) == true, \"Doctor does not exist\");\r\n//         require(checkPatient(pubkey) == true, \"Patient does not exist\");\r\n//         return patients[pubkey];\r\n//     }\r\n\r\n//     // function to check read access for a record\r\n//     function checkReadAccess(bytes32 record_hash) public view returns (bool) {\r\n//         require(checkDoctor(msg.sender), \"Doctor does not exist\");\r\n//         require(checkRecord(record_hash), \"Record does not exist\");\r\n\r\n//         if (records[record_hash].read_allowed_doctors.length > 0) {\r\n//             // Iterate over the read allowed doctors array\r\n//             for (\r\n//                 uint256 i = 0;\r\n//                 i < records[record_hash].read_allowed_doctors.length;\r\n//                 i++\r\n//             ) {\r\n//                 // Check if the current doctor address matches the sender's address\r\n//                 if (\r\n//                     records[record_hash].read_allowed_doctors[i] == msg.sender\r\n//                 ) {\r\n//                     return true;\r\n//                 }\r\n//             }\r\n//         }\r\n\r\n//         return false;\r\n//     }\r\n\r\n//     // function to check write access for a record\r\n//     function checkWriteAccess(bytes32 record_hash) public view returns (bool) {\r\n//         require(checkDoctor(msg.sender), \"Doctor does not exist\");\r\n//         require(checkRecord(record_hash), \"Record does not exist\");\r\n\r\n//         if (records[record_hash].write_allowed_doctors.length > 0) {\r\n//             // Iterate over the write allowed doctors array\r\n//             for (\r\n//                 uint256 i = 0;\r\n//                 i < records[record_hash].write_allowed_doctors.length;\r\n//                 i++\r\n//             ) {\r\n//                 // Check if the current doctor address matches the sender's address\r\n//                 if (\r\n//                     records[record_hash].write_allowed_doctors[i] == msg.sender\r\n//                 ) {\r\n//                     return true;\r\n//                 }\r\n//             }\r\n//         }\r\n\r\n//         return false;\r\n//     }\r\n\r\n//     // function to add a record\r\n//     function addRecord(\r\n//         bytes32 record_hash,\r\n//         address doctor,\r\n//         address patient,\r\n//         string calldata record_title,\r\n//         string calldata record_desc,\r\n//         string calldata record_data\r\n//     ) public {\r\n//         require(checkDoctor(msg.sender) == true, \"Doctor does not exist\");\r\n//         require(checkPatient(patient) == true, \"Patient does not exist\");\r\n//         require(checkRecord(record_hash) == false, \"Record already exists\");\r\n//         address[] memory read_allowed_doctors = [];\r\n//         read_allowed_doctors.push(msg.sender);\r\n//         address[] memory write_allowed_doctors = [];\r\n//         write_allowed_doctors.push(msg.sender);\r\n//         records[record_hash] = Record({\r\n//             doctor: doctor,\r\n//             patient: patient,\r\n//             read_allowed_doctors: read_allowed_doctors,\r\n//             write_allowed_doctors: write_allowed_doctors,\r\n//             record_title: record_title,\r\n//             record_desc: record_desc,\r\n//             record_data: record_data\r\n//         });\r\n//     }\r\n\r\n//     // function to fetch a record\r\n//     function getRecord(bytes32 record_hash)\r\n//         public\r\n//         view\r\n//         returns (Record memory)\r\n//     {\r\n//         require(checkDoctor(msg.sender) == true, \"Doctor does not exist\");\r\n//         require(checkRecord(record_hash) == true, \"Record does not exist\");\r\n//         require(\r\n//             checkReadAccess(record_hash) == true,\r\n//             \"You do not have access to read this record\"\r\n//         );\r\n//         return records[record_hash];\r\n//     }\r\n\r\n//     // function to edit a record\r\n//     function editRecord(\r\n//         bytes32 record_hash,\r\n//         string calldata record_title,\r\n//         string calldata record_desc,\r\n//         string calldata record_data\r\n//     ) public {\r\n//         require(checkDoctor(msg.sender) == true, \"Doctor does not exist\");\r\n//         require(checkRecord(record_hash) == true, \"Record does not exist\");\r\n//         require(\r\n//             checkWriteAccess(record_hash) == true,\r\n//             \"You do not have access to write this record\"\r\n//         );\r\n//         records[record_hash].record_title = record_title;\r\n//         records[record_hash].record_desc = record_desc;\r\n//         records[record_hash].record_data = record_data;\r\n//     }\r\n\r\n//     // -------------------------------------------------------------------------------------------\r\n\r\n//     // patient structure\r\n//     struct Patient {\r\n//         string name;\r\n//         uint256 age;\r\n//         string gender;\r\n//         string addr;\r\n//         string contact;\r\n//         address[] nominees;\r\n//     }\r\n//     mapping(address => Patient) public patients;\r\n\r\n//     // patient functions\r\n//     // function to check if an address is a patient\r\n//     function checkPatient(address pubkey) public view returns (bool) {\r\n//         return bytes(patients[pubkey].name).length > 0;\r\n//     }\r\n\r\n//     // functio to edit patient\r\n//     function editPatient(\r\n//         string calldata name,\r\n//         uint256 age,\r\n//         string calldata gender,\r\n//         string calldata addr,\r\n//         string calldata contact\r\n//     ) public {\r\n//         require(checkPatient(msg.sender) == true, \"Patient does not exist\");\r\n//         patients[msg.sender].name = name;\r\n//         patients[msg.sender].age = age;\r\n//         patients[msg.sender].gender = gender;\r\n//         patients[msg.sender].addr = addr;\r\n//         patients[msg.sender].contact = contact;\r\n//     }\r\n\r\n//     // function to fetch patient records\r\n//     function fetchRecords() public view returns (Record[] memory) {\r\n//         require(checkPatient(msg.sender) == true, \"Patient does not exist\");\r\n//         Record[] memory _records = [];\r\n//         uint256 count = 0;\r\n//         for (uint256 i = 0; i < records.length; i++) {\r\n//             if (records[i].patient == msg.sender) {\r\n//                 _records[count] = records[i];\r\n//                 count++;\r\n//             }\r\n//         }\r\n//         return _records;\r\n//     }\r\n\r\n//     // fetch a single record\r\n//     function fetchRecord(bytes32 record_hash)\r\n//         public\r\n//         view\r\n//         returns (Record memory)\r\n//     {\r\n//         require(checkPatient(msg.sender) == true, \"Patient does not exist\");\r\n//         require(checkRecord(record_hash) == true, \"Record does not exist\");\r\n//         require(\r\n//             records[record_hash].patient != msg.sender,\r\n//             \"You do not have access to this record\"\r\n//         );\r\n//         return records[record_hash];\r\n//     }\r\n\r\n//     // function to add a nominee\r\n//     function addNominee(address pubkey, string calldata name) public {\r\n//         require(checkPatient(msg.sender) == true, \"Patient does not exist\");\r\n//         require(checkPatient(pubkey) == true, \"Nominee does not exist\");\r\n//         patients[msg.sender].nominees.push(pubkey);\r\n//     }\r\n\r\n//     // function to remove a nominee\r\n//     function removeNominee(address pubkey) public {\r\n//         require(checkPatient(msg.sender) == true, \"Patient does not exist\");\r\n//         require(checkPatient(pubkey) == true, \"Nominee does not exist\");\r\n//         require(patients[pubkey].nominees < 0, \"Nominee does not exist\");\r\n//         patients[msg.sender].nominees.remove(pubkey);\r\n//     }\r\n\r\n//     // function to fetch nominee's records\r\n//     function fetchNomineeRecords(address pubkey)\r\n//         public\r\n//         view\r\n//         returns (Record[] memory)\r\n//     {\r\n//         require(checkPatient(msg.sender) == true, \"Patient does not exist\");\r\n//         require(checkPatient(pubkey) == true, \"Nominee does not exist\");\r\n//         Record[] memory _records = [];\r\n//         uint256 count = 0;\r\n\r\n//         for (uint256 i = 0; i < records.length; i++) {\r\n//             if (records[i].patient == pubkey) {\r\n//                 _records[count] = records[i];\r\n//                 count++;\r\n//             }\r\n//         }\r\n//         return _records;\r\n//     }\r\n\r\n//     // function to give read access to a doctor by patient\r\n//     function giveReadAccess(bytes32 record_hash, address pubkey) public {\r\n//         require(checkPatient(msg.sender) == true, \"Patient does not exist\");\r\n//         require(checkDoctor(pubkey) == true, \"Doctor does not exist\");\r\n//         require(checkRecord(record_hash) == true, \"Record does not exist\");\r\n//         records[record_hash].read_allowed_doctors.push(pubkey);\r\n//     }\r\n\r\n//     // function to give write access to a doctor by patient\r\n//     function giveWriteAccess(bytes32 record_hash, address pubkey) public {\r\n//         require(checkPatient(msg.sender) == true, \"Patient does not exist\");\r\n//         require(checkDoctor(pubkey) == true, \"Doctor does not exist\");\r\n//         require(checkRecord(record_hash) == true, \"Record does not exist\");\r\n//         records[record_hash].write_allowed_doctors.push(pubkey);\r\n//     }\r\n\r\n//     // function to remove read access to a doctor by patient\r\n//     function removeReadAccess(bytes32 record_hash, address pubkey) public {\r\n//         require(checkPatient(msg.sender) == true, \"Patient does not exist\");\r\n//         require(checkDoctor(pubkey) == true, \"Doctor does not exist\");\r\n//         require(checkRecord(record_hash) == true, \"Record does not exist\");\r\n//         records[record_hash].read_allowed_doctors.remove(pubkey);\r\n//     }\r\n\r\n//     // function to remove write access to a doctor by patient\r\n//     function removeWriteAccess(bytes32 record_hash, address pubkey) public {\r\n//         require(checkPatient(msg.sender) == true, \"Patient does not exist\");\r\n//         require(checkDoctor(pubkey) == true, \"Doctor does not exist\");\r\n//         require(checkRecord(record_hash) == true, \"Record does not exist\");\r\n//         records[record_hash].write_allowed_doctors.remove(pubkey);\r\n//     }\r\n\r\n//     // -------------------------------------------------------------------------------------------\r\n\r\n//     // record structure\r\n//     struct Record {\r\n//         // hash bytes32 record_hash;\r\n//         address doctor;\r\n//         address patient;\r\n//         address[] read_allowed_doctors;\r\n//         address[] write_allowed_doctors;\r\n//         string record_title;\r\n//         string record_desc;\r\n//         string record_data;\r\n//     }\r\n//     mapping(bytes32 => Record) public records;\r\n\r\n//     // record functions\r\n//     // function to check if the record exist or not\r\n//     function checkRecord(bytes32 record_hash) public view returns (bool) {\r\n//         return bytes(records[record_hash].record_title).length > 0;\r\n//     }\r\n\r\n//     // -------------------------------------------------------------------------------------------\r\n\r\n//     // end of contract\r\n// }\r\n",
  "sourcePath": "C:\\Users\\midhu\\OneDrive\\Documents\\GitHub\\Final-Year-Project-\\myapp\\contracts\\Medivault.sol",
  "compiler": {
    "name": "solc",
    "version": "0.8.13+commit.abaa5c0e.Emscripten.clang"
  },
  "schemaVersion": "3.4.16",
  "updatedAt": "2024-04-09T13:58:03.702Z",
  "networkType": "ethereum",
  "devdoc": {
    "kind": "dev",
    "methods": {},
    "version": 1
  },
  "userdoc": {
    "kind": "user",
    "methods": {},
    "version": 1
  }
}