{
  "contractName": "Medivault",
  "abi": [
    {
      "inputs": [],
      "stateMutability": "nonpayable",
      "type": "constructor"
    },
    {
      "inputs": [
        {
          "internalType": "uint256",
          "name": "",
          "type": "uint256"
        }
      ],
      "name": "adminAddresses",
      "outputs": [
        {
          "internalType": "address",
          "name": "",
          "type": "address"
        }
      ],
      "stateMutability": "view",
      "type": "function",
      "constant": true
    },
    {
      "inputs": [
        {
          "internalType": "address",
          "name": "",
          "type": "address"
        }
      ],
      "name": "admins",
      "outputs": [
        {
          "internalType": "string",
          "name": "institution_name",
          "type": "string"
        }
      ],
      "stateMutability": "view",
      "type": "function",
      "constant": true
    },
    {
      "inputs": [
        {
          "internalType": "uint256",
          "name": "",
          "type": "uint256"
        }
      ],
      "name": "doctorAddresses",
      "outputs": [
        {
          "internalType": "address",
          "name": "",
          "type": "address"
        }
      ],
      "stateMutability": "view",
      "type": "function",
      "constant": true
    },
    {
      "inputs": [
        {
          "internalType": "address",
          "name": "",
          "type": "address"
        }
      ],
      "name": "doctors",
      "outputs": [
        {
          "internalType": "string",
          "name": "name",
          "type": "string"
        },
        {
          "internalType": "string",
          "name": "specialization",
          "type": "string"
        },
        {
          "internalType": "address",
          "name": "institution",
          "type": "address"
        }
      ],
      "stateMutability": "view",
      "type": "function",
      "constant": true
    },
    {
      "inputs": [
        {
          "internalType": "uint256",
          "name": "",
          "type": "uint256"
        }
      ],
      "name": "patientAddresses",
      "outputs": [
        {
          "internalType": "address",
          "name": "",
          "type": "address"
        }
      ],
      "stateMutability": "view",
      "type": "function",
      "constant": true
    },
    {
      "inputs": [
        {
          "internalType": "address",
          "name": "",
          "type": "address"
        }
      ],
      "name": "patients",
      "outputs": [
        {
          "internalType": "string",
          "name": "name",
          "type": "string"
        },
        {
          "internalType": "uint256",
          "name": "age",
          "type": "uint256"
        },
        {
          "internalType": "string",
          "name": "gender",
          "type": "string"
        },
        {
          "internalType": "string",
          "name": "addr",
          "type": "string"
        },
        {
          "internalType": "string",
          "name": "contact",
          "type": "string"
        },
        {
          "internalType": "address",
          "name": "institution",
          "type": "address"
        }
      ],
      "stateMutability": "view",
      "type": "function",
      "constant": true
    },
    {
      "inputs": [
        {
          "internalType": "uint256",
          "name": "",
          "type": "uint256"
        }
      ],
      "name": "recordHashes",
      "outputs": [
        {
          "internalType": "bytes32",
          "name": "",
          "type": "bytes32"
        }
      ],
      "stateMutability": "view",
      "type": "function",
      "constant": true
    },
    {
      "inputs": [
        {
          "internalType": "bytes32",
          "name": "",
          "type": "bytes32"
        }
      ],
      "name": "records",
      "outputs": [
        {
          "internalType": "address",
          "name": "doctor",
          "type": "address"
        },
        {
          "internalType": "address",
          "name": "patient",
          "type": "address"
        },
        {
          "internalType": "string",
          "name": "record_title",
          "type": "string"
        },
        {
          "internalType": "string",
          "name": "record_desc",
          "type": "string"
        },
        {
          "internalType": "string",
          "name": "record_data",
          "type": "string"
        }
      ],
      "stateMutability": "view",
      "type": "function",
      "constant": true
    },
    {
      "inputs": [
        {
          "internalType": "uint256",
          "name": "",
          "type": "uint256"
        }
      ],
      "name": "superAdminAddresses",
      "outputs": [
        {
          "internalType": "address",
          "name": "",
          "type": "address"
        }
      ],
      "stateMutability": "view",
      "type": "function",
      "constant": true
    },
    {
      "inputs": [
        {
          "internalType": "address",
          "name": "",
          "type": "address"
        }
      ],
      "name": "superAdmins",
      "outputs": [
        {
          "internalType": "string",
          "name": "name",
          "type": "string"
        }
      ],
      "stateMutability": "view",
      "type": "function",
      "constant": true
    },
    {
      "inputs": [
        {
          "internalType": "address",
          "name": "pubkey",
          "type": "address"
        }
      ],
      "name": "checkSuperAdmin",
      "outputs": [
        {
          "internalType": "bool",
          "name": "",
          "type": "bool"
        }
      ],
      "stateMutability": "view",
      "type": "function",
      "constant": true
    },
    {
      "inputs": [
        {
          "internalType": "string",
          "name": "name",
          "type": "string"
        }
      ],
      "name": "editSuperAdmin",
      "outputs": [],
      "stateMutability": "nonpayable",
      "type": "function"
    },
    {
      "inputs": [
        {
          "internalType": "address",
          "name": "_address",
          "type": "address"
        },
        {
          "internalType": "string",
          "name": "_name",
          "type": "string"
        }
      ],
      "name": "addSuperAdmin",
      "outputs": [],
      "stateMutability": "nonpayable",
      "type": "function"
    },
    {
      "inputs": [],
      "name": "getAllSuperAdmins",
      "outputs": [
        {
          "internalType": "address[]",
          "name": "",
          "type": "address[]"
        }
      ],
      "stateMutability": "view",
      "type": "function",
      "constant": true
    },
    {
      "inputs": [],
      "name": "fetchNames",
      "outputs": [
        {
          "internalType": "string[]",
          "name": "",
          "type": "string[]"
        }
      ],
      "stateMutability": "view",
      "type": "function",
      "constant": true
    },
    {
      "inputs": [
        {
          "internalType": "address",
          "name": "_address",
          "type": "address"
        }
      ],
      "name": "fetchSuperadmin",
      "outputs": [
        {
          "components": [
            {
              "internalType": "string",
              "name": "name",
              "type": "string"
            }
          ],
          "internalType": "struct Medivault.SuperAdmin",
          "name": "",
          "type": "tuple"
        }
      ],
      "stateMutability": "view",
      "type": "function",
      "constant": true
    },
    {
      "inputs": [
        {
          "internalType": "string",
          "name": "institution_name",
          "type": "string"
        },
        {
          "internalType": "address",
          "name": "_address",
          "type": "address"
        }
      ],
      "name": "addAdmin",
      "outputs": [],
      "stateMutability": "nonpayable",
      "type": "function"
    },
    {
      "inputs": [],
      "name": "fetchAdminsAddresses",
      "outputs": [
        {
          "internalType": "address[]",
          "name": "",
          "type": "address[]"
        }
      ],
      "stateMutability": "view",
      "type": "function",
      "constant": true
    },
    {
      "inputs": [],
      "name": "fetchAdmins",
      "outputs": [
        {
          "components": [
            {
              "internalType": "string",
              "name": "institution_name",
              "type": "string"
            }
          ],
          "internalType": "struct Medivault.Admin[]",
          "name": "",
          "type": "tuple[]"
        }
      ],
      "stateMutability": "view",
      "type": "function",
      "constant": true
    },
    {
      "inputs": [
        {
          "internalType": "address",
          "name": "_address",
          "type": "address"
        }
      ],
      "name": "deleteAdmin",
      "outputs": [
        {
          "internalType": "bool",
          "name": "",
          "type": "bool"
        }
      ],
      "stateMutability": "nonpayable",
      "type": "function"
    },
    {
      "inputs": [
        {
          "internalType": "address",
          "name": "pubkey",
          "type": "address"
        }
      ],
      "name": "checkAdmin",
      "outputs": [
        {
          "internalType": "bool",
          "name": "",
          "type": "bool"
        }
      ],
      "stateMutability": "view",
      "type": "function",
      "constant": true
    },
    {
      "inputs": [
        {
          "internalType": "address",
          "name": "pubkey",
          "type": "address"
        }
      ],
      "name": "fetchAdmin",
      "outputs": [
        {
          "components": [
            {
              "internalType": "string",
              "name": "institution_name",
              "type": "string"
            }
          ],
          "internalType": "struct Medivault.Admin",
          "name": "",
          "type": "tuple"
        }
      ],
      "stateMutability": "view",
      "type": "function",
      "constant": true
    },
    {
      "inputs": [
        {
          "internalType": "address",
          "name": "pubkey",
          "type": "address"
        },
        {
          "internalType": "string",
          "name": "institution_name",
          "type": "string"
        }
      ],
      "name": "editAdmin",
      "outputs": [
        {
          "internalType": "bool",
          "name": "",
          "type": "bool"
        }
      ],
      "stateMutability": "nonpayable",
      "type": "function"
    },
    {
      "inputs": [
        {
          "internalType": "string",
          "name": "name",
          "type": "string"
        },
        {
          "internalType": "string",
          "name": "specialization",
          "type": "string"
        },
        {
          "internalType": "address",
          "name": "pubkey",
          "type": "address"
        }
      ],
      "name": "addDoctor",
      "outputs": [
        {
          "internalType": "bool",
          "name": "",
          "type": "bool"
        }
      ],
      "stateMutability": "nonpayable",
      "type": "function"
    },
    {
      "inputs": [
        {
          "internalType": "address",
          "name": "pubkey",
          "type": "address"
        }
      ],
      "name": "deleteDoctor",
      "outputs": [
        {
          "internalType": "bool",
          "name": "",
          "type": "bool"
        }
      ],
      "stateMutability": "nonpayable",
      "type": "function"
    },
    {
      "inputs": [],
      "name": "fetchDoctors",
      "outputs": [
        {
          "components": [
            {
              "internalType": "string",
              "name": "name",
              "type": "string"
            },
            {
              "internalType": "string",
              "name": "specialization",
              "type": "string"
            },
            {
              "internalType": "address",
              "name": "institution",
              "type": "address"
            }
          ],
          "internalType": "struct Medivault.Doctor[]",
          "name": "",
          "type": "tuple[]"
        }
      ],
      "stateMutability": "view",
      "type": "function",
      "constant": true
    },
    {
      "inputs": [],
      "name": "fetchDoctorAddresses",
      "outputs": [
        {
          "internalType": "address[]",
          "name": "",
          "type": "address[]"
        }
      ],
      "stateMutability": "view",
      "type": "function",
      "constant": true
    },
    {
      "inputs": [
        {
          "internalType": "address",
          "name": "pubkey",
          "type": "address"
        }
      ],
      "name": "checkDoctor",
      "outputs": [
        {
          "internalType": "bool",
          "name": "",
          "type": "bool"
        }
      ],
      "stateMutability": "view",
      "type": "function",
      "constant": true
    },
    {
      "inputs": [
        {
          "internalType": "address",
          "name": "pubkey",
          "type": "address"
        }
      ],
      "name": "fetchDoctor",
      "outputs": [
        {
          "components": [
            {
              "internalType": "string",
              "name": "name",
              "type": "string"
            },
            {
              "internalType": "string",
              "name": "specialization",
              "type": "string"
            },
            {
              "internalType": "address",
              "name": "institution",
              "type": "address"
            }
          ],
          "internalType": "struct Medivault.Doctor",
          "name": "",
          "type": "tuple"
        }
      ],
      "stateMutability": "view",
      "type": "function",
      "constant": true
    },
    {
      "inputs": [
        {
          "internalType": "string",
          "name": "name",
          "type": "string"
        },
        {
          "internalType": "uint256",
          "name": "age",
          "type": "uint256"
        },
        {
          "internalType": "string",
          "name": "gender",
          "type": "string"
        },
        {
          "internalType": "string",
          "name": "addr",
          "type": "string"
        },
        {
          "internalType": "string",
          "name": "contact",
          "type": "string"
        },
        {
          "internalType": "address",
          "name": "institution",
          "type": "address"
        },
        {
          "internalType": "address",
          "name": "pubkey",
          "type": "address"
        }
      ],
      "name": "addPatient",
      "outputs": [
        {
          "internalType": "bool",
          "name": "",
          "type": "bool"
        }
      ],
      "stateMutability": "nonpayable",
      "type": "function"
    },
    {
      "inputs": [
        {
          "internalType": "address",
          "name": "pubkey",
          "type": "address"
        }
      ],
      "name": "deletePatient",
      "outputs": [
        {
          "internalType": "bool",
          "name": "",
          "type": "bool"
        }
      ],
      "stateMutability": "nonpayable",
      "type": "function"
    },
    {
      "inputs": [
        {
          "internalType": "address",
          "name": "patient",
          "type": "address"
        },
        {
          "internalType": "string",
          "name": "record_title",
          "type": "string"
        },
        {
          "internalType": "string",
          "name": "record_desc",
          "type": "string"
        },
        {
          "internalType": "string",
          "name": "record_data",
          "type": "string"
        }
      ],
      "name": "createRecord",
      "outputs": [
        {
          "internalType": "bool",
          "name": "",
          "type": "bool"
        }
      ],
      "stateMutability": "nonpayable",
      "type": "function"
    },
    {
      "inputs": [
        {
          "internalType": "bytes32",
          "name": "record_hash",
          "type": "bytes32"
        }
      ],
      "name": "getRecord",
      "outputs": [
        {
          "components": [
            {
              "internalType": "address",
              "name": "doctor",
              "type": "address"
            },
            {
              "internalType": "address",
              "name": "patient",
              "type": "address"
            },
            {
              "internalType": "address[]",
              "name": "read_allowed_doctors",
              "type": "address[]"
            },
            {
              "internalType": "address[]",
              "name": "write_allowed_doctors",
              "type": "address[]"
            },
            {
              "internalType": "string",
              "name": "record_title",
              "type": "string"
            },
            {
              "internalType": "string",
              "name": "record_desc",
              "type": "string"
            },
            {
              "internalType": "string",
              "name": "record_data",
              "type": "string"
            }
          ],
          "internalType": "struct Medivault.Record",
          "name": "",
          "type": "tuple"
        }
      ],
      "stateMutability": "view",
      "type": "function",
      "constant": true
    },
    {
      "inputs": [
        {
          "internalType": "bytes32",
          "name": "record_hash",
          "type": "bytes32"
        }
      ],
      "name": "checkReadAccess",
      "outputs": [
        {
          "internalType": "bool",
          "name": "",
          "type": "bool"
        }
      ],
      "stateMutability": "view",
      "type": "function",
      "constant": true
    },
    {
      "inputs": [
        {
          "internalType": "bytes32",
          "name": "record_hash",
          "type": "bytes32"
        }
      ],
      "name": "checkWriteAccess",
      "outputs": [
        {
          "internalType": "bool",
          "name": "",
          "type": "bool"
        }
      ],
      "stateMutability": "view",
      "type": "function",
      "constant": true
    },
    {
      "inputs": [
        {
          "internalType": "bytes32",
          "name": "record_hash",
          "type": "bytes32"
        },
        {
          "internalType": "string",
          "name": "record_title",
          "type": "string"
        },
        {
          "internalType": "string",
          "name": "record_desc",
          "type": "string"
        },
        {
          "internalType": "string",
          "name": "record_data",
          "type": "string"
        }
      ],
      "name": "editRecord",
      "outputs": [
        {
          "internalType": "bool",
          "name": "",
          "type": "bool"
        }
      ],
      "stateMutability": "nonpayable",
      "type": "function"
    },
    {
      "inputs": [
        {
          "internalType": "address",
          "name": "pubkey",
          "type": "address"
        }
      ],
      "name": "checkPatient",
      "outputs": [
        {
          "internalType": "bool",
          "name": "",
          "type": "bool"
        }
      ],
      "stateMutability": "view",
      "type": "function",
      "constant": true
    },
    {
      "inputs": [
        {
          "internalType": "address",
          "name": "pubkey",
          "type": "address"
        }
      ],
      "name": "getPatient",
      "outputs": [
        {
          "components": [
            {
              "internalType": "string",
              "name": "name",
              "type": "string"
            },
            {
              "internalType": "uint256",
              "name": "age",
              "type": "uint256"
            },
            {
              "internalType": "string",
              "name": "gender",
              "type": "string"
            },
            {
              "internalType": "string",
              "name": "addr",
              "type": "string"
            },
            {
              "internalType": "string",
              "name": "contact",
              "type": "string"
            },
            {
              "internalType": "address",
              "name": "institution",
              "type": "address"
            },
            {
              "internalType": "address[]",
              "name": "nominees",
              "type": "address[]"
            }
          ],
          "internalType": "struct Medivault.Patient",
          "name": "",
          "type": "tuple"
        }
      ],
      "stateMutability": "view",
      "type": "function",
      "constant": true
    },
    {
      "inputs": [
        {
          "internalType": "string",
          "name": "name",
          "type": "string"
        },
        {
          "internalType": "uint256",
          "name": "age",
          "type": "uint256"
        },
        {
          "internalType": "string",
          "name": "gender",
          "type": "string"
        },
        {
          "internalType": "string",
          "name": "addr",
          "type": "string"
        },
        {
          "internalType": "string",
          "name": "contact",
          "type": "string"
        }
      ],
      "name": "editPatient",
      "outputs": [],
      "stateMutability": "nonpayable",
      "type": "function"
    },
    {
      "inputs": [],
      "name": "getAllRecords",
      "outputs": [
        {
          "components": [
            {
              "internalType": "address",
              "name": "doctor",
              "type": "address"
            },
            {
              "internalType": "address",
              "name": "patient",
              "type": "address"
            },
            {
              "internalType": "address[]",
              "name": "read_allowed_doctors",
              "type": "address[]"
            },
            {
              "internalType": "address[]",
              "name": "write_allowed_doctors",
              "type": "address[]"
            },
            {
              "internalType": "string",
              "name": "record_title",
              "type": "string"
            },
            {
              "internalType": "string",
              "name": "record_desc",
              "type": "string"
            },
            {
              "internalType": "string",
              "name": "record_data",
              "type": "string"
            }
          ],
          "internalType": "struct Medivault.Record[]",
          "name": "",
          "type": "tuple[]"
        }
      ],
      "stateMutability": "view",
      "type": "function",
      "constant": true
    },
    {
      "inputs": [
        {
          "internalType": "bytes32",
          "name": "record_hash",
          "type": "bytes32"
        }
      ],
      "name": "getReadAccessMembers",
      "outputs": [
        {
          "internalType": "address[]",
          "name": "",
          "type": "address[]"
        }
      ],
      "stateMutability": "view",
      "type": "function",
      "constant": true
    },
    {
      "inputs": [
        {
          "internalType": "bytes32",
          "name": "record_hash",
          "type": "bytes32"
        }
      ],
      "name": "getWriteAccessMembers",
      "outputs": [
        {
          "internalType": "address[]",
          "name": "",
          "type": "address[]"
        }
      ],
      "stateMutability": "view",
      "type": "function",
      "constant": true
    },
    {
      "inputs": [
        {
          "internalType": "bytes32",
          "name": "record_hash",
          "type": "bytes32"
        },
        {
          "internalType": "address",
          "name": "member",
          "type": "address"
        }
      ],
      "name": "addMemberToReadAccess",
      "outputs": [],
      "stateMutability": "nonpayable",
      "type": "function"
    },
    {
      "inputs": [
        {
          "internalType": "bytes32",
          "name": "record_hash",
          "type": "bytes32"
        },
        {
          "internalType": "address",
          "name": "member",
          "type": "address"
        }
      ],
      "name": "addMemberToWriteAccess",
      "outputs": [],
      "stateMutability": "nonpayable",
      "type": "function"
    },
    {
      "inputs": [
        {
          "internalType": "bytes32",
          "name": "record_hash",
          "type": "bytes32"
        },
        {
          "internalType": "address",
          "name": "member",
          "type": "address"
        }
      ],
      "name": "revokeReadAccess",
      "outputs": [],
      "stateMutability": "nonpayable",
      "type": "function"
    },
    {
      "inputs": [
        {
          "internalType": "bytes32",
          "name": "record_hash",
          "type": "bytes32"
        },
        {
          "internalType": "address",
          "name": "member",
          "type": "address"
        }
      ],
      "name": "revokeWriteAccess",
      "outputs": [
        {
          "internalType": "bool",
          "name": "",
          "type": "bool"
        }
      ],
      "stateMutability": "nonpayable",
      "type": "function"
    },
    {
      "inputs": [
        {
          "internalType": "address",
          "name": "nominee",
          "type": "address"
        }
      ],
      "name": "addNominee",
      "outputs": [
        {
          "internalType": "bool",
          "name": "",
          "type": "bool"
        }
      ],
      "stateMutability": "nonpayable",
      "type": "function"
    },
    {
      "inputs": [
        {
          "internalType": "address",
          "name": "pubkey",
          "type": "address"
        }
      ],
      "name": "getNominees",
      "outputs": [
        {
          "internalType": "address[]",
          "name": "",
          "type": "address[]"
        }
      ],
      "stateMutability": "view",
      "type": "function",
      "constant": true
    },
    {
      "inputs": [
        {
          "internalType": "bytes32",
          "name": "record_hash",
          "type": "bytes32"
        }
      ],
      "name": "checkRecord",
      "outputs": [
        {
          "internalType": "bool",
          "name": "",
          "type": "bool"
        }
      ],
      "stateMutability": "view",
      "type": "function",
      "constant": true
    },
    {
      "inputs": [
        {
          "internalType": "bytes32",
          "name": "record_hash",
          "type": "bytes32"
        },
        {
          "internalType": "address",
          "name": "doctor",
          "type": "address"
        }
      ],
      "name": "addReadAllowedDoctor",
      "outputs": [],
      "stateMutability": "nonpayable",
      "type": "function"
    },
    {
      "inputs": [
        {
          "internalType": "bytes32",
          "name": "record_hash",
          "type": "bytes32"
        },
        {
          "internalType": "address",
          "name": "doctor",
          "type": "address"
        }
      ],
      "name": "addWriteAllowedDoctor",
      "outputs": [],
      "stateMutability": "nonpayable",
      "type": "function"
    }
  ],
  "bytecode": "0x60806040523480156200001157600080fd5b50600180548082019091557fb10e2d527612073b26eecdfd717e6a320cf44b4afac2b0732d9fcbe2b7fa0cf60180546001600160a01b0319163390811790915560408051606081018252600b60208281019182526a29bab832b91030b236b4b760a91b838501529082526000938452838152919092208251805191926200009e92849290910190620000a8565b509050506200018a565b828054620000b6906200014e565b90600052602060002090601f016020900481019282620000da576000855562000125565b82601f10620000f557805160ff191683800117855562000125565b8280016001018555821562000125579182015b828111156200012557825182559160200191906001019062000108565b506200013392915062000137565b5090565b5b8082111562000133576000815560010162000138565b600181811c908216806200016357607f821691505b6020821081036200018457634e487b7160e01b600052602260045260246000fd5b50919050565b6158d0806200019a6000396000f3fe608060405234801561001057600080fd5b50600436106102f15760003560e01c80637f44782b1161019d578063b40f1691116100e9578063f0eb0344116100a2578063f3793a8d1161007c578063f3793a8d146107a0578063f56fecef146107b3578063fb50b236146107bb578063fbad73f2146107ce57600080fd5b8063f0eb034414610772578063f126e2da1461077a578063f2bd93c51461078d57600080fd5b8063b40f1691146106ef578063b5368e2014610702578063ba44eecf14610722578063beeed75914610735578063cbf007f314610748578063d15262a61461075d57600080fd5b80639bc197e211610156578063a7f9fe7211610130578063a7f9fe7214610692578063a9583c22146106a7578063ab05bae6146106c9578063ad25cb42146106dc57600080fd5b80639bc197e2146106595780639eb48d1b1461066c578063a1d658b11461067f57600080fd5b80637f44782b146105e557806388eea6f11461060557806388f50b41146106185780638f2448c91461062b5780639026dee81461063e5780639569afce1461065157600080fd5b80632f3f6be21161025c57806352cfa31c11610215578063717a4091116101ef578063717a40911461058b57806376017e5e1461059e57806376b03479146105b1578063793de5f0146105d257600080fd5b806352cfa31c146105525780636001f1d1146105655780636529c7771461057857600080fd5b80632f3f6be21461043457806334ed1df5146104545780633b1693b6146104a45780633ba51e7c146104b7578063429b62e5146104e25780634b8c01fd1461050257600080fd5b80630b2255f7116102ae5780630b2255f7146103b35780630dd9626d146103c6578063178f7d81146103d95780631bd79fc2146103ec578063213681cd1461040157806327e1f7df1461042157600080fd5b806301e64725146102f657806302513ed2146103235780630763a327146103465780630831b05f146103665780630869cfbc1461037b57806308805129146103a0575b600080fd5b610309610304366004614cdb565b6107e1565b60405161031a959493929190614d41565b60405180910390f35b610336610331366004614dbb565b6109b5565b604051901515815260200161031a565b610359610354366004614dbb565b610b56565b60405161031a9190614ddd565b610379610374366004614e72565b610bcf565b005b61038e610389366004614dbb565b610c8a565b60405161031a96959493929190614ec5565b6103366103ae366004614cdb565b610ee7565b6103366103c1366004614f34565b610f10565b6103596103d4366004614cdb565b61136b565b6103796103e7366004614fd7565b611624565b6103f4611810565b60405161031a9190615003565b61041461040f366004614cdb565b61196c565b60405161031a919061514e565b61033661042f366004614dbb565b611c24565b610447610442366004614dbb565b611d5e565b60405161031a9190615161565b610379610462366004614fd7565b600091825260086020908152604083206002018054600181018255908452922090910180546001600160a01b0319166001600160a01b03909216919091179055565b6103366104b2366004614dbb565b611e05565b6104ca6104c5366004614cdb565b611f5a565b6040516001600160a01b03909116815260200161031a565b6104f56104f0366004614dbb565b611f84565b60405161031a9190615184565b610379610510366004614fd7565b600091825260086020908152604083206003018054600181018255908452922090910180546001600160a01b0319166001600160a01b03909216919091179055565b610379610560366004614fd7565b612022565b610447610573366004614dbb565b6123ba565b610336610586366004614dbb565b6123fa565b610336610599366004615239565b612420565b6103366105ac366004615286565b612454565b6105c46105bf366004614cdb565b61258e565b60405190815260200161031a565b6103366105e0366004614dbb565b6125af565b6105f86105f3366004614dbb565b6125d5565b60405161031a9190615353565b610336610613366004614fd7565b612752565b610336610626366004614cdb565b612977565b6104ca610639366004614cdb565b612c90565b61033661064c366004614dbb565b612ca0565b610359612cc6565b610336610667366004615366565b612d28565b61035961067a366004614cdb565b613006565b61033661068d366004614dbb565b6132bf565b61069a6132e5565b60405161031a91906153a6565b6106ba6106b5366004614dbb565b613649565b60405161031a939291906153fb565b6103796106d7366004615239565b613784565b6104f56106ea366004614dbb565b613813565b6104ca6106fd366004614cdb565b61382e565b610715610710366004614dbb565b61383e565b60405161031a9190615439565b6104ca610730366004614cdb565b613b73565b610336610743366004614dbb565b613b83565b610750613beb565b60405161031a91906154eb565b610765613e19565b60405161031a9190615540565b610359613f90565b61037961078836600461559d565b613ff0565b61037961079b366004614fd7565b614012565b6103796107ae3660046155d1565b6142ce565b6103596144cc565b6103366107c9366004614cdb565b61452c565b6103366107dc3660046156a0565b61483b565b6008602052600090815260409020805460018201546004830180546001600160a01b039384169492909316926108169061578f565b80601f01602080910402602001604051908101604052809291908181526020018280546108429061578f565b801561088f5780601f106108645761010080835404028352916020019161088f565b820191906000526020600020905b81548152906001019060200180831161087257829003601f168201915b5050505050908060050180546108a49061578f565b80601f01602080910402602001604051908101604052809291908181526020018280546108d09061578f565b801561091d5780601f106108f25761010080835404028352916020019161091d565b820191906000526020600020905b81548152906001019060200180831161090057829003601f168201915b5050505050908060060180546109329061578f565b80601f016020809104026020016040519081016040528092919081815260200182805461095e9061578f565b80156109ab5780601f10610980576101008083540402835291602001916109ab565b820191906000526020600020905b81548152906001019060200180831161098e57829003601f168201915b5050505050905085565b60006109c082612ca0565b6109cc57506000919050565b60005b600754811015610ad457826001600160a01b0316600782815481106109f6576109f66157c3565b6000918252602090912001546001600160a01b031603610ac25760078054610a20906001906157ef565b81548110610a3057610a306157c3565b600091825260209091200154600780546001600160a01b039092169183908110610a5c57610a5c6157c3565b9060005260206000200160006101000a8154816001600160a01b0302191690836001600160a01b031602179055506007805480610a9b57610a9b615806565b600082815260209020810160001990810180546001600160a01b0319169055019055610ad4565b80610acc8161581c565b9150506109cf565b506001600160a01b038216600090815260066020526040812090610af88282614a89565b6001820160009055600282016000610b109190614a89565b610b1e600383016000614a89565b610b2c600483016000614a89565b6005820180546001600160a01b0319169055610b4c600683016000614ac6565b5060019392505050565b6001600160a01b038116600090815260066020818152604092839020909101805483518184028101840190945280845260609392830182828015610bc357602002820191906000526020600020905b81546001600160a01b03168152600190910190602001808311610ba5575b50505050509050919050565b600380546001810182556000919091527fc2575a0e9e593c00f959f8c92f12db2869c3395a3b0502d05e2516446f71f85b0180546001600160a01b0319166001600160a01b038316179055604080516020601f8501819004810282018301835281018481529091829190869086908190850183828082843760009201829052509390945250506001600160a01b038416815260026020908152604090912083518051919350610c82928492910190614ae4565b505050505050565b600660205260009081526040902080548190610ca59061578f565b80601f0160208091040260200160405190810160405280929190818152602001828054610cd19061578f565b8015610d1e5780601f10610cf357610100808354040283529160200191610d1e565b820191906000526020600020905b815481529060010190602001808311610d0157829003601f168201915b505050505090806001015490806002018054610d399061578f565b80601f0160208091040260200160405190810160405280929190818152602001828054610d659061578f565b8015610db25780601f10610d8757610100808354040283529160200191610db2565b820191906000526020600020905b815481529060010190602001808311610d9557829003601f168201915b505050505090806003018054610dc79061578f565b80601f0160208091040260200160405190810160405280929190818152602001828054610df39061578f565b8015610e405780601f10610e1557610100808354040283529160200191610e40565b820191906000526020600020905b815481529060010190602001808311610e2357829003601f168201915b505050505090806004018054610e559061578f565b80601f0160208091040260200160405190810160405280929190818152602001828054610e819061578f565b8015610ece5780601f10610ea357610100808354040283529160200191610ece565b820191906000526020600020905b815481529060010190602001808311610eb157829003601f168201915b505050600590930154919250506001600160a01b031686565b60008181526008602052604081206004018054829190610f069061578f565b9050119050919050565b6000878152600860209081526040808320815160e08101835281546001600160a01b0390811682526001830154168185015260028201805484518187028101870186528181528796939586019390929190830182828015610f9a57602002820191906000526020600020905b81546001600160a01b03168152600190910190602001808311610f7c575b5050505050815260200160038201805480602002602001604051908101604052809291908181526020018280548015610ffc57602002820191906000526020600020905b81546001600160a01b03168152600190910190602001808311610fde575b505050505081526020016004820180546110159061578f565b80601f01602080910402602001604051908101604052809291908181526020018280546110419061578f565b801561108e5780601f106110635761010080835404028352916020019161108e565b820191906000526020600020905b81548152906001019060200180831161107157829003601f168201915b505050505081526020016005820180546110a79061578f565b80601f01602080910402602001604051908101604052809291908181526020018280546110d39061578f565b80156111205780601f106110f557610100808354040283529160200191611120565b820191906000526020600020905b81548152906001019060200180831161110357829003601f168201915b505050505081526020016006820180546111399061578f565b80601f01602080910402602001604051908101604052809291908181526020018280546111659061578f565b80156111b25780601f10611187576101008083540402835291602001916111b2565b820191906000526020600020905b81548152906001019060200180831161119557829003601f168201915b50505050508152505090506111ca81600001516125af565b15156000036111dd576000915050611360565b87878080601f0160208091040260200160405190810160405280939291908181526020018383808284376000920191909152505050506080820152604080516020601f880181900481028201810190925286815290879087908190840183828082843760009201919091525050505060a0820152604080516020601f8601819004810282018101909252848152908590859081908401838280828437600092018290525060c086019490945250505089815260086020908152604091829020835181546001600160a01b039182166001600160a01b0319918216178355838601516001840180549190931691161790559183015180518493926112e7926002850192910190614b68565b5060608201518051611303916003840191602090910190614b68565b506080820151805161131f916004840191602090910190614ae4565b5060a0820151805161133b916005840191602090910190614ae4565b5060c08201518051611357916006840191602090910190614ae4565b50600193505050505b979650505050505050565b6000818152600860209081526040808320815160e08101835281546001600160a01b039081168252600183015416818501526002820180548451818702810187018652818152606097969395860193909291908301828280156113f757602002820191906000526020600020905b81546001600160a01b031681526001909101906020018083116113d9575b505050505081526020016003820180548060200260200160405190810160405280929190818152602001828054801561145957602002820191906000526020600020905b81546001600160a01b0316815260019091019060200180831161143b575b505050505081526020016004820180546114729061578f565b80601f016020809104026020016040519081016040528092919081815260200182805461149e9061578f565b80156114eb5780601f106114c0576101008083540402835291602001916114eb565b820191906000526020600020905b8154815290600101906020018083116114ce57829003601f168201915b505050505081526020016005820180546115049061578f565b80601f01602080910402602001604051908101604052809291908181526020018280546115309061578f565b801561157d5780601f106115525761010080835404028352916020019161157d565b820191906000526020600020905b81548152906001019060200180831161156057829003601f168201915b505050505081526020016006820180546115969061578f565b80601f01602080910402602001604051908101604052809291908181526020018280546115c29061578f565b801561160f5780601f106115e45761010080835404028352916020019161160f565b820191906000526020600020905b8154815290600101906020018083116115f257829003601f168201915b50505091909252505050606001519392505050565b6000828152600860205260408120905b600282015481101561174357826001600160a01b031682600201828154811061165f5761165f6157c3565b6000918252602090912001546001600160a01b0316036117315760028201805461168b906001906157ef565b8154811061169b5761169b6157c3565b6000918252602090912001546002830180546001600160a01b0390921691839081106116c9576116c96157c3565b9060005260206000200160006101000a8154816001600160a01b0302191690836001600160a01b031602179055508160020180548061170a5761170a615806565b600082815260209020810160001990810180546001600160a01b0319169055019055611743565b8061173b8161581c565b915050611634565b506000838152600860205260409020815481546001600160a01b039182166001600160a01b031991821617835560018085015490840180549190931691161790556002808301805484939261179b9290840191614bbd565b50600382810180546117b09284019190614bbd565b5060048201816004019080546117c59061578f565b6117d0929190614bfd565b5060058201816005019080546117e59061578f565b6117f0929190614bfd565b5060068201816006019080546118059061578f565b610c82929190614bfd565b6001546060906000906001600160401b0381111561183057611830615197565b60405190808252806020026020018201604052801561186357816020015b606081526020019060019003908161184e5790505b50905060005b6001548110156119665760008060018381548110611889576118896157c3565b60009182526020808320909101546001600160a01b03168352820192909252604001902080546118b89061578f565b80601f01602080910402602001604051908101604052809291908181526020018280546118e49061578f565b80156119315780601f1061190657610100808354040283529160200191611931565b820191906000526020600020905b81548152906001019060200180831161191457829003601f168201915b5050505050828281518110611948576119486157c3565b6020026020010181905250808061195e9061581c565b915050611869565b50919050565b611974614c77565b600082815260086020908152604091829020825160e08101845281546001600160a01b03908116825260018301541681840152600282018054855181860281018601875281815292959394938601938301828280156119fc57602002820191906000526020600020905b81546001600160a01b031681526001909101906020018083116119de575b5050505050815260200160038201805480602002602001604051908101604052809291908181526020018280548015611a5e57602002820191906000526020600020905b81546001600160a01b03168152600190910190602001808311611a40575b50505050508152602001600482018054611a779061578f565b80601f0160208091040260200160405190810160405280929190818152602001828054611aa39061578f565b8015611af05780601f10611ac557610100808354040283529160200191611af0565b820191906000526020600020905b815481529060010190602001808311611ad357829003601f168201915b50505050508152602001600582018054611b099061578f565b80601f0160208091040260200160405190810160405280929190818152602001828054611b359061578f565b8015611b825780601f10611b5757610100808354040283529160200191611b82565b820191906000526020600020905b815481529060010190602001808311611b6557829003601f168201915b50505050508152602001600682018054611b9b9061578f565b80601f0160208091040260200160405190810160405280929190818152602001828054611bc79061578f565b8015611c145780601f10611be957610100808354040283529160200191611c14565b820191906000526020600020905b815481529060010190602001808311611bf757829003601f168201915b5050505050815250509050919050565b6001600160a01b038116600090815260026020526040812081611c478282614a89565b505060005b600354811015611d5557826001600160a01b031660038281548110611c7357611c736157c3565b6000918252602090912001546001600160a01b031603611d435760038054611c9d906001906157ef565b81548110611cad57611cad6157c3565b600091825260209091200154600380546001600160a01b039092169183908110611cd957611cd96157c3565b9060005260206000200160006101000a8154816001600160a01b0302191690836001600160a01b031602179055506003805480611d1857611d18615806565b600082815260209020810160001990810180546001600160a01b031916905501905550600192915050565b80611d4d8161581c565b915050611c4c565b50600092915050565b604080516020810190915260608152611d76336132bf565b611dc65760405162461bcd60e51b815260206004820152601b60248201527f53656e646572206973206e6f7420612073757065722061646d696e0000000000604482015260640160405180910390fd5b600080836001600160a01b03166001600160a01b03168152602001908152602001600020604051806020016040529081600082018054611b9b9061578f565b6000805b600554811015611f0e57826001600160a01b031660058281548110611e3057611e306157c3565b6000918252602090912001546001600160a01b031603611efc5760058054611e5a906001906157ef565b81548110611e6a57611e6a6157c3565b600091825260209091200154600580546001600160a01b039092169183908110611e9657611e966157c3565b9060005260206000200160006101000a8154816001600160a01b0302191690836001600160a01b031602179055506005805480611ed557611ed5615806565b600082815260209020810160001990810180546001600160a01b0319169055019055611f0e565b80611f068161581c565b915050611e09565b506001600160a01b038216600090815260046020526040812090611f328282614a89565b611f40600183016000614a89565b5060020180546001600160a01b0319169055506001919050565b60058181548110611f6a57600080fd5b6000918252602090912001546001600160a01b0316905081565b600260205260009081526040902080548190611f9f9061578f565b80601f0160208091040260200160405190810160405280929190818152602001828054611fcb9061578f565b80156120185780601f10611fed57610100808354040283529160200191612018565b820191906000526020600020905b815481529060010190602001808311611ffb57829003601f168201915b5050505050905081565b6000828152600860209081526040808320815160e08101835281546001600160a01b039081168252600183015416818501526002820180548451818702810187018652818152929593948601938301828280156120a857602002820191906000526020600020905b81546001600160a01b0316815260019091019060200180831161208a575b505050505081526020016003820180548060200260200160405190810160405280929190818152602001828054801561210a57602002820191906000526020600020905b81546001600160a01b031681526001909101906020018083116120ec575b505050505081526020016004820180546121239061578f565b80601f016020809104026020016040519081016040528092919081815260200182805461214f9061578f565b801561219c5780601f106121715761010080835404028352916020019161219c565b820191906000526020600020905b81548152906001019060200180831161217f57829003601f168201915b505050505081526020016005820180546121b59061578f565b80601f01602080910402602001604051908101604052809291908181526020018280546121e19061578f565b801561222e5780601f106122035761010080835404028352916020019161222e565b820191906000526020600020905b81548152906001019060200180831161221157829003601f168201915b505050505081526020016006820180546122479061578f565b80601f01602080910402602001604051908101604052809291908181526020018280546122739061578f565b80156122c05780601f10612295576101008083540402835291602001916122c0565b820191906000526020600020905b8154815290600101906020018083116122a357829003601f168201915b505050919092525050506060810151805191925083916122de6157c3565b6001600160a01b03928316602091820292909201810191909152600085815260088252604090819020845181549085166001600160a01b03199182161782558584015160018301805491909616911617909355830151805184939261234a926002850192910190614b68565b5060608201518051612366916003840191602090910190614b68565b5060808201518051612382916004840191602090910190614ae4565b5060a0820151805161239e916005840191602090910190614ae4565b5060c08201518051610c82916006840191602090910190614ae4565b6040805160208082018352606082526001600160a01b038416600090815260028252839020835191820190935282549192909182908290611b9b9061578f565b6001600160a01b03811660009081526006602052604081208054829190610f069061578f565b6001600160a01b03821660009081526002602090815260408220835161244892850190614ae4565b50600190505b92915050565b6040805160806020601f88018190040282018101909252606081018681526000928291908990899081908501838280828437600092019190915250505090825250604080516020601f8801819004810282018101909252868152918101919087908790819084018382808284376000920182905250938552505033602093840152506001600160a01b038516815260048252604090208251805191926124ff92849290910190614ae4565b5060208281015180516125189260018501920190614ae4565b5060409190910151600290910180546001600160a01b03199081166001600160a01b039384161790915560058054600181810183556000929092527f036b6384b5eca791c62761152d0c79bb0604c104a5fb6f4eb0703f3154bb3db0018054909216949092169390931790925550949350505050565b6009818154811061259e57600080fd5b600091825260209091200154905081565b6001600160a01b03811660009081526004602052604081208054829190610f069061578f565b604080516060808201835280825260208201526000918101919091526001600160a01b038216600090815260046020526040908190208151606081019092528054829082906126239061578f565b80601f016020809104026020016040519081016040528092919081815260200182805461264f9061578f565b801561269c5780601f106126715761010080835404028352916020019161269c565b820191906000526020600020905b81548152906001019060200180831161267f57829003601f168201915b505050505081526020016001820180546126b59061578f565b80601f01602080910402602001604051908101604052809291908181526020018280546126e19061578f565b801561272e5780601f106127035761010080835404028352916020019161272e565b820191906000526020600020905b81548152906001019060200180831161271157829003601f168201915b5050509183525050600291909101546001600160a01b031660209091015292915050565b600061275d83610ee7565b6127695750600061244e565b612772826123fa565b61277e5750600061244e565b6000838152600860205260408120905b600382015481101561289d57836001600160a01b03168260030182815481106127b9576127b96157c3565b6000918252602090912001546001600160a01b03160361288b576003820180546127e5906001906157ef565b815481106127f5576127f56157c3565b6000918252602090912001546003830180546001600160a01b039092169183908110612823576128236157c3565b9060005260206000200160006101000a8154816001600160a01b0302191690836001600160a01b031602179055508160030180548061286457612864615806565b600082815260209020810160001990810180546001600160a01b031916905501905561289d565b806128958161581c565b91505061278e565b506000848152600860205260409020815481546001600160a01b039182166001600160a01b03199182161783556001808501549084018054919093169116179055600280830180548493926128f59290840191614bbd565b506003828101805461290a9284019190614bbd565b50600482018160040190805461291f9061578f565b61292a929190614bfd565b50600582018160050190805461293f9061578f565b61294a929190614bfd565b50600682018160060190805461295f9061578f565b61296a929190614bfd565b5060019695505050505050565b6000818152600860209081526040808320815160e08101835281546001600160a01b0390811682526001830154168185015260028201805484518187028101870186528181528796939586019390929190830182828015612a0157602002820191906000526020600020905b81546001600160a01b031681526001909101906020018083116129e3575b5050505050815260200160038201805480602002602001604051908101604052809291908181526020018280548015612a6357602002820191906000526020600020905b81546001600160a01b03168152600190910190602001808311612a45575b50505050508152602001600482018054612a7c9061578f565b80601f0160208091040260200160405190810160405280929190818152602001828054612aa89061578f565b8015612af55780601f10612aca57610100808354040283529160200191612af5565b820191906000526020600020905b815481529060010190602001808311612ad857829003601f168201915b50505050508152602001600582018054612b0e9061578f565b80601f0160208091040260200160405190810160405280929190818152602001828054612b3a9061578f565b8015612b875780601f10612b5c57610100808354040283529160200191612b87565b820191906000526020600020905b815481529060010190602001808311612b6a57829003601f168201915b50505050508152602001600682018054612ba09061578f565b80601f0160208091040260200160405190810160405280929190818152602001828054612bcc9061578f565b8015612c195780601f10612bee57610100808354040283529160200191612c19565b820191906000526020600020905b815481529060010190602001808311612bfc57829003601f168201915b505050505081525050905060005b816060015151811015612c8657336001600160a01b031682606001518281518110612c5457612c546157c3565b60200260200101516001600160a01b031603612c74575060019392505050565b80612c7e8161581c565b915050612c27565b5060009392505050565b60018181548110611f6a57600080fd5b6001600160a01b03811660009081526002602052604081208054829190610f069061578f565b60606005805480602002602001604051908101604052809291908181526020018280548015612d1e57602002820191906000526020600020905b81546001600160a01b03168152600190910190602001808311612d00575b5050505050905090565b6000803389898989898989604051602001612d4a989796959493929190615835565b60408051601f198184030181528282528051602091820120600180855284840190935293506000929190808301908036833750506040805160018082528183019092529293506000929150602080830190803683370190505090503382600081518110612db957612db96157c3565b60200260200101906001600160a01b031690816001600160a01b0316815250503381600081518110612ded57612ded6157c3565b60200260200101906001600160a01b031690816001600160a01b0316815250506040518060e00160405280336001600160a01b031681526020018c6001600160a01b031681526020018381526020018281526020018b8b8080601f016020809104026020016040519081016040528093929190818152602001838380828437600092019190915250505090825250604080516020601f8c018190048102820181019092528a815291810191908b908b9081908401838280828437600092019190915250505090825250604080516020601f8a0181900481028201810190925288815291810191908990899081908401838280828437600092018290525093909452505085815260086020908152604091829020845181546001600160a01b039182166001600160a01b031991821617835586840151600184018054919093169116179055918401518051929350612f4d9260028501929190910190614b68565b5060608201518051612f69916003840191602090910190614b68565b5060808201518051612f85916004840191602090910190614ae4565b5060a08201518051612fa1916005840191602090910190614ae4565b5060c08201518051612fbd916006840191602090910190614ae4565b505060098054600180820183556000929092527f6e1540171b6c0c960b71a7020d9f60077f6af931a8bbf590da0223dacf75c7af019490945550919a9950505050505050505050565b6000818152600860209081526040808320815160e08101835281546001600160a01b0390811682526001830154168185015260028201805484518187028101870186528181526060979693958601939092919083018282801561309257602002820191906000526020600020905b81546001600160a01b03168152600190910190602001808311613074575b50505050508152602001600382018054806020026020016040519081016040528092919081815260200182805480156130f457602002820191906000526020600020905b81546001600160a01b031681526001909101906020018083116130d6575b5050505050815260200160048201805461310d9061578f565b80601f01602080910402602001604051908101604052809291908181526020018280546131399061578f565b80156131865780601f1061315b57610100808354040283529160200191613186565b820191906000526020600020905b81548152906001019060200180831161316957829003601f168201915b5050505050815260200160058201805461319f9061578f565b80601f01602080910402602001604051908101604052809291908181526020018280546131cb9061578f565b80156132185780601f106131ed57610100808354040283529160200191613218565b820191906000526020600020905b8154815290600101906020018083116131fb57829003601f168201915b505050505081526020016006820180546132319061578f565b80601f016020809104026020016040519081016040528092919081815260200182805461325d9061578f565b80156132aa5780601f1061327f576101008083540402835291602001916132aa565b820191906000526020600020905b81548152906001019060200180831161328d57829003601f168201915b50505091909252505050604001519392505050565b6001600160a01b03811660009081526020819052604081208054829190610f069061578f565b6009546060906000906001600160401b0381111561330557613305615197565b60405190808252806020026020018201604052801561333e57816020015b61332b614c77565b8152602001906001900390816133235790505b50905060005b600954811015611966576008600060098381548110613365576133656157c3565b600091825260208083209091015483528281019390935260409182019020815160e08101835281546001600160a01b039081168252600183015416818501526002820180548451818702810187018652818152929593948601938301828280156133f857602002820191906000526020600020905b81546001600160a01b031681526001909101906020018083116133da575b505050505081526020016003820180548060200260200160405190810160405280929190818152602001828054801561345a57602002820191906000526020600020905b81546001600160a01b0316815260019091019060200180831161343c575b505050505081526020016004820180546134739061578f565b80601f016020809104026020016040519081016040528092919081815260200182805461349f9061578f565b80156134ec5780601f106134c1576101008083540402835291602001916134ec565b820191906000526020600020905b8154815290600101906020018083116134cf57829003601f168201915b505050505081526020016005820180546135059061578f565b80601f01602080910402602001604051908101604052809291908181526020018280546135319061578f565b801561357e5780601f106135535761010080835404028352916020019161357e565b820191906000526020600020905b81548152906001019060200180831161356157829003601f168201915b505050505081526020016006820180546135979061578f565b80601f01602080910402602001604051908101604052809291908181526020018280546135c39061578f565b80156136105780601f106135e557610100808354040283529160200191613610565b820191906000526020600020905b8154815290600101906020018083116135f357829003601f168201915b50505050508152505082828151811061362b5761362b6157c3565b602002602001018190525080806136419061581c565b915050613344565b6004602052600090815260409020805481906136649061578f565b80601f01602080910402602001604051908101604052809291908181526020018280546136909061578f565b80156136dd5780601f106136b2576101008083540402835291602001916136dd565b820191906000526020600020905b8154815290600101906020018083116136c057829003601f168201915b5050505050908060010180546136f29061578f565b80601f016020809104026020016040519081016040528092919081815260200182805461371e9061578f565b801561376b5780601f106137405761010080835404028352916020019161376b565b820191906000526020600020905b81548152906001019060200180831161374e57829003601f168201915b505050600290930154919250506001600160a01b031683565b60408051602080820183528382526001600160a01b03851660009081528082529290922081518051929391926137bd9284920190614ae4565b50506001805480820182556000919091527fb10e2d527612073b26eecdfd717e6a320cf44b4afac2b0732d9fcbe2b7fa0cf60180546001600160a01b0319166001600160a01b0394909416939093179092555050565b600060208190529081526040902080548190611f9f9061578f565b60078181548110611f6a57600080fd5b6138876040518060e00160405280606081526020016000815260200160608152602001606081526020016060815260200160006001600160a01b03168152602001606081525090565b6001600160a01b03821660009081526006602052604090819020815160e081019092528054829082906138b99061578f565b80601f01602080910402602001604051908101604052809291908181526020018280546138e59061578f565b80156139325780601f1061390757610100808354040283529160200191613932565b820191906000526020600020905b81548152906001019060200180831161391557829003601f168201915b50505050508152602001600182015481526020016002820180546139559061578f565b80601f01602080910402602001604051908101604052809291908181526020018280546139819061578f565b80156139ce5780601f106139a3576101008083540402835291602001916139ce565b820191906000526020600020905b8154815290600101906020018083116139b157829003601f168201915b505050505081526020016003820180546139e79061578f565b80601f0160208091040260200160405190810160405280929190818152602001828054613a139061578f565b8015613a605780601f10613a3557610100808354040283529160200191613a60565b820191906000526020600020905b815481529060010190602001808311613a4357829003601f168201915b50505050508152602001600482018054613a799061578f565b80601f0160208091040260200160405190810160405280929190818152602001828054613aa59061578f565b8015613af25780601f10613ac757610100808354040283529160200191613af2565b820191906000526020600020905b815481529060010190602001808311613ad557829003601f168201915b505050918352505060058201546001600160a01b03166020808301919091526006830180546040805182850281018501825282815294019392830182828015611c1457602002820191906000526020600020905b81546001600160a01b03168152600190910190602001808311613b46575050505050815250509050919050565b60038181548110611f6a57600080fd5b6000613b8e826123fa565b613b9a57506000919050565b336000908152600660208190526040909120018054839190613bba6157c3565b600091825260209091200180546001600160a01b0319166001600160a01b0392909216919091179055506001919050565b6005546060906000906001600160401b03811115613c0b57613c0b615197565b604051908082528060200260200182016040528015613c5857816020015b60408051606080820183528082526020820152600091810191909152815260200190600190039081613c295790505b50905060005b600554811015611966576004600060058381548110613c7f57613c7f6157c3565b60009182526020808320909101546001600160a01b031683528201929092526040908101909120815160608101909252805482908290613cbe9061578f565b80601f0160208091040260200160405190810160405280929190818152602001828054613cea9061578f565b8015613d375780601f10613d0c57610100808354040283529160200191613d37565b820191906000526020600020905b815481529060010190602001808311613d1a57829003601f168201915b50505050508152602001600182018054613d509061578f565b80601f0160208091040260200160405190810160405280929190818152602001828054613d7c9061578f565b8015613dc95780601f10613d9e57610100808354040283529160200191613dc9565b820191906000526020600020905b815481529060010190602001808311613dac57829003601f168201915b5050509183525050600291909101546001600160a01b03166020909101528251839083908110613dfb57613dfb6157c3565b60200260200101819052508080613e119061581c565b915050613c5e565b6003546060906000906001600160401b03811115613e3957613e39615197565b604051908082528060200260200182016040528015613e7957816020015b604080516020810190915260608152815260200190600190039081613e575790505b50905060005b600354811015611966576002600060038381548110613ea057613ea06157c3565b60009182526020808320909101546001600160a01b0316835282810193909352604091820190208151928301909152805482908290613ede9061578f565b80601f0160208091040260200160405190810160405280929190818152602001828054613f0a9061578f565b8015613f575780601f10613f2c57610100808354040283529160200191613f57565b820191906000526020600020905b815481529060010190602001808311613f3a57829003601f168201915b505050505081525050828281518110613f7257613f726157c3565b60200260200101819052508080613f889061581c565b915050613e7f565b60606003805480602002602001604051908101604052809291908181526020018280548015612d1e576020028201919060005260206000209081546001600160a01b03168152600190910190602001808311612d00575050505050905090565b33600090815260208181526040909120825161400e92840190614ae4565b5050565b6000828152600860209081526040808320815160e08101835281546001600160a01b0390811682526001830154168185015260028201805484518187028101870186528181529295939486019383018282801561409857602002820191906000526020600020905b81546001600160a01b0316815260019091019060200180831161407a575b50505050508152602001600382018054806020026020016040519081016040528092919081815260200182805480156140fa57602002820191906000526020600020905b81546001600160a01b031681526001909101906020018083116140dc575b505050505081526020016004820180546141139061578f565b80601f016020809104026020016040519081016040528092919081815260200182805461413f9061578f565b801561418c5780601f106141615761010080835404028352916020019161418c565b820191906000526020600020905b81548152906001019060200180831161416f57829003601f168201915b505050505081526020016005820180546141a59061578f565b80601f01602080910402602001604051908101604052809291908181526020018280546141d19061578f565b801561421e5780601f106141f35761010080835404028352916020019161421e565b820191906000526020600020905b81548152906001019060200180831161420157829003601f168201915b505050505081526020016006820180546142379061578f565b80601f01602080910402602001604051908101604052809291908181526020018280546142639061578f565b80156142b05780601f10614285576101008083540402835291602001916142b0565b820191906000526020600020905b81548152906001019060200180831161429357829003601f168201915b505050919092525050506040810151805191925083916122de6157c3565b33600090815260066020908152604091829020600501548251610100601f8d018490049093028101830190935260e083018b81526060936001600160a01b03909216928291908e908e908190850183828082843760009201919091525050509082525060208082018c905260408051601f8c0183900483028101830182528b8152920191908b908b9081908401838280828437600092019190915250505090825250604080516020601f8a0181900481028201810190925288815291810191908990899081908401838280828437600092019190915250505090825250604080516020601f88018190048102820181019092528681529181019190879087908190840183828082843760009201829052509385525050506001600160a01b03841660208084019190915260409283018690523382526006815291902082518051919261441f92849290910190614ae4565b506020828101516001830155604083015180516144429260028501920190614ae4565b506060820151805161445e916003840191602090910190614ae4565b506080820151805161447a916004840191602090910190614ae4565b5060a08201516005820180546001600160a01b0319166001600160a01b0390921691909117905560c082015180516144bc916006840191602090910190614b68565b5050505050505050505050505050565b60606001805480602002602001604051908101604052809291908181526020018280548015612d1e576020028201919060005260206000209081546001600160a01b03168152600190910190602001808311612d00575050505050905090565b6000818152600860209081526040808320815160e08101835281546001600160a01b03908116825260018301541681850152600282018054845181870281018701865281815287969395860193909291908301828280156145b657602002820191906000526020600020905b81546001600160a01b03168152600190910190602001808311614598575b505050505081526020016003820180548060200260200160405190810160405280929190818152602001828054801561461857602002820191906000526020600020905b81546001600160a01b031681526001909101906020018083116145fa575b505050505081526020016004820180546146319061578f565b80601f016020809104026020016040519081016040528092919081815260200182805461465d9061578f565b80156146aa5780601f1061467f576101008083540402835291602001916146aa565b820191906000526020600020905b81548152906001019060200180831161468d57829003601f168201915b505050505081526020016005820180546146c39061578f565b80601f01602080910402602001604051908101604052809291908181526020018280546146ef9061578f565b801561473c5780601f106147115761010080835404028352916020019161473c565b820191906000526020600020905b81548152906001019060200180831161471f57829003601f168201915b505050505081526020016006820180546147559061578f565b80601f01602080910402602001604051908101604052809291908181526020018280546147819061578f565b80156147ce5780601f106147a3576101008083540402835291602001916147ce565b820191906000526020600020905b8154815290600101906020018083116147b157829003601f168201915b505050505081525050905060005b816040015151811015612c8657336001600160a01b031682604001518281518110614809576148096157c3565b60200260200101516001600160a01b031603614829575060019392505050565b806148338161581c565b9150506147dc565b6000614846826123fa565b1561485357506000614a7a565b60606040518060e001604052808e8e8080601f01602080910402602001604051908101604052809392919081815260200183838082843760009201919091525050509082525060208082018e905260408051601f8e0183900483028101830182528d8152920191908d908d9081908401838280828437600092019190915250505090825250604080516020601f8c018190048102820181019092528a815291810191908b908b9081908401838280828437600092019190915250505090825250604080516020601f8a018190048102820181019092528881529181019190899089908190840183828082843760009201829052509385525050506001600160a01b03808816602080850191909152604093840186905290871682526006815291902082518051919261498a92849290910190614ae4565b506020828101516001830155604083015180516149ad9260028501920190614ae4565b50606082015180516149c9916003840191602090910190614ae4565b50608082015180516149e5916004840191602090910190614ae4565b5060a08201516005820180546001600160a01b0319166001600160a01b0390921691909117905560c08201518051614a27916006840191602090910190614b68565b505060078054600180820183556000929092527fa66cc928b5edb82af9bd49922954155ab7b0942694bea4ce44661d9a8736c6880180546001600160a01b0319166001600160a01b038716179055925050505b9b9a5050505050505050505050565b508054614a959061578f565b6000825580601f10614aa5575050565b601f016020900490600052602060002090810190614ac39190614cc6565b50565b5080546000825590600052602060002090810190614ac39190614cc6565b828054614af09061578f565b90600052602060002090601f016020900481019282614b125760008555614b58565b82601f10614b2b57805160ff1916838001178555614b58565b82800160010185558215614b58579182015b82811115614b58578251825591602001919060010190614b3d565b50614b64929150614cc6565b5090565b828054828255906000526020600020908101928215614b58579160200282015b82811115614b5857825182546001600160a01b0319166001600160a01b03909116178255602090920191600190910190614b88565b828054828255906000526020600020908101928215614b585760005260206000209182015b82811115614b58578254825591600101919060010190614be2565b828054614c099061578f565b90600052602060002090601f016020900481019282614c2b5760008555614b58565b82601f10614c3c5780548555614b58565b82800160010185558215614b5857600052602060002091601f0160209004820182811115614b58578254825591600101919060010190614be2565b6040518060e0016040528060006001600160a01b0316815260200160006001600160a01b0316815260200160608152602001606081526020016060815260200160608152602001606081525090565b5b80821115614b645760008155600101614cc7565b600060208284031215614ced57600080fd5b5035919050565b6000815180845260005b81811015614d1a57602081850181015186830182015201614cfe565b81811115614d2c576000602083870101525b50601f01601f19169290920160200192915050565b6001600160a01b0386811682528516602082015260a060408201819052600090614d6d90830186614cf4565b8281036060840152614d7f8186614cf4565b90508281036080840152614d938185614cf4565b98975050505050505050565b80356001600160a01b0381168114614db657600080fd5b919050565b600060208284031215614dcd57600080fd5b614dd682614d9f565b9392505050565b6020808252825182820181905260009190848201906040850190845b81811015614e1e5783516001600160a01b031683529284019291840191600101614df9565b50909695505050505050565b60008083601f840112614e3c57600080fd5b5081356001600160401b03811115614e5357600080fd5b602083019150836020828501011115614e6b57600080fd5b9250929050565b600080600060408486031215614e8757600080fd5b83356001600160401b03811115614e9d57600080fd5b614ea986828701614e2a565b9094509250614ebc905060208501614d9f565b90509250925092565b60c081526000614ed860c0830189614cf4565b8760208401528281036040840152614ef08188614cf4565b90508281036060840152614f048187614cf4565b90508281036080840152614f188186614cf4565b91505060018060a01b03831660a0830152979650505050505050565b60008060008060008060006080888a031215614f4f57600080fd5b8735965060208801356001600160401b0380821115614f6d57600080fd5b614f798b838c01614e2a565b909850965060408a0135915080821115614f9257600080fd5b614f9e8b838c01614e2a565b909650945060608a0135915080821115614fb757600080fd5b50614fc48a828b01614e2a565b989b979a50959850939692959293505050565b60008060408385031215614fea57600080fd5b82359150614ffa60208401614d9f565b90509250929050565b6000602080830181845280855180835260408601915060408160051b870101925083870160005b8281101561505857603f19888603018452615046858351614cf4565b9450928501929085019060010161502a565b5092979650505050505050565b600081518084526020808501945080840160005b8381101561509e5781516001600160a01b031687529582019590820190600101615079565b509495945050505050565b600060018060a01b0380835116845280602084015116602085015250604082015160e060408501526150de60e0850182615065565b9050606083015184820360608601526150f78282615065565b915050608083015184820360808601526151118282614cf4565b91505060a083015184820360a086015261512b8282614cf4565b91505060c083015184820360c08601526151458282614cf4565b95945050505050565b602081526000614dd660208301846150a9565b602081526000825160208084015261517c6040840182614cf4565b949350505050565b602081526000614dd66020830184614cf4565b634e487b7160e01b600052604160045260246000fd5b600082601f8301126151be57600080fd5b81356001600160401b03808211156151d8576151d8615197565b604051601f8301601f19908116603f0116810190828211818310171561520057615200615197565b8160405283815286602085880101111561521957600080fd5b836020870160208301376000602085830101528094505050505092915050565b6000806040838503121561524c57600080fd5b61525583614d9f565b915060208301356001600160401b0381111561527057600080fd5b61527c858286016151ad565b9150509250929050565b60008060008060006060868803121561529e57600080fd5b85356001600160401b03808211156152b557600080fd5b6152c189838a01614e2a565b909750955060208801359150808211156152da57600080fd5b506152e788828901614e2a565b90945092506152fa905060408701614d9f565b90509295509295909350565b600081516060845261531b6060850182614cf4565b9050602083015184820360208601526153348282614cf4565b6040948501516001600160a01b03169590940194909452509092915050565b602081526000614dd66020830184615306565b60008060008060008060006080888a03121561538157600080fd5b61538a88614d9f565b965060208801356001600160401b0380821115614f6d57600080fd5b6000602080830181845280855180835260408601915060408160051b870101925083870160005b8281101561505857603f198886030184526153e98583516150a9565b945092850192908501906001016153cd565b60608152600061540e6060830186614cf4565b82810360208401526154208186614cf4565b91505060018060a01b0383166040830152949350505050565b602081526000825160e06020840152615456610100840182614cf4565b9050602084015160408401526040840151601f198085840301606086015261547e8383614cf4565b9250606086015191508085840301608086015261549b8383614cf4565b925060808601519150808584030160a08601526154b88383614cf4565b60a08701516001600160a01b031660c08781019190915287015186820390920160e0870152925090506151458282615065565b6000602080830181845280855180835260408601915060408160051b870101925083870160005b8281101561505857603f1988860301845261552e858351615306565b94509285019290850190600101615512565b6000602080830181845280855180835260408601915060408160051b870101925083870160005b8281101561505857878503603f1901845281515186865261558a87870182614cf4565b9550509285019290850190600101615567565b6000602082840312156155af57600080fd5b81356001600160401b038111156155c557600080fd5b61517c848285016151ad565b600080600080600080600080600060a08a8c0312156155ef57600080fd5b89356001600160401b038082111561560657600080fd5b6156128d838e01614e2a565b909b50995060208c0135985060408c013591508082111561563257600080fd5b61563e8d838e01614e2a565b909850965060608c013591508082111561565757600080fd5b6156638d838e01614e2a565b909650945060808c013591508082111561567c57600080fd5b506156898c828d01614e2a565b915080935050809150509295985092959850929598565b600080600080600080600080600080600060e08c8e0312156156c157600080fd5b6001600160401b03808d3511156156d757600080fd5b6156e48e8e358f01614e2a565b909c509a5060208d0135995060408d013581101561570157600080fd5b6157118e60408f01358f01614e2a565b909950975060608d013581101561572757600080fd5b6157378e60608f01358f01614e2a565b909750955060808d013581101561574d57600080fd5b5061575e8d60808e01358e01614e2a565b909450925061576f60a08d01614d9f565b915061577d60c08d01614d9f565b90509295989b509295989b9093969950565b600181811c908216806157a357607f821691505b60208210810361196657634e487b7160e01b600052602260045260246000fd5b634e487b7160e01b600052603260045260246000fd5b634e487b7160e01b600052601160045260246000fd5b600082821015615801576158016157d9565b500390565b634e487b7160e01b600052603160045260246000fd5b60006001820161582e5761582e6157d9565b5060010190565b60006bffffffffffffffffffffffff19808b60601b168352808a60601b1660148401525086886028840137868201602881016000815286888237508581019050602881016000815284868237506000930160280192835250909897505050505050505056fea264697066735822122073bc8f33c4d8147f6a6bb880db471aa79672978bbdd707e6ae3cb42058995a0b64736f6c634300080d0033",
  "immutableReferences": {},
  "source": "// SPDX-License-Identifier: MIT\r\npragma solidity >=0.4.22 <0.9.0;\r\n\r\ncontract Medivault {\r\n    // function to check if an address is an admin or patient or doctor or super admin\r\n\r\n    // structure of super admin\r\n    struct SuperAdmin {\r\n        string name;\r\n    }\r\n    mapping(address => SuperAdmin) public superAdmins;\r\n    address[] public superAdminAddresses;\r\n\r\n    constructor() {\r\n        superAdminAddresses.push(msg.sender);\r\n        superAdmins[msg.sender] = SuperAdmin({name: \"Super admin\"});\r\n    }\r\n\r\n    function checkSuperAdmin(address pubkey) public view returns (bool) {\r\n        return bytes(superAdmins[pubkey].name).length > 0;\r\n    }\r\n\r\n    function editSuperAdmin(string memory name) public {\r\n        superAdmins[msg.sender].name = name;\r\n    }\r\n\r\n    function addSuperAdmin(address _address, string memory _name) public {\r\n        superAdmins[_address] = SuperAdmin(_name);\r\n        superAdminAddresses.push(_address);\r\n    }\r\n\r\n    function getAllSuperAdmins() public view returns (address[] memory) {\r\n        return superAdminAddresses;\r\n    }\r\n\r\n    function fetchNames() public view returns (string[] memory) {\r\n        string[] memory names = new string[](superAdminAddresses.length);\r\n        for (uint256 i = 0; i < superAdminAddresses.length; i++) {\r\n            names[i] = superAdmins[superAdminAddresses[i]].name;\r\n        }\r\n        return names;\r\n    }\r\n\r\n    function fetchSuperadmin(\r\n        address _address\r\n    ) public view returns (SuperAdmin memory) {\r\n        require(checkSuperAdmin(msg.sender), \"Sender is not a super admin\");\r\n        return superAdmins[_address];\r\n    }\r\n\r\n    function addAdmin(\r\n        string calldata institution_name,\r\n        address _address\r\n    ) public {\r\n        adminAddresses.push(_address);\r\n        admins[_address] = Admin({institution_name: institution_name});\r\n    }\r\n\r\n    function fetchAdminsAddresses() public view returns (address[] memory) {\r\n        return adminAddresses;\r\n    }\r\n\r\n    function fetchAdmins() public view returns (Admin[] memory) {\r\n        Admin[] memory _admins = new Admin[](adminAddresses.length);\r\n        for (uint256 i = 0; i < adminAddresses.length; i++) {\r\n            _admins[i] = admins[adminAddresses[i]];\r\n        }\r\n        return _admins;\r\n    }\r\n\r\n    function deleteAdmin(address _address) public returns (bool) {\r\n        delete admins[_address];\r\n        // search for the _address in the adminAddresses array and delete it\r\n        for (uint256 i = 0; i < adminAddresses.length; i++) {\r\n            if (adminAddresses[i] == _address) {\r\n                adminAddresses[i] = adminAddresses[adminAddresses.length - 1];\r\n                adminAddresses.pop(); // remove the last element\r\n                return true; // exit the function after successful deletion\r\n            }\r\n        }\r\n        return false; // return false if admin doesn't exist or sender is not a super admin\r\n    }\r\n\r\n    // -----------------------------------------------------------------------------------------\r\n\r\n    // Admin structure\r\n    struct Admin {\r\n        string institution_name;\r\n    }\r\n    mapping(address => Admin) public admins;\r\n    address[] public adminAddresses;\r\n\r\n    // admin functions\r\n    // function to check if an address is an admin\r\n    function checkAdmin(address pubkey) public view returns (bool) {\r\n        return bytes(admins[pubkey].institution_name).length > 0;\r\n    }\r\n\r\n    function fetchAdmin(address pubkey) public view returns (Admin memory) {\r\n        return admins[pubkey];\r\n    }\r\n\r\n    function editAdmin(\r\n        address pubkey,\r\n        string memory institution_name\r\n    ) public returns (bool) {\r\n        admins[pubkey].institution_name = institution_name;\r\n        return true;\r\n    }\r\n\r\n    function addDoctor(\r\n        string calldata name,\r\n        string calldata specialization,\r\n        address pubkey\r\n    ) public returns (bool) {\r\n        doctors[pubkey] = Doctor({\r\n            name: name,\r\n            specialization: specialization,\r\n            institution: msg.sender\r\n        });\r\n        doctorAddresses.push(pubkey);\r\n        return true;\r\n    }\r\n\r\n    function deleteDoctor(address pubkey) public returns (bool) {\r\n        // delete the address in the doctorAddresses array\r\n        for (uint256 i = 0; i < doctorAddresses.length; i++) {\r\n            if (doctorAddresses[i] == pubkey) {\r\n                doctorAddresses[i] = doctorAddresses[\r\n                    doctorAddresses.length - 1\r\n                ];\r\n                doctorAddresses.pop();\r\n                break;\r\n            }\r\n        }\r\n        // delete main doctor structure\r\n        delete doctors[pubkey];\r\n        return true;\r\n    }\r\n\r\n    function fetchDoctors() public view returns (Doctor[] memory) {\r\n        Doctor[] memory _doctors = new Doctor[](doctorAddresses.length);\r\n        for (uint256 i = 0; i < doctorAddresses.length; i++) {\r\n            _doctors[i] = doctors[doctorAddresses[i]];\r\n        }\r\n        return _doctors;\r\n    }\r\n\r\n    function fetchDoctorAddresses() public view returns (address[] memory) {\r\n        return doctorAddresses;\r\n    }\r\n\r\n    // -----------------------------------------------------------------------------------------\r\n\r\n    // doctor structure\r\n    struct Doctor {\r\n        string name;\r\n        string specialization;\r\n        // string contact;\r\n        address institution;\r\n    }\r\n    mapping(address => Doctor) public doctors;\r\n    address[] public doctorAddresses;\r\n\r\n    // doctor functions\r\n    // function to check if an address is a doctor\r\n    function checkDoctor(address pubkey) public view returns (bool) {\r\n        return bytes(doctors[pubkey].name).length > 0;\r\n    }\r\n\r\n    function fetchDoctor(address pubkey) public view returns (Doctor memory) {\r\n        return doctors[pubkey];\r\n    }\r\n\r\n    function addPatient(\r\n        string calldata name,\r\n        uint256 age,\r\n        string calldata gender,\r\n        string calldata addr,\r\n        string calldata contact,\r\n        address institution,\r\n        address pubkey\r\n    ) public returns (bool) {\r\n        // check if a patient with the pubkey already exists\r\n        if (checkPatient(pubkey)) {\r\n            return false;\r\n        }\r\n        address[] memory nominees;\r\n        patients[pubkey] = Patient({\r\n            name: name,\r\n            age: age,\r\n            gender: gender,\r\n            addr: addr,\r\n            contact: contact,\r\n            institution: institution,\r\n            nominees: nominees\r\n        });\r\n        patientAddresses.push(pubkey);\r\n        return true;\r\n    }\r\n\r\n    // function to delete a patient\r\n    function deletePatient(address pubkey) public returns (bool) {\r\n        // delete the address in the patientAddresses array\r\n        // check if the address exists in the patientAddresses array\r\n        if (!checkAdmin(pubkey)) {\r\n            return false;\r\n        }\r\n        for (uint256 i = 0; i < patientAddresses.length; i++) {\r\n            if (patientAddresses[i] == pubkey) {\r\n                patientAddresses[i] = patientAddresses[\r\n                    patientAddresses.length - 1\r\n                ];\r\n                patientAddresses.pop();\r\n                break;\r\n            }\r\n        }\r\n        // delete main patient structure\r\n        delete patients[pubkey];\r\n        return true;\r\n    }\r\n\r\n    // function to create a record\r\n    function createRecord(\r\n        address patient,\r\n        string calldata record_title,\r\n        string calldata record_desc,\r\n        string calldata record_data\r\n    ) public returns (bool) {\r\n        bytes32 record_hash = keccak256(\r\n            abi.encodePacked(\r\n                msg.sender,\r\n                patient,\r\n                record_title,\r\n                record_desc,\r\n                record_data\r\n            )\r\n        );\r\n        address[] memory read_allowed_doctors = new address[](1);\r\n        address[] memory write_allowed_doctors = new address[](1);\r\n\r\n        read_allowed_doctors[0] = msg.sender;\r\n\r\n        write_allowed_doctors[0] = msg.sender;\r\n\r\n        records[record_hash] = Record({\r\n            doctor: msg.sender,\r\n            patient: patient,\r\n            read_allowed_doctors: read_allowed_doctors,\r\n            write_allowed_doctors: write_allowed_doctors,\r\n            record_title: record_title,\r\n            record_desc: record_desc,\r\n            record_data: record_data\r\n        });\r\n        recordHashes.push(record_hash);\r\n        return true;\r\n    }\r\n\r\n    // function to fetch a record\r\n    function getRecord(\r\n        bytes32 record_hash\r\n    ) public view returns (Record memory) {\r\n        // check if the record exists\r\n        return records[record_hash];\r\n    }\r\n\r\n    // function to check if the doctor has read access\r\n    function checkReadAccess(bytes32 record_hash) public view returns (bool) {\r\n        Record memory record = records[record_hash];\r\n        for (uint256 i = 0; i < record.read_allowed_doctors.length; i++) {\r\n            if (record.read_allowed_doctors[i] == msg.sender) {\r\n                return true;\r\n            }\r\n        }\r\n        return false;\r\n    }\r\n\r\n    //function to check if the doctor has write access\r\n    function checkWriteAccess(bytes32 record_hash) public view returns (bool) {\r\n        Record memory record = records[record_hash];\r\n        for (uint256 i = 0; i < record.write_allowed_doctors.length; i++) {\r\n            if (record.write_allowed_doctors[i] == msg.sender) {\r\n                return true;\r\n            }\r\n        }\r\n        return false;\r\n    }\r\n\r\n    // function to edit record data by doctor\r\n    function editRecord(\r\n        bytes32 record_hash,\r\n        string calldata record_title,\r\n        string calldata record_desc,\r\n        string calldata record_data\r\n    ) public returns (bool) {\r\n        Record memory record = records[record_hash];\r\n        if (checkDoctor(record.doctor) == false) {\r\n            return false;\r\n        }\r\n        record.record_title = record_title;\r\n        record.record_desc = record_desc;\r\n        record.record_data = record_data;\r\n        records[record_hash] = record;\r\n        return true;\r\n    }\r\n\r\n    // -----------------------------------------------------------------------------------------\r\n\r\n    // patient structure\r\n    struct Patient {\r\n        string name;\r\n        uint256 age;\r\n        string gender;\r\n        string addr;\r\n        string contact;\r\n        address institution;\r\n        address[] nominees;\r\n    }\r\n    mapping(address => Patient) public patients;\r\n    address[] public patientAddresses;\r\n\r\n    // patient functions\r\n    // function to check if an address is a patient\r\n    function checkPatient(address pubkey) public view returns (bool) {\r\n        return bytes(patients[pubkey].name).length > 0;\r\n    }\r\n\r\n    //function to fetch a patient by address\r\n    function getPatient(address pubkey) public view returns (Patient memory) {\r\n        return patients[pubkey];\r\n    }\r\n\r\n    function editPatient(\r\n        string calldata name,\r\n        uint256 age,\r\n        string calldata gender,\r\n        string calldata addr,\r\n        string calldata contact\r\n    ) public {\r\n        address[] memory nominees;\r\n        address institution = patients[msg.sender].institution;\r\n        patients[msg.sender] = Patient({\r\n            name: name,\r\n            age: age,\r\n            gender: gender,\r\n            addr: addr,\r\n            contact: contact,\r\n            institution: institution,\r\n            nominees: nominees\r\n        });\r\n    }\r\n\r\n    // function to fetch all records\r\n    function getAllRecords() public view returns (Record[] memory) {\r\n        Record[] memory _records = new Record[](recordHashes.length);\r\n        for (uint256 i = 0; i < recordHashes.length; i++) {\r\n            _records[i] = records[recordHashes[i]];\r\n        }\r\n        return _records;\r\n    }\r\n\r\n    //function to fetch all the  read access members\r\n    function getReadAccessMembers(\r\n        bytes32 record_hash\r\n    ) public view returns (address[] memory) {\r\n        Record memory record = records[record_hash];\r\n        return record.read_allowed_doctors;\r\n    }\r\n\r\n    //function to fetch all the  write access members\r\n    function getWriteAccessMembers(\r\n        bytes32 record_hash\r\n    ) public view returns (address[] memory) {\r\n        Record memory record = records[record_hash];\r\n        return record.write_allowed_doctors;\r\n    }\r\n\r\n    //function to add member to read access of the record\r\n    function addMemberToReadAccess(bytes32 record_hash, address member) public {\r\n        Record memory record = records[record_hash];\r\n        record.read_allowed_doctors[\r\n            record.read_allowed_doctors.length\r\n        ] = member;\r\n        records[record_hash] = record;\r\n    }\r\n\r\n    //function to add member to write access of the record\r\n    function addMemberToWriteAccess(\r\n        bytes32 record_hash,\r\n        address member\r\n    ) public {\r\n        Record memory record = records[record_hash];\r\n        record.write_allowed_doctors[\r\n            record.write_allowed_doctors.length\r\n        ] = member;\r\n        records[record_hash] = record;\r\n    }\r\n\r\n    // function to revoke read access of the record\r\n    function revokeReadAccess(bytes32 record_hash, address member) public {\r\n        Record storage record = records[record_hash];\r\n        for (uint256 i = 0; i < record.read_allowed_doctors.length; i++) {\r\n            if (record.read_allowed_doctors[i] == member) {\r\n                record.read_allowed_doctors[i] = record.read_allowed_doctors[\r\n                    record.read_allowed_doctors.length - 1\r\n                ];\r\n                record.read_allowed_doctors.pop();\r\n                break;\r\n            }\r\n        }\r\n        records[record_hash] = record;\r\n    }\r\n\r\n    // function to revoke write access of the record with bool returns\r\n    function revokeWriteAccess(\r\n        bytes32 record_hash,\r\n        address member\r\n    ) public returns (bool) {\r\n        // check if the record exists or not\r\n        if (!checkRecord(record_hash)) {\r\n            return false;\r\n        }\r\n        // check if the address if of patient's or not \r\n        if (!checkPatient(member)) {\r\n            return false;\r\n        }\r\n        Record storage record = records[record_hash];\r\n        for (uint256 i = 0; i < record.write_allowed_doctors.length; i++) {\r\n            if (record.write_allowed_doctors[i] == member) {\r\n                record.write_allowed_doctors[i] = record.write_allowed_doctors[\r\n                    record.write_allowed_doctors.length - 1\r\n                ];\r\n                record.write_allowed_doctors.pop();\r\n                break;\r\n            }\r\n        }\r\n        records[record_hash] = record;\r\n        return true;\r\n    }\r\n\r\n    // function to add a nominee to a patient and returns a boolean\r\n    function addNominee(address nominee) public returns (bool) {\r\n        // check if the nominee is a patient\r\n        if (!checkPatient(nominee)) {\r\n            return false;\r\n        }\r\n        patients[msg.sender].nominees[\r\n            patients[msg.sender].nominees.length\r\n        ] = nominee;\r\n        return true;\r\n    }\r\n    \r\n\r\n\r\n\r\n    // function addNominee(address nominee) public {\r\n    //     patients[msg.sender].nominees[\r\n    //         patients[msg.sender].nominees.length\r\n    //     ] = nominee;\r\n    // }\r\n\r\n    //function to fetch a patient's nominees\r\n    function getNominees(\r\n        address pubkey\r\n    ) public view returns (address[] memory) {\r\n        return patients[pubkey].nominees;\r\n    }\r\n\r\n\r\n    struct Record {\r\n        address doctor;\r\n        address patient;\r\n        address[] read_allowed_doctors;\r\n        address[] write_allowed_doctors;\r\n        string record_title;\r\n        string record_desc;\r\n        string record_data;\r\n    }\r\n    mapping(bytes32 => Record) public records;\r\n    bytes32[] public recordHashes;\r\n\r\n    // patient record functions\r\n    // function to check if a record exists or not\r\n    function checkRecord(bytes32 record_hash) public view returns (bool) {\r\n        return bytes(records[record_hash].record_title).length > 0;\r\n    }\r\n\r\n    function addReadAllowedDoctor(bytes32 record_hash, address doctor) public {\r\n        records[record_hash].read_allowed_doctors.push(doctor);\r\n    }\r\n\r\n    function addWriteAllowedDoctor(bytes32 record_hash, address doctor) public {\r\n        records[record_hash].write_allowed_doctors.push(doctor);\r\n    }\r\n}\r\n",
  "sourcePath": "C:\\Users\\midhu\\OneDrive\\Documents\\GitHub\\Final-Year-Project-\\myapp\\contracts\\Medivault.sol",
  "compiler": {
    "name": "solc",
    "version": "0.8.13+commit.abaa5c0e.Emscripten.clang"
  },
  "schemaVersion": "3.4.16",
  "updatedAt": "2024-04-14T10:13:19.906Z",
  "networkType": "ethereum",
  "devdoc": {
    "kind": "dev",
    "methods": {},
    "version": 1
  },
  "userdoc": {
    "kind": "user",
    "methods": {},
    "version": 1
  }
}