{
  "contractName": "Medivault",
  "abi": [
    {
      "inputs": [],
      "stateMutability": "nonpayable",
      "type": "constructor"
    },
    {
      "inputs": [
        {
          "internalType": "uint256",
          "name": "",
          "type": "uint256"
        }
      ],
      "name": "adminAddresses",
      "outputs": [
        {
          "internalType": "address",
          "name": "",
          "type": "address"
        }
      ],
      "stateMutability": "view",
      "type": "function",
      "constant": true
    },
    {
      "inputs": [
        {
          "internalType": "address",
          "name": "",
          "type": "address"
        }
      ],
      "name": "admins",
      "outputs": [
        {
          "internalType": "string",
          "name": "institution_name",
          "type": "string"
        }
      ],
      "stateMutability": "view",
      "type": "function",
      "constant": true
    },
    {
      "inputs": [
        {
          "internalType": "uint256",
          "name": "",
          "type": "uint256"
        }
      ],
      "name": "doctorAddresses",
      "outputs": [
        {
          "internalType": "address",
          "name": "",
          "type": "address"
        }
      ],
      "stateMutability": "view",
      "type": "function",
      "constant": true
    },
    {
      "inputs": [
        {
          "internalType": "address",
          "name": "",
          "type": "address"
        }
      ],
      "name": "doctors",
      "outputs": [
        {
          "internalType": "string",
          "name": "name",
          "type": "string"
        },
        {
          "internalType": "string",
          "name": "specialization",
          "type": "string"
        },
        {
          "internalType": "address",
          "name": "institution",
          "type": "address"
        }
      ],
      "stateMutability": "view",
      "type": "function",
      "constant": true
    },
    {
      "inputs": [
        {
          "internalType": "uint256",
          "name": "",
          "type": "uint256"
        }
      ],
      "name": "patientAddresses",
      "outputs": [
        {
          "internalType": "address",
          "name": "",
          "type": "address"
        }
      ],
      "stateMutability": "view",
      "type": "function",
      "constant": true
    },
    {
      "inputs": [
        {
          "internalType": "address",
          "name": "",
          "type": "address"
        }
      ],
      "name": "patients",
      "outputs": [
        {
          "internalType": "string",
          "name": "name",
          "type": "string"
        },
        {
          "internalType": "uint256",
          "name": "age",
          "type": "uint256"
        },
        {
          "internalType": "string",
          "name": "gender",
          "type": "string"
        },
        {
          "internalType": "string",
          "name": "addr",
          "type": "string"
        },
        {
          "internalType": "string",
          "name": "contact",
          "type": "string"
        },
        {
          "internalType": "address",
          "name": "institution",
          "type": "address"
        }
      ],
      "stateMutability": "view",
      "type": "function",
      "constant": true
    },
    {
      "inputs": [
        {
          "internalType": "uint256",
          "name": "",
          "type": "uint256"
        }
      ],
      "name": "recordHashes",
      "outputs": [
        {
          "internalType": "bytes32",
          "name": "",
          "type": "bytes32"
        }
      ],
      "stateMutability": "view",
      "type": "function",
      "constant": true
    },
    {
      "inputs": [
        {
          "internalType": "bytes32",
          "name": "",
          "type": "bytes32"
        }
      ],
      "name": "records",
      "outputs": [
        {
          "internalType": "address",
          "name": "doctor",
          "type": "address"
        },
        {
          "internalType": "address",
          "name": "patient",
          "type": "address"
        },
        {
          "internalType": "string",
          "name": "record_title",
          "type": "string"
        },
        {
          "internalType": "string",
          "name": "record_desc",
          "type": "string"
        },
        {
          "internalType": "string",
          "name": "record_data",
          "type": "string"
        }
      ],
      "stateMutability": "view",
      "type": "function",
      "constant": true
    },
    {
      "inputs": [
        {
          "internalType": "uint256",
          "name": "",
          "type": "uint256"
        }
      ],
      "name": "superAdminAddresses",
      "outputs": [
        {
          "internalType": "address",
          "name": "",
          "type": "address"
        }
      ],
      "stateMutability": "view",
      "type": "function",
      "constant": true
    },
    {
      "inputs": [
        {
          "internalType": "address",
          "name": "",
          "type": "address"
        }
      ],
      "name": "superAdmins",
      "outputs": [
        {
          "internalType": "string",
          "name": "name",
          "type": "string"
        }
      ],
      "stateMutability": "view",
      "type": "function",
      "constant": true
    },
    {
      "inputs": [
        {
          "internalType": "address",
          "name": "pubkey",
          "type": "address"
        }
      ],
      "name": "checkSuperAdmin",
      "outputs": [
        {
          "internalType": "bool",
          "name": "",
          "type": "bool"
        }
      ],
      "stateMutability": "view",
      "type": "function",
      "constant": true
    },
    {
      "inputs": [
        {
          "internalType": "string",
          "name": "name",
          "type": "string"
        }
      ],
      "name": "editSuperAdmin",
      "outputs": [],
      "stateMutability": "nonpayable",
      "type": "function"
    },
    {
      "inputs": [
        {
          "internalType": "address",
          "name": "_address",
          "type": "address"
        },
        {
          "internalType": "string",
          "name": "_name",
          "type": "string"
        }
      ],
      "name": "addSuperAdmin",
      "outputs": [],
      "stateMutability": "nonpayable",
      "type": "function"
    },
    {
      "inputs": [],
      "name": "getAllSuperAdmins",
      "outputs": [
        {
          "internalType": "address[]",
          "name": "",
          "type": "address[]"
        }
      ],
      "stateMutability": "view",
      "type": "function",
      "constant": true
    },
    {
      "inputs": [],
      "name": "fetchNames",
      "outputs": [
        {
          "internalType": "string[]",
          "name": "",
          "type": "string[]"
        }
      ],
      "stateMutability": "view",
      "type": "function",
      "constant": true
    },
    {
      "inputs": [
        {
          "internalType": "address",
          "name": "_address",
          "type": "address"
        }
      ],
      "name": "fetchSuperadmin",
      "outputs": [
        {
          "components": [
            {
              "internalType": "string",
              "name": "name",
              "type": "string"
            }
          ],
          "internalType": "struct Medivault.SuperAdmin",
          "name": "",
          "type": "tuple"
        }
      ],
      "stateMutability": "view",
      "type": "function",
      "constant": true
    },
    {
      "inputs": [
        {
          "internalType": "string",
          "name": "institution_name",
          "type": "string"
        },
        {
          "internalType": "address",
          "name": "_address",
          "type": "address"
        }
      ],
      "name": "addAdmin",
      "outputs": [],
      "stateMutability": "nonpayable",
      "type": "function"
    },
    {
      "inputs": [],
      "name": "fetchAdminsAddresses",
      "outputs": [
        {
          "internalType": "address[]",
          "name": "",
          "type": "address[]"
        }
      ],
      "stateMutability": "view",
      "type": "function",
      "constant": true
    },
    {
      "inputs": [],
      "name": "fetchAdmins",
      "outputs": [
        {
          "components": [
            {
              "internalType": "string",
              "name": "institution_name",
              "type": "string"
            }
          ],
          "internalType": "struct Medivault.Admin[]",
          "name": "",
          "type": "tuple[]"
        }
      ],
      "stateMutability": "view",
      "type": "function",
      "constant": true
    },
    {
      "inputs": [
        {
          "internalType": "address",
          "name": "_address",
          "type": "address"
        }
      ],
      "name": "deleteAdmin",
      "outputs": [
        {
          "internalType": "bool",
          "name": "",
          "type": "bool"
        }
      ],
      "stateMutability": "nonpayable",
      "type": "function"
    },
    {
      "inputs": [
        {
          "internalType": "address",
          "name": "pubkey",
          "type": "address"
        }
      ],
      "name": "checkAdmin",
      "outputs": [
        {
          "internalType": "bool",
          "name": "",
          "type": "bool"
        }
      ],
      "stateMutability": "view",
      "type": "function",
      "constant": true
    },
    {
      "inputs": [
        {
          "internalType": "address",
          "name": "pubkey",
          "type": "address"
        }
      ],
      "name": "fetchAdmin",
      "outputs": [
        {
          "components": [
            {
              "internalType": "string",
              "name": "institution_name",
              "type": "string"
            }
          ],
          "internalType": "struct Medivault.Admin",
          "name": "",
          "type": "tuple"
        }
      ],
      "stateMutability": "view",
      "type": "function",
      "constant": true
    },
    {
      "inputs": [
        {
          "internalType": "address",
          "name": "pubkey",
          "type": "address"
        },
        {
          "internalType": "string",
          "name": "institution_name",
          "type": "string"
        }
      ],
      "name": "editAdmin",
      "outputs": [
        {
          "internalType": "bool",
          "name": "",
          "type": "bool"
        }
      ],
      "stateMutability": "nonpayable",
      "type": "function"
    },
    {
      "inputs": [
        {
          "internalType": "string",
          "name": "name",
          "type": "string"
        },
        {
          "internalType": "string",
          "name": "specialization",
          "type": "string"
        },
        {
          "internalType": "address",
          "name": "pubkey",
          "type": "address"
        }
      ],
      "name": "addDoctor",
      "outputs": [
        {
          "internalType": "bool",
          "name": "",
          "type": "bool"
        }
      ],
      "stateMutability": "nonpayable",
      "type": "function"
    },
    {
      "inputs": [
        {
          "internalType": "address",
          "name": "pubkey",
          "type": "address"
        }
      ],
      "name": "deleteDoctor",
      "outputs": [
        {
          "internalType": "bool",
          "name": "",
          "type": "bool"
        }
      ],
      "stateMutability": "nonpayable",
      "type": "function"
    },
    {
      "inputs": [],
      "name": "fetchDoctors",
      "outputs": [
        {
          "components": [
            {
              "internalType": "string",
              "name": "name",
              "type": "string"
            },
            {
              "internalType": "string",
              "name": "specialization",
              "type": "string"
            },
            {
              "internalType": "address",
              "name": "institution",
              "type": "address"
            }
          ],
          "internalType": "struct Medivault.Doctor[]",
          "name": "",
          "type": "tuple[]"
        }
      ],
      "stateMutability": "view",
      "type": "function",
      "constant": true
    },
    {
      "inputs": [],
      "name": "fetchDoctorAddresses",
      "outputs": [
        {
          "internalType": "address[]",
          "name": "",
          "type": "address[]"
        }
      ],
      "stateMutability": "view",
      "type": "function",
      "constant": true
    },
    {
      "inputs": [
        {
          "internalType": "address",
          "name": "pubkey",
          "type": "address"
        }
      ],
      "name": "checkDoctor",
      "outputs": [
        {
          "internalType": "bool",
          "name": "",
          "type": "bool"
        }
      ],
      "stateMutability": "view",
      "type": "function",
      "constant": true
    },
    {
      "inputs": [
        {
          "internalType": "address",
          "name": "pubkey",
          "type": "address"
        }
      ],
      "name": "fetchDoctor",
      "outputs": [
        {
          "components": [
            {
              "internalType": "string",
              "name": "name",
              "type": "string"
            },
            {
              "internalType": "string",
              "name": "specialization",
              "type": "string"
            },
            {
              "internalType": "address",
              "name": "institution",
              "type": "address"
            }
          ],
          "internalType": "struct Medivault.Doctor",
          "name": "",
          "type": "tuple"
        }
      ],
      "stateMutability": "view",
      "type": "function",
      "constant": true
    },
    {
      "inputs": [
        {
          "internalType": "string",
          "name": "name",
          "type": "string"
        },
        {
          "internalType": "uint256",
          "name": "age",
          "type": "uint256"
        },
        {
          "internalType": "string",
          "name": "gender",
          "type": "string"
        },
        {
          "internalType": "string",
          "name": "addr",
          "type": "string"
        },
        {
          "internalType": "string",
          "name": "contact",
          "type": "string"
        },
        {
          "internalType": "address",
          "name": "institution",
          "type": "address"
        },
        {
          "internalType": "address",
          "name": "pubkey",
          "type": "address"
        }
      ],
      "name": "addPatient",
      "outputs": [
        {
          "internalType": "bool",
          "name": "",
          "type": "bool"
        }
      ],
      "stateMutability": "nonpayable",
      "type": "function"
    },
    {
      "inputs": [
        {
          "internalType": "address",
          "name": "pubkey",
          "type": "address"
        }
      ],
      "name": "deletePatient",
      "outputs": [
        {
          "internalType": "bool",
          "name": "",
          "type": "bool"
        }
      ],
      "stateMutability": "nonpayable",
      "type": "function"
    },
    {
      "inputs": [
        {
          "internalType": "address",
          "name": "patient",
          "type": "address"
        },
        {
          "internalType": "string",
          "name": "record_title",
          "type": "string"
        },
        {
          "internalType": "string",
          "name": "record_desc",
          "type": "string"
        },
        {
          "internalType": "string",
          "name": "record_data",
          "type": "string"
        }
      ],
      "name": "createRecord",
      "outputs": [
        {
          "internalType": "bool",
          "name": "",
          "type": "bool"
        }
      ],
      "stateMutability": "nonpayable",
      "type": "function"
    },
    {
      "inputs": [
        {
          "internalType": "bytes32",
          "name": "record_hash",
          "type": "bytes32"
        }
      ],
      "name": "getRecord",
      "outputs": [
        {
          "components": [
            {
              "internalType": "address",
              "name": "doctor",
              "type": "address"
            },
            {
              "internalType": "address",
              "name": "patient",
              "type": "address"
            },
            {
              "internalType": "address[]",
              "name": "read_allowed_doctors",
              "type": "address[]"
            },
            {
              "internalType": "address[]",
              "name": "write_allowed_doctors",
              "type": "address[]"
            },
            {
              "internalType": "string",
              "name": "record_title",
              "type": "string"
            },
            {
              "internalType": "string",
              "name": "record_desc",
              "type": "string"
            },
            {
              "internalType": "string",
              "name": "record_data",
              "type": "string"
            }
          ],
          "internalType": "struct Medivault.Record",
          "name": "",
          "type": "tuple"
        }
      ],
      "stateMutability": "view",
      "type": "function",
      "constant": true
    },
    {
      "inputs": [
        {
          "internalType": "bytes32",
          "name": "record_hash",
          "type": "bytes32"
        }
      ],
      "name": "checkReadAccess",
      "outputs": [
        {
          "internalType": "bool",
          "name": "",
          "type": "bool"
        }
      ],
      "stateMutability": "view",
      "type": "function",
      "constant": true
    },
    {
      "inputs": [
        {
          "internalType": "bytes32",
          "name": "record_hash",
          "type": "bytes32"
        }
      ],
      "name": "checkWriteAccess",
      "outputs": [
        {
          "internalType": "bool",
          "name": "",
          "type": "bool"
        }
      ],
      "stateMutability": "view",
      "type": "function",
      "constant": true
    },
    {
      "inputs": [
        {
          "internalType": "bytes32",
          "name": "record_hash",
          "type": "bytes32"
        },
        {
          "internalType": "string",
          "name": "record_title",
          "type": "string"
        },
        {
          "internalType": "string",
          "name": "record_desc",
          "type": "string"
        },
        {
          "internalType": "string",
          "name": "record_data",
          "type": "string"
        }
      ],
      "name": "editRecord",
      "outputs": [
        {
          "internalType": "bool",
          "name": "",
          "type": "bool"
        }
      ],
      "stateMutability": "nonpayable",
      "type": "function"
    },
    {
      "inputs": [
        {
          "internalType": "address",
          "name": "pubkey",
          "type": "address"
        }
      ],
      "name": "checkPatient",
      "outputs": [
        {
          "internalType": "bool",
          "name": "",
          "type": "bool"
        }
      ],
      "stateMutability": "view",
      "type": "function",
      "constant": true
    },
    {
      "inputs": [
        {
          "internalType": "address",
          "name": "pubkey",
          "type": "address"
        }
      ],
      "name": "getPatient",
      "outputs": [
        {
          "components": [
            {
              "internalType": "string",
              "name": "name",
              "type": "string"
            },
            {
              "internalType": "uint256",
              "name": "age",
              "type": "uint256"
            },
            {
              "internalType": "string",
              "name": "gender",
              "type": "string"
            },
            {
              "internalType": "string",
              "name": "addr",
              "type": "string"
            },
            {
              "internalType": "string",
              "name": "contact",
              "type": "string"
            },
            {
              "internalType": "address",
              "name": "institution",
              "type": "address"
            },
            {
              "internalType": "address[]",
              "name": "nominees",
              "type": "address[]"
            }
          ],
          "internalType": "struct Medivault.Patient",
          "name": "",
          "type": "tuple"
        }
      ],
      "stateMutability": "view",
      "type": "function",
      "constant": true
    },
    {
      "inputs": [
        {
          "internalType": "bytes32",
          "name": "record_hash",
          "type": "bytes32"
        }
      ],
      "name": "checkRecord",
      "outputs": [
        {
          "internalType": "bool",
          "name": "",
          "type": "bool"
        }
      ],
      "stateMutability": "view",
      "type": "function",
      "constant": true
    },
    {
      "inputs": [
        {
          "internalType": "bytes32",
          "name": "record_hash",
          "type": "bytes32"
        },
        {
          "internalType": "address",
          "name": "doctor",
          "type": "address"
        }
      ],
      "name": "addReadAllowedDoctor",
      "outputs": [],
      "stateMutability": "nonpayable",
      "type": "function"
    },
    {
      "inputs": [
        {
          "internalType": "bytes32",
          "name": "record_hash",
          "type": "bytes32"
        },
        {
          "internalType": "address",
          "name": "doctor",
          "type": "address"
        }
      ],
      "name": "addWriteAllowedDoctor",
      "outputs": [],
      "stateMutability": "nonpayable",
      "type": "function"
    }
  ],
  "bytecode": "0x60806040523480156200001157600080fd5b506001339080600181540180825580915050600190039060005260206000200160009091909190916101000a81548173ffffffffffffffffffffffffffffffffffffffff021916908373ffffffffffffffffffffffffffffffffffffffff16021790555060405180602001604052806040518060400160405280600b81526020017f53757065722061646d696e0000000000000000000000000000000000000000008152508152506000803373ffffffffffffffffffffffffffffffffffffffff1673ffffffffffffffffffffffffffffffffffffffff1681526020019081526020016000206000820151816000019080519060200190620001159291906200011f565b5090505062000233565b8280546200012d90620001fe565b90600052602060002090601f0160209004810192826200015157600085556200019d565b82601f106200016c57805160ff19168380011785556200019d565b828001600101855582156200019d579182015b828111156200019c5782518255916020019190600101906200017f565b5b509050620001ac9190620001b0565b5090565b5b80821115620001cb576000816000905550600101620001b1565b5090565b7f4e487b7100000000000000000000000000000000000000000000000000000000600052602260045260246000fd5b600060028204905060018216806200021757607f821691505b6020821081036200022d576200022c620001cf565b5b50919050565b615eb180620002436000396000f3fe608060405234801561001057600080fd5b50600436106102535760003560e01c8063793de5f011610146578063ad25cb42116100c3578063d15262a611610087578063d15262a61461086d578063f0eb03441461088b578063f126e2da146108a9578063f56fecef146108c5578063fb50b236146108e3578063fbad73f21461091357610253565b8063ad25cb421461078f578063b40f1691146107bf578063b5368e20146107ef578063ba44eecf1461081f578063cbf007f31461084f57610253565b80639569afce1161010a5780639569afce146106c35780639bc197e2146106e1578063a1d658b114610711578063a9583c2214610741578063ab05bae61461077357610253565b8063793de5f0146105d35780637f44782b1461060357806388f50b41146106335780638f2448c9146106635780639026dee81461069357610253565b806334ed1df5116101d45780636001f1d1116101985780636001f1d1146104e35780636529c77714610513578063717a40911461054357806376017e5e1461057357806376b03479146105a357610253565b806334ed1df51461041b5780633b1693b6146104375780633ba51e7c14610467578063429b62e5146104975780634b8c01fd146104c757610253565b80630b2255f71161021b5780630b2255f71461033d5780631bd79fc21461036d578063213681cd1461038b57806327e1f7df146103bb5780632f3f6be2146103eb57610253565b806301e647251461025857806302513ed21461028c5780630831b05f146102bc5780630869cfbc146102d8578063088051291461030d575b600080fd5b610272600480360381019061026d9190614a7d565b610943565b604051610283959493929190614b84565b60405180910390f35b6102a660048036038101906102a19190614c18565b610b51565b6040516102b39190614c60565b60405180910390f35b6102d660048036038101906102d19190614ce0565b610dc1565b005b6102f260048036038101906102ed9190614c18565b610edb565b60405161030496959493929190614d59565b60405180910390f35b61032760048036038101906103229190614a7d565b611157565b6040516103349190614c60565b60405180910390f35b61035760048036038101906103529190614dd6565b611185565b6040516103649190614c60565b60405180910390f35b610375611776565b6040516103829190614fab565b60405180910390f35b6103a560048036038101906103a09190614a7d565b611920565b6040516103b29190615143565b60405180910390f35b6103d560048036038101906103d09190614c18565b611ccb565b6040516103e29190614c60565b60405180910390f35b61040560048036038101906104009190614c18565b611ebb565b604051610412919061518f565b60405180910390f35b610435600480360381019061043091906151b1565b611fed565b005b610451600480360381019061044c9190614c18565b612068565b60405161045e9190614c60565b60405180910390f35b610481600480360381019061047c919061521d565b61228c565b60405161048e919061524a565b60405180910390f35b6104b160048036038101906104ac9190614c18565b6122cb565b6040516104be9190615265565b60405180910390f35b6104e160048036038101906104dc91906151b1565b612371565b005b6104fd60048036038101906104f89190614c18565b6123ec565b60405161050a91906152b1565b60405180910390f35b61052d60048036038101906105289190614c18565b6124d7565b60405161053a9190614c60565b60405180910390f35b61055d60048036038101906105589190615403565b612531565b60405161056a9190614c60565b60405180910390f35b61058d6004803603810190610588919061545f565b612594565b60405161059a9190614c60565b60405180910390f35b6105bd60048036038101906105b8919061521d565b612782565b6040516105ca9190615503565b60405180910390f35b6105ed60048036038101906105e89190614c18565b6127a6565b6040516105fa9190614c60565b60405180910390f35b61061d60048036038101906106189190614c18565b612800565b60405161062a9190615575565b60405180910390f35b61064d60048036038101906106489190614a7d565b6129d3565b60405161065a9190614c60565b60405180910390f35b61067d6004803603810190610678919061521d565b612dff565b60405161068a919061524a565b60405180910390f35b6106ad60048036038101906106a89190614c18565b612e3e565b6040516106ba9190614c60565b60405180910390f35b6106cb612e98565b6040516106d89190615606565b60405180910390f35b6106fb60048036038101906106f69190615628565b612f26565b6040516107089190614c60565b60405180910390f35b61072b60048036038101906107269190614c18565b613335565b6040516107389190614c60565b60405180910390f35b61075b60048036038101906107569190614c18565b61338e565b60405161076a939291906156f1565b60405180910390f35b61078d60048036038101906107889190615403565b6134e8565b005b6107a960048036038101906107a49190614c18565b6135bc565b6040516107b69190615265565b60405180910390f35b6107d960048036038101906107d4919061521d565b613662565b6040516107e6919061524a565b60405180910390f35b61080960048036038101906108049190614c18565b6136a1565b60405161081691906157fd565b60405180910390f35b6108396004803603810190610834919061521d565b613a30565b604051610846919061524a565b60405180910390f35b610857613a6f565b6040516108649190615938565b60405180910390f35b610875613d19565b6040516108829190615a46565b60405180910390f35b610893613edb565b6040516108a09190615606565b60405180910390f35b6108c360048036038101906108be9190615a68565b613f69565b005b6108cd613fc2565b6040516108da9190615606565b60405180910390f35b6108fd60048036038101906108f89190614a7d565b614050565b60405161090a9190614c60565b60405180910390f35b61092d60048036038101906109289190615ab1565b61447c565b60405161093a9190614c60565b60405180910390f35b60086020528060005260406000206000915090508060000160009054906101000a900473ffffffffffffffffffffffffffffffffffffffff16908060010160009054906101000a900473ffffffffffffffffffffffffffffffffffffffff16908060040180546109b290615c04565b80601f01602080910402602001604051908101604052809291908181526020018280546109de90615c04565b8015610a2b5780601f10610a0057610100808354040283529160200191610a2b565b820191906000526020600020905b815481529060010190602001808311610a0e57829003601f168201915b505050505090806005018054610a4090615c04565b80601f0160208091040260200160405190810160405280929190818152602001828054610a6c90615c04565b8015610ab95780601f10610a8e57610100808354040283529160200191610ab9565b820191906000526020600020905b815481529060010190602001808311610a9c57829003601f168201915b505050505090806006018054610ace90615c04565b80601f0160208091040260200160405190810160405280929190818152602001828054610afa90615c04565b8015610b475780601f10610b1c57610100808354040283529160200191610b47565b820191906000526020600020905b815481529060010190602001808311610b2a57829003601f168201915b5050505050905085565b6000610b5c82612e3e565b610b695760009050610dbc565b60005b600780549050811015610cf5578273ffffffffffffffffffffffffffffffffffffffff1660078281548110610ba457610ba3615c35565b5b9060005260206000200160009054906101000a900473ffffffffffffffffffffffffffffffffffffffff1673ffffffffffffffffffffffffffffffffffffffff1603610ce25760076001600780549050610bfe9190615c93565b81548110610c0f57610c0e615c35565b5b9060005260206000200160009054906101000a900473ffffffffffffffffffffffffffffffffffffffff1660078281548110610c4e57610c4d615c35565b5b9060005260206000200160006101000a81548173ffffffffffffffffffffffffffffffffffffffff021916908373ffffffffffffffffffffffffffffffffffffffff1602179055506007805480610ca857610ca7615cc7565b5b6001900381819060005260206000200160006101000a81549073ffffffffffffffffffffffffffffffffffffffff02191690559055610cf5565b8080610ced90615cf6565b915050610b6c565b50600660008373ffffffffffffffffffffffffffffffffffffffff1673ffffffffffffffffffffffffffffffffffffffff16815260200190815260200160002060008082016000610d46919061478c565b6001820160009055600282016000610d5e919061478c565b600382016000610d6e919061478c565b600482016000610d7e919061478c565b6005820160006101000a81549073ffffffffffffffffffffffffffffffffffffffff0219169055600682016000610db591906147cc565b5050600190505b919050565b6003819080600181540180825580915050600190039060005260206000200160009091909190916101000a81548173ffffffffffffffffffffffffffffffffffffffff021916908373ffffffffffffffffffffffffffffffffffffffff160217905550604051806020016040528084848080601f016020809104026020016040519081016040528093929190818152602001838380828437600081840152601f19601f82011690508083019250505050505050815250600260008373ffffffffffffffffffffffffffffffffffffffff1673ffffffffffffffffffffffffffffffffffffffff1681526020019081526020016000206000820151816000019080519060200190610ed29291906147ed565b50905050505050565b6006602052806000526040600020600091509050806000018054610efe90615c04565b80601f0160208091040260200160405190810160405280929190818152602001828054610f2a90615c04565b8015610f775780601f10610f4c57610100808354040283529160200191610f77565b820191906000526020600020905b815481529060010190602001808311610f5a57829003601f168201915b505050505090806001015490806002018054610f9290615c04565b80601f0160208091040260200160405190810160405280929190818152602001828054610fbe90615c04565b801561100b5780601f10610fe05761010080835404028352916020019161100b565b820191906000526020600020905b815481529060010190602001808311610fee57829003601f168201915b50505050509080600301805461102090615c04565b80601f016020809104026020016040519081016040528092919081815260200182805461104c90615c04565b80156110995780601f1061106e57610100808354040283529160200191611099565b820191906000526020600020905b81548152906001019060200180831161107c57829003601f168201915b5050505050908060040180546110ae90615c04565b80601f01602080910402602001604051908101604052809291908181526020018280546110da90615c04565b80156111275780601f106110fc57610100808354040283529160200191611127565b820191906000526020600020905b81548152906001019060200180831161110a57829003601f168201915b5050505050908060050160009054906101000a900473ffffffffffffffffffffffffffffffffffffffff16905086565b60008060086000848152602001908152602001600020600401805461117b90615c04565b9050119050919050565b600080600860008a81526020019081526020016000206040518060e00160405290816000820160009054906101000a900473ffffffffffffffffffffffffffffffffffffffff1673ffffffffffffffffffffffffffffffffffffffff1673ffffffffffffffffffffffffffffffffffffffff1681526020016001820160009054906101000a900473ffffffffffffffffffffffffffffffffffffffff1673ffffffffffffffffffffffffffffffffffffffff1673ffffffffffffffffffffffffffffffffffffffff168152602001600282018054806020026020016040519081016040528092919081815260200182805480156112d757602002820191906000526020600020905b8160009054906101000a900473ffffffffffffffffffffffffffffffffffffffff1673ffffffffffffffffffffffffffffffffffffffff168152602001906001019080831161128d575b505050505081526020016003820180548060200260200160405190810160405280929190818152602001828054801561136557602002820191906000526020600020905b8160009054906101000a900473ffffffffffffffffffffffffffffffffffffffff1673ffffffffffffffffffffffffffffffffffffffff168152602001906001019080831161131b575b5050505050815260200160048201805461137e90615c04565b80601f01602080910402602001604051908101604052809291908181526020018280546113aa90615c04565b80156113f75780601f106113cc576101008083540402835291602001916113f7565b820191906000526020600020905b8154815290600101906020018083116113da57829003601f168201915b5050505050815260200160058201805461141090615c04565b80601f016020809104026020016040519081016040528092919081815260200182805461143c90615c04565b80156114895780601f1061145e57610100808354040283529160200191611489565b820191906000526020600020905b81548152906001019060200180831161146c57829003601f168201915b505050505081526020016006820180546114a290615c04565b80601f01602080910402602001604051908101604052809291908181526020018280546114ce90615c04565b801561151b5780601f106114f05761010080835404028352916020019161151b565b820191906000526020600020905b8154815290600101906020018083116114fe57829003601f168201915b50505050508152505090506000151561153782600001516127a6565b15150361154857600091505061176b565b87878080601f016020809104026020016040519081016040528093929190818152602001838380828437600081840152601f19601f82011690508083019250505050505050816080018190525085858080601f016020809104026020016040519081016040528093929190818152602001838380828437600081840152601f19601f820116905080830192505050505050508160a0018190525083838080601f016020809104026020016040519081016040528093929190818152602001838380828437600081840152601f19601f820116905080830192505050505050508160c0018190525080600860008b815260200190815260200160002060008201518160000160006101000a81548173ffffffffffffffffffffffffffffffffffffffff021916908373ffffffffffffffffffffffffffffffffffffffff16021790555060208201518160010160006101000a81548173ffffffffffffffffffffffffffffffffffffffff021916908373ffffffffffffffffffffffffffffffffffffffff16021790555060408201518160020190805190602001906116ed929190614873565b50606082015181600301908051906020019061170a929190614873565b5060808201518160040190805190602001906117279291906147ed565b5060a08201518160050190805190602001906117449291906147ed565b5060c08201518160060190805190602001906117619291906147ed565b5090505060019150505b979650505050505050565b6060600060018054905067ffffffffffffffff811115611799576117986152d8565b5b6040519080825280602002602001820160405280156117cc57816020015b60608152602001906001900390816117b75790505b50905060005b60018054905081101561191857600080600183815481106117f6576117f5615c35565b5b9060005260206000200160009054906101000a900473ffffffffffffffffffffffffffffffffffffffff1673ffffffffffffffffffffffffffffffffffffffff1673ffffffffffffffffffffffffffffffffffffffff168152602001908152602001600020600001805461186990615c04565b80601f016020809104026020016040519081016040528092919081815260200182805461189590615c04565b80156118e25780601f106118b7576101008083540402835291602001916118e2565b820191906000526020600020905b8154815290600101906020018083116118c557829003601f168201915b50505050508282815181106118fa576118f9615c35565b5b6020026020010181905250808061191090615cf6565b9150506117d2565b508091505090565b6119286148fd565b600860008381526020019081526020016000206040518060e00160405290816000820160009054906101000a900473ffffffffffffffffffffffffffffffffffffffff1673ffffffffffffffffffffffffffffffffffffffff1673ffffffffffffffffffffffffffffffffffffffff1681526020016001820160009054906101000a900473ffffffffffffffffffffffffffffffffffffffff1673ffffffffffffffffffffffffffffffffffffffff1673ffffffffffffffffffffffffffffffffffffffff16815260200160028201805480602002602001604051908101604052809291908181526020018280548015611a7757602002820191906000526020600020905b8160009054906101000a900473ffffffffffffffffffffffffffffffffffffffff1673ffffffffffffffffffffffffffffffffffffffff1681526020019060010190808311611a2d575b5050505050815260200160038201805480602002602001604051908101604052809291908181526020018280548015611b0557602002820191906000526020600020905b8160009054906101000a900473ffffffffffffffffffffffffffffffffffffffff1673ffffffffffffffffffffffffffffffffffffffff1681526020019060010190808311611abb575b50505050508152602001600482018054611b1e90615c04565b80601f0160208091040260200160405190810160405280929190818152602001828054611b4a90615c04565b8015611b975780601f10611b6c57610100808354040283529160200191611b97565b820191906000526020600020905b815481529060010190602001808311611b7a57829003601f168201915b50505050508152602001600582018054611bb090615c04565b80601f0160208091040260200160405190810160405280929190818152602001828054611bdc90615c04565b8015611c295780601f10611bfe57610100808354040283529160200191611c29565b820191906000526020600020905b815481529060010190602001808311611c0c57829003601f168201915b50505050508152602001600682018054611c4290615c04565b80601f0160208091040260200160405190810160405280929190818152602001828054611c6e90615c04565b8015611cbb5780601f10611c9057610100808354040283529160200191611cbb565b820191906000526020600020905b815481529060010190602001808311611c9e57829003601f168201915b5050505050815250509050919050565b6000600260008373ffffffffffffffffffffffffffffffffffffffff1673ffffffffffffffffffffffffffffffffffffffff16815260200190815260200160002060008082016000611d1d919061478c565b505060005b600380549050811015611eb0578273ffffffffffffffffffffffffffffffffffffffff1660038281548110611d5a57611d59615c35565b5b9060005260206000200160009054906101000a900473ffffffffffffffffffffffffffffffffffffffff1673ffffffffffffffffffffffffffffffffffffffff1603611e9d5760036001600380549050611db49190615c93565b81548110611dc557611dc4615c35565b5b9060005260206000200160009054906101000a900473ffffffffffffffffffffffffffffffffffffffff1660038281548110611e0457611e03615c35565b5b9060005260206000200160006101000a81548173ffffffffffffffffffffffffffffffffffffffff021916908373ffffffffffffffffffffffffffffffffffffffff1602179055506003805480611e5e57611e5d615cc7565b5b6001900381819060005260206000200160006101000a81549073ffffffffffffffffffffffffffffffffffffffff021916905590556001915050611eb6565b8080611ea890615cf6565b915050611d22565b50600090505b919050565b611ec3614966565b611ecc33613335565b611f0b576040517f08c379a0000000000000000000000000000000000000000000000000000000008152600401611f0290615d8a565b60405180910390fd5b6000808373ffffffffffffffffffffffffffffffffffffffff1673ffffffffffffffffffffffffffffffffffffffff168152602001908152602001600020604051806020016040529081600082018054611f6490615c04565b80601f0160208091040260200160405190810160405280929190818152602001828054611f9090615c04565b8015611fdd5780601f10611fb257610100808354040283529160200191611fdd565b820191906000526020600020905b815481529060010190602001808311611fc057829003601f168201915b5050505050815250509050919050565b60086000838152602001908152602001600020600201819080600181540180825580915050600190039060005260206000200160009091909190916101000a81548173ffffffffffffffffffffffffffffffffffffffff021916908373ffffffffffffffffffffffffffffffffffffffff1602179055505050565b600080600090505b6005805490508110156121f9578273ffffffffffffffffffffffffffffffffffffffff16600582815481106120a8576120a7615c35565b5b9060005260206000200160009054906101000a900473ffffffffffffffffffffffffffffffffffffffff1673ffffffffffffffffffffffffffffffffffffffff16036121e657600560016005805490506121029190615c93565b8154811061211357612112615c35565b5b9060005260206000200160009054906101000a900473ffffffffffffffffffffffffffffffffffffffff166005828154811061215257612151615c35565b5b9060005260206000200160006101000a81548173ffffffffffffffffffffffffffffffffffffffff021916908373ffffffffffffffffffffffffffffffffffffffff16021790555060058054806121ac576121ab615cc7565b5b6001900381819060005260206000200160006101000a81549073ffffffffffffffffffffffffffffffffffffffff021916905590556121f9565b80806121f190615cf6565b915050612070565b50600460008373ffffffffffffffffffffffffffffffffffffffff1673ffffffffffffffffffffffffffffffffffffffff1681526020019081526020016000206000808201600061224a919061478c565b60018201600061225a919061478c565b6002820160006101000a81549073ffffffffffffffffffffffffffffffffffffffff0219169055505060019050919050565b6005818154811061229c57600080fd5b906000526020600020016000915054906101000a900473ffffffffffffffffffffffffffffffffffffffff1681565b60026020528060005260406000206000915090508060000180546122ee90615c04565b80601f016020809104026020016040519081016040528092919081815260200182805461231a90615c04565b80156123675780601f1061233c57610100808354040283529160200191612367565b820191906000526020600020905b81548152906001019060200180831161234a57829003601f168201915b5050505050905081565b60086000838152602001908152602001600020600301819080600181540180825580915050600190039060005260206000200160009091909190916101000a81548173ffffffffffffffffffffffffffffffffffffffff021916908373ffffffffffffffffffffffffffffffffffffffff1602179055505050565b6123f4614979565b600260008373ffffffffffffffffffffffffffffffffffffffff1673ffffffffffffffffffffffffffffffffffffffff16815260200190815260200160002060405180602001604052908160008201805461244e90615c04565b80601f016020809104026020016040519081016040528092919081815260200182805461247a90615c04565b80156124c75780601f1061249c576101008083540402835291602001916124c7565b820191906000526020600020905b8154815290600101906020018083116124aa57829003601f168201915b5050505050815250509050919050565b600080600660008473ffffffffffffffffffffffffffffffffffffffff1673ffffffffffffffffffffffffffffffffffffffff168152602001908152602001600020600001805461252790615c04565b9050119050919050565b600081600260008573ffffffffffffffffffffffffffffffffffffffff1673ffffffffffffffffffffffffffffffffffffffff16815260200190815260200160002060000190805190602001906125899291906147ed565b506001905092915050565b6000604051806060016040528087878080601f016020809104026020016040519081016040528093929190818152602001838380828437600081840152601f19601f82011690508083019250505050505050815260200185858080601f016020809104026020016040519081016040528093929190818152602001838380828437600081840152601f19601f8201169050808301925050505050505081526020013373ffffffffffffffffffffffffffffffffffffffff16815250600460008473ffffffffffffffffffffffffffffffffffffffff1673ffffffffffffffffffffffffffffffffffffffff16815260200190815260200160002060008201518160000190805190602001906126aa9291906147ed565b5060208201518160010190805190602001906126c79291906147ed565b5060408201518160020160006101000a81548173ffffffffffffffffffffffffffffffffffffffff021916908373ffffffffffffffffffffffffffffffffffffffff1602179055509050506005829080600181540180825580915050600190039060005260206000200160009091909190916101000a81548173ffffffffffffffffffffffffffffffffffffffff021916908373ffffffffffffffffffffffffffffffffffffffff1602179055506001905095945050505050565b6009818154811061279257600080fd5b906000526020600020016000915090505481565b600080600460008473ffffffffffffffffffffffffffffffffffffffff1673ffffffffffffffffffffffffffffffffffffffff16815260200190815260200160002060000180546127f690615c04565b9050119050919050565b61280861498c565b600460008373ffffffffffffffffffffffffffffffffffffffff1673ffffffffffffffffffffffffffffffffffffffff16815260200190815260200160002060405180606001604052908160008201805461286290615c04565b80601f016020809104026020016040519081016040528092919081815260200182805461288e90615c04565b80156128db5780601f106128b0576101008083540402835291602001916128db565b820191906000526020600020905b8154815290600101906020018083116128be57829003601f168201915b505050505081526020016001820180546128f490615c04565b80601f016020809104026020016040519081016040528092919081815260200182805461292090615c04565b801561296d5780601f106129425761010080835404028352916020019161296d565b820191906000526020600020905b81548152906001019060200180831161295057829003601f168201915b505050505081526020016002820160009054906101000a900473ffffffffffffffffffffffffffffffffffffffff1673ffffffffffffffffffffffffffffffffffffffff1673ffffffffffffffffffffffffffffffffffffffff16815250509050919050565b600080600860008481526020019081526020016000206040518060e00160405290816000820160009054906101000a900473ffffffffffffffffffffffffffffffffffffffff1673ffffffffffffffffffffffffffffffffffffffff1673ffffffffffffffffffffffffffffffffffffffff1681526020016001820160009054906101000a900473ffffffffffffffffffffffffffffffffffffffff1673ffffffffffffffffffffffffffffffffffffffff1673ffffffffffffffffffffffffffffffffffffffff16815260200160028201805480602002602001604051908101604052809291908181526020018280548015612b2557602002820191906000526020600020905b8160009054906101000a900473ffffffffffffffffffffffffffffffffffffffff1673ffffffffffffffffffffffffffffffffffffffff1681526020019060010190808311612adb575b5050505050815260200160038201805480602002602001604051908101604052809291908181526020018280548015612bb357602002820191906000526020600020905b8160009054906101000a900473ffffffffffffffffffffffffffffffffffffffff1673ffffffffffffffffffffffffffffffffffffffff1681526020019060010190808311612b69575b50505050508152602001600482018054612bcc90615c04565b80601f0160208091040260200160405190810160405280929190818152602001828054612bf890615c04565b8015612c455780601f10612c1a57610100808354040283529160200191612c45565b820191906000526020600020905b815481529060010190602001808311612c2857829003601f168201915b50505050508152602001600582018054612c5e90615c04565b80601f0160208091040260200160405190810160405280929190818152602001828054612c8a90615c04565b8015612cd75780601f10612cac57610100808354040283529160200191612cd7565b820191906000526020600020905b815481529060010190602001808311612cba57829003601f168201915b50505050508152602001600682018054612cf090615c04565b80601f0160208091040260200160405190810160405280929190818152602001828054612d1c90615c04565b8015612d695780601f10612d3e57610100808354040283529160200191612d69565b820191906000526020600020905b815481529060010190602001808311612d4c57829003601f168201915b505050505081525050905060005b816060015151811015612df3573373ffffffffffffffffffffffffffffffffffffffff1682606001518281518110612db257612db1615c35565b5b602002602001015173ffffffffffffffffffffffffffffffffffffffff1603612de057600192505050612dfa565b8080612deb90615cf6565b915050612d77565b5060009150505b919050565b60018181548110612e0f57600080fd5b906000526020600020016000915054906101000a900473ffffffffffffffffffffffffffffffffffffffff1681565b600080600260008473ffffffffffffffffffffffffffffffffffffffff1673ffffffffffffffffffffffffffffffffffffffff1681526020019081526020016000206000018054612e8e90615c04565b9050119050919050565b60606005805480602002602001604051908101604052809291908181526020018280548015612f1c57602002820191906000526020600020905b8160009054906101000a900473ffffffffffffffffffffffffffffffffffffffff1673ffffffffffffffffffffffffffffffffffffffff1681526020019060010190808311612ed2575b5050505050905090565b6000803389898989898989604051602001612f48989796959493929190615e22565b6040516020818303038152906040528051906020012090506000600167ffffffffffffffff811115612f7d57612f7c6152d8565b5b604051908082528060200260200182016040528015612fab5781602001602082028036833780820191505090505b5090506000600167ffffffffffffffff811115612fcb57612fca6152d8565b5b604051908082528060200260200182016040528015612ff95781602001602082028036833780820191505090505b509050338260008151811061301157613010615c35565b5b602002602001019073ffffffffffffffffffffffffffffffffffffffff16908173ffffffffffffffffffffffffffffffffffffffff168152505033816000815181106130605761305f615c35565b5b602002602001019073ffffffffffffffffffffffffffffffffffffffff16908173ffffffffffffffffffffffffffffffffffffffff16815250506040518060e001604052803373ffffffffffffffffffffffffffffffffffffffff1681526020018c73ffffffffffffffffffffffffffffffffffffffff1681526020018381526020018281526020018b8b8080601f016020809104026020016040519081016040528093929190818152602001838380828437600081840152601f19601f82011690508083019250505050505050815260200189898080601f016020809104026020016040519081016040528093929190818152602001838380828437600081840152601f19601f82011690508083019250505050505050815260200187878080601f016020809104026020016040519081016040528093929190818152602001838380828437600081840152601f19601f820116905080830192505050505050508152506008600085815260200190815260200160002060008201518160000160006101000a81548173ffffffffffffffffffffffffffffffffffffffff021916908373ffffffffffffffffffffffffffffffffffffffff16021790555060208201518160010160006101000a81548173ffffffffffffffffffffffffffffffffffffffff021916908373ffffffffffffffffffffffffffffffffffffffff1602179055506040820151816002019080519060200190613282929190614873565b50606082015181600301908051906020019061329f929190614873565b5060808201518160040190805190602001906132bc9291906147ed565b5060a08201518160050190805190602001906132d99291906147ed565b5060c08201518160060190805190602001906132f69291906147ed565b50905050600983908060018154018082558091505060019003906000526020600020016000909190919091505560019350505050979650505050505050565b6000806000808473ffffffffffffffffffffffffffffffffffffffff1673ffffffffffffffffffffffffffffffffffffffff168152602001908152602001600020600001805461338490615c04565b9050119050919050565b60046020528060005260406000206000915090508060000180546133b190615c04565b80601f01602080910402602001604051908101604052809291908181526020018280546133dd90615c04565b801561342a5780601f106133ff5761010080835404028352916020019161342a565b820191906000526020600020905b81548152906001019060200180831161340d57829003601f168201915b50505050509080600101805461343f90615c04565b80601f016020809104026020016040519081016040528092919081815260200182805461346b90615c04565b80156134b85780601f1061348d576101008083540402835291602001916134b8565b820191906000526020600020905b81548152906001019060200180831161349b57829003601f168201915b5050505050908060020160009054906101000a900473ffffffffffffffffffffffffffffffffffffffff16905083565b6040518060200160405280828152506000808473ffffffffffffffffffffffffffffffffffffffff1673ffffffffffffffffffffffffffffffffffffffff16815260200190815260200160002060008201518160000190805190602001906135519291906147ed565b509050506001829080600181540180825580915050600190039060005260206000200160009091909190916101000a81548173ffffffffffffffffffffffffffffffffffffffff021916908373ffffffffffffffffffffffffffffffffffffffff1602179055505050565b60006020528060005260406000206000915090508060000180546135df90615c04565b80601f016020809104026020016040519081016040528092919081815260200182805461360b90615c04565b80156136585780601f1061362d57610100808354040283529160200191613658565b820191906000526020600020905b81548152906001019060200180831161363b57829003601f168201915b5050505050905081565b6007818154811061367257600080fd5b906000526020600020016000915054906101000a900473ffffffffffffffffffffffffffffffffffffffff1681565b6136a96149c3565b600660008373ffffffffffffffffffffffffffffffffffffffff1673ffffffffffffffffffffffffffffffffffffffff1681526020019081526020016000206040518060e001604052908160008201805461370390615c04565b80601f016020809104026020016040519081016040528092919081815260200182805461372f90615c04565b801561377c5780601f106137515761010080835404028352916020019161377c565b820191906000526020600020905b81548152906001019060200180831161375f57829003601f168201915b505050505081526020016001820154815260200160028201805461379f90615c04565b80601f01602080910402602001604051908101604052809291908181526020018280546137cb90615c04565b80156138185780601f106137ed57610100808354040283529160200191613818565b820191906000526020600020905b8154815290600101906020018083116137fb57829003601f168201915b5050505050815260200160038201805461383190615c04565b80601f016020809104026020016040519081016040528092919081815260200182805461385d90615c04565b80156138aa5780601f1061387f576101008083540402835291602001916138aa565b820191906000526020600020905b81548152906001019060200180831161388d57829003601f168201915b505050505081526020016004820180546138c390615c04565b80601f01602080910402602001604051908101604052809291908181526020018280546138ef90615c04565b801561393c5780601f106139115761010080835404028352916020019161393c565b820191906000526020600020905b81548152906001019060200180831161391f57829003601f168201915b505050505081526020016005820160009054906101000a900473ffffffffffffffffffffffffffffffffffffffff1673ffffffffffffffffffffffffffffffffffffffff1673ffffffffffffffffffffffffffffffffffffffff16815260200160068201805480602002602001604051908101604052809291908181526020018280548015613a2057602002820191906000526020600020905b8160009054906101000a900473ffffffffffffffffffffffffffffffffffffffff1673ffffffffffffffffffffffffffffffffffffffff16815260200190600101908083116139d6575b5050505050815250509050919050565b60038181548110613a4057600080fd5b906000526020600020016000915054906101000a900473ffffffffffffffffffffffffffffffffffffffff1681565b6060600060058054905067ffffffffffffffff811115613a9257613a916152d8565b5b604051908082528060200260200182016040528015613acb57816020015b613ab861498c565b815260200190600190039081613ab05790505b50905060005b600580549050811015613d11576004600060058381548110613af657613af5615c35565b5b9060005260206000200160009054906101000a900473ffffffffffffffffffffffffffffffffffffffff1673ffffffffffffffffffffffffffffffffffffffff1673ffffffffffffffffffffffffffffffffffffffff168152602001908152602001600020604051806060016040529081600082018054613b7690615c04565b80601f0160208091040260200160405190810160405280929190818152602001828054613ba290615c04565b8015613bef5780601f10613bc457610100808354040283529160200191613bef565b820191906000526020600020905b815481529060010190602001808311613bd257829003601f168201915b50505050508152602001600182018054613c0890615c04565b80601f0160208091040260200160405190810160405280929190818152602001828054613c3490615c04565b8015613c815780601f10613c5657610100808354040283529160200191613c81565b820191906000526020600020905b815481529060010190602001808311613c6457829003601f168201915b505050505081526020016002820160009054906101000a900473ffffffffffffffffffffffffffffffffffffffff1673ffffffffffffffffffffffffffffffffffffffff1673ffffffffffffffffffffffffffffffffffffffff1681525050828281518110613cf357613cf2615c35565b5b60200260200101819052508080613d0990615cf6565b915050613ad1565b508091505090565b6060600060038054905067ffffffffffffffff811115613d3c57613d3b6152d8565b5b604051908082528060200260200182016040528015613d7557816020015b613d62614979565b815260200190600190039081613d5a5790505b50905060005b600380549050811015613ed3576002600060038381548110613da057613d9f615c35565b5b9060005260206000200160009054906101000a900473ffffffffffffffffffffffffffffffffffffffff1673ffffffffffffffffffffffffffffffffffffffff1673ffffffffffffffffffffffffffffffffffffffff168152602001908152602001600020604051806020016040529081600082018054613e2090615c04565b80601f0160208091040260200160405190810160405280929190818152602001828054613e4c90615c04565b8015613e995780601f10613e6e57610100808354040283529160200191613e99565b820191906000526020600020905b815481529060010190602001808311613e7c57829003601f168201915b505050505081525050828281518110613eb557613eb4615c35565b5b60200260200101819052508080613ecb90615cf6565b915050613d7b565b508091505090565b60606003805480602002602001604051908101604052809291908181526020018280548015613f5f57602002820191906000526020600020905b8160009054906101000a900473ffffffffffffffffffffffffffffffffffffffff1673ffffffffffffffffffffffffffffffffffffffff1681526020019060010190808311613f15575b5050505050905090565b806000803373ffffffffffffffffffffffffffffffffffffffff1673ffffffffffffffffffffffffffffffffffffffff1681526020019081526020016000206000019080519060200190613fbe9291906147ed565b5050565b6060600180548060200260200160405190810160405280929190818152602001828054801561404657602002820191906000526020600020905b8160009054906101000a900473ffffffffffffffffffffffffffffffffffffffff1673ffffffffffffffffffffffffffffffffffffffff1681526020019060010190808311613ffc575b5050505050905090565b600080600860008481526020019081526020016000206040518060e00160405290816000820160009054906101000a900473ffffffffffffffffffffffffffffffffffffffff1673ffffffffffffffffffffffffffffffffffffffff1673ffffffffffffffffffffffffffffffffffffffff1681526020016001820160009054906101000a900473ffffffffffffffffffffffffffffffffffffffff1673ffffffffffffffffffffffffffffffffffffffff1673ffffffffffffffffffffffffffffffffffffffff168152602001600282018054806020026020016040519081016040528092919081815260200182805480156141a257602002820191906000526020600020905b8160009054906101000a900473ffffffffffffffffffffffffffffffffffffffff1673ffffffffffffffffffffffffffffffffffffffff1681526020019060010190808311614158575b505050505081526020016003820180548060200260200160405190810160405280929190818152602001828054801561423057602002820191906000526020600020905b8160009054906101000a900473ffffffffffffffffffffffffffffffffffffffff1673ffffffffffffffffffffffffffffffffffffffff16815260200190600101908083116141e6575b5050505050815260200160048201805461424990615c04565b80601f016020809104026020016040519081016040528092919081815260200182805461427590615c04565b80156142c25780601f10614297576101008083540402835291602001916142c2565b820191906000526020600020905b8154815290600101906020018083116142a557829003601f168201915b505050505081526020016005820180546142db90615c04565b80601f016020809104026020016040519081016040528092919081815260200182805461430790615c04565b80156143545780601f1061432957610100808354040283529160200191614354565b820191906000526020600020905b81548152906001019060200180831161433757829003601f168201915b5050505050815260200160068201805461436d90615c04565b80601f016020809104026020016040519081016040528092919081815260200182805461439990615c04565b80156143e65780601f106143bb576101008083540402835291602001916143e6565b820191906000526020600020905b8154815290600101906020018083116143c957829003601f168201915b505050505081525050905060005b816040015151811015614470573373ffffffffffffffffffffffffffffffffffffffff168260400151828151811061442f5761442e615c35565b5b602002602001015173ffffffffffffffffffffffffffffffffffffffff160361445d57600192505050614477565b808061446890615cf6565b9150506143f4565b5060009150505b919050565b6000614487826124d7565b15614495576000905061477d565b60606040518060e001604052808e8e8080601f016020809104026020016040519081016040528093929190818152602001838380828437600081840152601f19601f8201169050808301925050505050505081526020018c81526020018b8b8080601f016020809104026020016040519081016040528093929190818152602001838380828437600081840152601f19601f82011690508083019250505050505050815260200189898080601f016020809104026020016040519081016040528093929190818152602001838380828437600081840152601f19601f82011690508083019250505050505050815260200187878080601f016020809104026020016040519081016040528093929190818152602001838380828437600081840152601f19601f8201169050808301925050505050505081526020018573ffffffffffffffffffffffffffffffffffffffff16815260200182815250600660008573ffffffffffffffffffffffffffffffffffffffff1673ffffffffffffffffffffffffffffffffffffffff168152602001908152602001600020600082015181600001908051906020019061464b9291906147ed565b506020820151816001015560408201518160020190805190602001906146729291906147ed565b50606082015181600301908051906020019061468f9291906147ed565b5060808201518160040190805190602001906146ac9291906147ed565b5060a08201518160050160006101000a81548173ffffffffffffffffffffffffffffffffffffffff021916908373ffffffffffffffffffffffffffffffffffffffff16021790555060c0820151816006019080519060200190614710929190614873565b509050506007839080600181540180825580915050600190039060005260206000200160009091909190916101000a81548173ffffffffffffffffffffffffffffffffffffffff021916908373ffffffffffffffffffffffffffffffffffffffff16021790555060019150505b9b9a5050505050505050505050565b50805461479890615c04565b6000825580601f106147aa57506147c9565b601f0160209004906000526020600020908101906147c89190614a16565b5b50565b50805460008255906000526020600020908101906147ea9190614a16565b50565b8280546147f990615c04565b90600052602060002090601f01602090048101928261481b5760008555614862565b82601f1061483457805160ff1916838001178555614862565b82800160010185558215614862579182015b82811115614861578251825591602001919060010190614846565b5b50905061486f9190614a16565b5090565b8280548282559060005260206000209081019282156148ec579160200282015b828111156148eb5782518260006101000a81548173ffffffffffffffffffffffffffffffffffffffff021916908373ffffffffffffffffffffffffffffffffffffffff16021790555091602001919060010190614893565b5b5090506148f99190614a16565b5090565b6040518060e00160405280600073ffffffffffffffffffffffffffffffffffffffff168152602001600073ffffffffffffffffffffffffffffffffffffffff16815260200160608152602001606081526020016060815260200160608152602001606081525090565b6040518060200160405280606081525090565b6040518060200160405280606081525090565b60405180606001604052806060815260200160608152602001600073ffffffffffffffffffffffffffffffffffffffff1681525090565b6040518060e001604052806060815260200160008152602001606081526020016060815260200160608152602001600073ffffffffffffffffffffffffffffffffffffffff168152602001606081525090565b5b80821115614a2f576000816000905550600101614a17565b5090565b6000604051905090565b600080fd5b600080fd5b6000819050919050565b614a5a81614a47565b8114614a6557600080fd5b50565b600081359050614a7781614a51565b92915050565b600060208284031215614a9357614a92614a3d565b5b6000614aa184828501614a68565b91505092915050565b600073ffffffffffffffffffffffffffffffffffffffff82169050919050565b6000614ad582614aaa565b9050919050565b614ae581614aca565b82525050565b600081519050919050565b600082825260208201905092915050565b60005b83811015614b25578082015181840152602081019050614b0a565b83811115614b34576000848401525b50505050565b6000601f19601f8301169050919050565b6000614b5682614aeb565b614b608185614af6565b9350614b70818560208601614b07565b614b7981614b3a565b840191505092915050565b600060a082019050614b996000830188614adc565b614ba66020830187614adc565b8181036040830152614bb88186614b4b565b90508181036060830152614bcc8185614b4b565b90508181036080830152614be08184614b4b565b90509695505050505050565b614bf581614aca565b8114614c0057600080fd5b50565b600081359050614c1281614bec565b92915050565b600060208284031215614c2e57614c2d614a3d565b5b6000614c3c84828501614c03565b91505092915050565b60008115159050919050565b614c5a81614c45565b82525050565b6000602082019050614c756000830184614c51565b92915050565b600080fd5b600080fd5b600080fd5b60008083601f840112614ca057614c9f614c7b565b5b8235905067ffffffffffffffff811115614cbd57614cbc614c80565b5b602083019150836001820283011115614cd957614cd8614c85565b5b9250929050565b600080600060408486031215614cf957614cf8614a3d565b5b600084013567ffffffffffffffff811115614d1757614d16614a42565b5b614d2386828701614c8a565b93509350506020614d3686828701614c03565b9150509250925092565b6000819050919050565b614d5381614d40565b82525050565b600060c0820190508181036000830152614d738189614b4b565b9050614d826020830188614d4a565b8181036040830152614d948187614b4b565b90508181036060830152614da88186614b4b565b90508181036080830152614dbc8185614b4b565b9050614dcb60a0830184614adc565b979650505050505050565b60008060008060008060006080888a031215614df557614df4614a3d565b5b6000614e038a828b01614a68565b975050602088013567ffffffffffffffff811115614e2457614e23614a42565b5b614e308a828b01614c8a565b9650965050604088013567ffffffffffffffff811115614e5357614e52614a42565b5b614e5f8a828b01614c8a565b9450945050606088013567ffffffffffffffff811115614e8257614e81614a42565b5b614e8e8a828b01614c8a565b925092505092959891949750929550565b600081519050919050565b600082825260208201905092915050565b6000819050602082019050919050565b600082825260208201905092915050565b6000614ee782614aeb565b614ef18185614ecb565b9350614f01818560208601614b07565b614f0a81614b3a565b840191505092915050565b6000614f218383614edc565b905092915050565b6000602082019050919050565b6000614f4182614e9f565b614f4b8185614eaa565b935083602082028501614f5d85614ebb565b8060005b85811015614f995784840389528151614f7a8582614f15565b9450614f8583614f29565b925060208a01995050600181019050614f61565b50829750879550505050505092915050565b60006020820190508181036000830152614fc58184614f36565b905092915050565b614fd681614aca565b82525050565b600081519050919050565b600082825260208201905092915050565b6000819050602082019050919050565b60006150148383614fcd565b60208301905092915050565b6000602082019050919050565b600061503882614fdc565b6150428185614fe7565b935061504d83614ff8565b8060005b8381101561507e5781516150658882615008565b975061507083615020565b925050600181019050615051565b5085935050505092915050565b600060e0830160008301516150a36000860182614fcd565b5060208301516150b66020860182614fcd565b50604083015184820360408601526150ce828261502d565b915050606083015184820360608601526150e8828261502d565b915050608083015184820360808601526151028282614edc565b91505060a083015184820360a086015261511c8282614edc565b91505060c083015184820360c08601526151368282614edc565b9150508091505092915050565b6000602082019050818103600083015261515d818461508b565b905092915050565b600060208301600083015184820360008601526151828282614edc565b9150508091505092915050565b600060208201905081810360008301526151a98184615165565b905092915050565b600080604083850312156151c8576151c7614a3d565b5b60006151d685828601614a68565b92505060206151e785828601614c03565b9150509250929050565b6151fa81614d40565b811461520557600080fd5b50565b600081359050615217816151f1565b92915050565b60006020828403121561523357615232614a3d565b5b600061524184828501615208565b91505092915050565b600060208201905061525f6000830184614adc565b92915050565b6000602082019050818103600083015261527f8184614b4b565b905092915050565b600060208301600083015184820360008601526152a48282614edc565b9150508091505092915050565b600060208201905081810360008301526152cb8184615287565b905092915050565b600080fd5b7f4e487b7100000000000000000000000000000000000000000000000000000000600052604160045260246000fd5b61531082614b3a565b810181811067ffffffffffffffff8211171561532f5761532e6152d8565b5b80604052505050565b6000615342614a33565b905061534e8282615307565b919050565b600067ffffffffffffffff82111561536e5761536d6152d8565b5b61537782614b3a565b9050602081019050919050565b82818337600083830152505050565b60006153a66153a184615353565b615338565b9050828152602081018484840111156153c2576153c16152d3565b5b6153cd848285615384565b509392505050565b600082601f8301126153ea576153e9614c7b565b5b81356153fa848260208601615393565b91505092915050565b6000806040838503121561541a57615419614a3d565b5b600061542885828601614c03565b925050602083013567ffffffffffffffff81111561544957615448614a42565b5b615455858286016153d5565b9150509250929050565b60008060008060006060868803121561547b5761547a614a3d565b5b600086013567ffffffffffffffff81111561549957615498614a42565b5b6154a588828901614c8a565b9550955050602086013567ffffffffffffffff8111156154c8576154c7614a42565b5b6154d488828901614c8a565b935093505060406154e788828901614c03565b9150509295509295909350565b6154fd81614a47565b82525050565b600060208201905061551860008301846154f4565b92915050565b6000606083016000830151848203600086015261553b8282614edc565b915050602083015184820360208601526155558282614edc565b915050604083015161556a6040860182614fcd565b508091505092915050565b6000602082019050818103600083015261558f818461551e565b905092915050565b600082825260208201905092915050565b60006155b382614fdc565b6155bd8185615597565b93506155c883614ff8565b8060005b838110156155f95781516155e08882615008565b97506155eb83615020565b9250506001810190506155cc565b5085935050505092915050565b6000602082019050818103600083015261562081846155a8565b905092915050565b60008060008060008060006080888a03121561564757615646614a3d565b5b60006156558a828b01614c03565b975050602088013567ffffffffffffffff81111561567657615675614a42565b5b6156828a828b01614c8a565b9650965050604088013567ffffffffffffffff8111156156a5576156a4614a42565b5b6156b18a828b01614c8a565b9450945050606088013567ffffffffffffffff8111156156d4576156d3614a42565b5b6156e08a828b01614c8a565b925092505092959891949750929550565b6000606082019050818103600083015261570b8186614b4b565b9050818103602083015261571f8185614b4b565b905061572e6040830184614adc565b949350505050565b61573f81614d40565b82525050565b600060e08301600083015184820360008601526157628282614edc565b91505060208301516157776020860182615736565b506040830151848203604086015261578f8282614edc565b915050606083015184820360608601526157a98282614edc565b915050608083015184820360808601526157c38282614edc565b91505060a08301516157d860a0860182614fcd565b5060c083015184820360c08601526157f0828261502d565b9150508091505092915050565b600060208201905081810360008301526158178184615745565b905092915050565b600081519050919050565b600082825260208201905092915050565b6000819050602082019050919050565b600060608301600083015184820360008601526158688282614edc565b915050602083015184820360208601526158828282614edc565b91505060408301516158976040860182614fcd565b508091505092915050565b60006158ae838361584b565b905092915050565b6000602082019050919050565b60006158ce8261581f565b6158d8818561582a565b9350836020820285016158ea8561583b565b8060005b85811015615926578484038952815161590785826158a2565b9450615912836158b6565b925060208a019950506001810190506158ee565b50829750879550505050505092915050565b6000602082019050818103600083015261595281846158c3565b905092915050565b600081519050919050565b600082825260208201905092915050565b6000819050602082019050919050565b600060208301600083015184820360008601526159a38282614edc565b9150508091505092915050565b60006159bc8383615986565b905092915050565b6000602082019050919050565b60006159dc8261595a565b6159e68185615965565b9350836020820285016159f885615976565b8060005b85811015615a345784840389528151615a1585826159b0565b9450615a20836159c4565b925060208a019950506001810190506159fc565b50829750879550505050505092915050565b60006020820190508181036000830152615a6081846159d1565b905092915050565b600060208284031215615a7e57615a7d614a3d565b5b600082013567ffffffffffffffff811115615a9c57615a9b614a42565b5b615aa8848285016153d5565b91505092915050565b600080600080600080600080600080600060e08c8e031215615ad657615ad5614a3d565b5b60008c013567ffffffffffffffff811115615af457615af3614a42565b5b615b008e828f01614c8a565b9b509b50506020615b138e828f01615208565b99505060408c013567ffffffffffffffff811115615b3457615b33614a42565b5b615b408e828f01614c8a565b985098505060608c013567ffffffffffffffff811115615b6357615b62614a42565b5b615b6f8e828f01614c8a565b965096505060808c013567ffffffffffffffff811115615b9257615b91614a42565b5b615b9e8e828f01614c8a565b945094505060a0615bb18e828f01614c03565b92505060c0615bc28e828f01614c03565b9150509295989b509295989b9093969950565b7f4e487b7100000000000000000000000000000000000000000000000000000000600052602260045260246000fd5b60006002820490506001821680615c1c57607f821691505b602082108103615c2f57615c2e615bd5565b5b50919050565b7f4e487b7100000000000000000000000000000000000000000000000000000000600052603260045260246000fd5b7f4e487b7100000000000000000000000000000000000000000000000000000000600052601160045260246000fd5b6000615c9e82614d40565b9150615ca983614d40565b925082821015615cbc57615cbb615c64565b5b828203905092915050565b7f4e487b7100000000000000000000000000000000000000000000000000000000600052603160045260246000fd5b6000615d0182614d40565b91507fffffffffffffffffffffffffffffffffffffffffffffffffffffffffffffffff8203615d3357615d32615c64565b5b600182019050919050565b7f53656e646572206973206e6f7420612073757065722061646d696e0000000000600082015250565b6000615d74601b83614af6565b9150615d7f82615d3e565b602082019050919050565b60006020820190508181036000830152615da381615d67565b9050919050565b60008160601b9050919050565b6000615dc282615daa565b9050919050565b6000615dd482615db7565b9050919050565b615dec615de782614aca565b615dc9565b82525050565b600081905092915050565b6000615e098385615df2565b9350615e16838584615384565b82840190509392505050565b6000615e2e828b615ddb565b601482019150615e3e828a615ddb565b601482019150615e4f82888a615dfd565b9150615e5c828688615dfd565b9150615e69828486615dfd565b9150819050999850505050505050505056fea2646970667358221220a243613777822f32a219d8035df689eab692e65f7c855c63ce42257d35171e8764736f6c634300080d0033",
  "immutableReferences": {},
  "source": "// SPDX-License-Identifier: MIT\r\npragma solidity >=0.4.22 <0.9.0;\r\n\r\ncontract Medivault {\r\n    // function to check if an address is an admin or patient or doctor or super admin\r\n\r\n    // structure of super admin\r\n    struct SuperAdmin {\r\n        string name;\r\n    }\r\n    mapping(address => SuperAdmin) public superAdmins;\r\n    address[] public superAdminAddresses;\r\n\r\n    constructor() {\r\n        superAdminAddresses.push(msg.sender);\r\n        superAdmins[msg.sender] = SuperAdmin({name: \"Super admin\"});\r\n    }\r\n\r\n    function checkSuperAdmin(address pubkey) public view returns (bool) {\r\n        return bytes(superAdmins[pubkey].name).length > 0;\r\n    }\r\n\r\n    function editSuperAdmin(string memory name) public {\r\n        superAdmins[msg.sender].name = name;\r\n    }\r\n\r\n    function addSuperAdmin(address _address, string memory _name) public {\r\n        superAdmins[_address] = SuperAdmin(_name);\r\n        superAdminAddresses.push(_address);\r\n    }\r\n\r\n    function getAllSuperAdmins() public view returns (address[] memory) {\r\n        return superAdminAddresses;\r\n    }\r\n\r\n    function fetchNames() public view returns (string[] memory) {\r\n        string[] memory names = new string[](superAdminAddresses.length);\r\n        for (uint256 i = 0; i < superAdminAddresses.length; i++) {\r\n            names[i] = superAdmins[superAdminAddresses[i]].name;\r\n        }\r\n        return names;\r\n    }\r\n\r\n    function fetchSuperadmin(address _address)\r\n        public\r\n        view\r\n        returns (SuperAdmin memory)\r\n    {\r\n        require(checkSuperAdmin(msg.sender), \"Sender is not a super admin\");\r\n        return superAdmins[_address];\r\n    }\r\n\r\n    function addAdmin(string calldata institution_name, address _address)\r\n        public\r\n    {\r\n        adminAddresses.push(_address);\r\n        admins[_address] = Admin({institution_name: institution_name});\r\n    }\r\n\r\n    function fetchAdminsAddresses() public view returns (address[] memory) {\r\n        return adminAddresses;\r\n    }\r\n\r\n    function fetchAdmins() public view returns (Admin[] memory) {\r\n        Admin[] memory _admins = new Admin[](adminAddresses.length);\r\n        for (uint256 i = 0; i < adminAddresses.length; i++) {\r\n            _admins[i] = admins[adminAddresses[i]];\r\n        }\r\n        return _admins;\r\n    }\r\n\r\n    function deleteAdmin(address _address) public returns (bool) {\r\n        delete admins[_address];\r\n        // search for the _address in the adminAddresses array and delete it\r\n        for (uint256 i = 0; i < adminAddresses.length; i++) {\r\n            if (adminAddresses[i] == _address) {\r\n                adminAddresses[i] = adminAddresses[adminAddresses.length - 1];\r\n                adminAddresses.pop(); // remove the last element\r\n                return true; // exit the function after successful deletion\r\n            }\r\n        }\r\n        return false; // return false if admin doesn't exist or sender is not a super admin\r\n    }\r\n\r\n    // -----------------------------------------------------------------------------------------\r\n\r\n    // Admin structure\r\n    struct Admin {\r\n        string institution_name;\r\n    }\r\n    mapping(address => Admin) public admins;\r\n    address[] public adminAddresses;\r\n\r\n    // admin functions\r\n    // function to check if an address is an admin\r\n    function checkAdmin(address pubkey) public view returns (bool) {\r\n        return bytes(admins[pubkey].institution_name).length > 0;\r\n    }\r\n\r\n    function fetchAdmin(address pubkey) public view returns (Admin memory) {\r\n        return admins[pubkey];\r\n    }\r\n\r\n    function editAdmin(address pubkey, string memory institution_name)\r\n        public\r\n        returns (bool)\r\n    {\r\n        admins[pubkey].institution_name = institution_name;\r\n        return true;\r\n    }\r\n\r\n    function addDoctor(\r\n        string calldata name,\r\n        string calldata specialization,\r\n        address pubkey\r\n    ) public returns (bool) {\r\n        doctors[pubkey] = Doctor({\r\n            name: name,\r\n            specialization: specialization,\r\n            institution: msg.sender\r\n        });\r\n        doctorAddresses.push(pubkey);\r\n        return true;\r\n    }\r\n\r\n    function deleteDoctor(address pubkey) public returns (bool) {\r\n        // delete the address in the doctorAddresses array\r\n        for (uint256 i = 0; i < doctorAddresses.length; i++) {\r\n            if (doctorAddresses[i] == pubkey) {\r\n                doctorAddresses[i] = doctorAddresses[\r\n                    doctorAddresses.length - 1\r\n                ];\r\n                doctorAddresses.pop();\r\n                break;\r\n            }\r\n        }\r\n        // delete main doctor structure\r\n        delete doctors[pubkey];\r\n        return true;\r\n    }\r\n\r\n    function fetchDoctors() public view returns (Doctor[] memory) {\r\n        Doctor[] memory _doctors = new Doctor[](doctorAddresses.length);\r\n        for (uint256 i = 0; i < doctorAddresses.length; i++) {\r\n            _doctors[i] = doctors[doctorAddresses[i]];\r\n        }\r\n        return _doctors;\r\n    }\r\n\r\n    function fetchDoctorAddresses() public view returns (address[] memory) {\r\n        return doctorAddresses;\r\n    }\r\n\r\n    // -----------------------------------------------------------------------------------------\r\n\r\n    // doctor structure\r\n    struct Doctor {\r\n        string name;\r\n        string specialization;\r\n        // string contact;\r\n        address institution;\r\n    }\r\n    mapping(address => Doctor) public doctors;\r\n    address[] public doctorAddresses;\r\n\r\n    // doctor functions\r\n    // function to check if an address is a doctor\r\n    function checkDoctor(address pubkey) public view returns (bool) {\r\n        return bytes(doctors[pubkey].name).length > 0;\r\n    }\r\n\r\n    function fetchDoctor(address pubkey) public view returns (Doctor memory) {\r\n        return doctors[pubkey];\r\n    }\r\n\r\n    function addPatient(\r\n        string calldata name,\r\n        uint256 age,\r\n        string calldata gender,\r\n        string calldata addr,\r\n        string calldata contact,\r\n        address institution,\r\n        address pubkey\r\n    ) public returns (bool) {\r\n        // check if a patient with the pubkey already exists\r\n        if (checkPatient(pubkey)) {\r\n            return false;\r\n        }\r\n        address[] memory nominees;\r\n        patients[pubkey] = Patient({\r\n            name: name,\r\n            age: age,\r\n            gender: gender,\r\n            addr: addr,\r\n            contact: contact,\r\n            institution: institution,\r\n            nominees: nominees\r\n        });\r\n        patientAddresses.push(pubkey);\r\n        return true;\r\n    }\r\n\r\n    // function to delete a patient\r\n    function deletePatient(address pubkey) public returns (bool) {\r\n        // delete the address in the patientAddresses array\r\n        // check if the address exists in the patientAddresses array\r\n        if (!checkAdmin(pubkey)) {\r\n            return false;\r\n        }\r\n        for (uint256 i = 0; i < patientAddresses.length; i++) {\r\n            if (patientAddresses[i] == pubkey) {\r\n                patientAddresses[i] = patientAddresses[\r\n                    patientAddresses.length - 1\r\n                ];\r\n                patientAddresses.pop();\r\n                break;\r\n            }\r\n        }\r\n        // delete main patient structure\r\n        delete patients[pubkey];\r\n        return true;\r\n    }\r\n\r\n    // function to create a record\r\n    function createRecord(\r\n        address patient,\r\n        string calldata record_title,\r\n        string calldata record_desc,\r\n        string calldata record_data\r\n    ) public returns (bool) {\r\n        bytes32 record_hash = keccak256(\r\n            abi.encodePacked(\r\n                msg.sender,\r\n                patient,\r\n                record_title,\r\n                record_desc,\r\n                record_data\r\n            )\r\n        );\r\n        address[] memory read_allowed_doctors = new address[](1);\r\n        address[] memory write_allowed_doctors = new address[](1);\r\n\r\n        read_allowed_doctors[0] = msg.sender;\r\n\r\n        write_allowed_doctors[0] = msg.sender;\r\n\r\n        records[record_hash] = Record({\r\n            doctor: msg.sender,\r\n            patient: patient,\r\n            read_allowed_doctors: read_allowed_doctors,\r\n            write_allowed_doctors: write_allowed_doctors,\r\n            record_title: record_title,\r\n            record_desc: record_desc,\r\n            record_data: record_data\r\n        });\r\n        recordHashes.push(record_hash);\r\n        return true;\r\n    }\r\n\r\n    // function to fetch a record\r\n    function getRecord(bytes32 record_hash)\r\n        public\r\n        view\r\n        returns (Record memory)\r\n    {\r\n        // check if the record exists\r\n        return records[record_hash];\r\n    }\r\n\r\n    // function to check if the doctor has read access\r\n    function checkReadAccess(bytes32 record_hash) public view returns (bool) {\r\n        Record memory record = records[record_hash];\r\n        for (uint256 i = 0; i < record.read_allowed_doctors.length; i++) {\r\n            if (record.read_allowed_doctors[i] == msg.sender) {\r\n                return true;\r\n            }\r\n        }\r\n        return false;\r\n    }\r\n\r\n    //function to check if the doctor has write access\r\n    function checkWriteAccess(bytes32 record_hash) public view returns (bool) {\r\n        Record memory record = records[record_hash];\r\n        for (uint256 i = 0; i < record.write_allowed_doctors.length; i++) {\r\n            if (record.write_allowed_doctors[i] == msg.sender) {\r\n                return true;\r\n            }\r\n        }\r\n        return false;\r\n    }\r\n\r\n    // function to edit record data by doctor\r\n    function editRecord(\r\n        bytes32 record_hash,\r\n        string calldata record_title,\r\n        string calldata record_desc,\r\n        string calldata record_data\r\n    ) public returns (bool) {\r\n        Record memory record = records[record_hash];\r\n        if (checkDoctor(record.doctor) == false) {\r\n            return false;\r\n        }\r\n        record.record_title = record_title;\r\n        record.record_desc = record_desc;\r\n        record.record_data = record_data;\r\n        records[record_hash] = record;\r\n        return true;\r\n    }\r\n\r\n    // -----------------------------------------------------------------------------------------\r\n\r\n    // patient structure\r\n    struct Patient {\r\n        string name;\r\n        uint256 age;\r\n        string gender;\r\n        string addr;\r\n        string contact;\r\n        address institution;\r\n        address[] nominees;\r\n    }\r\n    mapping(address => Patient) public patients;\r\n    address[] public patientAddresses;\r\n\r\n    // patient functions\r\n    // function to check if an address is a patient\r\n    function checkPatient(address pubkey) public view returns (bool) {\r\n        return bytes(patients[pubkey].name).length > 0;\r\n    }\r\n\r\n    //function to fetch a patient by address\r\n    function getPatient(address pubkey) public view returns (Patient memory) {\r\n        return patients[pubkey];\r\n    }\r\n\r\n    // -----------------------------------------------------------------------------------------\r\n    // Patient Record Structure\r\n    struct Record {\r\n        address doctor;\r\n        address patient;\r\n        address[] read_allowed_doctors;\r\n        address[] write_allowed_doctors;\r\n        string record_title;\r\n        string record_desc;\r\n        string record_data;\r\n    }\r\n    mapping(bytes32 => Record) public records;\r\n    bytes32[] public recordHashes;\r\n\r\n    // patient record functions\r\n    // function to check if a record exists or not\r\n    function checkRecord(bytes32 record_hash) public view returns (bool) {\r\n        return bytes(records[record_hash].record_title).length > 0;\r\n    }\r\n\r\n    function addReadAllowedDoctor(bytes32 record_hash, address doctor) public {\r\n        records[record_hash].read_allowed_doctors.push(doctor);\r\n    }\r\n\r\n    function addWriteAllowedDoctor(bytes32 record_hash, address doctor) public {\r\n        records[record_hash].write_allowed_doctors.push(doctor);\r\n    }\r\n\r\n    // manually adding super admin for testing purposes\r\n    // functions of super admin\r\n    // function to check if an address is a super admin\r\n\r\n    // // // function to add a super admin\r\n    // // function addSuperAdmin(address pubkey, string calldata name) public {\r\n    // //     require(\r\n    // //         checkSuperAdmin(msg.sender) == true,\r\n    // //         \"You are not a super admin\"\r\n    // //     );\r\n    // //     require(checkSuperAdmin(pubkey) == false, \"Super admin already exists\");\r\n    // //     superAdmins[pubkey] = SuperAdmin({name: name});\r\n    // // }\r\n\r\n    // // function to add a admin\r\n    // function addAdmin(\r\n    //     string calldata institution_name,\r\n    //     string calldata institution_addr,\r\n    //     string calldata institution_contact,\r\n    //     address pubkey\r\n    // ) public {\r\n    //     require(\r\n    //         checkSuperAdmin(msg.sender) == true,\r\n    //         \"You are not a allowed to add an admin\"\r\n    //     );\r\n    //     require(checkAdmin(pubkey) == false, \"Admin already exists\");\r\n    //     admins[pubkey] = Admin({\r\n    //         institution_name: institution_name,\r\n    //         institution_addr: institution_addr,\r\n    //         institution_contact: institution_contact\r\n    //     });\r\n    // }\r\n\r\n    // // function to edit an admin\r\n    // function editAdmin(\r\n    //     string calldata institution_name,\r\n    //     string calldata institution_addr,\r\n    //     string calldata institution_contact,\r\n    //     address pubkey\r\n    // ) public {\r\n    //     require(\r\n    //         checkSuperAdmin(msg.sender) == true,\r\n    //         \"You are not a allowed to edit an admin\"\r\n    //     );\r\n    //     require(checkAdmin(pubkey) == true, \"Admin does not exist\");\r\n    //     admins[pubkey] = Admin({\r\n    //         institution_name: institution_name,\r\n    //         institution_addr: institution_addr,\r\n    //         institution_contact: institution_contact\r\n    //     });\r\n    // }\r\n\r\n    // // -------------------------------------------------------------------------------------------\r\n}\r\n\r\n// contract Medivault {\r\n//\r\n\r\n//     // function to delete an admin\r\n//     function deleteAdmin(address pubkey) public {\r\n//         require(\r\n//             checkSuperAdmin(msg.sender) == true,\r\n//             \"You are not a allowed to delete an admin\"\r\n//         );\r\n//         require(checkAdmin(pubkey) == true, \"Admin does not exist\");\r\n//         delete admins[pubkey];\r\n//     }\r\n\r\n//     // function to fetch a single admin\r\n//     function getAdmin(address pubkey) public view returns (Admin memory) {\r\n//         require(\r\n//             checkSuperAdmin(msg.sender) == true,\r\n//             \"You are not a allowed to fetch an admin\"\r\n//         );\r\n//         require(checkAdmin(pubkey) == true, \"Admin does not exist\");\r\n//         return admins[pubkey];\r\n//     }\r\n\r\n//     // function to fetch all admins\r\n//     // function getAdmins() public view returns (Admin[] memory) {\r\n//     //     require(\r\n//     //         checkSuperAdmin(msg.sender) == true,\r\n//     //         \"You are not a allowed to perform this opertation\"\r\n//     //     );q\r\n//     //     return admins;\r\n//     // }\r\n\r\n//     // -------------------------------------------------------------------------------------------\r\n\r\n//     // Admin structure\r\n//     struct Admin {\r\n//         string institution_name;\r\n//         string institution_addr;\r\n//         string institution_contact;\r\n//     }\r\n//     mapping(address => Admin) public admins;\r\n\r\n//     // admin functions\r\n//     // function to check if an address is an admin\r\n//     function checkAdmin(address pubkey) public view returns (bool) {\r\n//         return bytes(admins[pubkey].institution_name).length > 0;\r\n//     }\r\n\r\n//     // function to add a doctor\r\n//     function addDoctor(\r\n//         string calldata name,\r\n//         string calldata specialization,\r\n//         string calldata contact,\r\n//         address pubkey\r\n//     ) public {\r\n//         require(checkAdmin(msg.sender) == true, \"You are not an admin\");\r\n//         require(checkDoctor(pubkey) == false, \"Doctor already exists\");\r\n//         require(bytes(name).length > 0, \"Name cannot be empty\");\r\n//         require(\r\n//             bytes(specialization).length > 0,\r\n//             \"Specialization cannot be empty\"\r\n//         );\r\n//         require(bytes(contact).length > 0, \"Contact cannot be empty\");\r\n//         doctors[pubkey] = Doctor({\r\n//             name: name,\r\n//             specialization: specialization,\r\n//             contact: contact,\r\n//             institution_name: msg.sender\r\n//         });\r\n//     }\r\n\r\n//     // function to edit a doctor\r\n//     function editDoctor(\r\n//         string calldata name,\r\n//         string calldata specialization,\r\n//         string calldata contact,\r\n//         address pubkey\r\n//     ) public {\r\n//         require(checkAdmin(msg.sender) == true, \"You are not an admin\");\r\n//         require(checkDoctor(pubkey) == true, \"Doctor does not exist\");\r\n//         require(\r\n//             msg.sender != doctors[pubkey].institution_name,\r\n//             \"You do not have the permission to edit this doctor\"\r\n//         );\r\n//         require(bytes(name).length > 0, \"Name cannot be empty\");\r\n//         require(\r\n//             bytes(specialization).length > 0,\r\n//             \"Specialization cannot be empty\"\r\n//         );\r\n//         require(bytes(contact).length > 0, \"Contact cannot be empty\");\r\n//         doctors[pubkey] = Doctor({\r\n//             name: name,\r\n//             specialization: specialization,\r\n//             contact: contact,\r\n//             institution_name: msg.sender\r\n//         });\r\n//     }\r\n\r\n//     // function  to delete a doctor\r\n//     function deleteDoctor(address pubkey) public {\r\n//         require(checkAdmin(msg.sender) == true, \"You are not an admin\");\r\n//         require(checkDoctor(pubkey) == true, \"Doctor does not exist\");\r\n//         require(\r\n//             keccak256(abi.encodePacked(msg.sender))!= keccak256(abi.encodePacked(admins[pubkey].institution_name)),\r\n//             \"You do not have the permission to delete this doctor\"\r\n//         );\r\n//         delete doctors[pubkey];\r\n//     }\r\n\r\n//     // function to fetch a single doctor under the admin\r\n//     function getDoctor(address pubkey) public view returns (Doctor memory) {\r\n//         require(checkAdmin(msg.sender) == true, \"You are not an admin\");\r\n//         require(checkDoctor(pubkey) == true, \"Doctor does not exist\");\r\n//         require(\r\n//             msg.sender == doctors[pubkey].institution_name,\r\n//             \"You do not have the permission to fetch this doctor\"\r\n//         );\r\n//         return doctors[pubkey];\r\n//     }\r\n\r\n//     // function to fetch a all doctors under the admin's instiution name\r\n//     // function getDoctors() public view returns (Doctor[] memory) {\r\n//     //     require(checkAdmin(msg.sender), \"You are not an admin\");\r\n//     //     Doctor[] memory _doctors;\r\n//     //     for (uint256 i = 0; i < doctors.length; i++) {\r\n//     //         address pubkey = doctors[i];\r\n//     //         // Check if the admin associated with the doctor's address matches the caller's institution\r\n//     //         if (\r\n//     //             keccak256(abi.encodePacked(admins[pubkey])) ==\r\n//     //             keccak256(abi.encodePacked(admins[msg.sender]))\r\n//     //         ) {\r\n//     //             // Add the doctor to the array\r\n//     //             _doctors.push(doctors[pubkey]);\r\n//     //         }\r\n//     //     }\r\n//     //     return _doctors;\r\n//     // }\r\n\r\n//     // -------------------------------------------------------------------------------------------\r\n\r\n//     // Doctor structure\r\n//     struct Doctor {\r\n//         string name;\r\n//         string specialization;\r\n//         string contact;\r\n//         address institution_name;\r\n//     }\r\n//     mapping(address => Doctor) public doctors;\r\n\r\n//     // doctor functions\r\n//     // function to check if an address is a doctor\r\n//     function checkDoctor(address pubkey) public view returns (bool) {\r\n//         return bytes(doctors[pubkey].name).length > 0;\r\n//     }\r\n\r\n//     // function to add a patient\r\n//     function addPatient(\r\n//         string calldata name,\r\n//         uint256 age,\r\n//         string calldata gender,\r\n//         string calldata addr,\r\n//         string calldata contact,\r\n//         address pubkey\r\n//     ) public {\r\n//         require(checkDoctor(msg.sender) == true, \"Doctor does not exist\");\r\n//         require(bytes(name).length > 0, \"Name cannot be empty\");\r\n//         require(age > 0, \"Age cannot be zero\");\r\n//         require(bytes(gender).length > 0, \"Gender cannot be empty\");\r\n//         require(bytes(addr).length > 0, \"Address cannot be empty\");\r\n//         require(bytes(contact).length > 0, \"Contact cannot be empty\");\r\n//         address[] calldata nominees;\r\n//         nominees.push();\r\n//         patients[pubkey] = Patient({\r\n//             name: name,\r\n//             age: age,\r\n//             gender: gender,\r\n//             addr: addr,\r\n//             contact: contact,\r\n//             nominees : nominees\r\n//         });\r\n//     }\r\n\r\n//     // function to fetch a patient\r\n//     function getPatient(address pubkey) public view returns (Patient memory) {\r\n//         require(checkDoctor(msg.sender) == true, \"Doctor does not exist\");\r\n//         require(checkPatient(pubkey) == true, \"Patient does not exist\");\r\n//         return patients[pubkey];\r\n//     }\r\n\r\n//     // function to check read access for a record\r\n//     function checkReadAccess(bytes32 record_hash) public view returns (bool) {\r\n//         require(checkDoctor(msg.sender), \"Doctor does not exist\");\r\n//         require(checkRecord(record_hash), \"Record does not exist\");\r\n\r\n//         if (records[record_hash].read_allowed_doctors.length > 0) {\r\n//             // Iterate over the read allowed doctors array\r\n//             for (\r\n//                 uint256 i = 0;\r\n//                 i < records[record_hash].read_allowed_doctors.length;\r\n//                 i++\r\n//             ) {\r\n//                 // Check if the current doctor address matches the sender's address\r\n//                 if (\r\n//                     records[record_hash].read_allowed_doctors[i] == msg.sender\r\n//                 ) {\r\n//                     return true;\r\n//                 }\r\n//             }\r\n//         }\r\n\r\n//         return false;\r\n//     }\r\n\r\n//     // function to check write access for a record\r\n//     function checkWriteAccess(bytes32 record_hash) public view returns (bool) {\r\n//         require(checkDoctor(msg.sender), \"Doctor does not exist\");\r\n//         require(checkRecord(record_hash), \"Record does not exist\");\r\n\r\n//         if (records[record_hash].write_allowed_doctors.length > 0) {\r\n//             // Iterate over the write allowed doctors array\r\n//             for (\r\n//                 uint256 i = 0;\r\n//                 i < records[record_hash].write_allowed_doctors.length;\r\n//                 i++\r\n//             ) {\r\n//                 // Check if the current doctor address matches the sender's address\r\n//                 if (\r\n//                     records[record_hash].write_allowed_doctors[i] == msg.sender\r\n//                 ) {\r\n//                     return true;\r\n//                 }\r\n//             }\r\n//         }\r\n\r\n//         return false;\r\n//     }\r\n\r\n//     // function to add a record\r\n//     function addRecord(\r\n//         bytes32 record_hash,\r\n//         address doctor,\r\n//         address patient,\r\n//         string calldata record_title,\r\n//         string calldata record_desc,\r\n//         string calldata record_data\r\n//     ) public {\r\n//         require(checkDoctor(msg.sender) == true, \"Doctor does not exist\");\r\n//         require(checkPatient(patient) == true, \"Patient does not exist\");\r\n//         require(checkRecord(record_hash) == false, \"Record already exists\");\r\n//         address[] memory read_allowed_doctors = [];\r\n//         read_allowed_doctors.push(msg.sender);\r\n//         address[] memory write_allowed_doctors = [];\r\n//         write_allowed_doctors.push(msg.sender);\r\n//         records[record_hash] = Record({\r\n//             doctor: doctor,\r\n//             patient: patient,\r\n//             read_allowed_doctors: read_allowed_doctors,\r\n//             write_allowed_doctors: write_allowed_doctors,\r\n//             record_title: record_title,\r\n//             record_desc: record_desc,\r\n//             record_data: record_data\r\n//         });\r\n//     }\r\n\r\n//     // function to fetch a record\r\n//     function getRecord(bytes32 record_hash)\r\n//         public\r\n//         view\r\n//         returns (Record memory)\r\n//     {\r\n//         require(checkDoctor(msg.sender) == true, \"Doctor does not exist\");\r\n//         require(checkRecord(record_hash) == true, \"Record does not exist\");\r\n//         require(\r\n//             checkReadAccess(record_hash) == true,\r\n//             \"You do not have access to read this record\"\r\n//         );\r\n//         return records[record_hash];\r\n//     }\r\n\r\n//     // function to edit a record\r\n//     function editRecord(\r\n//         bytes32 record_hash,\r\n//         string calldata record_title,\r\n//         string calldata record_desc,\r\n//         string calldata record_data\r\n//     ) public {\r\n//         require(checkDoctor(msg.sender) == true, \"Doctor does not exist\");\r\n//         require(checkRecord(record_hash) == true, \"Record does not exist\");\r\n//         require(\r\n//             checkWriteAccess(record_hash) == true,\r\n//             \"You do not have access to write this record\"\r\n//         );\r\n//         records[record_hash].record_title = record_title;\r\n//         records[record_hash].record_desc = record_desc;\r\n//         records[record_hash].record_data = record_data;\r\n//     }\r\n\r\n//     // -------------------------------------------------------------------------------------------\r\n\r\n//     // patient structure\r\n//     struct Patient {\r\n//         string name;\r\n//         uint256 age;\r\n//         string gender;\r\n//         string addr;\r\n//         string contact;\r\n//         address[] nominees;\r\n//     }\r\n//     mapping(address => Patient) public patients;\r\n\r\n//     // patient functions\r\n//     // function to check if an address is a patient\r\n//     function checkPatient(address pubkey) public view returns (bool) {\r\n//         return bytes(patients[pubkey].name).length > 0;\r\n//     }\r\n\r\n//     // functio to edit patient\r\n//     function editPatient(\r\n//         string calldata name,\r\n//         uint256 age,\r\n//         string calldata gender,\r\n//         string calldata addr,\r\n//         string calldata contact\r\n//     ) public {\r\n//         require(checkPatient(msg.sender) == true, \"Patient does not exist\");\r\n//         patients[msg.sender].name = name;\r\n//         patients[msg.sender].age = age;\r\n//         patients[msg.sender].gender = gender;\r\n//         patients[msg.sender].addr = addr;\r\n//         patients[msg.sender].contact = contact;\r\n//     }\r\n\r\n//     // function to fetch patient records\r\n//     function fetchRecords() public view returns (Record[] memory) {\r\n//         require(checkPatient(msg.sender) == true, \"Patient does not exist\");\r\n//         Record[] memory _records = [];\r\n//         uint256 count = 0;\r\n//         for (uint256 i = 0; i < records.length; i++) {\r\n//             if (records[i].patient == msg.sender) {\r\n//                 _records[count] = records[i];\r\n//                 count++;\r\n//             }\r\n//         }\r\n//         return _records;\r\n//     }\r\n\r\n//     // fetch a single record\r\n//     function fetchRecord(bytes32 record_hash)\r\n//         public\r\n//         view\r\n//         returns (Record memory)\r\n//     {\r\n//         require(checkPatient(msg.sender) == true, \"Patient does not exist\");\r\n//         require(checkRecord(record_hash) == true, \"Record does not exist\");\r\n//         require(\r\n//             records[record_hash].patient != msg.sender,\r\n//             \"You do not have access to this record\"\r\n//         );\r\n//         return records[record_hash];\r\n//     }\r\n\r\n//     // function to add a nominee\r\n//     function addNominee(address pubkey, string calldata name) public {\r\n//         require(checkPatient(msg.sender) == true, \"Patient does not exist\");\r\n//         require(checkPatient(pubkey) == true, \"Nominee does not exist\");\r\n//         patients[msg.sender].nominees.push(pubkey);\r\n//     }\r\n\r\n//     // function to remove a nominee\r\n//     function removeNominee(address pubkey) public {\r\n//         require(checkPatient(msg.sender) == true, \"Patient does not exist\");\r\n//         require(checkPatient(pubkey) == true, \"Nominee does not exist\");\r\n//         require(patients[pubkey].nominees < 0, \"Nominee does not exist\");\r\n//         patients[msg.sender].nominees.remove(pubkey);\r\n//     }\r\n\r\n//     // function to fetch nominee's records\r\n//     function fetchNomineeRecords(address pubkey)\r\n//         public\r\n//         view\r\n//         returns (Record[] memory)\r\n//     {\r\n//         require(checkPatient(msg.sender) == true, \"Patient does not exist\");\r\n//         require(checkPatient(pubkey) == true, \"Nominee does not exist\");\r\n//         Record[] memory _records = [];\r\n//         uint256 count = 0;\r\n\r\n//         for (uint256 i = 0; i < records.length; i++) {\r\n//             if (records[i].patient == pubkey) {\r\n//                 _records[count] = records[i];\r\n//                 count++;\r\n//             }\r\n//         }\r\n//         return _records;\r\n//     }\r\n\r\n//     // function to give read access to a doctor by patient\r\n//     function giveReadAccess(bytes32 record_hash, address pubkey) public {\r\n//         require(checkPatient(msg.sender) == true, \"Patient does not exist\");\r\n//         require(checkDoctor(pubkey) == true, \"Doctor does not exist\");\r\n//         require(checkRecord(record_hash) == true, \"Record does not exist\");\r\n//         records[record_hash].read_allowed_doctors.push(pubkey);\r\n//     }\r\n\r\n//     // function to give write access to a doctor by patient\r\n//     function giveWriteAccess(bytes32 record_hash, address pubkey) public {\r\n//         require(checkPatient(msg.sender) == true, \"Patient does not exist\");\r\n//         require(checkDoctor(pubkey) == true, \"Doctor does not exist\");\r\n//         require(checkRecord(record_hash) == true, \"Record does not exist\");\r\n//         records[record_hash].write_allowed_doctors.push(pubkey);\r\n//     }\r\n\r\n//     // function to remove read access to a doctor by patient\r\n//     function removeReadAccess(bytes32 record_hash, address pubkey) public {\r\n//         require(checkPatient(msg.sender) == true, \"Patient does not exist\");\r\n//         require(checkDoctor(pubkey) == true, \"Doctor does not exist\");\r\n//         require(checkRecord(record_hash) == true, \"Record does not exist\");\r\n//         records[record_hash].read_allowed_doctors.remove(pubkey);\r\n//     }\r\n\r\n//     // function to remove write access to a doctor by patient\r\n//     function removeWriteAccess(bytes32 record_hash, address pubkey) public {\r\n//         require(checkPatient(msg.sender) == true, \"Patient does not exist\");\r\n//         require(checkDoctor(pubkey) == true, \"Doctor does not exist\");\r\n//         require(checkRecord(record_hash) == true, \"Record does not exist\");\r\n//         records[record_hash].write_allowed_doctors.remove(pubkey);\r\n//     }\r\n\r\n//     // -------------------------------------------------------------------------------------------\r\n\r\n//     // record structure\r\n//     struct Record {\r\n//         // hash bytes32 record_hash;\r\n//         address doctor;\r\n//         address patient;\r\n//         address[] read_allowed_doctors;\r\n//         address[] write_allowed_doctors;\r\n//         string record_title;\r\n//         string record_desc;\r\n//         string record_data;\r\n//     }\r\n//     mapping(bytes32 => Record) public records;\r\n\r\n//     // record functions\r\n//     // function to check if the record exist or not\r\n//     function checkRecord(bytes32 record_hash) public view returns (bool) {\r\n//         return bytes(records[record_hash].record_title).length > 0;\r\n//     }\r\n\r\n//     // -------------------------------------------------------------------------------------------\r\n\r\n//     // end of contract\r\n// }\r\n",
  "sourcePath": "C:\\Users\\midhu\\OneDrive\\Documents\\GitHub\\Final-Year-Project-\\myapp\\contracts\\Medivault.sol",
  "compiler": {
    "name": "solc",
    "version": "0.8.13+commit.abaa5c0e.Emscripten.clang"
  },
  "schemaVersion": "3.4.16",
  "updatedAt": "2024-04-13T13:00:17.246Z",
  "networkType": "ethereum",
  "devdoc": {
    "kind": "dev",
    "methods": {},
    "version": 1
  },
  "userdoc": {
    "kind": "user",
    "methods": {},
    "version": 1
  }
}