{
  "contractName": "Medivault",
  "abi": [
    {
      "inputs": [],
      "stateMutability": "nonpayable",
      "type": "constructor"
    },
    {
      "inputs": [
        {
          "internalType": "uint256",
          "name": "",
          "type": "uint256"
        }
      ],
      "name": "superAdminAddresses",
      "outputs": [
        {
          "internalType": "address",
          "name": "",
          "type": "address"
        }
      ],
      "stateMutability": "view",
      "type": "function",
      "constant": true
    },
    {
      "inputs": [
        {
          "internalType": "address",
          "name": "",
          "type": "address"
        }
      ],
      "name": "superAdmins",
      "outputs": [
        {
          "internalType": "string",
          "name": "name",
          "type": "string"
        }
      ],
      "stateMutability": "view",
      "type": "function",
      "constant": true
    },
    {
      "inputs": [
        {
          "internalType": "address",
          "name": "pubkey",
          "type": "address"
        }
      ],
      "name": "checkSuperAdmin",
      "outputs": [
        {
          "internalType": "bool",
          "name": "",
          "type": "bool"
        }
      ],
      "stateMutability": "view",
      "type": "function",
      "constant": true
    },
    {
      "inputs": [
        {
          "internalType": "string",
          "name": "name",
          "type": "string"
        }
      ],
      "name": "editSuperAdmin",
      "outputs": [],
      "stateMutability": "nonpayable",
      "type": "function"
    },
    {
      "inputs": [
        {
          "internalType": "address",
          "name": "_address",
          "type": "address"
        },
        {
          "internalType": "string",
          "name": "_name",
          "type": "string"
        }
      ],
      "name": "addSuperAdmin",
      "outputs": [],
      "stateMutability": "nonpayable",
      "type": "function"
    },
    {
      "inputs": [],
      "name": "getAllSuperAdmins",
      "outputs": [
        {
          "components": [
            {
              "internalType": "string",
              "name": "name",
              "type": "string"
            }
          ],
          "internalType": "struct Medivault.SuperAdmin[]",
          "name": "",
          "type": "tuple[]"
        }
      ],
      "stateMutability": "view",
      "type": "function",
      "constant": true
    },
    {
      "inputs": [
        {
          "internalType": "address",
          "name": "_address",
          "type": "address"
        }
      ],
      "name": "fetchSuperadmin",
      "outputs": [
        {
          "components": [
            {
              "internalType": "string",
              "name": "name",
              "type": "string"
            }
          ],
          "internalType": "struct Medivault.SuperAdmin",
          "name": "",
          "type": "tuple"
        }
      ],
      "stateMutability": "view",
      "type": "function",
      "constant": true
    }
  ],
  "bytecode": "0x60806040523480156200001157600080fd5b506001339080600181540180825580915050600190039060005260206000200160009091909190916101000a81548173ffffffffffffffffffffffffffffffffffffffff021916908373ffffffffffffffffffffffffffffffffffffffff16021790555060405180602001604052806040518060400160405280600b81526020017f53757065722061646d696e0000000000000000000000000000000000000000008152508152506000803373ffffffffffffffffffffffffffffffffffffffff1673ffffffffffffffffffffffffffffffffffffffff1681526020019081526020016000206000820151816000019080519060200190620001159291906200011f565b5090505062000233565b8280546200012d90620001fe565b90600052602060002090601f0160209004810192826200015157600085556200019d565b82601f106200016c57805160ff19168380011785556200019d565b828001600101855582156200019d579182015b828111156200019c5782518255916020019190600101906200017f565b5b509050620001ac9190620001b0565b5090565b5b80821115620001cb576000816000905550600101620001b1565b5090565b7f4e487b7100000000000000000000000000000000000000000000000000000000600052602260045260246000fd5b600060028204905060018216806200021757607f821691505b6020821081036200022d576200022c620001cf565b5b50919050565b610ef580620002436000396000f3fe608060405234801561001057600080fd5b506004361061007d5760003560e01c8063ab05bae61161005b578063ab05bae614610112578063ad25cb421461012e578063f126e2da1461015e578063f56fecef1461017a5761007d565b80632f3f6be2146100825780638f2448c9146100b2578063a1d658b1146100e2575b600080fd5b61009c60048036038101906100979190610824565b610198565b6040516100a99190610914565b60405180910390f35b6100cc60048036038101906100c7919061096c565b6102ca565b6040516100d991906109a8565b60405180910390f35b6100fc60048036038101906100f79190610824565b610309565b60405161010991906109de565b60405180910390f35b61012c60048036038101906101279190610b2e565b610362565b005b61014860048036038101906101439190610824565b610436565b6040516101559190610bd4565b60405180910390f35b61017860048036038101906101739190610bf6565b6104dc565b005b610182610535565b60405161018f9190610d2b565b60405180910390f35b6101a06106fc565b6101a933610309565b6101e8576040517f08c379a00000000000000000000000000000000000000000000000000000000081526004016101df90610d99565b60405180910390fd5b6000808373ffffffffffffffffffffffffffffffffffffffff1673ffffffffffffffffffffffffffffffffffffffff16815260200190815260200160002060405180602001604052908160008201805461024190610de8565b80601f016020809104026020016040519081016040528092919081815260200182805461026d90610de8565b80156102ba5780601f1061028f576101008083540402835291602001916102ba565b820191906000526020600020905b81548152906001019060200180831161029d57829003601f168201915b5050505050815250509050919050565b600181815481106102da57600080fd5b906000526020600020016000915054906101000a900473ffffffffffffffffffffffffffffffffffffffff1681565b6000806000808473ffffffffffffffffffffffffffffffffffffffff1673ffffffffffffffffffffffffffffffffffffffff168152602001908152602001600020600001805461035890610de8565b9050119050919050565b6040518060200160405280828152506000808473ffffffffffffffffffffffffffffffffffffffff1673ffffffffffffffffffffffffffffffffffffffff16815260200190815260200160002060008201518160000190805190602001906103cb92919061070f565b509050506001829080600181540180825580915050600190039060005260206000200160009091909190916101000a81548173ffffffffffffffffffffffffffffffffffffffff021916908373ffffffffffffffffffffffffffffffffffffffff1602179055505050565b600060205280600052604060002060009150905080600001805461045990610de8565b80601f016020809104026020016040519081016040528092919081815260200182805461048590610de8565b80156104d25780601f106104a7576101008083540402835291602001916104d2565b820191906000526020600020905b8154815290600101906020018083116104b557829003601f168201915b5050505050905081565b806000803373ffffffffffffffffffffffffffffffffffffffff1673ffffffffffffffffffffffffffffffffffffffff168152602001908152602001600020600001908051906020019061053192919061070f565b5050565b6060600060018054905067ffffffffffffffff81111561055857610557610a03565b5b60405190808252806020026020018201604052801561059157816020015b61057e6106fc565b8152602001906001900390816105765790505b50905060005b6001805490508110156106f4576000600182815481106105ba576105b9610e19565b5b9060005260206000200160009054906101000a900473ffffffffffffffffffffffffffffffffffffffff1690506000808273ffffffffffffffffffffffffffffffffffffffff1673ffffffffffffffffffffffffffffffffffffffff16815260200190815260200160002060405180602001604052908160008201805461064090610de8565b80601f016020809104026020016040519081016040528092919081815260200182805461066c90610de8565b80156106b95780601f1061068e576101008083540402835291602001916106b9565b820191906000526020600020905b81548152906001019060200180831161069c57829003601f168201915b5050505050815250508383815181106106d5576106d4610e19565b5b60200260200101819052505080806106ec90610e77565b915050610597565b508091505090565b6040518060200160405280606081525090565b82805461071b90610de8565b90600052602060002090601f01602090048101928261073d5760008555610784565b82601f1061075657805160ff1916838001178555610784565b82800160010185558215610784579182015b82811115610783578251825591602001919060010190610768565b5b5090506107919190610795565b5090565b5b808211156107ae576000816000905550600101610796565b5090565b6000604051905090565b600080fd5b600080fd5b600073ffffffffffffffffffffffffffffffffffffffff82169050919050565b60006107f1826107c6565b9050919050565b610801816107e6565b811461080c57600080fd5b50565b60008135905061081e816107f8565b92915050565b60006020828403121561083a576108396107bc565b5b60006108488482850161080f565b91505092915050565b600081519050919050565b600082825260208201905092915050565b60005b8381101561088b578082015181840152602081019050610870565b8381111561089a576000848401525b50505050565b6000601f19601f8301169050919050565b60006108bc82610851565b6108c6818561085c565b93506108d681856020860161086d565b6108df816108a0565b840191505092915050565b6000602083016000830151848203600086015261090782826108b1565b9150508091505092915050565b6000602082019050818103600083015261092e81846108ea565b905092915050565b6000819050919050565b61094981610936565b811461095457600080fd5b50565b60008135905061096681610940565b92915050565b600060208284031215610982576109816107bc565b5b600061099084828501610957565b91505092915050565b6109a2816107e6565b82525050565b60006020820190506109bd6000830184610999565b92915050565b60008115159050919050565b6109d8816109c3565b82525050565b60006020820190506109f360008301846109cf565b92915050565b600080fd5b600080fd5b7f4e487b7100000000000000000000000000000000000000000000000000000000600052604160045260246000fd5b610a3b826108a0565b810181811067ffffffffffffffff82111715610a5a57610a59610a03565b5b80604052505050565b6000610a6d6107b2565b9050610a798282610a32565b919050565b600067ffffffffffffffff821115610a9957610a98610a03565b5b610aa2826108a0565b9050602081019050919050565b82818337600083830152505050565b6000610ad1610acc84610a7e565b610a63565b905082815260208101848484011115610aed57610aec6109fe565b5b610af8848285610aaf565b509392505050565b600082601f830112610b1557610b146109f9565b5b8135610b25848260208601610abe565b91505092915050565b60008060408385031215610b4557610b446107bc565b5b6000610b538582860161080f565b925050602083013567ffffffffffffffff811115610b7457610b736107c1565b5b610b8085828601610b00565b9150509250929050565b600082825260208201905092915050565b6000610ba682610851565b610bb08185610b8a565b9350610bc081856020860161086d565b610bc9816108a0565b840191505092915050565b60006020820190508181036000830152610bee8184610b9b565b905092915050565b600060208284031215610c0c57610c0b6107bc565b5b600082013567ffffffffffffffff811115610c2a57610c296107c1565b5b610c3684828501610b00565b91505092915050565b600081519050919050565b600082825260208201905092915050565b6000819050602082019050919050565b60006020830160008301518482036000860152610c8882826108b1565b9150508091505092915050565b6000610ca18383610c6b565b905092915050565b6000602082019050919050565b6000610cc182610c3f565b610ccb8185610c4a565b935083602082028501610cdd85610c5b565b8060005b85811015610d195784840389528151610cfa8582610c95565b9450610d0583610ca9565b925060208a01995050600181019050610ce1565b50829750879550505050505092915050565b60006020820190508181036000830152610d458184610cb6565b905092915050565b7f53656e646572206973206e6f7420612073757065722061646d696e0000000000600082015250565b6000610d83601b83610b8a565b9150610d8e82610d4d565b602082019050919050565b60006020820190508181036000830152610db281610d76565b9050919050565b7f4e487b7100000000000000000000000000000000000000000000000000000000600052602260045260246000fd5b60006002820490506001821680610e0057607f821691505b602082108103610e1357610e12610db9565b5b50919050565b7f4e487b7100000000000000000000000000000000000000000000000000000000600052603260045260246000fd5b7f4e487b7100000000000000000000000000000000000000000000000000000000600052601160045260246000fd5b6000610e8282610936565b91507fffffffffffffffffffffffffffffffffffffffffffffffffffffffffffffffff8203610eb457610eb3610e48565b5b60018201905091905056fea2646970667358221220c22cbaa626db9b89273b03c5949237eccbb141878031c057f2d77793a54e835464736f6c634300080d0033",
  "immutableReferences": {},
  "source": "// SPDX-License-Identifier: MIT\r\npragma solidity >=0.4.22 <0.9.0;\r\n\r\ncontract Medivault {\r\n    // function to check if an address is an admin or patient or doctor or super admin\r\n\r\n    // structure of super admin\r\n    struct SuperAdmin {\r\n        string name;\r\n    }\r\n    mapping(address => SuperAdmin) public superAdmins;\r\n    address[] public superAdminAddresses;\r\n\r\n    constructor() {  \r\n        superAdminAddresses.push(msg.sender);\r\n        superAdmins[msg.sender] = SuperAdmin({ name : \"Super admin\" });\r\n    }\r\n\r\n    function checkSuperAdmin(address pubkey) public view returns (bool) {\r\n        return bytes(superAdmins[pubkey].name).length > 0;\r\n    }\r\n\r\n    function editSuperAdmin(string memory name) public  {\r\n        superAdmins[msg.sender].name = name;\r\n    }\r\n\r\n    function addSuperAdmin(address _address, string memory _name) public {\r\n        superAdmins[_address] = SuperAdmin(_name);\r\n        superAdminAddresses.push(_address);\r\n    }\r\n\r\n    function getAllSuperAdmins() public view returns (SuperAdmin[] memory) {\r\n        SuperAdmin[] memory admins = new SuperAdmin[](superAdminAddresses.length);\r\n        \r\n        for (uint i = 0; i < superAdminAddresses.length; i++) {\r\n            address adminAddress = superAdminAddresses[i];\r\n            admins[i] = superAdmins[adminAddress];\r\n        }\r\n        \r\n        return admins;\r\n    }\r\n\r\n    function fetchSuperadmin(address _address) public view returns (SuperAdmin memory) {\r\n        require(checkSuperAdmin(msg.sender), \"Sender is not a super admin\");\r\n        return superAdmins[_address];\r\n    }\r\n\r\n\r\n\r\n    // manually adding super admin for testing purposes\r\n    // functions of super admin\r\n    // function to check if an address is a super admin\r\n    \r\n    // // // function to add a super admin\r\n    // // function addSuperAdmin(address pubkey, string calldata name) public {\r\n    // //     require(\r\n    // //         checkSuperAdmin(msg.sender) == true,\r\n    // //         \"You are not a super admin\"\r\n    // //     );\r\n    // //     require(checkSuperAdmin(pubkey) == false, \"Super admin already exists\");\r\n    // //     superAdmins[pubkey] = SuperAdmin({name: name});\r\n    // // }\r\n\r\n    // // function to add a admin\r\n    // function addAdmin(\r\n    //     string calldata institution_name,\r\n    //     string calldata institution_addr,\r\n    //     string calldata institution_contact,\r\n    //     address pubkey\r\n    // ) public {\r\n    //     require(\r\n    //         checkSuperAdmin(msg.sender) == true,\r\n    //         \"You are not a allowed to add an admin\"\r\n    //     );\r\n    //     require(checkAdmin(pubkey) == false, \"Admin already exists\");\r\n    //     admins[pubkey] = Admin({\r\n    //         institution_name: institution_name,\r\n    //         institution_addr: institution_addr,\r\n    //         institution_contact: institution_contact\r\n    //     });\r\n    // }\r\n\r\n    // // function to edit an admin\r\n    // function editAdmin(\r\n    //     string calldata institution_name,\r\n    //     string calldata institution_addr,\r\n    //     string calldata institution_contact,\r\n    //     address pubkey\r\n    // ) public {\r\n    //     require(\r\n    //         checkSuperAdmin(msg.sender) == true,\r\n    //         \"You are not a allowed to edit an admin\"\r\n    //     );\r\n    //     require(checkAdmin(pubkey) == true, \"Admin does not exist\");\r\n    //     admins[pubkey] = Admin({\r\n    //         institution_name: institution_name,\r\n    //         institution_addr: institution_addr,\r\n    //         institution_contact: institution_contact\r\n    //     });\r\n    // }\r\n\r\n    // // -------------------------------------------------------------------------------------------\r\n\r\n    // // Admin structure\r\n    // struct Admin {\r\n    //     string institution_name;\r\n    //     string institution_addr;\r\n    //     string institution_contact;\r\n    // }\r\n    // mapping(address => Admin) public admins;\r\n\r\n    // // admin functions\r\n    // // function to check if an address is an admin\r\n    // function checkAdmin(address pubkey) public view returns (bool) {\r\n    //     return bytes(admins[pubkey].institution_name).length > 0;\r\n    // }\r\n}\r\n\r\n// contract Medivault {\r\n//\r\n\r\n//     // function to delete an admin\r\n//     function deleteAdmin(address pubkey) public {\r\n//         require(\r\n//             checkSuperAdmin(msg.sender) == true,\r\n//             \"You are not a allowed to delete an admin\"\r\n//         );\r\n//         require(checkAdmin(pubkey) == true, \"Admin does not exist\");\r\n//         delete admins[pubkey];\r\n//     }\r\n\r\n//     // function to fetch a single admin\r\n//     function getAdmin(address pubkey) public view returns (Admin memory) {\r\n//         require(\r\n//             checkSuperAdmin(msg.sender) == true,\r\n//             \"You are not a allowed to fetch an admin\"\r\n//         );\r\n//         require(checkAdmin(pubkey) == true, \"Admin does not exist\");\r\n//         return admins[pubkey];\r\n//     }\r\n\r\n//     // function to fetch all admins\r\n//     // function getAdmins() public view returns (Admin[] memory) {\r\n//     //     require(\r\n//     //         checkSuperAdmin(msg.sender) == true,\r\n//     //         \"You are not a allowed to perform this opertation\"\r\n//     //     );q\r\n//     //     return admins;\r\n//     // }\r\n\r\n//     // -------------------------------------------------------------------------------------------\r\n\r\n//     // Admin structure\r\n//     struct Admin {\r\n//         string institution_name;\r\n//         string institution_addr;\r\n//         string institution_contact;\r\n//     }\r\n//     mapping(address => Admin) public admins;\r\n\r\n//     // admin functions\r\n//     // function to check if an address is an admin\r\n//     function checkAdmin(address pubkey) public view returns (bool) {\r\n//         return bytes(admins[pubkey].institution_name).length > 0;\r\n//     }\r\n\r\n//     // function to add a doctor\r\n//     function addDoctor(\r\n//         string calldata name,\r\n//         string calldata specialization,\r\n//         string calldata contact,\r\n//         address pubkey\r\n//     ) public {\r\n//         require(checkAdmin(msg.sender) == true, \"You are not an admin\");\r\n//         require(checkDoctor(pubkey) == false, \"Doctor already exists\");\r\n//         require(bytes(name).length > 0, \"Name cannot be empty\");\r\n//         require(\r\n//             bytes(specialization).length > 0,\r\n//             \"Specialization cannot be empty\"\r\n//         );\r\n//         require(bytes(contact).length > 0, \"Contact cannot be empty\");\r\n//         doctors[pubkey] = Doctor({\r\n//             name: name,\r\n//             specialization: specialization,\r\n//             contact: contact,\r\n//             institution_name: msg.sender\r\n//         });\r\n//     }\r\n\r\n//     // function to edit a doctor\r\n//     function editDoctor(\r\n//         string calldata name,\r\n//         string calldata specialization,\r\n//         string calldata contact,\r\n//         address pubkey\r\n//     ) public {\r\n//         require(checkAdmin(msg.sender) == true, \"You are not an admin\");\r\n//         require(checkDoctor(pubkey) == true, \"Doctor does not exist\");\r\n//         require(\r\n//             msg.sender != doctors[pubkey].institution_name,\r\n//             \"You do not have the permission to edit this doctor\"\r\n//         );\r\n//         require(bytes(name).length > 0, \"Name cannot be empty\");\r\n//         require(\r\n//             bytes(specialization).length > 0,\r\n//             \"Specialization cannot be empty\"\r\n//         );\r\n//         require(bytes(contact).length > 0, \"Contact cannot be empty\");\r\n//         doctors[pubkey] = Doctor({\r\n//             name: name,\r\n//             specialization: specialization,\r\n//             contact: contact,\r\n//             institution_name: msg.sender\r\n//         });\r\n//     }\r\n\r\n//     // function  to delete a doctor\r\n//     function deleteDoctor(address pubkey) public {\r\n//         require(checkAdmin(msg.sender) == true, \"You are not an admin\");\r\n//         require(checkDoctor(pubkey) == true, \"Doctor does not exist\");\r\n//         require(\r\n//             keccak256(abi.encodePacked(msg.sender))!= keccak256(abi.encodePacked(admins[pubkey].institution_name)),\r\n//             \"You do not have the permission to delete this doctor\"\r\n//         );\r\n//         delete doctors[pubkey];\r\n//     }\r\n\r\n//     // function to fetch a single doctor under the admin\r\n//     function getDoctor(address pubkey) public view returns (Doctor memory) {\r\n//         require(checkAdmin(msg.sender) == true, \"You are not an admin\");\r\n//         require(checkDoctor(pubkey) == true, \"Doctor does not exist\");\r\n//         require(\r\n//             msg.sender == doctors[pubkey].institution_name,\r\n//             \"You do not have the permission to fetch this doctor\"\r\n//         );\r\n//         return doctors[pubkey];\r\n//     }\r\n\r\n//     // function to fetch a all doctors under the admin's instiution name\r\n//     // function getDoctors() public view returns (Doctor[] memory) {\r\n//     //     require(checkAdmin(msg.sender), \"You are not an admin\");\r\n//     //     Doctor[] memory _doctors;\r\n//     //     for (uint256 i = 0; i < doctors.length; i++) {\r\n//     //         address pubkey = doctors[i];\r\n//     //         // Check if the admin associated with the doctor's address matches the caller's institution\r\n//     //         if (\r\n//     //             keccak256(abi.encodePacked(admins[pubkey])) ==\r\n//     //             keccak256(abi.encodePacked(admins[msg.sender]))\r\n//     //         ) {\r\n//     //             // Add the doctor to the array\r\n//     //             _doctors.push(doctors[pubkey]);\r\n//     //         }\r\n//     //     }\r\n//     //     return _doctors;\r\n//     // }\r\n\r\n//     // -------------------------------------------------------------------------------------------\r\n\r\n//     // Doctor structure\r\n//     struct Doctor {\r\n//         string name;\r\n//         string specialization;\r\n//         string contact;\r\n//         address institution_name;\r\n//     }\r\n//     mapping(address => Doctor) public doctors;\r\n\r\n//     // doctor functions\r\n//     // function to check if an address is a doctor\r\n//     function checkDoctor(address pubkey) public view returns (bool) {\r\n//         return bytes(doctors[pubkey].name).length > 0;\r\n//     }\r\n\r\n//     // function to add a patient\r\n//     function addPatient(\r\n//         string calldata name,\r\n//         uint256 age,\r\n//         string calldata gender,\r\n//         string calldata addr,\r\n//         string calldata contact,\r\n//         address pubkey\r\n//     ) public {\r\n//         require(checkDoctor(msg.sender) == true, \"Doctor does not exist\");\r\n//         require(bytes(name).length > 0, \"Name cannot be empty\");\r\n//         require(age > 0, \"Age cannot be zero\");\r\n//         require(bytes(gender).length > 0, \"Gender cannot be empty\");\r\n//         require(bytes(addr).length > 0, \"Address cannot be empty\");\r\n//         require(bytes(contact).length > 0, \"Contact cannot be empty\");\r\n//         address[] calldata nominees;\r\n//         nominees.push();\r\n//         patients[pubkey] = Patient({\r\n//             name: name,\r\n//             age: age,\r\n//             gender: gender,\r\n//             addr: addr,\r\n//             contact: contact,\r\n//             nominees : nominees\r\n//         });\r\n//     }\r\n\r\n//     // function to fetch a patient\r\n//     function getPatient(address pubkey) public view returns (Patient memory) {\r\n//         require(checkDoctor(msg.sender) == true, \"Doctor does not exist\");\r\n//         require(checkPatient(pubkey) == true, \"Patient does not exist\");\r\n//         return patients[pubkey];\r\n//     }\r\n\r\n//     // function to check read access for a record\r\n//     function checkReadAccess(bytes32 record_hash) public view returns (bool) {\r\n//         require(checkDoctor(msg.sender), \"Doctor does not exist\");\r\n//         require(checkRecord(record_hash), \"Record does not exist\");\r\n\r\n//         if (records[record_hash].read_allowed_doctors.length > 0) {\r\n//             // Iterate over the read allowed doctors array\r\n//             for (\r\n//                 uint256 i = 0;\r\n//                 i < records[record_hash].read_allowed_doctors.length;\r\n//                 i++\r\n//             ) {\r\n//                 // Check if the current doctor address matches the sender's address\r\n//                 if (\r\n//                     records[record_hash].read_allowed_doctors[i] == msg.sender\r\n//                 ) {\r\n//                     return true;\r\n//                 }\r\n//             }\r\n//         }\r\n\r\n//         return false;\r\n//     }\r\n\r\n//     // function to check write access for a record\r\n//     function checkWriteAccess(bytes32 record_hash) public view returns (bool) {\r\n//         require(checkDoctor(msg.sender), \"Doctor does not exist\");\r\n//         require(checkRecord(record_hash), \"Record does not exist\");\r\n\r\n//         if (records[record_hash].write_allowed_doctors.length > 0) {\r\n//             // Iterate over the write allowed doctors array\r\n//             for (\r\n//                 uint256 i = 0;\r\n//                 i < records[record_hash].write_allowed_doctors.length;\r\n//                 i++\r\n//             ) {\r\n//                 // Check if the current doctor address matches the sender's address\r\n//                 if (\r\n//                     records[record_hash].write_allowed_doctors[i] == msg.sender\r\n//                 ) {\r\n//                     return true;\r\n//                 }\r\n//             }\r\n//         }\r\n\r\n//         return false;\r\n//     }\r\n\r\n//     // function to add a record\r\n//     function addRecord(\r\n//         bytes32 record_hash,\r\n//         address doctor,\r\n//         address patient,\r\n//         string calldata record_title,\r\n//         string calldata record_desc,\r\n//         string calldata record_data\r\n//     ) public {\r\n//         require(checkDoctor(msg.sender) == true, \"Doctor does not exist\");\r\n//         require(checkPatient(patient) == true, \"Patient does not exist\");\r\n//         require(checkRecord(record_hash) == false, \"Record already exists\");\r\n//         address[] memory read_allowed_doctors = [];\r\n//         read_allowed_doctors.push(msg.sender);\r\n//         address[] memory write_allowed_doctors = [];\r\n//         write_allowed_doctors.push(msg.sender);\r\n//         records[record_hash] = Record({\r\n//             doctor: doctor,\r\n//             patient: patient,\r\n//             read_allowed_doctors: read_allowed_doctors,\r\n//             write_allowed_doctors: write_allowed_doctors,\r\n//             record_title: record_title,\r\n//             record_desc: record_desc,\r\n//             record_data: record_data\r\n//         });\r\n//     }\r\n\r\n//     // function to fetch a record\r\n//     function getRecord(bytes32 record_hash)\r\n//         public\r\n//         view\r\n//         returns (Record memory)\r\n//     {\r\n//         require(checkDoctor(msg.sender) == true, \"Doctor does not exist\");\r\n//         require(checkRecord(record_hash) == true, \"Record does not exist\");\r\n//         require(\r\n//             checkReadAccess(record_hash) == true,\r\n//             \"You do not have access to read this record\"\r\n//         );\r\n//         return records[record_hash];\r\n//     }\r\n\r\n//     // function to edit a record\r\n//     function editRecord(\r\n//         bytes32 record_hash,\r\n//         string calldata record_title,\r\n//         string calldata record_desc,\r\n//         string calldata record_data\r\n//     ) public {\r\n//         require(checkDoctor(msg.sender) == true, \"Doctor does not exist\");\r\n//         require(checkRecord(record_hash) == true, \"Record does not exist\");\r\n//         require(\r\n//             checkWriteAccess(record_hash) == true,\r\n//             \"You do not have access to write this record\"\r\n//         );\r\n//         records[record_hash].record_title = record_title;\r\n//         records[record_hash].record_desc = record_desc;\r\n//         records[record_hash].record_data = record_data;\r\n//     }\r\n\r\n//     // -------------------------------------------------------------------------------------------\r\n\r\n//     // patient structure\r\n//     struct Patient {\r\n//         string name;\r\n//         uint256 age;\r\n//         string gender;\r\n//         string addr;\r\n//         string contact;\r\n//         address[] nominees;\r\n//     }\r\n//     mapping(address => Patient) public patients;\r\n\r\n//     // patient functions\r\n//     // function to check if an address is a patient\r\n//     function checkPatient(address pubkey) public view returns (bool) {\r\n//         return bytes(patients[pubkey].name).length > 0;\r\n//     }\r\n\r\n//     // functio to edit patient\r\n//     function editPatient(\r\n//         string calldata name,\r\n//         uint256 age,\r\n//         string calldata gender,\r\n//         string calldata addr,\r\n//         string calldata contact\r\n//     ) public {\r\n//         require(checkPatient(msg.sender) == true, \"Patient does not exist\");\r\n//         patients[msg.sender].name = name;\r\n//         patients[msg.sender].age = age;\r\n//         patients[msg.sender].gender = gender;\r\n//         patients[msg.sender].addr = addr;\r\n//         patients[msg.sender].contact = contact;\r\n//     }\r\n\r\n//     // function to fetch patient records\r\n//     function fetchRecords() public view returns (Record[] memory) {\r\n//         require(checkPatient(msg.sender) == true, \"Patient does not exist\");\r\n//         Record[] memory _records = [];\r\n//         uint256 count = 0;\r\n//         for (uint256 i = 0; i < records.length; i++) {\r\n//             if (records[i].patient == msg.sender) {\r\n//                 _records[count] = records[i];\r\n//                 count++;\r\n//             }\r\n//         }\r\n//         return _records;\r\n//     }\r\n\r\n//     // fetch a single record\r\n//     function fetchRecord(bytes32 record_hash)\r\n//         public\r\n//         view\r\n//         returns (Record memory)\r\n//     {\r\n//         require(checkPatient(msg.sender) == true, \"Patient does not exist\");\r\n//         require(checkRecord(record_hash) == true, \"Record does not exist\");\r\n//         require(\r\n//             records[record_hash].patient != msg.sender,\r\n//             \"You do not have access to this record\"\r\n//         );\r\n//         return records[record_hash];\r\n//     }\r\n\r\n//     // function to add a nominee\r\n//     function addNominee(address pubkey, string calldata name) public {\r\n//         require(checkPatient(msg.sender) == true, \"Patient does not exist\");\r\n//         require(checkPatient(pubkey) == true, \"Nominee does not exist\");\r\n//         patients[msg.sender].nominees.push(pubkey);\r\n//     }\r\n\r\n//     // function to remove a nominee\r\n//     function removeNominee(address pubkey) public {\r\n//         require(checkPatient(msg.sender) == true, \"Patient does not exist\");\r\n//         require(checkPatient(pubkey) == true, \"Nominee does not exist\");\r\n//         require(patients[pubkey].nominees < 0, \"Nominee does not exist\");\r\n//         patients[msg.sender].nominees.remove(pubkey);\r\n//     }\r\n\r\n//     // function to fetch nominee's records\r\n//     function fetchNomineeRecords(address pubkey)\r\n//         public\r\n//         view\r\n//         returns (Record[] memory)\r\n//     {\r\n//         require(checkPatient(msg.sender) == true, \"Patient does not exist\");\r\n//         require(checkPatient(pubkey) == true, \"Nominee does not exist\");\r\n//         Record[] memory _records = [];\r\n//         uint256 count = 0;\r\n\r\n//         for (uint256 i = 0; i < records.length; i++) {\r\n//             if (records[i].patient == pubkey) {\r\n//                 _records[count] = records[i];\r\n//                 count++;\r\n//             }\r\n//         }\r\n//         return _records;\r\n//     }\r\n\r\n//     // function to give read access to a doctor by patient\r\n//     function giveReadAccess(bytes32 record_hash, address pubkey) public {\r\n//         require(checkPatient(msg.sender) == true, \"Patient does not exist\");\r\n//         require(checkDoctor(pubkey) == true, \"Doctor does not exist\");\r\n//         require(checkRecord(record_hash) == true, \"Record does not exist\");\r\n//         records[record_hash].read_allowed_doctors.push(pubkey);\r\n//     }\r\n\r\n//     // function to give write access to a doctor by patient\r\n//     function giveWriteAccess(bytes32 record_hash, address pubkey) public {\r\n//         require(checkPatient(msg.sender) == true, \"Patient does not exist\");\r\n//         require(checkDoctor(pubkey) == true, \"Doctor does not exist\");\r\n//         require(checkRecord(record_hash) == true, \"Record does not exist\");\r\n//         records[record_hash].write_allowed_doctors.push(pubkey);\r\n//     }\r\n\r\n//     // function to remove read access to a doctor by patient\r\n//     function removeReadAccess(bytes32 record_hash, address pubkey) public {\r\n//         require(checkPatient(msg.sender) == true, \"Patient does not exist\");\r\n//         require(checkDoctor(pubkey) == true, \"Doctor does not exist\");\r\n//         require(checkRecord(record_hash) == true, \"Record does not exist\");\r\n//         records[record_hash].read_allowed_doctors.remove(pubkey);\r\n//     }\r\n\r\n//     // function to remove write access to a doctor by patient\r\n//     function removeWriteAccess(bytes32 record_hash, address pubkey) public {\r\n//         require(checkPatient(msg.sender) == true, \"Patient does not exist\");\r\n//         require(checkDoctor(pubkey) == true, \"Doctor does not exist\");\r\n//         require(checkRecord(record_hash) == true, \"Record does not exist\");\r\n//         records[record_hash].write_allowed_doctors.remove(pubkey);\r\n//     }\r\n\r\n//     // -------------------------------------------------------------------------------------------\r\n\r\n//     // record structure\r\n//     struct Record {\r\n//         // hash bytes32 record_hash;\r\n//         address doctor;\r\n//         address patient;\r\n//         address[] read_allowed_doctors;\r\n//         address[] write_allowed_doctors;\r\n//         string record_title;\r\n//         string record_desc;\r\n//         string record_data;\r\n//     }\r\n//     mapping(bytes32 => Record) public records;\r\n\r\n//     // record functions\r\n//     // function to check if the record exist or not\r\n//     function checkRecord(bytes32 record_hash) public view returns (bool) {\r\n//         return bytes(records[record_hash].record_title).length > 0;\r\n//     }\r\n\r\n//     // -------------------------------------------------------------------------------------------\r\n\r\n//     // end of contract\r\n// }\r\n",
  "sourcePath": "C:\\Users\\midhu\\OneDrive\\Documents\\GitHub\\Final-Year-Project-\\myapp\\contracts\\Medivault.sol",
  "compiler": {
    "name": "solc",
    "version": "0.8.13+commit.abaa5c0e.Emscripten.clang"
  },
  "schemaVersion": "3.4.16",
  "updatedAt": "2024-04-07T15:44:42.974Z",
  "networkType": "ethereum",
  "devdoc": {
    "kind": "dev",
    "methods": {},
    "version": 1
  },
  "userdoc": {
    "kind": "user",
    "methods": {},
    "version": 1
  }
}