{
  "contractName": "Medivault",
  "abi": [
    {
      "inputs": [],
      "stateMutability": "nonpayable",
      "type": "constructor"
    },
    {
      "inputs": [
        {
          "internalType": "uint256",
          "name": "",
          "type": "uint256"
        }
      ],
      "name": "adminAddresses",
      "outputs": [
        {
          "internalType": "address",
          "name": "",
          "type": "address"
        }
      ],
      "stateMutability": "view",
      "type": "function",
      "constant": true
    },
    {
      "inputs": [
        {
          "internalType": "address",
          "name": "",
          "type": "address"
        }
      ],
      "name": "admins",
      "outputs": [
        {
          "internalType": "string",
          "name": "institution_name",
          "type": "string"
        }
      ],
      "stateMutability": "view",
      "type": "function",
      "constant": true
    },
    {
      "inputs": [
        {
          "internalType": "uint256",
          "name": "",
          "type": "uint256"
        }
      ],
      "name": "doctorAddresses",
      "outputs": [
        {
          "internalType": "address",
          "name": "",
          "type": "address"
        }
      ],
      "stateMutability": "view",
      "type": "function",
      "constant": true
    },
    {
      "inputs": [
        {
          "internalType": "address",
          "name": "",
          "type": "address"
        }
      ],
      "name": "doctors",
      "outputs": [
        {
          "internalType": "string",
          "name": "name",
          "type": "string"
        },
        {
          "internalType": "string",
          "name": "specialization",
          "type": "string"
        },
        {
          "internalType": "address",
          "name": "institution",
          "type": "address"
        }
      ],
      "stateMutability": "view",
      "type": "function",
      "constant": true
    },
    {
      "inputs": [
        {
          "internalType": "uint256",
          "name": "",
          "type": "uint256"
        }
      ],
      "name": "superAdminAddresses",
      "outputs": [
        {
          "internalType": "address",
          "name": "",
          "type": "address"
        }
      ],
      "stateMutability": "view",
      "type": "function",
      "constant": true
    },
    {
      "inputs": [
        {
          "internalType": "address",
          "name": "",
          "type": "address"
        }
      ],
      "name": "superAdmins",
      "outputs": [
        {
          "internalType": "string",
          "name": "name",
          "type": "string"
        }
      ],
      "stateMutability": "view",
      "type": "function",
      "constant": true
    },
    {
      "inputs": [
        {
          "internalType": "address",
          "name": "pubkey",
          "type": "address"
        }
      ],
      "name": "checkSuperAdmin",
      "outputs": [
        {
          "internalType": "bool",
          "name": "",
          "type": "bool"
        }
      ],
      "stateMutability": "view",
      "type": "function",
      "constant": true
    },
    {
      "inputs": [
        {
          "internalType": "string",
          "name": "name",
          "type": "string"
        }
      ],
      "name": "editSuperAdmin",
      "outputs": [],
      "stateMutability": "nonpayable",
      "type": "function"
    },
    {
      "inputs": [
        {
          "internalType": "address",
          "name": "_address",
          "type": "address"
        },
        {
          "internalType": "string",
          "name": "_name",
          "type": "string"
        }
      ],
      "name": "addSuperAdmin",
      "outputs": [],
      "stateMutability": "nonpayable",
      "type": "function"
    },
    {
      "inputs": [],
      "name": "getAllSuperAdmins",
      "outputs": [
        {
          "internalType": "address[]",
          "name": "",
          "type": "address[]"
        }
      ],
      "stateMutability": "view",
      "type": "function",
      "constant": true
    },
    {
      "inputs": [],
      "name": "fetchNames",
      "outputs": [
        {
          "internalType": "string[]",
          "name": "",
          "type": "string[]"
        }
      ],
      "stateMutability": "view",
      "type": "function",
      "constant": true
    },
    {
      "inputs": [
        {
          "internalType": "address",
          "name": "_address",
          "type": "address"
        }
      ],
      "name": "fetchSuperadmin",
      "outputs": [
        {
          "components": [
            {
              "internalType": "string",
              "name": "name",
              "type": "string"
            }
          ],
          "internalType": "struct Medivault.SuperAdmin",
          "name": "",
          "type": "tuple"
        }
      ],
      "stateMutability": "view",
      "type": "function",
      "constant": true
    },
    {
      "inputs": [
        {
          "internalType": "string",
          "name": "institution_name",
          "type": "string"
        },
        {
          "internalType": "address",
          "name": "_address",
          "type": "address"
        }
      ],
      "name": "addAdmin",
      "outputs": [],
      "stateMutability": "nonpayable",
      "type": "function"
    },
    {
      "inputs": [],
      "name": "fetchAdminsAddresses",
      "outputs": [
        {
          "internalType": "address[]",
          "name": "",
          "type": "address[]"
        }
      ],
      "stateMutability": "view",
      "type": "function",
      "constant": true
    },
    {
      "inputs": [],
      "name": "fetchAdmins",
      "outputs": [
        {
          "components": [
            {
              "internalType": "string",
              "name": "institution_name",
              "type": "string"
            }
          ],
          "internalType": "struct Medivault.Admin[]",
          "name": "",
          "type": "tuple[]"
        }
      ],
      "stateMutability": "view",
      "type": "function",
      "constant": true
    },
    {
      "inputs": [
        {
          "internalType": "address",
          "name": "_address",
          "type": "address"
        }
      ],
      "name": "deleteAdmin",
      "outputs": [
        {
          "internalType": "bool",
          "name": "",
          "type": "bool"
        }
      ],
      "stateMutability": "nonpayable",
      "type": "function"
    },
    {
      "inputs": [
        {
          "internalType": "address",
          "name": "pubkey",
          "type": "address"
        }
      ],
      "name": "checkAdmin",
      "outputs": [
        {
          "internalType": "bool",
          "name": "",
          "type": "bool"
        }
      ],
      "stateMutability": "view",
      "type": "function",
      "constant": true
    },
    {
      "inputs": [
        {
          "internalType": "address",
          "name": "pubkey",
          "type": "address"
        }
      ],
      "name": "fetchAdmin",
      "outputs": [
        {
          "components": [
            {
              "internalType": "string",
              "name": "institution_name",
              "type": "string"
            }
          ],
          "internalType": "struct Medivault.Admin",
          "name": "",
          "type": "tuple"
        }
      ],
      "stateMutability": "view",
      "type": "function",
      "constant": true
    },
    {
      "inputs": [
        {
          "internalType": "address",
          "name": "pubkey",
          "type": "address"
        },
        {
          "internalType": "string",
          "name": "institution_name",
          "type": "string"
        }
      ],
      "name": "editAdmin",
      "outputs": [
        {
          "internalType": "bool",
          "name": "",
          "type": "bool"
        }
      ],
      "stateMutability": "nonpayable",
      "type": "function"
    },
    {
      "inputs": [
        {
          "internalType": "string",
          "name": "name",
          "type": "string"
        },
        {
          "internalType": "string",
          "name": "specialization",
          "type": "string"
        },
        {
          "internalType": "address",
          "name": "pubkey",
          "type": "address"
        }
      ],
      "name": "addDoctor",
      "outputs": [
        {
          "internalType": "bool",
          "name": "",
          "type": "bool"
        }
      ],
      "stateMutability": "nonpayable",
      "type": "function"
    },
    {
      "inputs": [
        {
          "internalType": "address",
          "name": "pubkey",
          "type": "address"
        }
      ],
      "name": "deleteDoctor",
      "outputs": [
        {
          "internalType": "bool",
          "name": "",
          "type": "bool"
        }
      ],
      "stateMutability": "nonpayable",
      "type": "function"
    },
    {
      "inputs": [],
      "name": "fetchDoctors",
      "outputs": [
        {
          "components": [
            {
              "internalType": "string",
              "name": "name",
              "type": "string"
            },
            {
              "internalType": "string",
              "name": "specialization",
              "type": "string"
            },
            {
              "internalType": "address",
              "name": "institution",
              "type": "address"
            }
          ],
          "internalType": "struct Medivault.Doctor[]",
          "name": "",
          "type": "tuple[]"
        }
      ],
      "stateMutability": "view",
      "type": "function",
      "constant": true
    },
    {
      "inputs": [],
      "name": "fetchDoctorAddresses",
      "outputs": [
        {
          "internalType": "address[]",
          "name": "",
          "type": "address[]"
        }
      ],
      "stateMutability": "view",
      "type": "function",
      "constant": true
    },
    {
      "inputs": [
        {
          "internalType": "address",
          "name": "pubkey",
          "type": "address"
        }
      ],
      "name": "checkDoctor",
      "outputs": [
        {
          "internalType": "bool",
          "name": "",
          "type": "bool"
        }
      ],
      "stateMutability": "view",
      "type": "function",
      "constant": true
    }
  ],
  "bytecode": "0x60806040523480156200001157600080fd5b506001339080600181540180825580915050600190039060005260206000200160009091909190916101000a81548173ffffffffffffffffffffffffffffffffffffffff021916908373ffffffffffffffffffffffffffffffffffffffff16021790555060405180602001604052806040518060400160405280600b81526020017f53757065722061646d696e0000000000000000000000000000000000000000008152508152506000803373ffffffffffffffffffffffffffffffffffffffff1673ffffffffffffffffffffffffffffffffffffffff1681526020019081526020016000206000820151816000019080519060200190620001159291906200011f565b5090505062000233565b8280546200012d90620001fe565b90600052602060002090601f0160209004810192826200015157600085556200019d565b82601f106200016c57805160ff19168380011785556200019d565b828001600101855582156200019d579182015b828111156200019c5782518255916020019190600101906200017f565b5b509050620001ac9190620001b0565b5090565b5b80821115620001cb576000816000905550600101620001b1565b5090565b7f4e487b7100000000000000000000000000000000000000000000000000000000600052602260045260246000fd5b600060028204905060018216806200021757607f821691505b6020821081036200022d576200022c620001cf565b5b50919050565b6129fb80620002436000396000f3fe608060405234801561001057600080fd5b50600436106101585760003560e01c80639026dee8116100c3578063ba44eecf1161007c578063ba44eecf14610473578063cbf007f3146104a3578063d15262a6146104c1578063f0eb0344146104df578063f126e2da146104fd578063f56fecef1461051957610158565b80639026dee8146103775780639569afce146103a7578063a1d658b1146103c5578063a9583c22146103f5578063ab05bae614610427578063ad25cb421461044357610158565b8063429b62e511610115578063429b62e5146102575780636001f1d114610287578063717a4091146102b757806376017e5e146102e7578063793de5f0146103175780638f2448c91461034757610158565b80630831b05f1461015d5780631bd79fc21461017957806327e1f7df146101975780632f3f6be2146101c75780633b1693b6146101f75780633ba51e7c14610227575b600080fd5b61017760048036038101906101729190611e47565b610537565b005b610181610651565b60405161018e9190612002565b60405180910390f35b6101b160048036038101906101ac9190612024565b6107fb565b6040516101be919061206c565b60405180910390f35b6101e160048036038101906101dc9190612024565b6109eb565b6040516101ee91906120b1565b60405180910390f35b610211600480360381019061020c9190612024565b610b1d565b60405161021e919061206c565b60405180910390f35b610241600480360381019061023c9190612109565b610d41565b60405161024e9190612145565b60405180910390f35b610271600480360381019061026c9190612024565b610d80565b60405161027e91906121aa565b60405180910390f35b6102a1600480360381019061029c9190612024565b610e26565b6040516102ae91906121f6565b60405180910390f35b6102d160048036038101906102cc9190612348565b610f11565b6040516102de919061206c565b60405180910390f35b61030160048036038101906102fc91906123a4565b610f74565b60405161030e919061206c565b60405180910390f35b610331600480360381019061032c9190612024565b611162565b60405161033e919061206c565b60405180910390f35b610361600480360381019061035c9190612109565b6111bc565b60405161036e9190612145565b60405180910390f35b610391600480360381019061038c9190612024565b6111fb565b60405161039e919061206c565b60405180910390f35b6103af611255565b6040516103bc91906124f7565b60405180910390f35b6103df60048036038101906103da9190612024565b6112e3565b6040516103ec919061206c565b60405180910390f35b61040f600480360381019061040a9190612024565b61133c565b60405161041e93929190612519565b60405180910390f35b610441600480360381019061043c9190612348565b611496565b005b61045d60048036038101906104589190612024565b61156a565b60405161046a91906121aa565b60405180910390f35b61048d60048036038101906104889190612109565b611610565b60405161049a9190612145565b60405180910390f35b6104ab61164f565b6040516104b89190612677565b60405180910390f35b6104c96118f9565b6040516104d69190612785565b60405180910390f35b6104e7611abb565b6040516104f491906124f7565b60405180910390f35b610517600480360381019061051291906127a7565b611b49565b005b610521611ba2565b60405161052e91906124f7565b60405180910390f35b6003819080600181540180825580915050600190039060005260206000200160009091909190916101000a81548173ffffffffffffffffffffffffffffffffffffffff021916908373ffffffffffffffffffffffffffffffffffffffff160217905550604051806020016040528084848080601f016020809104026020016040519081016040528093929190818152602001838380828437600081840152601f19601f82011690508083019250505050505050815250600260008373ffffffffffffffffffffffffffffffffffffffff1673ffffffffffffffffffffffffffffffffffffffff1681526020019081526020016000206000820151816000019080519060200190610648929190611c30565b50905050505050565b6060600060018054905067ffffffffffffffff8111156106745761067361221d565b5b6040519080825280602002602001820160405280156106a757816020015b60608152602001906001900390816106925790505b50905060005b6001805490508110156107f357600080600183815481106106d1576106d06127f0565b5b9060005260206000200160009054906101000a900473ffffffffffffffffffffffffffffffffffffffff1673ffffffffffffffffffffffffffffffffffffffff1673ffffffffffffffffffffffffffffffffffffffff16815260200190815260200160002060000180546107449061284e565b80601f01602080910402602001604051908101604052809291908181526020018280546107709061284e565b80156107bd5780601f10610792576101008083540402835291602001916107bd565b820191906000526020600020905b8154815290600101906020018083116107a057829003601f168201915b50505050508282815181106107d5576107d46127f0565b5b602002602001018190525080806107eb906128ae565b9150506106ad565b508091505090565b6000600260008373ffffffffffffffffffffffffffffffffffffffff1673ffffffffffffffffffffffffffffffffffffffff1681526020019081526020016000206000808201600061084d9190611cb6565b505060005b6003805490508110156109e0578273ffffffffffffffffffffffffffffffffffffffff166003828154811061088a576108896127f0565b5b9060005260206000200160009054906101000a900473ffffffffffffffffffffffffffffffffffffffff1673ffffffffffffffffffffffffffffffffffffffff16036109cd57600360016003805490506108e491906128f6565b815481106108f5576108f46127f0565b5b9060005260206000200160009054906101000a900473ffffffffffffffffffffffffffffffffffffffff1660038281548110610934576109336127f0565b5b9060005260206000200160006101000a81548173ffffffffffffffffffffffffffffffffffffffff021916908373ffffffffffffffffffffffffffffffffffffffff160217905550600380548061098e5761098d61292a565b5b6001900381819060005260206000200160006101000a81549073ffffffffffffffffffffffffffffffffffffffff0219169055905560019150506109e6565b80806109d8906128ae565b915050610852565b50600090505b919050565b6109f3611cf6565b6109fc336112e3565b610a3b576040517f08c379a0000000000000000000000000000000000000000000000000000000008152600401610a32906129a5565b60405180910390fd5b6000808373ffffffffffffffffffffffffffffffffffffffff1673ffffffffffffffffffffffffffffffffffffffff168152602001908152602001600020604051806020016040529081600082018054610a949061284e565b80601f0160208091040260200160405190810160405280929190818152602001828054610ac09061284e565b8015610b0d5780601f10610ae257610100808354040283529160200191610b0d565b820191906000526020600020905b815481529060010190602001808311610af057829003601f168201915b5050505050815250509050919050565b600080600090505b600580549050811015610cae578273ffffffffffffffffffffffffffffffffffffffff1660058281548110610b5d57610b5c6127f0565b5b9060005260206000200160009054906101000a900473ffffffffffffffffffffffffffffffffffffffff1673ffffffffffffffffffffffffffffffffffffffff1603610c9b5760056001600580549050610bb791906128f6565b81548110610bc857610bc76127f0565b5b9060005260206000200160009054906101000a900473ffffffffffffffffffffffffffffffffffffffff1660058281548110610c0757610c066127f0565b5b9060005260206000200160006101000a81548173ffffffffffffffffffffffffffffffffffffffff021916908373ffffffffffffffffffffffffffffffffffffffff1602179055506005805480610c6157610c6061292a565b5b6001900381819060005260206000200160006101000a81549073ffffffffffffffffffffffffffffffffffffffff02191690559055610cae565b8080610ca6906128ae565b915050610b25565b50600460008373ffffffffffffffffffffffffffffffffffffffff1673ffffffffffffffffffffffffffffffffffffffff16815260200190815260200160002060008082016000610cff9190611cb6565b600182016000610d0f9190611cb6565b6002820160006101000a81549073ffffffffffffffffffffffffffffffffffffffff0219169055505060019050919050565b60058181548110610d5157600080fd5b906000526020600020016000915054906101000a900473ffffffffffffffffffffffffffffffffffffffff1681565b6002602052806000526040600020600091509050806000018054610da39061284e565b80601f0160208091040260200160405190810160405280929190818152602001828054610dcf9061284e565b8015610e1c5780601f10610df157610100808354040283529160200191610e1c565b820191906000526020600020905b815481529060010190602001808311610dff57829003601f168201915b5050505050905081565b610e2e611d09565b600260008373ffffffffffffffffffffffffffffffffffffffff1673ffffffffffffffffffffffffffffffffffffffff168152602001908152602001600020604051806020016040529081600082018054610e889061284e565b80601f0160208091040260200160405190810160405280929190818152602001828054610eb49061284e565b8015610f015780601f10610ed657610100808354040283529160200191610f01565b820191906000526020600020905b815481529060010190602001808311610ee457829003601f168201915b5050505050815250509050919050565b600081600260008573ffffffffffffffffffffffffffffffffffffffff1673ffffffffffffffffffffffffffffffffffffffff1681526020019081526020016000206000019080519060200190610f69929190611c30565b506001905092915050565b6000604051806060016040528087878080601f016020809104026020016040519081016040528093929190818152602001838380828437600081840152601f19601f82011690508083019250505050505050815260200185858080601f016020809104026020016040519081016040528093929190818152602001838380828437600081840152601f19601f8201169050808301925050505050505081526020013373ffffffffffffffffffffffffffffffffffffffff16815250600460008473ffffffffffffffffffffffffffffffffffffffff1673ffffffffffffffffffffffffffffffffffffffff168152602001908152602001600020600082015181600001908051906020019061108a929190611c30565b5060208201518160010190805190602001906110a7929190611c30565b5060408201518160020160006101000a81548173ffffffffffffffffffffffffffffffffffffffff021916908373ffffffffffffffffffffffffffffffffffffffff1602179055509050506005829080600181540180825580915050600190039060005260206000200160009091909190916101000a81548173ffffffffffffffffffffffffffffffffffffffff021916908373ffffffffffffffffffffffffffffffffffffffff1602179055506001905095945050505050565b600080600460008473ffffffffffffffffffffffffffffffffffffffff1673ffffffffffffffffffffffffffffffffffffffff16815260200190815260200160002060000180546111b29061284e565b9050119050919050565b600181815481106111cc57600080fd5b906000526020600020016000915054906101000a900473ffffffffffffffffffffffffffffffffffffffff1681565b600080600260008473ffffffffffffffffffffffffffffffffffffffff1673ffffffffffffffffffffffffffffffffffffffff168152602001908152602001600020600001805461124b9061284e565b9050119050919050565b606060058054806020026020016040519081016040528092919081815260200182805480156112d957602002820191906000526020600020905b8160009054906101000a900473ffffffffffffffffffffffffffffffffffffffff1673ffffffffffffffffffffffffffffffffffffffff168152602001906001019080831161128f575b5050505050905090565b6000806000808473ffffffffffffffffffffffffffffffffffffffff1673ffffffffffffffffffffffffffffffffffffffff16815260200190815260200160002060000180546113329061284e565b9050119050919050565b600460205280600052604060002060009150905080600001805461135f9061284e565b80601f016020809104026020016040519081016040528092919081815260200182805461138b9061284e565b80156113d85780601f106113ad576101008083540402835291602001916113d8565b820191906000526020600020905b8154815290600101906020018083116113bb57829003601f168201915b5050505050908060010180546113ed9061284e565b80601f01602080910402602001604051908101604052809291908181526020018280546114199061284e565b80156114665780601f1061143b57610100808354040283529160200191611466565b820191906000526020600020905b81548152906001019060200180831161144957829003601f168201915b5050505050908060020160009054906101000a900473ffffffffffffffffffffffffffffffffffffffff16905083565b6040518060200160405280828152506000808473ffffffffffffffffffffffffffffffffffffffff1673ffffffffffffffffffffffffffffffffffffffff16815260200190815260200160002060008201518160000190805190602001906114ff929190611c30565b509050506001829080600181540180825580915050600190039060005260206000200160009091909190916101000a81548173ffffffffffffffffffffffffffffffffffffffff021916908373ffffffffffffffffffffffffffffffffffffffff1602179055505050565b600060205280600052604060002060009150905080600001805461158d9061284e565b80601f01602080910402602001604051908101604052809291908181526020018280546115b99061284e565b80156116065780601f106115db57610100808354040283529160200191611606565b820191906000526020600020905b8154815290600101906020018083116115e957829003601f168201915b5050505050905081565b6003818154811061162057600080fd5b906000526020600020016000915054906101000a900473ffffffffffffffffffffffffffffffffffffffff1681565b6060600060058054905067ffffffffffffffff8111156116725761167161221d565b5b6040519080825280602002602001820160405280156116ab57816020015b611698611d1c565b8152602001906001900390816116905790505b50905060005b6005805490508110156118f15760046000600583815481106116d6576116d56127f0565b5b9060005260206000200160009054906101000a900473ffffffffffffffffffffffffffffffffffffffff1673ffffffffffffffffffffffffffffffffffffffff1673ffffffffffffffffffffffffffffffffffffffff1681526020019081526020016000206040518060600160405290816000820180546117569061284e565b80601f01602080910402602001604051908101604052809291908181526020018280546117829061284e565b80156117cf5780601f106117a4576101008083540402835291602001916117cf565b820191906000526020600020905b8154815290600101906020018083116117b257829003601f168201915b505050505081526020016001820180546117e89061284e565b80601f01602080910402602001604051908101604052809291908181526020018280546118149061284e565b80156118615780601f1061183657610100808354040283529160200191611861565b820191906000526020600020905b81548152906001019060200180831161184457829003601f168201915b505050505081526020016002820160009054906101000a900473ffffffffffffffffffffffffffffffffffffffff1673ffffffffffffffffffffffffffffffffffffffff1673ffffffffffffffffffffffffffffffffffffffff16815250508282815181106118d3576118d26127f0565b5b602002602001018190525080806118e9906128ae565b9150506116b1565b508091505090565b6060600060038054905067ffffffffffffffff81111561191c5761191b61221d565b5b60405190808252806020026020018201604052801561195557816020015b611942611d09565b81526020019060019003908161193a5790505b50905060005b600380549050811015611ab35760026000600383815481106119805761197f6127f0565b5b9060005260206000200160009054906101000a900473ffffffffffffffffffffffffffffffffffffffff1673ffffffffffffffffffffffffffffffffffffffff1673ffffffffffffffffffffffffffffffffffffffff168152602001908152602001600020604051806020016040529081600082018054611a009061284e565b80601f0160208091040260200160405190810160405280929190818152602001828054611a2c9061284e565b8015611a795780601f10611a4e57610100808354040283529160200191611a79565b820191906000526020600020905b815481529060010190602001808311611a5c57829003601f168201915b505050505081525050828281518110611a9557611a946127f0565b5b60200260200101819052508080611aab906128ae565b91505061195b565b508091505090565b60606003805480602002602001604051908101604052809291908181526020018280548015611b3f57602002820191906000526020600020905b8160009054906101000a900473ffffffffffffffffffffffffffffffffffffffff1673ffffffffffffffffffffffffffffffffffffffff1681526020019060010190808311611af5575b5050505050905090565b806000803373ffffffffffffffffffffffffffffffffffffffff1673ffffffffffffffffffffffffffffffffffffffff1681526020019081526020016000206000019080519060200190611b9e929190611c30565b5050565b60606001805480602002602001604051908101604052809291908181526020018280548015611c2657602002820191906000526020600020905b8160009054906101000a900473ffffffffffffffffffffffffffffffffffffffff1673ffffffffffffffffffffffffffffffffffffffff1681526020019060010190808311611bdc575b5050505050905090565b828054611c3c9061284e565b90600052602060002090601f016020900481019282611c5e5760008555611ca5565b82601f10611c7757805160ff1916838001178555611ca5565b82800160010185558215611ca5579182015b82811115611ca4578251825591602001919060010190611c89565b5b509050611cb29190611d53565b5090565b508054611cc29061284e565b6000825580601f10611cd45750611cf3565b601f016020900490600052602060002090810190611cf29190611d53565b5b50565b6040518060200160405280606081525090565b6040518060200160405280606081525090565b60405180606001604052806060815260200160608152602001600073ffffffffffffffffffffffffffffffffffffffff1681525090565b5b80821115611d6c576000816000905550600101611d54565b5090565b6000604051905090565b600080fd5b600080fd5b600080fd5b600080fd5b600080fd5b60008083601f840112611da957611da8611d84565b5b8235905067ffffffffffffffff811115611dc657611dc5611d89565b5b602083019150836001820283011115611de257611de1611d8e565b5b9250929050565b600073ffffffffffffffffffffffffffffffffffffffff82169050919050565b6000611e1482611de9565b9050919050565b611e2481611e09565b8114611e2f57600080fd5b50565b600081359050611e4181611e1b565b92915050565b600080600060408486031215611e6057611e5f611d7a565b5b600084013567ffffffffffffffff811115611e7e57611e7d611d7f565b5b611e8a86828701611d93565b93509350506020611e9d86828701611e32565b9150509250925092565b600081519050919050565b600082825260208201905092915050565b6000819050602082019050919050565b600081519050919050565b600082825260208201905092915050565b60005b83811015611f0d578082015181840152602081019050611ef2565b83811115611f1c576000848401525b50505050565b6000601f19601f8301169050919050565b6000611f3e82611ed3565b611f488185611ede565b9350611f58818560208601611eef565b611f6181611f22565b840191505092915050565b6000611f788383611f33565b905092915050565b6000602082019050919050565b6000611f9882611ea7565b611fa28185611eb2565b935083602082028501611fb485611ec3565b8060005b85811015611ff05784840389528151611fd18582611f6c565b9450611fdc83611f80565b925060208a01995050600181019050611fb8565b50829750879550505050505092915050565b6000602082019050818103600083015261201c8184611f8d565b905092915050565b60006020828403121561203a57612039611d7a565b5b600061204884828501611e32565b91505092915050565b60008115159050919050565b61206681612051565b82525050565b6000602082019050612081600083018461205d565b92915050565b600060208301600083015184820360008601526120a48282611f33565b9150508091505092915050565b600060208201905081810360008301526120cb8184612087565b905092915050565b6000819050919050565b6120e6816120d3565b81146120f157600080fd5b50565b600081359050612103816120dd565b92915050565b60006020828403121561211f5761211e611d7a565b5b600061212d848285016120f4565b91505092915050565b61213f81611e09565b82525050565b600060208201905061215a6000830184612136565b92915050565b600082825260208201905092915050565b600061217c82611ed3565b6121868185612160565b9350612196818560208601611eef565b61219f81611f22565b840191505092915050565b600060208201905081810360008301526121c48184612171565b905092915050565b600060208301600083015184820360008601526121e98282611f33565b9150508091505092915050565b6000602082019050818103600083015261221081846121cc565b905092915050565b600080fd5b7f4e487b7100000000000000000000000000000000000000000000000000000000600052604160045260246000fd5b61225582611f22565b810181811067ffffffffffffffff821117156122745761227361221d565b5b80604052505050565b6000612287611d70565b9050612293828261224c565b919050565b600067ffffffffffffffff8211156122b3576122b261221d565b5b6122bc82611f22565b9050602081019050919050565b82818337600083830152505050565b60006122eb6122e684612298565b61227d565b90508281526020810184848401111561230757612306612218565b5b6123128482856122c9565b509392505050565b600082601f83011261232f5761232e611d84565b5b813561233f8482602086016122d8565b91505092915050565b6000806040838503121561235f5761235e611d7a565b5b600061236d85828601611e32565b925050602083013567ffffffffffffffff81111561238e5761238d611d7f565b5b61239a8582860161231a565b9150509250929050565b6000806000806000606086880312156123c0576123bf611d7a565b5b600086013567ffffffffffffffff8111156123de576123dd611d7f565b5b6123ea88828901611d93565b9550955050602086013567ffffffffffffffff81111561240d5761240c611d7f565b5b61241988828901611d93565b9350935050604061242c88828901611e32565b9150509295509295909350565b600081519050919050565b600082825260208201905092915050565b6000819050602082019050919050565b61246e81611e09565b82525050565b60006124808383612465565b60208301905092915050565b6000602082019050919050565b60006124a482612439565b6124ae8185612444565b93506124b983612455565b8060005b838110156124ea5781516124d18882612474565b97506124dc8361248c565b9250506001810190506124bd565b5085935050505092915050565b600060208201905081810360008301526125118184612499565b905092915050565b600060608201905081810360008301526125338186612171565b905081810360208301526125478185612171565b90506125566040830184612136565b949350505050565b600081519050919050565b600082825260208201905092915050565b6000819050602082019050919050565b600060608301600083015184820360008601526125a78282611f33565b915050602083015184820360208601526125c18282611f33565b91505060408301516125d66040860182612465565b508091505092915050565b60006125ed838361258a565b905092915050565b6000602082019050919050565b600061260d8261255e565b6126178185612569565b9350836020820285016126298561257a565b8060005b85811015612665578484038952815161264685826125e1565b9450612651836125f5565b925060208a0199505060018101905061262d565b50829750879550505050505092915050565b600060208201905081810360008301526126918184612602565b905092915050565b600081519050919050565b600082825260208201905092915050565b6000819050602082019050919050565b600060208301600083015184820360008601526126e28282611f33565b9150508091505092915050565b60006126fb83836126c5565b905092915050565b6000602082019050919050565b600061271b82612699565b61272581856126a4565b935083602082028501612737856126b5565b8060005b85811015612773578484038952815161275485826126ef565b945061275f83612703565b925060208a0199505060018101905061273b565b50829750879550505050505092915050565b6000602082019050818103600083015261279f8184612710565b905092915050565b6000602082840312156127bd576127bc611d7a565b5b600082013567ffffffffffffffff8111156127db576127da611d7f565b5b6127e78482850161231a565b91505092915050565b7f4e487b7100000000000000000000000000000000000000000000000000000000600052603260045260246000fd5b7f4e487b7100000000000000000000000000000000000000000000000000000000600052602260045260246000fd5b6000600282049050600182168061286657607f821691505b6020821081036128795761287861281f565b5b50919050565b7f4e487b7100000000000000000000000000000000000000000000000000000000600052601160045260246000fd5b60006128b9826120d3565b91507fffffffffffffffffffffffffffffffffffffffffffffffffffffffffffffffff82036128eb576128ea61287f565b5b600182019050919050565b6000612901826120d3565b915061290c836120d3565b92508282101561291f5761291e61287f565b5b828203905092915050565b7f4e487b7100000000000000000000000000000000000000000000000000000000600052603160045260246000fd5b7f53656e646572206973206e6f7420612073757065722061646d696e0000000000600082015250565b600061298f601b83612160565b915061299a82612959565b602082019050919050565b600060208201905081810360008301526129be81612982565b905091905056fea2646970667358221220ef95ae41334431e3585f8720d6b93caffcf1ec8cc507e21221633d0ea92403cd64736f6c634300080d0033",
  "immutableReferences": {},
  "source": "// SPDX-License-Identifier: MIT\r\npragma solidity >=0.4.22 <0.9.0;\r\n\r\ncontract Medivault {\r\n    // function to check if an address is an admin or patient or doctor or super admin\r\n\r\n    // structure of super admin\r\n    struct SuperAdmin {\r\n        string name;\r\n    }\r\n    mapping(address => SuperAdmin) public superAdmins;\r\n    address[] public superAdminAddresses;\r\n\r\n    constructor() {\r\n        superAdminAddresses.push(msg.sender);\r\n        superAdmins[msg.sender] = SuperAdmin({name: \"Super admin\"});\r\n    }\r\n\r\n    function checkSuperAdmin(address pubkey) public view returns (bool) {\r\n        return bytes(superAdmins[pubkey].name).length > 0;\r\n    }\r\n\r\n    function editSuperAdmin(string memory name) public {\r\n        superAdmins[msg.sender].name = name;\r\n    }\r\n\r\n    function addSuperAdmin(address _address, string memory _name) public {\r\n        superAdmins[_address] = SuperAdmin(_name);\r\n        superAdminAddresses.push(_address);\r\n    }\r\n\r\n    function getAllSuperAdmins() public view returns (address[] memory) {\r\n        return superAdminAddresses;\r\n    }\r\n\r\n    function fetchNames() public view returns (string[] memory) {\r\n        string[] memory names = new string[](superAdminAddresses.length);\r\n        for (uint256 i = 0; i < superAdminAddresses.length; i++) {\r\n            names[i] = superAdmins[superAdminAddresses[i]].name;\r\n        }\r\n        return names;\r\n    }\r\n\r\n    function fetchSuperadmin(\r\n        address _address\r\n    ) public view returns (SuperAdmin memory) {\r\n        require(checkSuperAdmin(msg.sender), \"Sender is not a super admin\");\r\n        return superAdmins[_address];\r\n    }\r\n\r\n    function addAdmin(\r\n        string calldata institution_name,\r\n        address _address\r\n    ) public {\r\n        adminAddresses.push(_address);\r\n        admins[_address] = Admin({institution_name: institution_name});\r\n    }\r\n\r\n    function fetchAdminsAddresses() public view returns (address[] memory) {\r\n        return adminAddresses;\r\n    }\r\n\r\n    function fetchAdmins() public view returns (Admin[] memory) {\r\n        Admin[] memory _admins = new Admin[](adminAddresses.length);\r\n        for (uint256 i = 0; i < adminAddresses.length; i++) {\r\n            _admins[i] = admins[adminAddresses[i]];\r\n        }\r\n        return _admins;\r\n    }\r\n\r\n    function deleteAdmin(address _address) public returns (bool) {\r\n        delete admins[_address];\r\n        // search for the _address in the adminAddresses array and delete it\r\n        for (uint256 i = 0; i < adminAddresses.length; i++) {\r\n            if (adminAddresses[i] == _address) {\r\n                adminAddresses[i] = adminAddresses[adminAddresses.length - 1];\r\n                adminAddresses.pop(); // remove the last element\r\n                return true; // exit the function after successful deletion\r\n            }\r\n        }\r\n        return false; // return false if admin doesn't exist or sender is not a super admin\r\n    }\r\n\r\n    // -----------------------------------------------------------------------------------------\r\n\r\n    // Admin structure\r\n    struct Admin {\r\n        string institution_name;\r\n    }\r\n    mapping(address => Admin) public admins;\r\n    address[] public adminAddresses;\r\n\r\n    // admin functions\r\n    // function to check if an address is an admin\r\n    function checkAdmin(address pubkey) public view returns (bool) {\r\n        return bytes(admins[pubkey].institution_name).length > 0;\r\n    }\r\n\r\n    function fetchAdmin(address pubkey) public view returns (Admin memory) {\r\n        return admins[pubkey];\r\n    }\r\n\r\n    function editAdmin(\r\n        address pubkey,\r\n        string memory institution_name\r\n    ) public  returns (bool) {\r\n        admins[pubkey].institution_name = institution_name;\r\n        return true;\r\n    }\r\n\r\n    function addDoctor(\r\n        string calldata name,\r\n        string calldata specialization,\r\n        address pubkey\r\n    ) public returns (bool) {\r\n        doctors[pubkey] = Doctor({\r\n            name: name,\r\n            specialization: specialization,\r\n            institution : msg.sender\r\n        });\r\n        doctorAddresses.push(pubkey);\r\n        return true;\r\n    }\r\n\r\n    function deleteDoctor(address pubkey) public returns (bool) {\r\n        // delete the address in the doctorAddresses array \r\n        for (uint256 i = 0; i < doctorAddresses.length; i++) {\r\n            if (doctorAddresses[i] == pubkey) {\r\n                doctorAddresses[i] = doctorAddresses[doctorAddresses.length - 1];\r\n                doctorAddresses.pop();\r\n                break;\r\n            }\r\n        }\r\n        // delete main doctor structure\r\n        delete doctors[pubkey];\r\n        return true;\r\n    }\r\n\r\n    function fetchDoctors() public view returns (Doctor[] memory) {\r\n        Doctor[] memory _doctors = new Doctor[](doctorAddresses.length);\r\n        for (uint256 i = 0; i < doctorAddresses.length; i++) {\r\n            _doctors[i] = doctors[doctorAddresses[i]];\r\n        }\r\n        return _doctors;\r\n    }\r\n\r\n    function fetchDoctorAddresses() public view returns (address[] memory) {\r\n        return doctorAddresses;\r\n    }\r\n\r\n    // -----------------------------------------------------------------------------------------\r\n\r\n    // doctor structure\r\n    struct Doctor {\r\n        string name;\r\n        string specialization;\r\n        // string contact;\r\n        address institution;\r\n    }\r\n    mapping(address => Doctor) public doctors;\r\n    address[] public doctorAddresses;\r\n\r\n    // doctor functions\r\n    // function to check if an address is a doctor\r\n    function checkDoctor(address pubkey) public view returns (bool) {\r\n        return bytes(doctors[pubkey].name).length > 0;\r\n    }\r\n\r\n    // manually adding super admin for testing purposes\r\n    // functions of super admin\r\n    // function to check if an address is a super admin\r\n\r\n    // // // function to add a super admin\r\n    // // function addSuperAdmin(address pubkey, string calldata name) public {\r\n    // //     require(\r\n    // //         checkSuperAdmin(msg.sender) == true,\r\n    // //         \"You are not a super admin\"\r\n    // //     );\r\n    // //     require(checkSuperAdmin(pubkey) == false, \"Super admin already exists\");\r\n    // //     superAdmins[pubkey] = SuperAdmin({name: name});\r\n    // // }\r\n\r\n    // // function to add a admin\r\n    // function addAdmin(\r\n    //     string calldata institution_name,\r\n    //     string calldata institution_addr,\r\n    //     string calldata institution_contact,\r\n    //     address pubkey\r\n    // ) public {\r\n    //     require(\r\n    //         checkSuperAdmin(msg.sender) == true,\r\n    //         \"You are not a allowed to add an admin\"\r\n    //     );\r\n    //     require(checkAdmin(pubkey) == false, \"Admin already exists\");\r\n    //     admins[pubkey] = Admin({\r\n    //         institution_name: institution_name,\r\n    //         institution_addr: institution_addr,\r\n    //         institution_contact: institution_contact\r\n    //     });\r\n    // }\r\n\r\n    // // function to edit an admin\r\n    // function editAdmin(\r\n    //     string calldata institution_name,\r\n    //     string calldata institution_addr,\r\n    //     string calldata institution_contact,\r\n    //     address pubkey\r\n    // ) public {\r\n    //     require(\r\n    //         checkSuperAdmin(msg.sender) == true,\r\n    //         \"You are not a allowed to edit an admin\"\r\n    //     );\r\n    //     require(checkAdmin(pubkey) == true, \"Admin does not exist\");\r\n    //     admins[pubkey] = Admin({\r\n    //         institution_name: institution_name,\r\n    //         institution_addr: institution_addr,\r\n    //         institution_contact: institution_contact\r\n    //     });\r\n    // }\r\n\r\n    // // -------------------------------------------------------------------------------------------\r\n}\r\n\r\n// contract Medivault {\r\n//\r\n\r\n//     // function to delete an admin\r\n//     function deleteAdmin(address pubkey) public {\r\n//         require(\r\n//             checkSuperAdmin(msg.sender) == true,\r\n//             \"You are not a allowed to delete an admin\"\r\n//         );\r\n//         require(checkAdmin(pubkey) == true, \"Admin does not exist\");\r\n//         delete admins[pubkey];\r\n//     }\r\n\r\n//     // function to fetch a single admin\r\n//     function getAdmin(address pubkey) public view returns (Admin memory) {\r\n//         require(\r\n//             checkSuperAdmin(msg.sender) == true,\r\n//             \"You are not a allowed to fetch an admin\"\r\n//         );\r\n//         require(checkAdmin(pubkey) == true, \"Admin does not exist\");\r\n//         return admins[pubkey];\r\n//     }\r\n\r\n//     // function to fetch all admins\r\n//     // function getAdmins() public view returns (Admin[] memory) {\r\n//     //     require(\r\n//     //         checkSuperAdmin(msg.sender) == true,\r\n//     //         \"You are not a allowed to perform this opertation\"\r\n//     //     );q\r\n//     //     return admins;\r\n//     // }\r\n\r\n//     // -------------------------------------------------------------------------------------------\r\n\r\n//     // Admin structure\r\n//     struct Admin {\r\n//         string institution_name;\r\n//         string institution_addr;\r\n//         string institution_contact;\r\n//     }\r\n//     mapping(address => Admin) public admins;\r\n\r\n//     // admin functions\r\n//     // function to check if an address is an admin\r\n//     function checkAdmin(address pubkey) public view returns (bool) {\r\n//         return bytes(admins[pubkey].institution_name).length > 0;\r\n//     }\r\n\r\n//     // function to add a doctor\r\n//     function addDoctor(\r\n//         string calldata name,\r\n//         string calldata specialization,\r\n//         string calldata contact,\r\n//         address pubkey\r\n//     ) public {\r\n//         require(checkAdmin(msg.sender) == true, \"You are not an admin\");\r\n//         require(checkDoctor(pubkey) == false, \"Doctor already exists\");\r\n//         require(bytes(name).length > 0, \"Name cannot be empty\");\r\n//         require(\r\n//             bytes(specialization).length > 0,\r\n//             \"Specialization cannot be empty\"\r\n//         );\r\n//         require(bytes(contact).length > 0, \"Contact cannot be empty\");\r\n//         doctors[pubkey] = Doctor({\r\n//             name: name,\r\n//             specialization: specialization,\r\n//             contact: contact,\r\n//             institution_name: msg.sender\r\n//         });\r\n//     }\r\n\r\n//     // function to edit a doctor\r\n//     function editDoctor(\r\n//         string calldata name,\r\n//         string calldata specialization,\r\n//         string calldata contact,\r\n//         address pubkey\r\n//     ) public {\r\n//         require(checkAdmin(msg.sender) == true, \"You are not an admin\");\r\n//         require(checkDoctor(pubkey) == true, \"Doctor does not exist\");\r\n//         require(\r\n//             msg.sender != doctors[pubkey].institution_name,\r\n//             \"You do not have the permission to edit this doctor\"\r\n//         );\r\n//         require(bytes(name).length > 0, \"Name cannot be empty\");\r\n//         require(\r\n//             bytes(specialization).length > 0,\r\n//             \"Specialization cannot be empty\"\r\n//         );\r\n//         require(bytes(contact).length > 0, \"Contact cannot be empty\");\r\n//         doctors[pubkey] = Doctor({\r\n//             name: name,\r\n//             specialization: specialization,\r\n//             contact: contact,\r\n//             institution_name: msg.sender\r\n//         });\r\n//     }\r\n\r\n//     // function  to delete a doctor\r\n//     function deleteDoctor(address pubkey) public {\r\n//         require(checkAdmin(msg.sender) == true, \"You are not an admin\");\r\n//         require(checkDoctor(pubkey) == true, \"Doctor does not exist\");\r\n//         require(\r\n//             keccak256(abi.encodePacked(msg.sender))!= keccak256(abi.encodePacked(admins[pubkey].institution_name)),\r\n//             \"You do not have the permission to delete this doctor\"\r\n//         );\r\n//         delete doctors[pubkey];\r\n//     }\r\n\r\n//     // function to fetch a single doctor under the admin\r\n//     function getDoctor(address pubkey) public view returns (Doctor memory) {\r\n//         require(checkAdmin(msg.sender) == true, \"You are not an admin\");\r\n//         require(checkDoctor(pubkey) == true, \"Doctor does not exist\");\r\n//         require(\r\n//             msg.sender == doctors[pubkey].institution_name,\r\n//             \"You do not have the permission to fetch this doctor\"\r\n//         );\r\n//         return doctors[pubkey];\r\n//     }\r\n\r\n//     // function to fetch a all doctors under the admin's instiution name\r\n//     // function getDoctors() public view returns (Doctor[] memory) {\r\n//     //     require(checkAdmin(msg.sender), \"You are not an admin\");\r\n//     //     Doctor[] memory _doctors;\r\n//     //     for (uint256 i = 0; i < doctors.length; i++) {\r\n//     //         address pubkey = doctors[i];\r\n//     //         // Check if the admin associated with the doctor's address matches the caller's institution\r\n//     //         if (\r\n//     //             keccak256(abi.encodePacked(admins[pubkey])) ==\r\n//     //             keccak256(abi.encodePacked(admins[msg.sender]))\r\n//     //         ) {\r\n//     //             // Add the doctor to the array\r\n//     //             _doctors.push(doctors[pubkey]);\r\n//     //         }\r\n//     //     }\r\n//     //     return _doctors;\r\n//     // }\r\n\r\n//     // -------------------------------------------------------------------------------------------\r\n\r\n//     // Doctor structure\r\n//     struct Doctor {\r\n//         string name;\r\n//         string specialization;\r\n//         string contact;\r\n//         address institution_name;\r\n//     }\r\n//     mapping(address => Doctor) public doctors;\r\n\r\n//     // doctor functions\r\n//     // function to check if an address is a doctor\r\n//     function checkDoctor(address pubkey) public view returns (bool) {\r\n//         return bytes(doctors[pubkey].name).length > 0;\r\n//     }\r\n\r\n//     // function to add a patient\r\n//     function addPatient(\r\n//         string calldata name,\r\n//         uint256 age,\r\n//         string calldata gender,\r\n//         string calldata addr,\r\n//         string calldata contact,\r\n//         address pubkey\r\n//     ) public {\r\n//         require(checkDoctor(msg.sender) == true, \"Doctor does not exist\");\r\n//         require(bytes(name).length > 0, \"Name cannot be empty\");\r\n//         require(age > 0, \"Age cannot be zero\");\r\n//         require(bytes(gender).length > 0, \"Gender cannot be empty\");\r\n//         require(bytes(addr).length > 0, \"Address cannot be empty\");\r\n//         require(bytes(contact).length > 0, \"Contact cannot be empty\");\r\n//         address[] calldata nominees;\r\n//         nominees.push();\r\n//         patients[pubkey] = Patient({\r\n//             name: name,\r\n//             age: age,\r\n//             gender: gender,\r\n//             addr: addr,\r\n//             contact: contact,\r\n//             nominees : nominees\r\n//         });\r\n//     }\r\n\r\n//     // function to fetch a patient\r\n//     function getPatient(address pubkey) public view returns (Patient memory) {\r\n//         require(checkDoctor(msg.sender) == true, \"Doctor does not exist\");\r\n//         require(checkPatient(pubkey) == true, \"Patient does not exist\");\r\n//         return patients[pubkey];\r\n//     }\r\n\r\n//     // function to check read access for a record\r\n//     function checkReadAccess(bytes32 record_hash) public view returns (bool) {\r\n//         require(checkDoctor(msg.sender), \"Doctor does not exist\");\r\n//         require(checkRecord(record_hash), \"Record does not exist\");\r\n\r\n//         if (records[record_hash].read_allowed_doctors.length > 0) {\r\n//             // Iterate over the read allowed doctors array\r\n//             for (\r\n//                 uint256 i = 0;\r\n//                 i < records[record_hash].read_allowed_doctors.length;\r\n//                 i++\r\n//             ) {\r\n//                 // Check if the current doctor address matches the sender's address\r\n//                 if (\r\n//                     records[record_hash].read_allowed_doctors[i] == msg.sender\r\n//                 ) {\r\n//                     return true;\r\n//                 }\r\n//             }\r\n//         }\r\n\r\n//         return false;\r\n//     }\r\n\r\n//     // function to check write access for a record\r\n//     function checkWriteAccess(bytes32 record_hash) public view returns (bool) {\r\n//         require(checkDoctor(msg.sender), \"Doctor does not exist\");\r\n//         require(checkRecord(record_hash), \"Record does not exist\");\r\n\r\n//         if (records[record_hash].write_allowed_doctors.length > 0) {\r\n//             // Iterate over the write allowed doctors array\r\n//             for (\r\n//                 uint256 i = 0;\r\n//                 i < records[record_hash].write_allowed_doctors.length;\r\n//                 i++\r\n//             ) {\r\n//                 // Check if the current doctor address matches the sender's address\r\n//                 if (\r\n//                     records[record_hash].write_allowed_doctors[i] == msg.sender\r\n//                 ) {\r\n//                     return true;\r\n//                 }\r\n//             }\r\n//         }\r\n\r\n//         return false;\r\n//     }\r\n\r\n//     // function to add a record\r\n//     function addRecord(\r\n//         bytes32 record_hash,\r\n//         address doctor,\r\n//         address patient,\r\n//         string calldata record_title,\r\n//         string calldata record_desc,\r\n//         string calldata record_data\r\n//     ) public {\r\n//         require(checkDoctor(msg.sender) == true, \"Doctor does not exist\");\r\n//         require(checkPatient(patient) == true, \"Patient does not exist\");\r\n//         require(checkRecord(record_hash) == false, \"Record already exists\");\r\n//         address[] memory read_allowed_doctors = [];\r\n//         read_allowed_doctors.push(msg.sender);\r\n//         address[] memory write_allowed_doctors = [];\r\n//         write_allowed_doctors.push(msg.sender);\r\n//         records[record_hash] = Record({\r\n//             doctor: doctor,\r\n//             patient: patient,\r\n//             read_allowed_doctors: read_allowed_doctors,\r\n//             write_allowed_doctors: write_allowed_doctors,\r\n//             record_title: record_title,\r\n//             record_desc: record_desc,\r\n//             record_data: record_data\r\n//         });\r\n//     }\r\n\r\n//     // function to fetch a record\r\n//     function getRecord(bytes32 record_hash)\r\n//         public\r\n//         view\r\n//         returns (Record memory)\r\n//     {\r\n//         require(checkDoctor(msg.sender) == true, \"Doctor does not exist\");\r\n//         require(checkRecord(record_hash) == true, \"Record does not exist\");\r\n//         require(\r\n//             checkReadAccess(record_hash) == true,\r\n//             \"You do not have access to read this record\"\r\n//         );\r\n//         return records[record_hash];\r\n//     }\r\n\r\n//     // function to edit a record\r\n//     function editRecord(\r\n//         bytes32 record_hash,\r\n//         string calldata record_title,\r\n//         string calldata record_desc,\r\n//         string calldata record_data\r\n//     ) public {\r\n//         require(checkDoctor(msg.sender) == true, \"Doctor does not exist\");\r\n//         require(checkRecord(record_hash) == true, \"Record does not exist\");\r\n//         require(\r\n//             checkWriteAccess(record_hash) == true,\r\n//             \"You do not have access to write this record\"\r\n//         );\r\n//         records[record_hash].record_title = record_title;\r\n//         records[record_hash].record_desc = record_desc;\r\n//         records[record_hash].record_data = record_data;\r\n//     }\r\n\r\n//     // -------------------------------------------------------------------------------------------\r\n\r\n//     // patient structure\r\n//     struct Patient {\r\n//         string name;\r\n//         uint256 age;\r\n//         string gender;\r\n//         string addr;\r\n//         string contact;\r\n//         address[] nominees;\r\n//     }\r\n//     mapping(address => Patient) public patients;\r\n\r\n//     // patient functions\r\n//     // function to check if an address is a patient\r\n//     function checkPatient(address pubkey) public view returns (bool) {\r\n//         return bytes(patients[pubkey].name).length > 0;\r\n//     }\r\n\r\n//     // functio to edit patient\r\n//     function editPatient(\r\n//         string calldata name,\r\n//         uint256 age,\r\n//         string calldata gender,\r\n//         string calldata addr,\r\n//         string calldata contact\r\n//     ) public {\r\n//         require(checkPatient(msg.sender) == true, \"Patient does not exist\");\r\n//         patients[msg.sender].name = name;\r\n//         patients[msg.sender].age = age;\r\n//         patients[msg.sender].gender = gender;\r\n//         patients[msg.sender].addr = addr;\r\n//         patients[msg.sender].contact = contact;\r\n//     }\r\n\r\n//     // function to fetch patient records\r\n//     function fetchRecords() public view returns (Record[] memory) {\r\n//         require(checkPatient(msg.sender) == true, \"Patient does not exist\");\r\n//         Record[] memory _records = [];\r\n//         uint256 count = 0;\r\n//         for (uint256 i = 0; i < records.length; i++) {\r\n//             if (records[i].patient == msg.sender) {\r\n//                 _records[count] = records[i];\r\n//                 count++;\r\n//             }\r\n//         }\r\n//         return _records;\r\n//     }\r\n\r\n//     // fetch a single record\r\n//     function fetchRecord(bytes32 record_hash)\r\n//         public\r\n//         view\r\n//         returns (Record memory)\r\n//     {\r\n//         require(checkPatient(msg.sender) == true, \"Patient does not exist\");\r\n//         require(checkRecord(record_hash) == true, \"Record does not exist\");\r\n//         require(\r\n//             records[record_hash].patient != msg.sender,\r\n//             \"You do not have access to this record\"\r\n//         );\r\n//         return records[record_hash];\r\n//     }\r\n\r\n//     // function to add a nominee\r\n//     function addNominee(address pubkey, string calldata name) public {\r\n//         require(checkPatient(msg.sender) == true, \"Patient does not exist\");\r\n//         require(checkPatient(pubkey) == true, \"Nominee does not exist\");\r\n//         patients[msg.sender].nominees.push(pubkey);\r\n//     }\r\n\r\n//     // function to remove a nominee\r\n//     function removeNominee(address pubkey) public {\r\n//         require(checkPatient(msg.sender) == true, \"Patient does not exist\");\r\n//         require(checkPatient(pubkey) == true, \"Nominee does not exist\");\r\n//         require(patients[pubkey].nominees < 0, \"Nominee does not exist\");\r\n//         patients[msg.sender].nominees.remove(pubkey);\r\n//     }\r\n\r\n//     // function to fetch nominee's records\r\n//     function fetchNomineeRecords(address pubkey)\r\n//         public\r\n//         view\r\n//         returns (Record[] memory)\r\n//     {\r\n//         require(checkPatient(msg.sender) == true, \"Patient does not exist\");\r\n//         require(checkPatient(pubkey) == true, \"Nominee does not exist\");\r\n//         Record[] memory _records = [];\r\n//         uint256 count = 0;\r\n\r\n//         for (uint256 i = 0; i < records.length; i++) {\r\n//             if (records[i].patient == pubkey) {\r\n//                 _records[count] = records[i];\r\n//                 count++;\r\n//             }\r\n//         }\r\n//         return _records;\r\n//     }\r\n\r\n//     // function to give read access to a doctor by patient\r\n//     function giveReadAccess(bytes32 record_hash, address pubkey) public {\r\n//         require(checkPatient(msg.sender) == true, \"Patient does not exist\");\r\n//         require(checkDoctor(pubkey) == true, \"Doctor does not exist\");\r\n//         require(checkRecord(record_hash) == true, \"Record does not exist\");\r\n//         records[record_hash].read_allowed_doctors.push(pubkey);\r\n//     }\r\n\r\n//     // function to give write access to a doctor by patient\r\n//     function giveWriteAccess(bytes32 record_hash, address pubkey) public {\r\n//         require(checkPatient(msg.sender) == true, \"Patient does not exist\");\r\n//         require(checkDoctor(pubkey) == true, \"Doctor does not exist\");\r\n//         require(checkRecord(record_hash) == true, \"Record does not exist\");\r\n//         records[record_hash].write_allowed_doctors.push(pubkey);\r\n//     }\r\n\r\n//     // function to remove read access to a doctor by patient\r\n//     function removeReadAccess(bytes32 record_hash, address pubkey) public {\r\n//         require(checkPatient(msg.sender) == true, \"Patient does not exist\");\r\n//         require(checkDoctor(pubkey) == true, \"Doctor does not exist\");\r\n//         require(checkRecord(record_hash) == true, \"Record does not exist\");\r\n//         records[record_hash].read_allowed_doctors.remove(pubkey);\r\n//     }\r\n\r\n//     // function to remove write access to a doctor by patient\r\n//     function removeWriteAccess(bytes32 record_hash, address pubkey) public {\r\n//         require(checkPatient(msg.sender) == true, \"Patient does not exist\");\r\n//         require(checkDoctor(pubkey) == true, \"Doctor does not exist\");\r\n//         require(checkRecord(record_hash) == true, \"Record does not exist\");\r\n//         records[record_hash].write_allowed_doctors.remove(pubkey);\r\n//     }\r\n\r\n//     // -------------------------------------------------------------------------------------------\r\n\r\n//     // record structure\r\n//     struct Record {\r\n//         // hash bytes32 record_hash;\r\n//         address doctor;\r\n//         address patient;\r\n//         address[] read_allowed_doctors;\r\n//         address[] write_allowed_doctors;\r\n//         string record_title;\r\n//         string record_desc;\r\n//         string record_data;\r\n//     }\r\n//     mapping(bytes32 => Record) public records;\r\n\r\n//     // record functions\r\n//     // function to check if the record exist or not\r\n//     function checkRecord(bytes32 record_hash) public view returns (bool) {\r\n//         return bytes(records[record_hash].record_title).length > 0;\r\n//     }\r\n\r\n//     // -------------------------------------------------------------------------------------------\r\n\r\n//     // end of contract\r\n// }\r\n",
  "sourcePath": "C:\\Users\\midhu\\OneDrive\\Documents\\GitHub\\Final-Year-Project-\\myapp\\contracts\\Medivault.sol",
  "compiler": {
    "name": "solc",
    "version": "0.8.13+commit.abaa5c0e.Emscripten.clang"
  },
  "schemaVersion": "3.4.16",
  "updatedAt": "2024-04-10T12:11:09.809Z",
  "networkType": "ethereum",
  "devdoc": {
    "kind": "dev",
    "methods": {},
    "version": 1
  },
  "userdoc": {
    "kind": "user",
    "methods": {},
    "version": 1
  }
}