{
  "contractName": "Medivault",
  "abi": [
    {
      "inputs": [],
      "stateMutability": "nonpayable",
      "type": "constructor"
    },
    {
      "inputs": [
        {
          "internalType": "uint256",
          "name": "",
          "type": "uint256"
        }
      ],
      "name": "adminAddresses",
      "outputs": [
        {
          "internalType": "address",
          "name": "",
          "type": "address"
        }
      ],
      "stateMutability": "view",
      "type": "function",
      "constant": true
    },
    {
      "inputs": [
        {
          "internalType": "address",
          "name": "",
          "type": "address"
        }
      ],
      "name": "admins",
      "outputs": [
        {
          "internalType": "string",
          "name": "institution_name",
          "type": "string"
        }
      ],
      "stateMutability": "view",
      "type": "function",
      "constant": true
    },
    {
      "inputs": [
        {
          "internalType": "uint256",
          "name": "",
          "type": "uint256"
        }
      ],
      "name": "doctorAddresses",
      "outputs": [
        {
          "internalType": "address",
          "name": "",
          "type": "address"
        }
      ],
      "stateMutability": "view",
      "type": "function",
      "constant": true
    },
    {
      "inputs": [
        {
          "internalType": "address",
          "name": "",
          "type": "address"
        }
      ],
      "name": "doctors",
      "outputs": [
        {
          "internalType": "string",
          "name": "name",
          "type": "string"
        },
        {
          "internalType": "string",
          "name": "specialization",
          "type": "string"
        },
        {
          "internalType": "address",
          "name": "institution",
          "type": "address"
        }
      ],
      "stateMutability": "view",
      "type": "function",
      "constant": true
    },
    {
      "inputs": [
        {
          "internalType": "uint256",
          "name": "",
          "type": "uint256"
        }
      ],
      "name": "patientAddresses",
      "outputs": [
        {
          "internalType": "address",
          "name": "",
          "type": "address"
        }
      ],
      "stateMutability": "view",
      "type": "function",
      "constant": true
    },
    {
      "inputs": [
        {
          "internalType": "address",
          "name": "",
          "type": "address"
        }
      ],
      "name": "patients",
      "outputs": [
        {
          "internalType": "string",
          "name": "name",
          "type": "string"
        },
        {
          "internalType": "uint256",
          "name": "age",
          "type": "uint256"
        },
        {
          "internalType": "string",
          "name": "gender",
          "type": "string"
        },
        {
          "internalType": "string",
          "name": "addr",
          "type": "string"
        },
        {
          "internalType": "string",
          "name": "contact",
          "type": "string"
        },
        {
          "internalType": "address",
          "name": "institution",
          "type": "address"
        }
      ],
      "stateMutability": "view",
      "type": "function",
      "constant": true
    },
    {
      "inputs": [
        {
          "internalType": "uint256",
          "name": "",
          "type": "uint256"
        }
      ],
      "name": "recordHashes",
      "outputs": [
        {
          "internalType": "bytes32",
          "name": "",
          "type": "bytes32"
        }
      ],
      "stateMutability": "view",
      "type": "function",
      "constant": true
    },
    {
      "inputs": [
        {
          "internalType": "bytes32",
          "name": "",
          "type": "bytes32"
        }
      ],
      "name": "records",
      "outputs": [
        {
          "internalType": "address",
          "name": "doctor",
          "type": "address"
        },
        {
          "internalType": "address",
          "name": "patient",
          "type": "address"
        },
        {
          "internalType": "string",
          "name": "record_title",
          "type": "string"
        },
        {
          "internalType": "string",
          "name": "record_desc",
          "type": "string"
        },
        {
          "internalType": "string",
          "name": "record_data",
          "type": "string"
        }
      ],
      "stateMutability": "view",
      "type": "function",
      "constant": true
    },
    {
      "inputs": [
        {
          "internalType": "uint256",
          "name": "",
          "type": "uint256"
        }
      ],
      "name": "superAdminAddresses",
      "outputs": [
        {
          "internalType": "address",
          "name": "",
          "type": "address"
        }
      ],
      "stateMutability": "view",
      "type": "function",
      "constant": true
    },
    {
      "inputs": [
        {
          "internalType": "address",
          "name": "",
          "type": "address"
        }
      ],
      "name": "superAdmins",
      "outputs": [
        {
          "internalType": "string",
          "name": "name",
          "type": "string"
        }
      ],
      "stateMutability": "view",
      "type": "function",
      "constant": true
    },
    {
      "inputs": [
        {
          "internalType": "address",
          "name": "pubkey",
          "type": "address"
        }
      ],
      "name": "checkSuperAdmin",
      "outputs": [
        {
          "internalType": "bool",
          "name": "",
          "type": "bool"
        }
      ],
      "stateMutability": "view",
      "type": "function",
      "constant": true
    },
    {
      "inputs": [
        {
          "internalType": "string",
          "name": "name",
          "type": "string"
        }
      ],
      "name": "editSuperAdmin",
      "outputs": [],
      "stateMutability": "nonpayable",
      "type": "function"
    },
    {
      "inputs": [
        {
          "internalType": "address",
          "name": "_address",
          "type": "address"
        },
        {
          "internalType": "string",
          "name": "_name",
          "type": "string"
        }
      ],
      "name": "addSuperAdmin",
      "outputs": [],
      "stateMutability": "nonpayable",
      "type": "function"
    },
    {
      "inputs": [],
      "name": "getAllSuperAdmins",
      "outputs": [
        {
          "internalType": "address[]",
          "name": "",
          "type": "address[]"
        }
      ],
      "stateMutability": "view",
      "type": "function",
      "constant": true
    },
    {
      "inputs": [],
      "name": "fetchNames",
      "outputs": [
        {
          "internalType": "string[]",
          "name": "",
          "type": "string[]"
        }
      ],
      "stateMutability": "view",
      "type": "function",
      "constant": true
    },
    {
      "inputs": [
        {
          "internalType": "address",
          "name": "_address",
          "type": "address"
        }
      ],
      "name": "fetchSuperadmin",
      "outputs": [
        {
          "components": [
            {
              "internalType": "string",
              "name": "name",
              "type": "string"
            }
          ],
          "internalType": "struct Medivault.SuperAdmin",
          "name": "",
          "type": "tuple"
        }
      ],
      "stateMutability": "view",
      "type": "function",
      "constant": true
    },
    {
      "inputs": [
        {
          "internalType": "string",
          "name": "institution_name",
          "type": "string"
        },
        {
          "internalType": "address",
          "name": "_address",
          "type": "address"
        }
      ],
      "name": "addAdmin",
      "outputs": [],
      "stateMutability": "nonpayable",
      "type": "function"
    },
    {
      "inputs": [],
      "name": "fetchAdminsAddresses",
      "outputs": [
        {
          "internalType": "address[]",
          "name": "",
          "type": "address[]"
        }
      ],
      "stateMutability": "view",
      "type": "function",
      "constant": true
    },
    {
      "inputs": [],
      "name": "fetchAdmins",
      "outputs": [
        {
          "components": [
            {
              "internalType": "string",
              "name": "institution_name",
              "type": "string"
            }
          ],
          "internalType": "struct Medivault.Admin[]",
          "name": "",
          "type": "tuple[]"
        }
      ],
      "stateMutability": "view",
      "type": "function",
      "constant": true
    },
    {
      "inputs": [
        {
          "internalType": "address",
          "name": "_address",
          "type": "address"
        }
      ],
      "name": "deleteAdmin",
      "outputs": [
        {
          "internalType": "bool",
          "name": "",
          "type": "bool"
        }
      ],
      "stateMutability": "nonpayable",
      "type": "function"
    },
    {
      "inputs": [
        {
          "internalType": "address",
          "name": "pubkey",
          "type": "address"
        }
      ],
      "name": "checkAdmin",
      "outputs": [
        {
          "internalType": "bool",
          "name": "",
          "type": "bool"
        }
      ],
      "stateMutability": "view",
      "type": "function",
      "constant": true
    },
    {
      "inputs": [
        {
          "internalType": "address",
          "name": "pubkey",
          "type": "address"
        }
      ],
      "name": "fetchAdmin",
      "outputs": [
        {
          "components": [
            {
              "internalType": "string",
              "name": "institution_name",
              "type": "string"
            }
          ],
          "internalType": "struct Medivault.Admin",
          "name": "",
          "type": "tuple"
        }
      ],
      "stateMutability": "view",
      "type": "function",
      "constant": true
    },
    {
      "inputs": [
        {
          "internalType": "address",
          "name": "pubkey",
          "type": "address"
        },
        {
          "internalType": "string",
          "name": "institution_name",
          "type": "string"
        }
      ],
      "name": "editAdmin",
      "outputs": [
        {
          "internalType": "bool",
          "name": "",
          "type": "bool"
        }
      ],
      "stateMutability": "nonpayable",
      "type": "function"
    },
    {
      "inputs": [
        {
          "internalType": "string",
          "name": "name",
          "type": "string"
        },
        {
          "internalType": "string",
          "name": "specialization",
          "type": "string"
        },
        {
          "internalType": "address",
          "name": "pubkey",
          "type": "address"
        }
      ],
      "name": "addDoctor",
      "outputs": [
        {
          "internalType": "bool",
          "name": "",
          "type": "bool"
        }
      ],
      "stateMutability": "nonpayable",
      "type": "function"
    },
    {
      "inputs": [
        {
          "internalType": "address",
          "name": "pubkey",
          "type": "address"
        }
      ],
      "name": "deleteDoctor",
      "outputs": [
        {
          "internalType": "bool",
          "name": "",
          "type": "bool"
        }
      ],
      "stateMutability": "nonpayable",
      "type": "function"
    },
    {
      "inputs": [],
      "name": "fetchDoctors",
      "outputs": [
        {
          "components": [
            {
              "internalType": "string",
              "name": "name",
              "type": "string"
            },
            {
              "internalType": "string",
              "name": "specialization",
              "type": "string"
            },
            {
              "internalType": "address",
              "name": "institution",
              "type": "address"
            }
          ],
          "internalType": "struct Medivault.Doctor[]",
          "name": "",
          "type": "tuple[]"
        }
      ],
      "stateMutability": "view",
      "type": "function",
      "constant": true
    },
    {
      "inputs": [],
      "name": "fetchDoctorAddresses",
      "outputs": [
        {
          "internalType": "address[]",
          "name": "",
          "type": "address[]"
        }
      ],
      "stateMutability": "view",
      "type": "function",
      "constant": true
    },
    {
      "inputs": [
        {
          "internalType": "address",
          "name": "pubkey",
          "type": "address"
        }
      ],
      "name": "checkDoctor",
      "outputs": [
        {
          "internalType": "bool",
          "name": "",
          "type": "bool"
        }
      ],
      "stateMutability": "view",
      "type": "function",
      "constant": true
    },
    {
      "inputs": [
        {
          "internalType": "address",
          "name": "pubkey",
          "type": "address"
        }
      ],
      "name": "fetchDoctor",
      "outputs": [
        {
          "components": [
            {
              "internalType": "string",
              "name": "name",
              "type": "string"
            },
            {
              "internalType": "string",
              "name": "specialization",
              "type": "string"
            },
            {
              "internalType": "address",
              "name": "institution",
              "type": "address"
            }
          ],
          "internalType": "struct Medivault.Doctor",
          "name": "",
          "type": "tuple"
        }
      ],
      "stateMutability": "view",
      "type": "function",
      "constant": true
    },
    {
      "inputs": [
        {
          "internalType": "string",
          "name": "name",
          "type": "string"
        },
        {
          "internalType": "uint256",
          "name": "age",
          "type": "uint256"
        },
        {
          "internalType": "string",
          "name": "gender",
          "type": "string"
        },
        {
          "internalType": "string",
          "name": "addr",
          "type": "string"
        },
        {
          "internalType": "string",
          "name": "contact",
          "type": "string"
        },
        {
          "internalType": "address",
          "name": "institution",
          "type": "address"
        },
        {
          "internalType": "address",
          "name": "pubkey",
          "type": "address"
        }
      ],
      "name": "addPatient",
      "outputs": [
        {
          "internalType": "bool",
          "name": "",
          "type": "bool"
        }
      ],
      "stateMutability": "nonpayable",
      "type": "function"
    },
    {
      "inputs": [
        {
          "internalType": "address",
          "name": "pubkey",
          "type": "address"
        }
      ],
      "name": "deletePatient",
      "outputs": [
        {
          "internalType": "bool",
          "name": "",
          "type": "bool"
        }
      ],
      "stateMutability": "nonpayable",
      "type": "function"
    },
    {
      "inputs": [
        {
          "internalType": "address",
          "name": "patient",
          "type": "address"
        },
        {
          "internalType": "string",
          "name": "record_title",
          "type": "string"
        },
        {
          "internalType": "string",
          "name": "record_desc",
          "type": "string"
        },
        {
          "internalType": "string",
          "name": "record_data",
          "type": "string"
        }
      ],
      "name": "createRecord",
      "outputs": [
        {
          "internalType": "bool",
          "name": "",
          "type": "bool"
        }
      ],
      "stateMutability": "nonpayable",
      "type": "function"
    },
    {
      "inputs": [
        {
          "internalType": "bytes32",
          "name": "record_hash",
          "type": "bytes32"
        }
      ],
      "name": "getRecord",
      "outputs": [
        {
          "components": [
            {
              "internalType": "address",
              "name": "doctor",
              "type": "address"
            },
            {
              "internalType": "address",
              "name": "patient",
              "type": "address"
            },
            {
              "internalType": "address[]",
              "name": "read_allowed_doctors",
              "type": "address[]"
            },
            {
              "internalType": "address[]",
              "name": "write_allowed_doctors",
              "type": "address[]"
            },
            {
              "internalType": "string",
              "name": "record_title",
              "type": "string"
            },
            {
              "internalType": "string",
              "name": "record_desc",
              "type": "string"
            },
            {
              "internalType": "string",
              "name": "record_data",
              "type": "string"
            }
          ],
          "internalType": "struct Medivault.Record",
          "name": "",
          "type": "tuple"
        }
      ],
      "stateMutability": "view",
      "type": "function",
      "constant": true
    },
    {
      "inputs": [
        {
          "internalType": "bytes32",
          "name": "record_hash",
          "type": "bytes32"
        }
      ],
      "name": "checkReadAccess",
      "outputs": [
        {
          "internalType": "bool",
          "name": "",
          "type": "bool"
        }
      ],
      "stateMutability": "view",
      "type": "function",
      "constant": true
    },
    {
      "inputs": [
        {
          "internalType": "bytes32",
          "name": "record_hash",
          "type": "bytes32"
        }
      ],
      "name": "checkWriteAccess",
      "outputs": [
        {
          "internalType": "bool",
          "name": "",
          "type": "bool"
        }
      ],
      "stateMutability": "view",
      "type": "function",
      "constant": true
    },
    {
      "inputs": [
        {
          "internalType": "bytes32",
          "name": "record_hash",
          "type": "bytes32"
        },
        {
          "internalType": "string",
          "name": "record_title",
          "type": "string"
        },
        {
          "internalType": "string",
          "name": "record_desc",
          "type": "string"
        },
        {
          "internalType": "string",
          "name": "record_data",
          "type": "string"
        }
      ],
      "name": "editRecord",
      "outputs": [
        {
          "internalType": "bool",
          "name": "",
          "type": "bool"
        }
      ],
      "stateMutability": "nonpayable",
      "type": "function"
    },
    {
      "inputs": [
        {
          "internalType": "address",
          "name": "pubkey",
          "type": "address"
        }
      ],
      "name": "checkPatient",
      "outputs": [
        {
          "internalType": "bool",
          "name": "",
          "type": "bool"
        }
      ],
      "stateMutability": "view",
      "type": "function",
      "constant": true
    },
    {
      "inputs": [
        {
          "internalType": "address",
          "name": "pubkey",
          "type": "address"
        }
      ],
      "name": "getPatient",
      "outputs": [
        {
          "components": [
            {
              "internalType": "string",
              "name": "name",
              "type": "string"
            },
            {
              "internalType": "uint256",
              "name": "age",
              "type": "uint256"
            },
            {
              "internalType": "string",
              "name": "gender",
              "type": "string"
            },
            {
              "internalType": "string",
              "name": "addr",
              "type": "string"
            },
            {
              "internalType": "string",
              "name": "contact",
              "type": "string"
            },
            {
              "internalType": "address",
              "name": "institution",
              "type": "address"
            },
            {
              "internalType": "address[]",
              "name": "nominees",
              "type": "address[]"
            }
          ],
          "internalType": "struct Medivault.Patient",
          "name": "",
          "type": "tuple"
        }
      ],
      "stateMutability": "view",
      "type": "function",
      "constant": true
    },
    {
      "inputs": [
        {
          "internalType": "string",
          "name": "name",
          "type": "string"
        },
        {
          "internalType": "uint256",
          "name": "age",
          "type": "uint256"
        },
        {
          "internalType": "string",
          "name": "gender",
          "type": "string"
        },
        {
          "internalType": "string",
          "name": "addr",
          "type": "string"
        },
        {
          "internalType": "string",
          "name": "contact",
          "type": "string"
        }
      ],
      "name": "editPatient",
      "outputs": [],
      "stateMutability": "nonpayable",
      "type": "function"
    },
    {
      "inputs": [],
      "name": "getAllRecords",
      "outputs": [
        {
          "components": [
            {
              "internalType": "address",
              "name": "doctor",
              "type": "address"
            },
            {
              "internalType": "address",
              "name": "patient",
              "type": "address"
            },
            {
              "internalType": "address[]",
              "name": "read_allowed_doctors",
              "type": "address[]"
            },
            {
              "internalType": "address[]",
              "name": "write_allowed_doctors",
              "type": "address[]"
            },
            {
              "internalType": "string",
              "name": "record_title",
              "type": "string"
            },
            {
              "internalType": "string",
              "name": "record_desc",
              "type": "string"
            },
            {
              "internalType": "string",
              "name": "record_data",
              "type": "string"
            }
          ],
          "internalType": "struct Medivault.Record[]",
          "name": "",
          "type": "tuple[]"
        }
      ],
      "stateMutability": "view",
      "type": "function",
      "constant": true
    },
    {
      "inputs": [
        {
          "internalType": "address",
          "name": "patient",
          "type": "address"
        }
      ],
      "name": "getAllRecordsOfPatient",
      "outputs": [
        {
          "components": [
            {
              "internalType": "bytes32",
              "name": "recordHash",
              "type": "bytes32"
            },
            {
              "components": [
                {
                  "internalType": "address",
                  "name": "doctor",
                  "type": "address"
                },
                {
                  "internalType": "address",
                  "name": "patient",
                  "type": "address"
                },
                {
                  "internalType": "address[]",
                  "name": "read_allowed_doctors",
                  "type": "address[]"
                },
                {
                  "internalType": "address[]",
                  "name": "write_allowed_doctors",
                  "type": "address[]"
                },
                {
                  "internalType": "string",
                  "name": "record_title",
                  "type": "string"
                },
                {
                  "internalType": "string",
                  "name": "record_desc",
                  "type": "string"
                },
                {
                  "internalType": "string",
                  "name": "record_data",
                  "type": "string"
                }
              ],
              "internalType": "struct Medivault.Record",
              "name": "recordData",
              "type": "tuple"
            }
          ],
          "internalType": "struct Medivault.RecordWithHash[]",
          "name": "",
          "type": "tuple[]"
        }
      ],
      "stateMutability": "view",
      "type": "function",
      "constant": true
    },
    {
      "inputs": [
        {
          "internalType": "bytes32",
          "name": "record_hash",
          "type": "bytes32"
        }
      ],
      "name": "getReadAccessMembers",
      "outputs": [
        {
          "internalType": "address[]",
          "name": "",
          "type": "address[]"
        }
      ],
      "stateMutability": "view",
      "type": "function",
      "constant": true
    },
    {
      "inputs": [
        {
          "internalType": "bytes32",
          "name": "record_hash",
          "type": "bytes32"
        }
      ],
      "name": "getWriteAccessMembers",
      "outputs": [
        {
          "internalType": "address[]",
          "name": "",
          "type": "address[]"
        }
      ],
      "stateMutability": "view",
      "type": "function",
      "constant": true
    },
    {
      "inputs": [
        {
          "internalType": "bytes32",
          "name": "record_hash",
          "type": "bytes32"
        },
        {
          "internalType": "address",
          "name": "member",
          "type": "address"
        }
      ],
      "name": "addMemberToReadAccess",
      "outputs": [],
      "stateMutability": "nonpayable",
      "type": "function"
    },
    {
      "inputs": [
        {
          "internalType": "bytes32",
          "name": "record_hash",
          "type": "bytes32"
        },
        {
          "internalType": "address",
          "name": "member",
          "type": "address"
        }
      ],
      "name": "addMemberToWriteAccess",
      "outputs": [],
      "stateMutability": "nonpayable",
      "type": "function"
    },
    {
      "inputs": [
        {
          "internalType": "bytes32",
          "name": "record_hash",
          "type": "bytes32"
        },
        {
          "internalType": "address",
          "name": "member",
          "type": "address"
        }
      ],
      "name": "revokeReadAccess",
      "outputs": [],
      "stateMutability": "nonpayable",
      "type": "function"
    },
    {
      "inputs": [
        {
          "internalType": "bytes32",
          "name": "record_hash",
          "type": "bytes32"
        },
        {
          "internalType": "address",
          "name": "member",
          "type": "address"
        }
      ],
      "name": "revokeWriteAccess",
      "outputs": [
        {
          "internalType": "bool",
          "name": "",
          "type": "bool"
        }
      ],
      "stateMutability": "nonpayable",
      "type": "function"
    },
    {
      "inputs": [
        {
          "internalType": "address",
          "name": "nominee",
          "type": "address"
        }
      ],
      "name": "addNominee",
      "outputs": [
        {
          "internalType": "bool",
          "name": "",
          "type": "bool"
        }
      ],
      "stateMutability": "nonpayable",
      "type": "function"
    },
    {
      "inputs": [
        {
          "internalType": "address",
          "name": "pubkey",
          "type": "address"
        }
      ],
      "name": "getNominees",
      "outputs": [
        {
          "internalType": "address[]",
          "name": "",
          "type": "address[]"
        }
      ],
      "stateMutability": "view",
      "type": "function",
      "constant": true
    },
    {
      "inputs": [
        {
          "internalType": "bytes32",
          "name": "record_hash",
          "type": "bytes32"
        }
      ],
      "name": "checkRecord",
      "outputs": [
        {
          "internalType": "bool",
          "name": "",
          "type": "bool"
        }
      ],
      "stateMutability": "view",
      "type": "function",
      "constant": true
    },
    {
      "inputs": [
        {
          "internalType": "bytes32",
          "name": "record_hash",
          "type": "bytes32"
        },
        {
          "internalType": "address",
          "name": "doctor",
          "type": "address"
        }
      ],
      "name": "addReadAllowedDoctor",
      "outputs": [],
      "stateMutability": "nonpayable",
      "type": "function"
    },
    {
      "inputs": [
        {
          "internalType": "bytes32",
          "name": "record_hash",
          "type": "bytes32"
        },
        {
          "internalType": "address",
          "name": "doctor",
          "type": "address"
        }
      ],
      "name": "addWriteAllowedDoctor",
      "outputs": [],
      "stateMutability": "nonpayable",
      "type": "function"
    }
  ],
  "bytecode": "0x60806040523480156200001157600080fd5b50600180548082019091557fb10e2d527612073b26eecdfd717e6a320cf44b4afac2b0732d9fcbe2b7fa0cf60180546001600160a01b0319163390811790915560408051606081018252600b60208281019182526a29bab832b91030b236b4b760a91b838501529082526000938452838152919092208251805191926200009e92849290910190620000a8565b509050506200018a565b828054620000b6906200014e565b90600052602060002090601f016020900481019282620000da576000855562000125565b82601f10620000f557805160ff191683800117855562000125565b8280016001018555821562000125579182015b828111156200012557825182559160200191906001019062000108565b506200013392915062000137565b5090565b5b8082111562000133576000815560010162000138565b600181811c908216806200016357607f821691505b6020821081036200018457634e487b7160e01b600052602260045260246000fd5b50919050565b615e0a806200019a6000396000f3fe608060405234801561001057600080fd5b506004361061030c5760003560e01c806388eea6f11161019d578063b5368e20116100e9578063f126e2da116100a2578063f3793a8d1161007c578063f3793a8d146107db578063f56fecef146107ee578063fb50b236146107f6578063fbad73f21461080957600080fd5b8063f126e2da14610795578063f27762f3146107a8578063f2bd93c5146107c857600080fd5b8063b5368e201461071d578063ba44eecf1461073d578063beeed75914610750578063cbf007f314610763578063d15262a614610778578063f0eb03441461078d57600080fd5b80639eb48d1b11610156578063a9583c2211610130578063a9583c22146106c2578063ab05bae6146106e4578063ad25cb42146106f7578063b40f16911461070a57600080fd5b80639eb48d1b14610687578063a1d658b11461069a578063a7f9fe72146106ad57600080fd5b806388eea6f11461062057806388f50b41146106335780638f2448c9146106465780639026dee8146106595780639569afce1461066c5780639bc197e21461067457600080fd5b806334ed1df51161025c5780636001f1d11161021557806376017e5e116101ef57806376017e5e146105b957806376b03479146105cc578063793de5f0146105ed5780637f44782b1461060057600080fd5b80636001f1d1146105805780636529c77714610593578063717a4091146105a657600080fd5b806334ed1df51461046f5780633b1693b6146104bf5780633ba51e7c146104d2578063429b62e5146104fd5780634b8c01fd1461051d57806352cfa31c1461056d57600080fd5b80630b2255f7116102c95780631bd79fc2116102a35780631bd79fc214610407578063213681cd1461041c57806327e1f7df1461043c5780632f3f6be21461044f57600080fd5b80630b2255f7146103ce5780630dd9626d146103e1578063178f7d81146103f457600080fd5b806301e647251461031157806302513ed21461033e5780630763a327146103615780630831b05f146103815780630869cfbc1461039657806308805129146103bb575b600080fd5b61032461031f3660046151a1565b61081c565b604051610335959493929190615207565b60405180910390f35b61035161034c366004615281565b6109f0565b6040519015158152602001610335565b61037461036f366004615281565b610b91565b60405161033591906152a3565b61039461038f366004615338565b610c0a565b005b6103a96103a4366004615281565b610cc5565b6040516103359695949392919061538b565b6103516103c93660046151a1565b610f22565b6103516103dc3660046153fa565b610f4b565b6103746103ef3660046151a1565b6113a6565b61039461040236600461549d565b61165f565b61040f61184b565b60405161033591906154c9565b61042f61042a3660046151a1565b6119a7565b6040516103359190615614565b61035161044a366004615281565b611c5f565b61046261045d366004615281565b611d99565b6040516103359190615627565b61039461047d36600461549d565b600091825260086020908152604083206002018054600181018255908452922090910180546001600160a01b0319166001600160a01b03909216919091179055565b6103516104cd366004615281565b611e40565b6104e56104e03660046151a1565b611f95565b6040516001600160a01b039091168152602001610335565b61051061050b366004615281565b611fbf565b604051610335919061564a565b61039461052b36600461549d565b600091825260086020908152604083206003018054600181018255908452922090910180546001600160a01b0319166001600160a01b03909216919091179055565b61039461057b36600461549d565b61205d565b61046261058e366004615281565b6123f5565b6103516105a1366004615281565b612435565b6103516105b43660046156ff565b61245b565b6103516105c736600461574c565b61248f565b6105df6105da3660046151a1565b6125c9565b604051908152602001610335565b6103516105fb366004615281565b6125ea565b61061361060e366004615281565b612610565b6040516103359190615819565b61035161062e36600461549d565b61278d565b6103516106413660046151a1565b6129b2565b6104e56106543660046151a1565b612ccb565b610351610667366004615281565b612cdb565b610374612d01565b61035161068236600461582c565b612d63565b6103746106953660046151a1565b613041565b6103516106a8366004615281565b6132fa565b6106b5613320565b604051610335919061586c565b6106d56106d0366004615281565b613684565b604051610335939291906158c1565b6103946106f23660046156ff565b6137bf565b610510610705366004615281565b61384e565b6104e56107183660046151a1565b613869565b61073061072b366004615281565b613879565b60405161033591906158ff565b6104e561074b3660046151a1565b613bae565b61035161075e366004615281565b613bbe565b61076b613c1d565b60405161033591906159b1565b610780613e4b565b6040516103359190615a06565b610374613fc2565b6103946107a3366004615a63565b614022565b6107bb6107b6366004615281565b614044565b6040516103359190615a97565b6103946107d636600461549d565b6144b9565b6103946107e9366004615b0b565b614775565b610374614973565b6103516108043660046151a1565b6149d3565b610351610817366004615bda565b614ce2565b6008602052600090815260409020805460018201546004830180546001600160a01b0393841694929093169261085190615cc9565b80601f016020809104026020016040519081016040528092919081815260200182805461087d90615cc9565b80156108ca5780601f1061089f576101008083540402835291602001916108ca565b820191906000526020600020905b8154815290600101906020018083116108ad57829003601f168201915b5050505050908060050180546108df90615cc9565b80601f016020809104026020016040519081016040528092919081815260200182805461090b90615cc9565b80156109585780601f1061092d57610100808354040283529160200191610958565b820191906000526020600020905b81548152906001019060200180831161093b57829003601f168201915b50505050509080600601805461096d90615cc9565b80601f016020809104026020016040519081016040528092919081815260200182805461099990615cc9565b80156109e65780601f106109bb576101008083540402835291602001916109e6565b820191906000526020600020905b8154815290600101906020018083116109c957829003601f168201915b5050505050905085565b60006109fb82612cdb565b610a0757506000919050565b60005b600754811015610b0f57826001600160a01b031660078281548110610a3157610a31615cfd565b6000918252602090912001546001600160a01b031603610afd5760078054610a5b90600190615d29565b81548110610a6b57610a6b615cfd565b600091825260209091200154600780546001600160a01b039092169183908110610a9757610a97615cfd565b9060005260206000200160006101000a8154816001600160a01b0302191690836001600160a01b031602179055506007805480610ad657610ad6615d40565b600082815260209020810160001990810180546001600160a01b0319169055019055610b0f565b80610b0781615d56565b915050610a0a565b506001600160a01b038216600090815260066020526040812090610b338282614f30565b6001820160009055600282016000610b4b9190614f30565b610b59600383016000614f30565b610b67600483016000614f30565b6005820180546001600160a01b0319169055610b87600683016000614f6d565b5060019392505050565b6001600160a01b038116600090815260066020818152604092839020909101805483518184028101840190945280845260609392830182828015610bfe57602002820191906000526020600020905b81546001600160a01b03168152600190910190602001808311610be0575b50505050509050919050565b600380546001810182556000919091527fc2575a0e9e593c00f959f8c92f12db2869c3395a3b0502d05e2516446f71f85b0180546001600160a01b0319166001600160a01b038316179055604080516020601f8501819004810282018301835281018481529091829190869086908190850183828082843760009201829052509390945250506001600160a01b038416815260026020908152604090912083518051919350610cbd928492910190614f8b565b505050505050565b600660205260009081526040902080548190610ce090615cc9565b80601f0160208091040260200160405190810160405280929190818152602001828054610d0c90615cc9565b8015610d595780601f10610d2e57610100808354040283529160200191610d59565b820191906000526020600020905b815481529060010190602001808311610d3c57829003601f168201915b505050505090806001015490806002018054610d7490615cc9565b80601f0160208091040260200160405190810160405280929190818152602001828054610da090615cc9565b8015610ded5780601f10610dc257610100808354040283529160200191610ded565b820191906000526020600020905b815481529060010190602001808311610dd057829003601f168201915b505050505090806003018054610e0290615cc9565b80601f0160208091040260200160405190810160405280929190818152602001828054610e2e90615cc9565b8015610e7b5780601f10610e5057610100808354040283529160200191610e7b565b820191906000526020600020905b815481529060010190602001808311610e5e57829003601f168201915b505050505090806004018054610e9090615cc9565b80601f0160208091040260200160405190810160405280929190818152602001828054610ebc90615cc9565b8015610f095780601f10610ede57610100808354040283529160200191610f09565b820191906000526020600020905b815481529060010190602001808311610eec57829003601f168201915b505050600590930154919250506001600160a01b031686565b60008181526008602052604081206004018054829190610f4190615cc9565b9050119050919050565b6000878152600860209081526040808320815160e08101835281546001600160a01b0390811682526001830154168185015260028201805484518187028101870186528181528796939586019390929190830182828015610fd557602002820191906000526020600020905b81546001600160a01b03168152600190910190602001808311610fb7575b505050505081526020016003820180548060200260200160405190810160405280929190818152602001828054801561103757602002820191906000526020600020905b81546001600160a01b03168152600190910190602001808311611019575b5050505050815260200160048201805461105090615cc9565b80601f016020809104026020016040519081016040528092919081815260200182805461107c90615cc9565b80156110c95780601f1061109e576101008083540402835291602001916110c9565b820191906000526020600020905b8154815290600101906020018083116110ac57829003601f168201915b505050505081526020016005820180546110e290615cc9565b80601f016020809104026020016040519081016040528092919081815260200182805461110e90615cc9565b801561115b5780601f106111305761010080835404028352916020019161115b565b820191906000526020600020905b81548152906001019060200180831161113e57829003601f168201915b5050505050815260200160068201805461117490615cc9565b80601f01602080910402602001604051908101604052809291908181526020018280546111a090615cc9565b80156111ed5780601f106111c2576101008083540402835291602001916111ed565b820191906000526020600020905b8154815290600101906020018083116111d057829003601f168201915b505050505081525050905061120581600001516125ea565b151560000361121857600091505061139b565b87878080601f0160208091040260200160405190810160405280939291908181526020018383808284376000920191909152505050506080820152604080516020601f880181900481028201810190925286815290879087908190840183828082843760009201919091525050505060a0820152604080516020601f8601819004810282018101909252848152908590859081908401838280828437600092018290525060c086019490945250505089815260086020908152604091829020835181546001600160a01b039182166001600160a01b03199182161783558386015160018401805491909316911617905591830151805184939261132292600285019291019061500f565b506060820151805161133e91600384019160209091019061500f565b506080820151805161135a916004840191602090910190614f8b565b5060a08201518051611376916005840191602090910190614f8b565b5060c08201518051611392916006840191602090910190614f8b565b50600193505050505b979650505050505050565b6000818152600860209081526040808320815160e08101835281546001600160a01b0390811682526001830154168185015260028201805484518187028101870186528181526060979693958601939092919083018282801561143257602002820191906000526020600020905b81546001600160a01b03168152600190910190602001808311611414575b505050505081526020016003820180548060200260200160405190810160405280929190818152602001828054801561149457602002820191906000526020600020905b81546001600160a01b03168152600190910190602001808311611476575b505050505081526020016004820180546114ad90615cc9565b80601f01602080910402602001604051908101604052809291908181526020018280546114d990615cc9565b80156115265780601f106114fb57610100808354040283529160200191611526565b820191906000526020600020905b81548152906001019060200180831161150957829003601f168201915b5050505050815260200160058201805461153f90615cc9565b80601f016020809104026020016040519081016040528092919081815260200182805461156b90615cc9565b80156115b85780601f1061158d576101008083540402835291602001916115b8565b820191906000526020600020905b81548152906001019060200180831161159b57829003601f168201915b505050505081526020016006820180546115d190615cc9565b80601f01602080910402602001604051908101604052809291908181526020018280546115fd90615cc9565b801561164a5780601f1061161f5761010080835404028352916020019161164a565b820191906000526020600020905b81548152906001019060200180831161162d57829003601f168201915b50505091909252505050606001519392505050565b6000828152600860205260408120905b600282015481101561177e57826001600160a01b031682600201828154811061169a5761169a615cfd565b6000918252602090912001546001600160a01b03160361176c576002820180546116c690600190615d29565b815481106116d6576116d6615cfd565b6000918252602090912001546002830180546001600160a01b03909216918390811061170457611704615cfd565b9060005260206000200160006101000a8154816001600160a01b0302191690836001600160a01b031602179055508160020180548061174557611745615d40565b600082815260209020810160001990810180546001600160a01b031916905501905561177e565b8061177681615d56565b91505061166f565b506000838152600860205260409020815481546001600160a01b039182166001600160a01b03199182161783556001808501549084018054919093169116179055600280830180548493926117d69290840191615064565b50600382810180546117eb9284019190615064565b50600482018160040190805461180090615cc9565b61180b9291906150a4565b50600582018160050190805461182090615cc9565b61182b9291906150a4565b50600682018160060190805461184090615cc9565b610cbd9291906150a4565b6001546060906000906001600160401b0381111561186b5761186b61565d565b60405190808252806020026020018201604052801561189e57816020015b60608152602001906001900390816118895790505b50905060005b6001548110156119a157600080600183815481106118c4576118c4615cfd565b60009182526020808320909101546001600160a01b03168352820192909252604001902080546118f390615cc9565b80601f016020809104026020016040519081016040528092919081815260200182805461191f90615cc9565b801561196c5780601f106119415761010080835404028352916020019161196c565b820191906000526020600020905b81548152906001019060200180831161194f57829003601f168201915b505050505082828151811061198357611983615cfd565b6020026020010181905250808061199990615d56565b9150506118a4565b50919050565b6119af61511e565b600082815260086020908152604091829020825160e08101845281546001600160a01b0390811682526001830154168184015260028201805485518186028101860187528181529295939493860193830182828015611a3757602002820191906000526020600020905b81546001600160a01b03168152600190910190602001808311611a19575b5050505050815260200160038201805480602002602001604051908101604052809291908181526020018280548015611a9957602002820191906000526020600020905b81546001600160a01b03168152600190910190602001808311611a7b575b50505050508152602001600482018054611ab290615cc9565b80601f0160208091040260200160405190810160405280929190818152602001828054611ade90615cc9565b8015611b2b5780601f10611b0057610100808354040283529160200191611b2b565b820191906000526020600020905b815481529060010190602001808311611b0e57829003601f168201915b50505050508152602001600582018054611b4490615cc9565b80601f0160208091040260200160405190810160405280929190818152602001828054611b7090615cc9565b8015611bbd5780601f10611b9257610100808354040283529160200191611bbd565b820191906000526020600020905b815481529060010190602001808311611ba057829003601f168201915b50505050508152602001600682018054611bd690615cc9565b80601f0160208091040260200160405190810160405280929190818152602001828054611c0290615cc9565b8015611c4f5780601f10611c2457610100808354040283529160200191611c4f565b820191906000526020600020905b815481529060010190602001808311611c3257829003601f168201915b5050505050815250509050919050565b6001600160a01b038116600090815260026020526040812081611c828282614f30565b505060005b600354811015611d9057826001600160a01b031660038281548110611cae57611cae615cfd565b6000918252602090912001546001600160a01b031603611d7e5760038054611cd890600190615d29565b81548110611ce857611ce8615cfd565b600091825260209091200154600380546001600160a01b039092169183908110611d1457611d14615cfd565b9060005260206000200160006101000a8154816001600160a01b0302191690836001600160a01b031602179055506003805480611d5357611d53615d40565b600082815260209020810160001990810180546001600160a01b031916905501905550600192915050565b80611d8881615d56565b915050611c87565b50600092915050565b604080516020810190915260608152611db1336132fa565b611e015760405162461bcd60e51b815260206004820152601b60248201527f53656e646572206973206e6f7420612073757065722061646d696e0000000000604482015260640160405180910390fd5b600080836001600160a01b03166001600160a01b03168152602001908152602001600020604051806020016040529081600082018054611bd690615cc9565b6000805b600554811015611f4957826001600160a01b031660058281548110611e6b57611e6b615cfd565b6000918252602090912001546001600160a01b031603611f375760058054611e9590600190615d29565b81548110611ea557611ea5615cfd565b600091825260209091200154600580546001600160a01b039092169183908110611ed157611ed1615cfd565b9060005260206000200160006101000a8154816001600160a01b0302191690836001600160a01b031602179055506005805480611f1057611f10615d40565b600082815260209020810160001990810180546001600160a01b0319169055019055611f49565b80611f4181615d56565b915050611e44565b506001600160a01b038216600090815260046020526040812090611f6d8282614f30565b611f7b600183016000614f30565b5060020180546001600160a01b0319169055506001919050565b60058181548110611fa557600080fd5b6000918252602090912001546001600160a01b0316905081565b600260205260009081526040902080548190611fda90615cc9565b80601f016020809104026020016040519081016040528092919081815260200182805461200690615cc9565b80156120535780601f1061202857610100808354040283529160200191612053565b820191906000526020600020905b81548152906001019060200180831161203657829003601f168201915b5050505050905081565b6000828152600860209081526040808320815160e08101835281546001600160a01b039081168252600183015416818501526002820180548451818702810187018652818152929593948601938301828280156120e357602002820191906000526020600020905b81546001600160a01b031681526001909101906020018083116120c5575b505050505081526020016003820180548060200260200160405190810160405280929190818152602001828054801561214557602002820191906000526020600020905b81546001600160a01b03168152600190910190602001808311612127575b5050505050815260200160048201805461215e90615cc9565b80601f016020809104026020016040519081016040528092919081815260200182805461218a90615cc9565b80156121d75780601f106121ac576101008083540402835291602001916121d7565b820191906000526020600020905b8154815290600101906020018083116121ba57829003601f168201915b505050505081526020016005820180546121f090615cc9565b80601f016020809104026020016040519081016040528092919081815260200182805461221c90615cc9565b80156122695780601f1061223e57610100808354040283529160200191612269565b820191906000526020600020905b81548152906001019060200180831161224c57829003601f168201915b5050505050815260200160068201805461228290615cc9565b80601f01602080910402602001604051908101604052809291908181526020018280546122ae90615cc9565b80156122fb5780601f106122d0576101008083540402835291602001916122fb565b820191906000526020600020905b8154815290600101906020018083116122de57829003601f168201915b50505091909252505050606081015180519192508391612319615cfd565b6001600160a01b03928316602091820292909201810191909152600085815260088252604090819020845181549085166001600160a01b03199182161782558584015160018301805491909616911617909355830151805184939261238592600285019291019061500f565b50606082015180516123a191600384019160209091019061500f565b50608082015180516123bd916004840191602090910190614f8b565b5060a082015180516123d9916005840191602090910190614f8b565b5060c08201518051610cbd916006840191602090910190614f8b565b6040805160208082018352606082526001600160a01b038416600090815260028252839020835191820190935282549192909182908290611bd690615cc9565b6001600160a01b03811660009081526006602052604081208054829190610f4190615cc9565b6001600160a01b03821660009081526002602090815260408220835161248392850190614f8b565b50600190505b92915050565b6040805160806020601f88018190040282018101909252606081018681526000928291908990899081908501838280828437600092019190915250505090825250604080516020601f8801819004810282018101909252868152918101919087908790819084018382808284376000920182905250938552505033602093840152506001600160a01b0385168152600482526040902082518051919261253a92849290910190614f8b565b5060208281015180516125539260018501920190614f8b565b5060409190910151600290910180546001600160a01b03199081166001600160a01b039384161790915560058054600181810183556000929092527f036b6384b5eca791c62761152d0c79bb0604c104a5fb6f4eb0703f3154bb3db0018054909216949092169390931790925550949350505050565b600981815481106125d957600080fd5b600091825260209091200154905081565b6001600160a01b03811660009081526004602052604081208054829190610f4190615cc9565b604080516060808201835280825260208201526000918101919091526001600160a01b0382166000908152600460205260409081902081516060810190925280548290829061265e90615cc9565b80601f016020809104026020016040519081016040528092919081815260200182805461268a90615cc9565b80156126d75780601f106126ac576101008083540402835291602001916126d7565b820191906000526020600020905b8154815290600101906020018083116126ba57829003601f168201915b505050505081526020016001820180546126f090615cc9565b80601f016020809104026020016040519081016040528092919081815260200182805461271c90615cc9565b80156127695780601f1061273e57610100808354040283529160200191612769565b820191906000526020600020905b81548152906001019060200180831161274c57829003601f168201915b5050509183525050600291909101546001600160a01b031660209091015292915050565b600061279883610f22565b6127a457506000612489565b6127ad82612435565b6127b957506000612489565b6000838152600860205260408120905b60038201548110156128d857836001600160a01b03168260030182815481106127f4576127f4615cfd565b6000918252602090912001546001600160a01b0316036128c65760038201805461282090600190615d29565b8154811061283057612830615cfd565b6000918252602090912001546003830180546001600160a01b03909216918390811061285e5761285e615cfd565b9060005260206000200160006101000a8154816001600160a01b0302191690836001600160a01b031602179055508160030180548061289f5761289f615d40565b600082815260209020810160001990810180546001600160a01b03191690550190556128d8565b806128d081615d56565b9150506127c9565b506000848152600860205260409020815481546001600160a01b039182166001600160a01b03199182161783556001808501549084018054919093169116179055600280830180548493926129309290840191615064565b50600382810180546129459284019190615064565b50600482018160040190805461295a90615cc9565b6129659291906150a4565b50600582018160050190805461297a90615cc9565b6129859291906150a4565b50600682018160060190805461299a90615cc9565b6129a59291906150a4565b5060019695505050505050565b6000818152600860209081526040808320815160e08101835281546001600160a01b0390811682526001830154168185015260028201805484518187028101870186528181528796939586019390929190830182828015612a3c57602002820191906000526020600020905b81546001600160a01b03168152600190910190602001808311612a1e575b5050505050815260200160038201805480602002602001604051908101604052809291908181526020018280548015612a9e57602002820191906000526020600020905b81546001600160a01b03168152600190910190602001808311612a80575b50505050508152602001600482018054612ab790615cc9565b80601f0160208091040260200160405190810160405280929190818152602001828054612ae390615cc9565b8015612b305780601f10612b0557610100808354040283529160200191612b30565b820191906000526020600020905b815481529060010190602001808311612b1357829003601f168201915b50505050508152602001600582018054612b4990615cc9565b80601f0160208091040260200160405190810160405280929190818152602001828054612b7590615cc9565b8015612bc25780601f10612b9757610100808354040283529160200191612bc2565b820191906000526020600020905b815481529060010190602001808311612ba557829003601f168201915b50505050508152602001600682018054612bdb90615cc9565b80601f0160208091040260200160405190810160405280929190818152602001828054612c0790615cc9565b8015612c545780601f10612c2957610100808354040283529160200191612c54565b820191906000526020600020905b815481529060010190602001808311612c3757829003601f168201915b505050505081525050905060005b816060015151811015612cc157336001600160a01b031682606001518281518110612c8f57612c8f615cfd565b60200260200101516001600160a01b031603612caf575060019392505050565b80612cb981615d56565b915050612c62565b5060009392505050565b60018181548110611fa557600080fd5b6001600160a01b03811660009081526002602052604081208054829190610f4190615cc9565b60606005805480602002602001604051908101604052809291908181526020018280548015612d5957602002820191906000526020600020905b81546001600160a01b03168152600190910190602001808311612d3b575b5050505050905090565b6000803389898989898989604051602001612d85989796959493929190615d6f565b60408051601f198184030181528282528051602091820120600180855284840190935293506000929190808301908036833750506040805160018082528183019092529293506000929150602080830190803683370190505090503382600081518110612df457612df4615cfd565b60200260200101906001600160a01b031690816001600160a01b0316815250503381600081518110612e2857612e28615cfd565b60200260200101906001600160a01b031690816001600160a01b0316815250506040518060e00160405280336001600160a01b031681526020018c6001600160a01b031681526020018381526020018281526020018b8b8080601f016020809104026020016040519081016040528093929190818152602001838380828437600092019190915250505090825250604080516020601f8c018190048102820181019092528a815291810191908b908b9081908401838280828437600092019190915250505090825250604080516020601f8a0181900481028201810190925288815291810191908990899081908401838280828437600092018290525093909452505085815260086020908152604091829020845181546001600160a01b039182166001600160a01b031991821617835586840151600184018054919093169116179055918401518051929350612f88926002850192919091019061500f565b5060608201518051612fa491600384019160209091019061500f565b5060808201518051612fc0916004840191602090910190614f8b565b5060a08201518051612fdc916005840191602090910190614f8b565b5060c08201518051612ff8916006840191602090910190614f8b565b505060098054600180820183556000929092527f6e1540171b6c0c960b71a7020d9f60077f6af931a8bbf590da0223dacf75c7af019490945550919a9950505050505050505050565b6000818152600860209081526040808320815160e08101835281546001600160a01b039081168252600183015416818501526002820180548451818702810187018652818152606097969395860193909291908301828280156130cd57602002820191906000526020600020905b81546001600160a01b031681526001909101906020018083116130af575b505050505081526020016003820180548060200260200160405190810160405280929190818152602001828054801561312f57602002820191906000526020600020905b81546001600160a01b03168152600190910190602001808311613111575b5050505050815260200160048201805461314890615cc9565b80601f016020809104026020016040519081016040528092919081815260200182805461317490615cc9565b80156131c15780601f10613196576101008083540402835291602001916131c1565b820191906000526020600020905b8154815290600101906020018083116131a457829003601f168201915b505050505081526020016005820180546131da90615cc9565b80601f016020809104026020016040519081016040528092919081815260200182805461320690615cc9565b80156132535780601f1061322857610100808354040283529160200191613253565b820191906000526020600020905b81548152906001019060200180831161323657829003601f168201915b5050505050815260200160068201805461326c90615cc9565b80601f016020809104026020016040519081016040528092919081815260200182805461329890615cc9565b80156132e55780601f106132ba576101008083540402835291602001916132e5565b820191906000526020600020905b8154815290600101906020018083116132c857829003601f168201915b50505091909252505050604001519392505050565b6001600160a01b03811660009081526020819052604081208054829190610f4190615cc9565b6009546060906000906001600160401b038111156133405761334061565d565b60405190808252806020026020018201604052801561337957816020015b61336661511e565b81526020019060019003908161335e5790505b50905060005b6009548110156119a15760086000600983815481106133a0576133a0615cfd565b600091825260208083209091015483528281019390935260409182019020815160e08101835281546001600160a01b0390811682526001830154168185015260028201805484518187028101870186528181529295939486019383018282801561343357602002820191906000526020600020905b81546001600160a01b03168152600190910190602001808311613415575b505050505081526020016003820180548060200260200160405190810160405280929190818152602001828054801561349557602002820191906000526020600020905b81546001600160a01b03168152600190910190602001808311613477575b505050505081526020016004820180546134ae90615cc9565b80601f01602080910402602001604051908101604052809291908181526020018280546134da90615cc9565b80156135275780601f106134fc57610100808354040283529160200191613527565b820191906000526020600020905b81548152906001019060200180831161350a57829003601f168201915b5050505050815260200160058201805461354090615cc9565b80601f016020809104026020016040519081016040528092919081815260200182805461356c90615cc9565b80156135b95780601f1061358e576101008083540402835291602001916135b9565b820191906000526020600020905b81548152906001019060200180831161359c57829003601f168201915b505050505081526020016006820180546135d290615cc9565b80601f01602080910402602001604051908101604052809291908181526020018280546135fe90615cc9565b801561364b5780601f106136205761010080835404028352916020019161364b565b820191906000526020600020905b81548152906001019060200180831161362e57829003601f168201915b50505050508152505082828151811061366657613666615cfd565b6020026020010181905250808061367c90615d56565b91505061337f565b60046020526000908152604090208054819061369f90615cc9565b80601f01602080910402602001604051908101604052809291908181526020018280546136cb90615cc9565b80156137185780601f106136ed57610100808354040283529160200191613718565b820191906000526020600020905b8154815290600101906020018083116136fb57829003601f168201915b50505050509080600101805461372d90615cc9565b80601f016020809104026020016040519081016040528092919081815260200182805461375990615cc9565b80156137a65780601f1061377b576101008083540402835291602001916137a6565b820191906000526020600020905b81548152906001019060200180831161378957829003601f168201915b505050600290930154919250506001600160a01b031683565b60408051602080820183528382526001600160a01b03851660009081528082529290922081518051929391926137f89284920190614f8b565b50506001805480820182556000919091527fb10e2d527612073b26eecdfd717e6a320cf44b4afac2b0732d9fcbe2b7fa0cf60180546001600160a01b0319166001600160a01b0394909416939093179092555050565b600060208190529081526040902080548190611fda90615cc9565b60078181548110611fa557600080fd5b6138c26040518060e00160405280606081526020016000815260200160608152602001606081526020016060815260200160006001600160a01b03168152602001606081525090565b6001600160a01b03821660009081526006602052604090819020815160e081019092528054829082906138f490615cc9565b80601f016020809104026020016040519081016040528092919081815260200182805461392090615cc9565b801561396d5780601f106139425761010080835404028352916020019161396d565b820191906000526020600020905b81548152906001019060200180831161395057829003601f168201915b505050505081526020016001820154815260200160028201805461399090615cc9565b80601f01602080910402602001604051908101604052809291908181526020018280546139bc90615cc9565b8015613a095780601f106139de57610100808354040283529160200191613a09565b820191906000526020600020905b8154815290600101906020018083116139ec57829003601f168201915b50505050508152602001600382018054613a2290615cc9565b80601f0160208091040260200160405190810160405280929190818152602001828054613a4e90615cc9565b8015613a9b5780601f10613a7057610100808354040283529160200191613a9b565b820191906000526020600020905b815481529060010190602001808311613a7e57829003601f168201915b50505050508152602001600482018054613ab490615cc9565b80601f0160208091040260200160405190810160405280929190818152602001828054613ae090615cc9565b8015613b2d5780601f10613b0257610100808354040283529160200191613b2d565b820191906000526020600020905b815481529060010190602001808311613b1057829003601f168201915b505050918352505060058201546001600160a01b03166020808301919091526006830180546040805182850281018501825282815294019392830182828015611c4f57602002820191906000526020600020905b81546001600160a01b03168152600190910190602001808311613b81575050505050815250509050919050565b60038181548110611fa557600080fd5b6000613bc982612435565b613bd557506000919050565b503360009081526006602081815260408320909101805460018082018355918452919092200180546001600160a01b0319166001600160a01b03939093169290921790915590565b6005546060906000906001600160401b03811115613c3d57613c3d61565d565b604051908082528060200260200182016040528015613c8a57816020015b60408051606080820183528082526020820152600091810191909152815260200190600190039081613c5b5790505b50905060005b6005548110156119a1576004600060058381548110613cb157613cb1615cfd565b60009182526020808320909101546001600160a01b031683528201929092526040908101909120815160608101909252805482908290613cf090615cc9565b80601f0160208091040260200160405190810160405280929190818152602001828054613d1c90615cc9565b8015613d695780601f10613d3e57610100808354040283529160200191613d69565b820191906000526020600020905b815481529060010190602001808311613d4c57829003601f168201915b50505050508152602001600182018054613d8290615cc9565b80601f0160208091040260200160405190810160405280929190818152602001828054613dae90615cc9565b8015613dfb5780601f10613dd057610100808354040283529160200191613dfb565b820191906000526020600020905b815481529060010190602001808311613dde57829003601f168201915b5050509183525050600291909101546001600160a01b03166020909101528251839083908110613e2d57613e2d615cfd565b60200260200101819052508080613e4390615d56565b915050613c90565b6003546060906000906001600160401b03811115613e6b57613e6b61565d565b604051908082528060200260200182016040528015613eab57816020015b604080516020810190915260608152815260200190600190039081613e895790505b50905060005b6003548110156119a1576002600060038381548110613ed257613ed2615cfd565b60009182526020808320909101546001600160a01b0316835282810193909352604091820190208151928301909152805482908290613f1090615cc9565b80601f0160208091040260200160405190810160405280929190818152602001828054613f3c90615cc9565b8015613f895780601f10613f5e57610100808354040283529160200191613f89565b820191906000526020600020905b815481529060010190602001808311613f6c57829003601f168201915b505050505081525050828281518110613fa457613fa4615cfd565b60200260200101819052508080613fba90615d56565b915050613eb1565b60606003805480602002602001604051908101604052809291908181526020018280548015612d59576020028201919060005260206000209081546001600160a01b03168152600190910190602001808311612d3b575050505050905090565b33600090815260208181526040909120825161404092840190614f8b565b5050565b60606000805b6009548110156140c257836001600160a01b0316600860006009848154811061407557614075615cfd565b600091825260208083209091015483528201929092526040019020600101546001600160a01b0316036140b057816140ac81615d56565b9250505b806140ba81615d56565b91505061404a565b506000816001600160401b038111156140dd576140dd61565d565b60405190808252806020026020018201604052801561411657816020015b61410361516d565b8152602001906001900390816140fb5790505b5090506000805b6009548110156144af57856001600160a01b0316600860006009848154811061414857614148615cfd565b600091825260208083209091015483528201929092526040019020600101546001600160a01b03160361449d5760405180604001604052806009838154811061419357614193615cfd565b9060005260206000200154815260200160086000600985815481106141ba576141ba615cfd565b600091825260208083209091015483528281019390935260409182019020815160e08101835281546001600160a01b0390811682526001830154168185015260028201805484518187028101870186528181529295939486019383018282801561424d57602002820191906000526020600020905b81546001600160a01b0316815260019091019060200180831161422f575b50505050508152602001600382018054806020026020016040519081016040528092919081815260200182805480156142af57602002820191906000526020600020905b81546001600160a01b03168152600190910190602001808311614291575b505050505081526020016004820180546142c890615cc9565b80601f01602080910402602001604051908101604052809291908181526020018280546142f490615cc9565b80156143415780601f1061431657610100808354040283529160200191614341565b820191906000526020600020905b81548152906001019060200180831161432457829003601f168201915b5050505050815260200160058201805461435a90615cc9565b80601f016020809104026020016040519081016040528092919081815260200182805461438690615cc9565b80156143d35780601f106143a8576101008083540402835291602001916143d3565b820191906000526020600020905b8154815290600101906020018083116143b657829003601f168201915b505050505081526020016006820180546143ec90615cc9565b80601f016020809104026020016040519081016040528092919081815260200182805461441890615cc9565b80156144655780601f1061443a57610100808354040283529160200191614465565b820191906000526020600020905b81548152906001019060200180831161444857829003601f168201915b50505050508152505081525083838151811061448357614483615cfd565b6020026020010181905250818061449990615d56565b9250505b806144a781615d56565b91505061411d565b5090949350505050565b6000828152600860209081526040808320815160e08101835281546001600160a01b0390811682526001830154168185015260028201805484518187028101870186528181529295939486019383018282801561453f57602002820191906000526020600020905b81546001600160a01b03168152600190910190602001808311614521575b50505050508152602001600382018054806020026020016040519081016040528092919081815260200182805480156145a157602002820191906000526020600020905b81546001600160a01b03168152600190910190602001808311614583575b505050505081526020016004820180546145ba90615cc9565b80601f01602080910402602001604051908101604052809291908181526020018280546145e690615cc9565b80156146335780601f1061460857610100808354040283529160200191614633565b820191906000526020600020905b81548152906001019060200180831161461657829003601f168201915b5050505050815260200160058201805461464c90615cc9565b80601f016020809104026020016040519081016040528092919081815260200182805461467890615cc9565b80156146c55780601f1061469a576101008083540402835291602001916146c5565b820191906000526020600020905b8154815290600101906020018083116146a857829003601f168201915b505050505081526020016006820180546146de90615cc9565b80601f016020809104026020016040519081016040528092919081815260200182805461470a90615cc9565b80156147575780601f1061472c57610100808354040283529160200191614757565b820191906000526020600020905b81548152906001019060200180831161473a57829003601f168201915b50505091909252505050604081015180519192508391612319615cfd565b33600090815260066020908152604091829020600501548251610100601f8d018490049093028101830190935260e083018b81526060936001600160a01b03909216928291908e908e908190850183828082843760009201919091525050509082525060208082018c905260408051601f8c0183900483028101830182528b8152920191908b908b9081908401838280828437600092019190915250505090825250604080516020601f8a0181900481028201810190925288815291810191908990899081908401838280828437600092019190915250505090825250604080516020601f88018190048102820181019092528681529181019190879087908190840183828082843760009201829052509385525050506001600160a01b0384166020808401919091526040928301869052338252600681529190208251805191926148c692849290910190614f8b565b506020828101516001830155604083015180516148e99260028501920190614f8b565b5060608201518051614905916003840191602090910190614f8b565b5060808201518051614921916004840191602090910190614f8b565b5060a08201516005820180546001600160a01b0319166001600160a01b0390921691909117905560c0820151805161496391600684019160209091019061500f565b5050505050505050505050505050565b60606001805480602002602001604051908101604052809291908181526020018280548015612d59576020028201919060005260206000209081546001600160a01b03168152600190910190602001808311612d3b575050505050905090565b6000818152600860209081526040808320815160e08101835281546001600160a01b0390811682526001830154168185015260028201805484518187028101870186528181528796939586019390929190830182828015614a5d57602002820191906000526020600020905b81546001600160a01b03168152600190910190602001808311614a3f575b5050505050815260200160038201805480602002602001604051908101604052809291908181526020018280548015614abf57602002820191906000526020600020905b81546001600160a01b03168152600190910190602001808311614aa1575b50505050508152602001600482018054614ad890615cc9565b80601f0160208091040260200160405190810160405280929190818152602001828054614b0490615cc9565b8015614b515780601f10614b2657610100808354040283529160200191614b51565b820191906000526020600020905b815481529060010190602001808311614b3457829003601f168201915b50505050508152602001600582018054614b6a90615cc9565b80601f0160208091040260200160405190810160405280929190818152602001828054614b9690615cc9565b8015614be35780601f10614bb857610100808354040283529160200191614be3565b820191906000526020600020905b815481529060010190602001808311614bc657829003601f168201915b50505050508152602001600682018054614bfc90615cc9565b80601f0160208091040260200160405190810160405280929190818152602001828054614c2890615cc9565b8015614c755780601f10614c4a57610100808354040283529160200191614c75565b820191906000526020600020905b815481529060010190602001808311614c5857829003601f168201915b505050505081525050905060005b816040015151811015612cc157336001600160a01b031682604001518281518110614cb057614cb0615cfd565b60200260200101516001600160a01b031603614cd0575060019392505050565b80614cda81615d56565b915050614c83565b6000614ced82612435565b15614cfa57506000614f21565b60606040518060e001604052808e8e8080601f01602080910402602001604051908101604052809392919081815260200183838082843760009201919091525050509082525060208082018e905260408051601f8e0183900483028101830182528d8152920191908d908d9081908401838280828437600092019190915250505090825250604080516020601f8c018190048102820181019092528a815291810191908b908b9081908401838280828437600092019190915250505090825250604080516020601f8a018190048102820181019092528881529181019190899089908190840183828082843760009201829052509385525050506001600160a01b038088166020808501919091526040938401869052908716825260068152919020825180519192614e3192849290910190614f8b565b50602082810151600183015560408301518051614e549260028501920190614f8b565b5060608201518051614e70916003840191602090910190614f8b565b5060808201518051614e8c916004840191602090910190614f8b565b5060a08201516005820180546001600160a01b0319166001600160a01b0390921691909117905560c08201518051614ece91600684019160209091019061500f565b505060078054600180820183556000929092527fa66cc928b5edb82af9bd49922954155ab7b0942694bea4ce44661d9a8736c6880180546001600160a01b0319166001600160a01b038716179055925050505b9b9a5050505050505050505050565b508054614f3c90615cc9565b6000825580601f10614f4c575050565b601f016020900490600052602060002090810190614f6a919061518c565b50565b5080546000825590600052602060002090810190614f6a919061518c565b828054614f9790615cc9565b90600052602060002090601f016020900481019282614fb95760008555614fff565b82601f10614fd257805160ff1916838001178555614fff565b82800160010185558215614fff579182015b82811115614fff578251825591602001919060010190614fe4565b5061500b92915061518c565b5090565b828054828255906000526020600020908101928215614fff579160200282015b82811115614fff57825182546001600160a01b0319166001600160a01b0390911617825560209092019160019091019061502f565b828054828255906000526020600020908101928215614fff5760005260206000209182015b82811115614fff578254825591600101919060010190615089565b8280546150b090615cc9565b90600052602060002090601f0160209004810192826150d25760008555614fff565b82601f106150e35780548555614fff565b82800160010185558215614fff57600052602060002091601f0160209004820182811115614fff578254825591600101919060010190615089565b6040518060e0016040528060006001600160a01b0316815260200160006001600160a01b0316815260200160608152602001606081526020016060815260200160608152602001606081525090565b60408051808201909152600081526020810161518761511e565b905290565b5b8082111561500b576000815560010161518d565b6000602082840312156151b357600080fd5b5035919050565b6000815180845260005b818110156151e0576020818501810151868301820152016151c4565b818111156151f2576000602083870101525b50601f01601f19169290920160200192915050565b6001600160a01b0386811682528516602082015260a060408201819052600090615233908301866151ba565b828103606084015261524581866151ba565b9050828103608084015261525981856151ba565b98975050505050505050565b80356001600160a01b038116811461527c57600080fd5b919050565b60006020828403121561529357600080fd5b61529c82615265565b9392505050565b6020808252825182820181905260009190848201906040850190845b818110156152e45783516001600160a01b0316835292840192918401916001016152bf565b50909695505050505050565b60008083601f84011261530257600080fd5b5081356001600160401b0381111561531957600080fd5b60208301915083602082850101111561533157600080fd5b9250929050565b60008060006040848603121561534d57600080fd5b83356001600160401b0381111561536357600080fd5b61536f868287016152f0565b9094509250615382905060208501615265565b90509250925092565b60c08152600061539e60c08301896151ba565b87602084015282810360408401526153b681886151ba565b905082810360608401526153ca81876151ba565b905082810360808401526153de81866151ba565b91505060018060a01b03831660a0830152979650505050505050565b60008060008060008060006080888a03121561541557600080fd5b8735965060208801356001600160401b038082111561543357600080fd5b61543f8b838c016152f0565b909850965060408a013591508082111561545857600080fd5b6154648b838c016152f0565b909650945060608a013591508082111561547d57600080fd5b5061548a8a828b016152f0565b989b979a50959850939692959293505050565b600080604083850312156154b057600080fd5b823591506154c060208401615265565b90509250929050565b6000602080830181845280855180835260408601915060408160051b870101925083870160005b8281101561551e57603f1988860301845261550c8583516151ba565b945092850192908501906001016154f0565b5092979650505050505050565b600081518084526020808501945080840160005b838110156155645781516001600160a01b03168752958201959082019060010161553f565b509495945050505050565b600060018060a01b0380835116845280602084015116602085015250604082015160e060408501526155a460e085018261552b565b9050606083015184820360608601526155bd828261552b565b915050608083015184820360808601526155d782826151ba565b91505060a083015184820360a08601526155f182826151ba565b91505060c083015184820360c086015261560b82826151ba565b95945050505050565b60208152600061529c602083018461556f565b602081526000825160208084015261564260408401826151ba565b949350505050565b60208152600061529c60208301846151ba565b634e487b7160e01b600052604160045260246000fd5b600082601f83011261568457600080fd5b81356001600160401b038082111561569e5761569e61565d565b604051601f8301601f19908116603f011681019082821181831017156156c6576156c661565d565b816040528381528660208588010111156156df57600080fd5b836020870160208301376000602085830101528094505050505092915050565b6000806040838503121561571257600080fd5b61571b83615265565b915060208301356001600160401b0381111561573657600080fd5b61574285828601615673565b9150509250929050565b60008060008060006060868803121561576457600080fd5b85356001600160401b038082111561577b57600080fd5b61578789838a016152f0565b909750955060208801359150808211156157a057600080fd5b506157ad888289016152f0565b90945092506157c0905060408701615265565b90509295509295909350565b60008151606084526157e160608501826151ba565b9050602083015184820360208601526157fa82826151ba565b6040948501516001600160a01b03169590940194909452509092915050565b60208152600061529c60208301846157cc565b60008060008060008060006080888a03121561584757600080fd5b61585088615265565b965060208801356001600160401b038082111561543357600080fd5b6000602080830181845280855180835260408601915060408160051b870101925083870160005b8281101561551e57603f198886030184526158af85835161556f565b94509285019290850190600101615893565b6060815260006158d460608301866151ba565b82810360208401526158e681866151ba565b91505060018060a01b0383166040830152949350505050565b602081526000825160e0602084015261591c6101008401826151ba565b9050602084015160408401526040840151601f198085840301606086015261594483836151ba565b9250606086015191508085840301608086015261596183836151ba565b925060808601519150808584030160a086015261597e83836151ba565b60a08701516001600160a01b031660c08781019190915287015186820390920160e08701529250905061560b828261552b565b6000602080830181845280855180835260408601915060408160051b870101925083870160005b8281101561551e57603f198886030184526159f48583516157cc565b945092850192908501906001016159d8565b6000602080830181845280855180835260408601915060408160051b870101925083870160005b8281101561551e57878503603f19018452815151868652615a50878701826151ba565b9550509285019290850190600101615a2d565b600060208284031215615a7557600080fd5b81356001600160401b03811115615a8b57600080fd5b61564284828501615673565b60006020808301818452808551808352604092508286019150828160051b87010184880160005b83811015615afd57888303603f19018552815180518452870151878401879052615aea8785018261556f565b9588019593505090860190600101615abe565b509098975050505050505050565b600080600080600080600080600060a08a8c031215615b2957600080fd5b89356001600160401b0380821115615b4057600080fd5b615b4c8d838e016152f0565b909b50995060208c0135985060408c0135915080821115615b6c57600080fd5b615b788d838e016152f0565b909850965060608c0135915080821115615b9157600080fd5b615b9d8d838e016152f0565b909650945060808c0135915080821115615bb657600080fd5b50615bc38c828d016152f0565b915080935050809150509295985092959850929598565b600080600080600080600080600080600060e08c8e031215615bfb57600080fd5b6001600160401b03808d351115615c1157600080fd5b615c1e8e8e358f016152f0565b909c509a5060208d0135995060408d0135811015615c3b57600080fd5b615c4b8e60408f01358f016152f0565b909950975060608d0135811015615c6157600080fd5b615c718e60608f01358f016152f0565b909750955060808d0135811015615c8757600080fd5b50615c988d60808e01358e016152f0565b9094509250615ca960a08d01615265565b9150615cb760c08d01615265565b90509295989b509295989b9093969950565b600181811c90821680615cdd57607f821691505b6020821081036119a157634e487b7160e01b600052602260045260246000fd5b634e487b7160e01b600052603260045260246000fd5b634e487b7160e01b600052601160045260246000fd5b600082821015615d3b57615d3b615d13565b500390565b634e487b7160e01b600052603160045260246000fd5b600060018201615d6857615d68615d13565b5060010190565b60006bffffffffffffffffffffffff19808b60601b168352808a60601b1660148401525086886028840137868201602881016000815286888237508581019050602881016000815284868237506000930160280192835250909897505050505050505056fea2646970667358221220e33b5c1ac40b140975c248ddc2c78e7a285891081d7a94f808260776a91d591264736f6c634300080d0033",
  "immutableReferences": {},
  "source": "// SPDX-License-Identifier: MIT\r\npragma solidity >=0.4.22 <0.9.0;\r\n\r\ncontract Medivault {\r\n    // function to check if an address is an admin or patient or doctor or super admin\r\n\r\n    // structure of super admin\r\n    struct SuperAdmin {\r\n        string name;\r\n    }\r\n    mapping(address => SuperAdmin) public superAdmins;\r\n    address[] public superAdminAddresses;\r\n\r\n    constructor() {\r\n        superAdminAddresses.push(msg.sender);\r\n        superAdmins[msg.sender] = SuperAdmin({name: \"Super admin\"});\r\n    }\r\n\r\n    function checkSuperAdmin(address pubkey) public view returns (bool) {\r\n        return bytes(superAdmins[pubkey].name).length > 0;\r\n    }\r\n\r\n    function editSuperAdmin(string memory name) public {\r\n        superAdmins[msg.sender].name = name;\r\n    }\r\n\r\n    function addSuperAdmin(address _address, string memory _name) public {\r\n        superAdmins[_address] = SuperAdmin(_name);\r\n        superAdminAddresses.push(_address);\r\n    }\r\n\r\n    function getAllSuperAdmins() public view returns (address[] memory) {\r\n        return superAdminAddresses;\r\n    }\r\n\r\n    function fetchNames() public view returns (string[] memory) {\r\n        string[] memory names = new string[](superAdminAddresses.length);\r\n        for (uint256 i = 0; i < superAdminAddresses.length; i++) {\r\n            names[i] = superAdmins[superAdminAddresses[i]].name;\r\n        }\r\n        return names;\r\n    }\r\n\r\n    function fetchSuperadmin(address _address)\r\n        public\r\n        view\r\n        returns (SuperAdmin memory)\r\n    {\r\n        require(checkSuperAdmin(msg.sender), \"Sender is not a super admin\");\r\n        return superAdmins[_address];\r\n    }\r\n\r\n    function addAdmin(string calldata institution_name, address _address)\r\n        public\r\n    {\r\n        adminAddresses.push(_address);\r\n        admins[_address] = Admin({institution_name: institution_name});\r\n    }\r\n\r\n    function fetchAdminsAddresses() public view returns (address[] memory) {\r\n        return adminAddresses;\r\n    }\r\n\r\n    function fetchAdmins() public view returns (Admin[] memory) {\r\n        Admin[] memory _admins = new Admin[](adminAddresses.length);\r\n        for (uint256 i = 0; i < adminAddresses.length; i++) {\r\n            _admins[i] = admins[adminAddresses[i]];\r\n        }\r\n        return _admins;\r\n    }\r\n\r\n    function deleteAdmin(address _address) public returns (bool) {\r\n        delete admins[_address];\r\n        // search for the _address in the adminAddresses array and delete it\r\n        for (uint256 i = 0; i < adminAddresses.length; i++) {\r\n            if (adminAddresses[i] == _address) {\r\n                adminAddresses[i] = adminAddresses[adminAddresses.length - 1];\r\n                adminAddresses.pop(); // remove the last element\r\n                return true; // exit the function after successful deletion\r\n            }\r\n        }\r\n        return false; // return false if admin doesn't exist or sender is not a super admin\r\n    }\r\n\r\n    // -----------------------------------------------------------------------------------------\r\n\r\n    // Admin structure\r\n    struct Admin {\r\n        string institution_name;\r\n    }\r\n    mapping(address => Admin) public admins;\r\n    address[] public adminAddresses;\r\n\r\n    // admin functions\r\n    // function to check if an address is an admin\r\n    function checkAdmin(address pubkey) public view returns (bool) {\r\n        return bytes(admins[pubkey].institution_name).length > 0;\r\n    }\r\n\r\n    function fetchAdmin(address pubkey) public view returns (Admin memory) {\r\n        return admins[pubkey];\r\n    }\r\n\r\n    function editAdmin(address pubkey, string memory institution_name)\r\n        public\r\n        returns (bool)\r\n    {\r\n        admins[pubkey].institution_name = institution_name;\r\n        return true;\r\n    }\r\n\r\n    function addDoctor(\r\n        string calldata name,\r\n        string calldata specialization,\r\n        address pubkey\r\n    ) public returns (bool) {\r\n        doctors[pubkey] = Doctor({\r\n            name: name,\r\n            specialization: specialization,\r\n            institution: msg.sender\r\n        });\r\n        doctorAddresses.push(pubkey);\r\n        return true;\r\n    }\r\n\r\n    function deleteDoctor(address pubkey) public returns (bool) {\r\n        // delete the address in the doctorAddresses array\r\n        for (uint256 i = 0; i < doctorAddresses.length; i++) {\r\n            if (doctorAddresses[i] == pubkey) {\r\n                doctorAddresses[i] = doctorAddresses[\r\n                    doctorAddresses.length - 1\r\n                ];\r\n                doctorAddresses.pop();\r\n                break;\r\n            }\r\n        }\r\n        // delete main doctor structure\r\n        delete doctors[pubkey];\r\n        return true;\r\n    }\r\n\r\n    function fetchDoctors() public view returns (Doctor[] memory) {\r\n        Doctor[] memory _doctors = new Doctor[](doctorAddresses.length);\r\n        for (uint256 i = 0; i < doctorAddresses.length; i++) {\r\n            _doctors[i] = doctors[doctorAddresses[i]];\r\n        }\r\n        return _doctors;\r\n    }\r\n\r\n    function fetchDoctorAddresses() public view returns (address[] memory) {\r\n        return doctorAddresses;\r\n    }\r\n\r\n    // -----------------------------------------------------------------------------------------\r\n\r\n    // doctor structure\r\n    struct Doctor {\r\n        string name;\r\n        string specialization;\r\n        // string contact;\r\n        address institution;\r\n    }\r\n    mapping(address => Doctor) public doctors;\r\n    address[] public doctorAddresses;\r\n\r\n    // doctor functions\r\n    // function to check if an address is a doctor\r\n    function checkDoctor(address pubkey) public view returns (bool) {\r\n        return bytes(doctors[pubkey].name).length > 0;\r\n    }\r\n\r\n    function fetchDoctor(address pubkey) public view returns (Doctor memory) {\r\n        return doctors[pubkey];\r\n    }\r\n\r\n    function addPatient(\r\n        string calldata name,\r\n        uint256 age,\r\n        string calldata gender,\r\n        string calldata addr,\r\n        string calldata contact,\r\n        address institution,\r\n        address pubkey\r\n    ) public returns (bool) {\r\n        // check if a patient with the pubkey already exists\r\n        if (checkPatient(pubkey)) {\r\n            return false;\r\n        }\r\n        address[] memory nominees;\r\n        patients[pubkey] = Patient({\r\n            name: name,\r\n            age: age,\r\n            gender: gender,\r\n            addr: addr,\r\n            contact: contact,\r\n            institution: institution,\r\n            nominees: nominees\r\n        });\r\n        patientAddresses.push(pubkey);\r\n        return true;\r\n    }\r\n\r\n    // function to delete a patient\r\n    function deletePatient(address pubkey) public returns (bool) {\r\n        // delete the address in the patientAddresses array\r\n        // check if the address exists in the patientAddresses array\r\n        if (!checkAdmin(pubkey)) {\r\n            return false;\r\n        }\r\n        for (uint256 i = 0; i < patientAddresses.length; i++) {\r\n            if (patientAddresses[i] == pubkey) {\r\n                patientAddresses[i] = patientAddresses[\r\n                    patientAddresses.length - 1\r\n                ];\r\n                patientAddresses.pop();\r\n                break;\r\n            }\r\n        }\r\n        // delete main patient structure\r\n        delete patients[pubkey];\r\n        return true;\r\n    }\r\n\r\n    // function to create a record\r\n    function createRecord(\r\n        address patient,\r\n        string calldata record_title,\r\n        string calldata record_desc,\r\n        string calldata record_data\r\n    ) public returns (bool) {\r\n        bytes32 record_hash = keccak256(\r\n            abi.encodePacked(\r\n                msg.sender,\r\n                patient,\r\n                record_title,\r\n                record_desc,\r\n                record_data\r\n            )\r\n        );\r\n        address[] memory read_allowed_doctors = new address[](1);\r\n        address[] memory write_allowed_doctors = new address[](1);\r\n\r\n        read_allowed_doctors[0] = msg.sender;\r\n\r\n        write_allowed_doctors[0] = msg.sender;\r\n\r\n        records[record_hash] = Record({\r\n            doctor: msg.sender,\r\n            patient: patient,\r\n            read_allowed_doctors: read_allowed_doctors,\r\n            write_allowed_doctors: write_allowed_doctors,\r\n            record_title: record_title,\r\n            record_desc: record_desc,\r\n            record_data: record_data\r\n        });\r\n        recordHashes.push(record_hash);\r\n        return true;\r\n    }\r\n\r\n    // function to fetch a record\r\n    function getRecord(bytes32 record_hash)\r\n        public\r\n        view\r\n        returns (Record memory)\r\n    {\r\n        // check if the record exists\r\n        return records[record_hash];\r\n    }\r\n\r\n    // function to check if the doctor has read access\r\n    function checkReadAccess(bytes32 record_hash) public view returns (bool) {\r\n        Record memory record = records[record_hash];\r\n        for (uint256 i = 0; i < record.read_allowed_doctors.length; i++) {\r\n            if (record.read_allowed_doctors[i] == msg.sender) {\r\n                return true;\r\n            }\r\n        }\r\n        return false;\r\n    }\r\n\r\n    //function to check if the doctor has write access\r\n    function checkWriteAccess(bytes32 record_hash) public view returns (bool) {\r\n        Record memory record = records[record_hash];\r\n        for (uint256 i = 0; i < record.write_allowed_doctors.length; i++) {\r\n            if (record.write_allowed_doctors[i] == msg.sender) {\r\n                return true;\r\n            }\r\n        }\r\n        return false;\r\n    }\r\n\r\n    // function to edit record data by doctor\r\n    function editRecord(\r\n        bytes32 record_hash,\r\n        string calldata record_title,\r\n        string calldata record_desc,\r\n        string calldata record_data\r\n    ) public returns (bool) {\r\n        Record memory record = records[record_hash];\r\n        if (checkDoctor(record.doctor) == false) {\r\n            return false;\r\n        }\r\n        record.record_title = record_title;\r\n        record.record_desc = record_desc;\r\n        record.record_data = record_data;\r\n        records[record_hash] = record;\r\n        return true;\r\n    }\r\n\r\n    // -----------------------------------------------------------------------------------------\r\n\r\n    // patient structure\r\n    struct Patient {\r\n        string name;\r\n        uint256 age;\r\n        string gender;\r\n        string addr;\r\n        string contact;\r\n        address institution;\r\n        address[] nominees;\r\n    }\r\n    mapping(address => Patient) public patients;\r\n    address[] public patientAddresses;\r\n\r\n    // patient functions\r\n    // function to check if an address is a patient\r\n    function checkPatient(address pubkey) public view returns (bool) {\r\n        return bytes(patients[pubkey].name).length > 0;\r\n    }\r\n\r\n    //function to fetch a patient by address\r\n    function getPatient(address pubkey) public view returns (Patient memory) {\r\n        return patients[pubkey];\r\n    }\r\n\r\n    function editPatient(\r\n        string calldata name,\r\n        uint256 age,\r\n        string calldata gender,\r\n        string calldata addr,\r\n        string calldata contact\r\n    ) public {\r\n        address[] memory nominees;\r\n        address institution = patients[msg.sender].institution;\r\n        patients[msg.sender] = Patient({\r\n            name: name,\r\n            age: age,\r\n            gender: gender,\r\n            addr: addr,\r\n            contact: contact,\r\n            institution: institution,\r\n            nominees: nominees\r\n        });\r\n    }\r\n\r\n    // function to fetch all records\r\n    function getAllRecords() public view returns (Record[] memory) {\r\n        Record[] memory _records = new Record[](recordHashes.length);\r\n        for (uint256 i = 0; i < recordHashes.length; i++) {\r\n            _records[i] = records[recordHashes[i]];\r\n        }\r\n        return _records;\r\n    }\r\n\r\n    // function to fetch all records of a particular patient\r\n    struct RecordWithHash {\r\n        bytes32 recordHash;\r\n        Record recordData;\r\n    }\r\n\r\n    function getAllRecordsOfPatient(address patient)\r\n        public\r\n        view\r\n        returns (RecordWithHash[] memory)\r\n    {\r\n        uint256 count = 0;\r\n        for (uint256 i = 0; i < recordHashes.length; i++) {\r\n            if (records[recordHashes[i]].patient == patient) {\r\n                count++;\r\n            }\r\n        }\r\n\r\n        RecordWithHash[] memory _records = new RecordWithHash[](count);\r\n        uint256 index = 0;\r\n        for (uint256 i = 0; i < recordHashes.length; i++) {\r\n            if (records[recordHashes[i]].patient == patient) {\r\n                _records[index] = RecordWithHash({\r\n                    recordHash: recordHashes[i],\r\n                    recordData: records[recordHashes[i]]\r\n                });\r\n                index++;\r\n            }\r\n        }\r\n\r\n        return _records;\r\n    }\r\n\r\n    //function to fetch all the  read access members\r\n    function getReadAccessMembers(bytes32 record_hash)\r\n        public\r\n        view\r\n        returns (address[] memory)\r\n    {\r\n        Record memory record = records[record_hash];\r\n        return record.read_allowed_doctors;\r\n    }\r\n\r\n    //function to fetch all the  write access members\r\n    function getWriteAccessMembers(bytes32 record_hash)\r\n        public\r\n        view\r\n        returns (address[] memory)\r\n    {\r\n        Record memory record = records[record_hash];\r\n        return record.write_allowed_doctors;\r\n    }\r\n\r\n    //function to add member to read access of the record\r\n    function addMemberToReadAccess(bytes32 record_hash, address member) public {\r\n        Record memory record = records[record_hash];\r\n        record.read_allowed_doctors[\r\n            record.read_allowed_doctors.length\r\n        ] = member;\r\n        records[record_hash] = record;\r\n    }\r\n\r\n    //function to add member to write access of the record\r\n    function addMemberToWriteAccess(bytes32 record_hash, address member)\r\n        public\r\n    {\r\n        Record memory record = records[record_hash];\r\n        record.write_allowed_doctors[\r\n            record.write_allowed_doctors.length\r\n        ] = member;\r\n        records[record_hash] = record;\r\n    }\r\n\r\n    // function to revoke read access of the record\r\n    function revokeReadAccess(bytes32 record_hash, address member) public {\r\n        Record storage record = records[record_hash];\r\n        for (uint256 i = 0; i < record.read_allowed_doctors.length; i++) {\r\n            if (record.read_allowed_doctors[i] == member) {\r\n                record.read_allowed_doctors[i] = record.read_allowed_doctors[\r\n                    record.read_allowed_doctors.length - 1\r\n                ];\r\n                record.read_allowed_doctors.pop();\r\n                break;\r\n            }\r\n        }\r\n        records[record_hash] = record;\r\n    }\r\n\r\n    // function to revoke write access of the record with bool returns\r\n    function revokeWriteAccess(bytes32 record_hash, address member)\r\n        public\r\n        returns (bool)\r\n    {\r\n        // check if the record exists or not\r\n        if (!checkRecord(record_hash)) {\r\n            return false;\r\n        }\r\n        // check if the address if of patient's or not\r\n        if (!checkPatient(member)) {\r\n            return false;\r\n        }\r\n        Record storage record = records[record_hash];\r\n        for (uint256 i = 0; i < record.write_allowed_doctors.length; i++) {\r\n            if (record.write_allowed_doctors[i] == member) {\r\n                record.write_allowed_doctors[i] = record.write_allowed_doctors[\r\n                    record.write_allowed_doctors.length - 1\r\n                ];\r\n                record.write_allowed_doctors.pop();\r\n                break;\r\n            }\r\n        }\r\n        records[record_hash] = record;\r\n        return true;\r\n    }\r\n\r\n    // function to add a nominee to a patient and returns a boolean\r\n    function addNominee(address nominee) public returns (bool) {\r\n        // check if the nominee is a patient\r\n        if (!checkPatient(nominee)) {\r\n            return false;\r\n        }\r\n        patients[msg.sender].nominees.push(nominee);\r\n        return true;\r\n    }\r\n\r\n    // function addNominee(address nominee) public {\r\n    //     patients[msg.sender].nominees[\r\n    //         patients[msg.sender].nominees.length\r\n    //     ] = nominee;\r\n    // }\r\n\r\n    //function to fetch a patient's nominees\r\n    function getNominees(address pubkey)\r\n        public\r\n        view\r\n        returns (address[] memory)\r\n    {\r\n        return patients[pubkey].nominees;\r\n    }\r\n\r\n    struct Record {\r\n        address doctor;\r\n        address patient;\r\n        address[] read_allowed_doctors;\r\n        address[] write_allowed_doctors;\r\n        string record_title;\r\n        string record_desc;\r\n        string record_data;\r\n    }\r\n    mapping(bytes32 => Record) public records;\r\n    bytes32[] public recordHashes;\r\n\r\n    // patient record functions\r\n    // function to check if a record exists or not\r\n    function checkRecord(bytes32 record_hash) public view returns (bool) {\r\n        return bytes(records[record_hash].record_title).length > 0;\r\n    }\r\n\r\n    function addReadAllowedDoctor(bytes32 record_hash, address doctor) public {\r\n        records[record_hash].read_allowed_doctors.push(doctor);\r\n    }\r\n\r\n    function addWriteAllowedDoctor(bytes32 record_hash, address doctor) public {\r\n        records[record_hash].write_allowed_doctors.push(doctor);\r\n    }\r\n}\r\n",
  "sourcePath": "C:\\Users\\midhu\\OneDrive\\Documents\\GitHub\\Final-Year-Project-\\myapp\\contracts\\Medivault.sol",
  "compiler": {
    "name": "solc",
    "version": "0.8.13+commit.abaa5c0e.Emscripten.clang"
  },
  "schemaVersion": "3.4.16",
  "updatedAt": "2024-04-14T15:28:29.456Z",
  "networkType": "ethereum",
  "devdoc": {
    "kind": "dev",
    "methods": {},
    "version": 1
  },
  "userdoc": {
    "kind": "user",
    "methods": {},
    "version": 1
  }
}